{
  "_format": "hh-sol-artifact-1",
  "contractName": "TicketFactory",
  "sourceName": "contracts/TicketFactory.sol",
  "abi": [
    {
      "inputs": [
        {
          "internalType": "address",
          "name": "nft",
          "type": "address"
        }
      ],
      "stateMutability": "nonpayable",
      "type": "constructor"
    },
    {
      "inputs": [],
      "name": "EventInactive",
      "type": "error"
    },
    {
      "inputs": [],
      "name": "EventNotLive",
      "type": "error"
    },
    {
      "inputs": [],
      "name": "IncorrectPayment",
      "type": "error"
    },
    {
      "inputs": [],
      "name": "InvalidEvent",
      "type": "error"
    },
    {
      "inputs": [],
      "name": "InvalidInput",
      "type": "error"
    },
    {
      "inputs": [],
      "name": "InvalidTicketType",
      "type": "error"
    },
    {
      "inputs": [],
      "name": "NotOrganizer",
      "type": "error"
    },
    {
      "inputs": [],
      "name": "NothingToWithdraw",
      "type": "error"
    },
    {
      "inputs": [
        {
          "internalType": "address",
          "name": "owner",
          "type": "address"
        }
      ],
      "name": "OwnableInvalidOwner",
      "type": "error"
    },
    {
      "inputs": [
        {
          "internalType": "address",
          "name": "account",
          "type": "address"
        }
      ],
      "name": "OwnableUnauthorizedAccount",
      "type": "error"
    },
    {
      "inputs": [],
      "name": "ReentrancyGuardReentrantCall",
      "type": "error"
    },
    {
      "inputs": [],
      "name": "SoldOut",
      "type": "error"
    },
    {
      "inputs": [],
      "name": "Unauthorized",
      "type": "error"
    },
    {
      "inputs": [],
      "name": "WithdrawalFailed",
      "type": "error"
    },
    {
      "anonymous": false,
      "inputs": [
        {
          "indexed": true,
          "internalType": "uint256",
          "name": "eventId",
          "type": "uint256"
        },
        {
          "indexed": true,
          "internalType": "address",
          "name": "organizer",
          "type": "address"
        },
        {
          "indexed": false,
          "internalType": "string",
          "name": "name",
          "type": "string"
        },
        {
          "indexed": false,
          "internalType": "uint256",
          "name": "startTime",
          "type": "uint256"
        },
        {
          "indexed": false,
          "internalType": "uint256",
          "name": "endTime",
          "type": "uint256"
        },
        {
          "indexed": false,
          "internalType": "uint256",
          "name": "totalSupply",
          "type": "uint256"
        },
        {
          "indexed": false,
          "internalType": "uint96",
          "name": "royaltyBps",
          "type": "uint96"
        }
      ],
      "name": "EventCreated",
      "type": "event"
    },
    {
      "anonymous": false,
      "inputs": [
        {
          "indexed": true,
          "internalType": "uint256",
          "name": "eventId",
          "type": "uint256"
        },
        {
          "indexed": false,
          "internalType": "bool",
          "name": "active",
          "type": "bool"
        }
      ],
      "name": "EventStatusToggled",
      "type": "event"
    },
    {
      "anonymous": false,
      "inputs": [
        {
          "indexed": true,
          "internalType": "uint256",
          "name": "eventId",
          "type": "uint256"
        },
        {
          "indexed": true,
          "internalType": "address",
          "name": "organizer",
          "type": "address"
        },
        {
          "indexed": false,
          "internalType": "uint256",
          "name": "amount",
          "type": "uint256"
        },
        {
          "indexed": false,
          "internalType": "address",
          "name": "to",
          "type": "address"
        }
      ],
      "name": "FundsWithdrawn",
      "type": "event"
    },
    {
      "anonymous": false,
      "inputs": [
        {
          "indexed": true,
          "internalType": "address",
          "name": "nft",
          "type": "address"
        }
      ],
      "name": "NFTContractUpdated",
      "type": "event"
    },
    {
      "anonymous": false,
      "inputs": [
        {
          "indexed": true,
          "internalType": "address",
          "name": "previousOwner",
          "type": "address"
        },
        {
          "indexed": true,
          "internalType": "address",
          "name": "newOwner",
          "type": "address"
        }
      ],
      "name": "OwnershipTransferred",
      "type": "event"
    },
    {
      "anonymous": false,
      "inputs": [
        {
          "indexed": true,
          "internalType": "uint256",
          "name": "eventId",
          "type": "uint256"
        },
        {
          "indexed": true,
          "internalType": "uint256",
          "name": "ticketTypeId",
          "type": "uint256"
        },
        {
          "indexed": true,
          "internalType": "uint256",
          "name": "tokenId",
          "type": "uint256"
        },
        {
          "indexed": false,
          "internalType": "address",
          "name": "buyer",
          "type": "address"
        },
        {
          "indexed": false,
          "internalType": "uint256",
          "name": "price",
          "type": "uint256"
        }
      ],
      "name": "TicketPurchased",
      "type": "event"
    },
    {
      "anonymous": false,
      "inputs": [
        {
          "indexed": true,
          "internalType": "uint256",
          "name": "eventId",
          "type": "uint256"
        },
        {
          "indexed": true,
          "internalType": "uint256",
          "name": "ticketTypeId",
          "type": "uint256"
        },
        {
          "indexed": false,
          "internalType": "string",
          "name": "name",
          "type": "string"
        },
        {
          "indexed": false,
          "internalType": "uint256",
          "name": "price",
          "type": "uint256"
        },
        {
          "indexed": false,
          "internalType": "uint256",
          "name": "supply",
          "type": "uint256"
        }
      ],
      "name": "TicketTypeAdded",
      "type": "event"
    },
    {
      "stateMutability": "payable",
      "type": "fallback"
    },
    {
      "inputs": [
        {
          "internalType": "uint256",
          "name": "eventId",
          "type": "uint256"
        },
        {
          "internalType": "string",
          "name": "name_",
          "type": "string"
        },
        {
          "internalType": "uint256",
          "name": "price_",
          "type": "uint256"
        },
        {
          "internalType": "uint256",
          "name": "supply_",
          "type": "uint256"
        },
        {
          "internalType": "string",
          "name": "imageIpfsHash_",
          "type": "string"
        }
      ],
      "name": "addTicketType",
      "outputs": [
        {
          "internalType": "uint256",
          "name": "ticketTypeId",
          "type": "uint256"
        }
      ],
      "stateMutability": "nonpayable",
      "type": "function"
    },
    {
      "inputs": [
        {
          "internalType": "string",
          "name": "name_",
          "type": "string"
        },
        {
          "internalType": "string",
          "name": "description_",
          "type": "string"
        },
        {
          "internalType": "uint256",
          "name": "startTime_",
          "type": "uint256"
        },
        {
          "internalType": "uint256",
          "name": "endTime_",
          "type": "uint256"
        },
        {
          "internalType": "string",
          "name": "venue_",
          "type": "string"
        },
        {
          "internalType": "string",
          "name": "imageIpfsHash_",
          "type": "string"
        },
        {
          "internalType": "uint256",
          "name": "totalSupply_",
          "type": "uint256"
        },
        {
          "internalType": "uint96",
          "name": "royaltyBps_",
          "type": "uint96"
        },
        {
          "components": [
            {
              "internalType": "string",
              "name": "name",
              "type": "string"
            },
            {
              "internalType": "uint256",
              "name": "price",
              "type": "uint256"
            },
            {
              "internalType": "uint256",
              "name": "supply",
              "type": "uint256"
            },
            {
              "internalType": "string",
              "name": "imageIpfsHash",
              "type": "string"
            }
          ],
          "internalType": "struct TicketFactory.TicketTypeInput[]",
          "name": "initialTicketTypes_",
          "type": "tuple[]"
        }
      ],
      "name": "createEvent",
      "outputs": [
        {
          "internalType": "uint256",
          "name": "eventId",
          "type": "uint256"
        }
      ],
      "stateMutability": "nonpayable",
      "type": "function"
    },
    {
      "inputs": [],
      "name": "eventCounter",
      "outputs": [
        {
          "internalType": "uint256",
          "name": "",
          "type": "uint256"
        }
      ],
      "stateMutability": "view",
      "type": "function"
    },
    {
      "inputs": [
        {
          "internalType": "uint256",
          "name": "",
          "type": "uint256"
        }
      ],
      "name": "eventProceedsNative",
      "outputs": [
        {
          "internalType": "uint256",
          "name": "",
          "type": "uint256"
        }
      ],
      "stateMutability": "view",
      "type": "function"
    },
    {
      "inputs": [
        {
          "internalType": "uint256",
          "name": "",
          "type": "uint256"
        }
      ],
      "name": "events",
      "outputs": [
        {
          "internalType": "uint256",
          "name": "eventId",
          "type": "uint256"
        },
        {
          "internalType": "address",
          "name": "organizer",
          "type": "address"
        },
        {
          "internalType": "string",
          "name": "name",
          "type": "string"
        },
        {
          "internalType": "string",
          "name": "description",
          "type": "string"
        },
        {
          "internalType": "uint256",
          "name": "startTime",
          "type": "uint256"
        },
        {
          "internalType": "uint256",
          "name": "endTime",
          "type": "uint256"
        },
        {
          "internalType": "string",
          "name": "venue",
          "type": "string"
        },
        {
          "internalType": "string",
          "name": "imageIpfsHash",
          "type": "string"
        },
        {
          "internalType": "uint256",
          "name": "totalSupply",
          "type": "uint256"
        },
        {
          "internalType": "uint256",
          "name": "sold",
          "type": "uint256"
        },
        {
          "internalType": "bool",
          "name": "active",
          "type": "bool"
        },
        {
          "internalType": "uint96",
          "name": "royaltyBps",
          "type": "uint96"
        }
      ],
      "stateMutability": "view",
      "type": "function"
    },
    {
      "inputs": [
        {
          "internalType": "uint256",
          "name": "eventId",
          "type": "uint256"
        }
      ],
      "name": "getEvent",
      "outputs": [
        {
          "components": [
            {
              "internalType": "uint256",
              "name": "eventId",
              "type": "uint256"
            },
            {
              "internalType": "address",
              "name": "organizer",
              "type": "address"
            },
            {
              "internalType": "string",
              "name": "name",
              "type": "string"
            },
            {
              "internalType": "string",
              "name": "description",
              "type": "string"
            },
            {
              "internalType": "uint256",
              "name": "startTime",
              "type": "uint256"
            },
            {
              "internalType": "uint256",
              "name": "endTime",
              "type": "uint256"
            },
            {
              "internalType": "string",
              "name": "venue",
              "type": "string"
            },
            {
              "internalType": "string",
              "name": "imageIpfsHash",
              "type": "string"
            },
            {
              "internalType": "uint256",
              "name": "totalSupply",
              "type": "uint256"
            },
            {
              "internalType": "uint256",
              "name": "sold",
              "type": "uint256"
            },
            {
              "internalType": "bool",
              "name": "active",
              "type": "bool"
            },
            {
              "internalType": "uint96",
              "name": "royaltyBps",
              "type": "uint96"
            }
          ],
          "internalType": "struct TicketFactory.EventData",
          "name": "",
          "type": "tuple"
        }
      ],
      "stateMutability": "view",
      "type": "function"
    },
    {
      "inputs": [
        {
          "internalType": "uint256[]",
          "name": "eventIds",
          "type": "uint256[]"
        }
      ],
      "name": "getEventsBatch",
      "outputs": [
        {
          "components": [
            {
              "internalType": "uint256",
              "name": "eventId",
              "type": "uint256"
            },
            {
              "internalType": "address",
              "name": "organizer",
              "type": "address"
            },
            {
              "internalType": "string",
              "name": "name",
              "type": "string"
            },
            {
              "internalType": "string",
              "name": "description",
              "type": "string"
            },
            {
              "internalType": "uint256",
              "name": "startTime",
              "type": "uint256"
            },
            {
              "internalType": "uint256",
              "name": "endTime",
              "type": "uint256"
            },
            {
              "internalType": "string",
              "name": "venue",
              "type": "string"
            },
            {
              "internalType": "string",
              "name": "imageIpfsHash",
              "type": "string"
            },
            {
              "internalType": "uint256",
              "name": "totalSupply",
              "type": "uint256"
            },
            {
              "internalType": "uint256",
              "name": "sold",
              "type": "uint256"
            },
            {
              "internalType": "bool",
              "name": "active",
              "type": "bool"
            },
            {
              "internalType": "uint96",
              "name": "royaltyBps",
              "type": "uint96"
            }
          ],
          "internalType": "struct TicketFactory.EventData[]",
          "name": "eventsData",
          "type": "tuple[]"
        },
        {
          "internalType": "bool[]",
          "name": "validFlags",
          "type": "bool[]"
        }
      ],
      "stateMutability": "view",
      "type": "function"
    },
    {
      "inputs": [
        {
          "internalType": "address",
          "name": "organizer",
          "type": "address"
        }
      ],
      "name": "getOrganizerEvents",
      "outputs": [
        {
          "internalType": "uint256[]",
          "name": "",
          "type": "uint256[]"
        }
      ],
      "stateMutability": "view",
      "type": "function"
    },
    {
      "inputs": [
        {
          "internalType": "uint256",
          "name": "eventId",
          "type": "uint256"
        }
      ],
      "name": "getTicketTypes",
      "outputs": [
        {
          "components": [
            {
              "internalType": "uint256",
              "name": "eventId",
              "type": "uint256"
            },
            {
              "internalType": "string",
              "name": "name",
              "type": "string"
            },
            {
              "internalType": "uint256",
              "name": "price",
              "type": "uint256"
            },
            {
              "internalType": "uint256",
              "name": "supply",
              "type": "uint256"
            },
            {
              "internalType": "uint256",
              "name": "sold",
              "type": "uint256"
            },
            {
              "internalType": "string",
              "name": "imageIpfsHash",
              "type": "string"
            }
          ],
          "internalType": "struct TicketFactory.TicketType[]",
          "name": "",
          "type": "tuple[]"
        }
      ],
      "stateMutability": "view",
      "type": "function"
    },
    {
      "inputs": [
        {
          "internalType": "uint256[]",
          "name": "eventIds",
          "type": "uint256[]"
        }
      ],
      "name": "getTicketTypesBatch",
      "outputs": [
        {
          "components": [
            {
              "internalType": "uint256",
              "name": "eventId",
              "type": "uint256"
            },
            {
              "internalType": "string",
              "name": "name",
              "type": "string"
            },
            {
              "internalType": "uint256",
              "name": "price",
              "type": "uint256"
            },
            {
              "internalType": "uint256",
              "name": "supply",
              "type": "uint256"
            },
            {
              "internalType": "uint256",
              "name": "sold",
              "type": "uint256"
            },
            {
              "internalType": "string",
              "name": "imageIpfsHash",
              "type": "string"
            }
          ],
          "internalType": "struct TicketFactory.TicketType[][]",
          "name": "ticketTypesArray",
          "type": "tuple[][]"
        }
      ],
      "stateMutability": "view",
      "type": "function"
    },
    {
      "inputs": [
        {
          "internalType": "uint256",
          "name": "eventId",
          "type": "uint256"
        },
        {
          "internalType": "address",
          "name": "addr",
          "type": "address"
        }
      ],
      "name": "isEventOrganizer",
      "outputs": [
        {
          "internalType": "bool",
          "name": "",
          "type": "bool"
        }
      ],
      "stateMutability": "view",
      "type": "function"
    },
    {
      "inputs": [],
      "name": "owner",
      "outputs": [
        {
          "internalType": "address",
          "name": "",
          "type": "address"
        }
      ],
      "stateMutability": "view",
      "type": "function"
    },
    {
      "inputs": [
        {
          "internalType": "uint256",
          "name": "eventId",
          "type": "uint256"
        },
        {
          "internalType": "uint256",
          "name": "ticketTypeId",
          "type": "uint256"
        }
      ],
      "name": "purchaseTicket",
      "outputs": [
        {
          "internalType": "uint256",
          "name": "tokenId",
          "type": "uint256"
        }
      ],
      "stateMutability": "payable",
      "type": "function"
    },
    {
      "inputs": [
        {
          "internalType": "uint256",
          "name": "eventId",
          "type": "uint256"
        },
        {
          "internalType": "uint256",
          "name": "ticketTypeId",
          "type": "uint256"
        },
        {
          "internalType": "string",
          "name": "tokenURI_",
          "type": "string"
        }
      ],
      "name": "purchaseTicketWithURI",
      "outputs": [
        {
          "internalType": "uint256",
          "name": "tokenId",
          "type": "uint256"
        }
      ],
      "stateMutability": "payable",
      "type": "function"
    },
    {
      "inputs": [
        {
          "internalType": "uint256",
          "name": "eventId",
          "type": "uint256"
        },
        {
          "internalType": "uint256",
          "name": "ticketTypeId",
          "type": "uint256"
        },
        {
          "internalType": "uint256",
          "name": "quantity",
          "type": "uint256"
        }
      ],
      "name": "purchaseTickets",
      "outputs": [
        {
          "internalType": "uint256[]",
          "name": "tokenIds",
          "type": "uint256[]"
        }
      ],
      "stateMutability": "payable",
      "type": "function"
    },
    {
      "inputs": [],
      "name": "renounceOwnership",
      "outputs": [],
      "stateMutability": "nonpayable",
      "type": "function"
    },
    {
      "inputs": [
        {
          "internalType": "address",
          "name": "nft",
          "type": "address"
        }
      ],
      "name": "setTicketNFT",
      "outputs": [],
      "stateMutability": "nonpayable",
      "type": "function"
    },
    {
      "inputs": [
        {
          "internalType": "uint256",
          "name": "tokenId",
          "type": "uint256"
        },
        {
          "internalType": "string",
          "name": "tokenURI_",
          "type": "string"
        }
      ],
      "name": "setTicketURI",
      "outputs": [],
      "stateMutability": "nonpayable",
      "type": "function"
    },
    {
      "inputs": [
        {
          "internalType": "uint256[]",
          "name": "tokenIds",
          "type": "uint256[]"
        },
        {
          "internalType": "string[]",
          "name": "tokenURIs",
          "type": "string[]"
        }
      ],
      "name": "setTicketURIBatch",
      "outputs": [],
      "stateMutability": "nonpayable",
      "type": "function"
    },
    {
      "inputs": [],
      "name": "ticketNFT",
      "outputs": [
        {
          "internalType": "contract TicketNFT",
          "name": "",
          "type": "address"
        }
      ],
      "stateMutability": "view",
      "type": "function"
    },
    {
      "inputs": [
        {
          "internalType": "uint256",
          "name": "eventId",
          "type": "uint256"
        }
      ],
      "name": "toggleEventStatus",
      "outputs": [],
      "stateMutability": "nonpayable",
      "type": "function"
    },
    {
      "inputs": [
        {
          "internalType": "address",
          "name": "newOwner",
          "type": "address"
        }
      ],
      "name": "transferOwnership",
      "outputs": [],
      "stateMutability": "nonpayable",
      "type": "function"
    },
    {
      "inputs": [
        {
          "internalType": "uint256",
          "name": "eventId",
          "type": "uint256"
        },
        {
          "internalType": "uint256",
          "name": "tokenId",
          "type": "uint256"
        }
      ],
      "name": "validateTicket",
      "outputs": [],
      "stateMutability": "nonpayable",
      "type": "function"
    },
    {
      "inputs": [
        {
          "internalType": "uint256",
          "name": "eventId",
          "type": "uint256"
        },
        {
          "internalType": "address payable",
          "name": "to",
          "type": "address"
        }
      ],
      "name": "withdrawFunds",
      "outputs": [],
      "stateMutability": "nonpayable",
      "type": "function"
    },
    {
      "stateMutability": "payable",
      "type": "receive"
    }
  ],
  "bytecode": "0x60806040523480156200001157600080fd5b5060405162003d3538038062003d35833981016040819052620000349162000131565b33806200005b57604051631e4fbdf760e01b81526000600482015260240160405180910390fd5b6200006681620000e1565b50600180556001600160a01b038116620000935760405163b4fa3fb360e01b815260040160405180910390fd5b600780546001600160a01b0319166001600160a01b0383169081179091556040517ff2610996d245d9b77e4ff84c2174eea0b76fb44c422218404f66e28816d78fb990600090a25062000163565b600080546001600160a01b038381166001600160a01b0319831681178455604051919092169283917f8be0079c531659141344cd1fd0a4f28419497f9722a3daafe3b4186f6b6457e09190a35050565b6000602082840312156200014457600080fd5b81516001600160a01b03811681146200015c57600080fd5b9392505050565b613bc280620001736000396000f3fe6080604052600436106101435760003560e01c80636bb03a87116100b0578063b393391b1161006c578063b393391b146103fd578063bdbbb0cb1461041d578063e13102e914610430578063e212e7fb14610450578063f2fde38b14610470578063ff9f59701461049057005b80636bb03a871461031c5780636d1884e01461033c578063715018a614610369578063724139871461037e578063744bfe61146103ab5780638da5cb5b146103cb57005b806343719a66116100ff57806343719a66146102565780634d0ada621461027657806352c55db9146102965780635392c232146102ac57806357d802bd146102dc5780636ade389b146102fc57005b8063036cc0581461014c578063049a5d57146101835780630b791430146101be5780631b21c2c4146101f6578063364c694114610209578063392d399b1461023657005b3661014a57005b005b34801561015857600080fd5b5061016c610167366004612cb5565b6104b0565b60405161017a929190612e26565b60405180910390f35b34801561018f57600080fd5b506101b061019e366004612ec3565b60066020526000908152604090205481565b60405190815260200161017a565b3480156101ca57600080fd5b506101de6101d9366004612ec3565b6108d3565b60405161017a9c9b9a99989796959493929190612edc565b6101b061020436600461307b565b610b66565b34801561021557600080fd5b50610229610224366004612ec3565b610bdd565b60405161017a9190613172565b61024961024436600461318c565b610dc0565b60405161017a91906131b8565b34801561026257600080fd5b506101b0610271366004613328565b610e02565b34801561028257600080fd5b5061014a610291366004613427565b6111d1565b3480156102a257600080fd5b506101b060055481565b3480156102b857600080fd5b506102cc6102c73660046134a7565b611475565b604051901515815260200161017a565b3480156102e857600080fd5b5061014a6102f73660046134d7565b6114ce565b34801561030857600080fd5b5061014a6103173660046134f9565b611636565b34801561032857600080fd5b5061014a610337366004613516565b6116af565b34801561034857600080fd5b5061035c610357366004612ec3565b611881565b60405161017a919061355c565b34801561037557600080fd5b5061014a611b88565b34801561038a57600080fd5b5061039e610399366004612cb5565b611b9c565b60405161017a919061356f565b3480156103b757600080fd5b5061014a6103c63660046134a7565b611e82565b3480156103d757600080fd5b506000546001600160a01b03165b6040516001600160a01b03909116815260200161017a565b34801561040957600080fd5b506007546103e5906001600160a01b031681565b6101b061042b3660046134d7565b612031565b34801561043c57600080fd5b5061014a61044b366004612ec3565b61208d565b34801561045c57600080fd5b506101b061046b3660046135d3565b61215b565b34801561047c57600080fd5b5061014a61048b3660046134f9565b612309565b34801561049c57600080fd5b506102496104ab3660046134f9565b61234c565b606080826001600160401b038111156104cb576104cb612f90565b60405190808252806020026020018201604052801561050457816020015b6104f1612bf5565b8152602001906001900390816104e95790505b509150826001600160401b0381111561051f5761051f612f90565b604051908082528060200260200182016040528015610548578160200160208202803683370190505b50905060005b838110156108cb57600085858381811061056a5761056a613653565b90506020020135905060008111801561058557506005548111155b1561089d576000818152600260208181526040928390208351610180810185528154815260018201546001600160a01b031692810192909252918201805491938401916105d190613669565b80601f01602080910402602001604051908101604052809291908181526020018280546105fd90613669565b801561064a5780601f1061061f5761010080835404028352916020019161064a565b820191906000526020600020905b81548152906001019060200180831161062d57829003601f168201915b5050505050815260200160038201805461066390613669565b80601f016020809104026020016040519081016040528092919081815260200182805461068f90613669565b80156106dc5780601f106106b1576101008083540402835291602001916106dc565b820191906000526020600020905b8154815290600101906020018083116106bf57829003601f168201915b50505050508152602001600482015481526020016005820154815260200160068201805461070990613669565b80601f016020809104026020016040519081016040528092919081815260200182805461073590613669565b80156107825780601f1061075757610100808354040283529160200191610782565b820191906000526020600020905b81548152906001019060200180831161076557829003601f168201915b5050505050815260200160078201805461079b90613669565b80601f01602080910402602001604051908101604052809291908181526020018280546107c790613669565b80156108145780601f106107e957610100808354040283529160200191610814565b820191906000526020600020905b8154815290600101906020018083116107f757829003601f168201915b50505091835250506008820154602082015260098201546040820152600a9091015460ff81161515606083015261010090046001600160601b0316608090910152845185908490811061086957610869613653565b6020026020010181905250600183838151811061088857610888613653565b911515602092830291909101909101526108c2565b60008383815181106108b1576108b1613653565b911515602092830291909101909101525b5060010161054e565b509250929050565b600260208190526000918252604090912080546001820154928201805491936001600160a01b0316929161090690613669565b80601f016020809104026020016040519081016040528092919081815260200182805461093290613669565b801561097f5780601f106109545761010080835404028352916020019161097f565b820191906000526020600020905b81548152906001019060200180831161096257829003601f168201915b50505050509080600301805461099490613669565b80601f01602080910402602001604051908101604052809291908181526020018280546109c090613669565b8015610a0d5780601f106109e257610100808354040283529160200191610a0d565b820191906000526020600020905b8154815290600101906020018083116109f057829003601f168201915b505050505090806004015490806005015490806006018054610a2e90613669565b80601f0160208091040260200160405190810160405280929190818152602001828054610a5a90613669565b8015610aa75780601f10610a7c57610100808354040283529160200191610aa7565b820191906000526020600020905b815481529060010190602001808311610a8a57829003601f168201915b505050505090806007018054610abc90613669565b80601f0160208091040260200160405190810160405280929190818152602001828054610ae890613669565b8015610b355780601f10610b0a57610100808354040283529160200191610b35565b820191906000526020600020905b815481529060010190602001808311610b1857829003601f168201915b5050505060088301546009840154600a909401549293909290915060ff81169061010090046001600160601b03168c565b600083801580610b77575060055481115b15610b955760405163afb6a7d160e01b815260040160405180910390fd5b610b9d6123b8565b8251600003610bbf5760405163b4fa3fb360e01b815260040160405180910390fd5b610bca8585856123e2565b9150610bd560018055565b509392505050565b606081801580610bee575060055481115b15610c0c5760405163afb6a7d160e01b815260040160405180910390fd5b600083815260036020908152604080832080548251818502810185019093528083529193909284015b82821015610db357838290600052602060002090600602016040518060c001604052908160008201548152602001600182018054610c7290613669565b80601f0160208091040260200160405190810160405280929190818152602001828054610c9e90613669565b8015610ceb5780601f10610cc057610100808354040283529160200191610ceb565b820191906000526020600020905b815481529060010190602001808311610cce57829003601f168201915b50505050508152602001600282015481526020016003820154815260200160048201548152602001600582018054610d2290613669565b80601f0160208091040260200160405190810160405280929190818152602001828054610d4e90613669565b8015610d9b5780601f10610d7057610100808354040283529160200191610d9b565b820191906000526020600020905b815481529060010190602001808311610d7e57829003601f168201915b50505050508152505081526020019060010190610c35565b5050505091505b50919050565b606083801580610dd1575060055481115b15610def5760405163afb6a7d160e01b815260040160405180910390fd5b610df76123b8565b610bca858585612687565b6000895160001480610e1357508851155b80610e1d57508551155b80610e2757508451155b80610e30575083155b80610e3b5750878711155b80610e44575087155b15610e625760405163b4fa3fb360e01b815260040160405180910390fd5b600560008154610e71906136b3565b918290555060408051610180810182528281523360208083019182528284018f8152606084018f9052608084018e905260a084018d905260c084018c905260e084018b905261010084018a905260006101208501819052600161014086018190526001600160601b038b1661016087015287825260029384905295902084518155925194830180546001600160a01b0319166001600160a01b0390961695909517909455925193945090929091820190610f2b908261371d565b5060608201516003820190610f40908261371d565b506080820151600482015560a0820151600582015560c08201516006820190610f69908261371d565b5060e08201516007820190610f7e908261371d565b506101008281015160088301556101208301516009830155610140830151600a9092018054610160909401516001600160601b03169091026cffffffffffffffffffffffff0019921515929092166cffffffffffffffffffffffffff1990931692909217179055336000818152600460209081526040808320805460018101825590845291909220018390555182907f1d2ceb053f26b69e0921eacd1cc8550658eeeb72963f22fa59ee6c1f6866de1390611042908e908d908d908b908b906137dc565b60405180910390a360005b82518110156111c357600083828151811061106a5761106a613653565b602002602001015190508060000151516000148061108a57506020810151155b8061109757506040810151155b806110a55750606081015151155b156110c35760405163b4fa3fb360e01b815260040160405180910390fd5b6040805160c081018252848152825160208083019182528481015183850152848401516060808501919091526000608085018190529086015160a0850152878152600382529384208054600181810183559186529190942083516006909202019081559051919283929082019061113a908261371d565b5060408201516002820155606082015160038201556080820151600482015560a0820151600582019061116d908261371d565b50505082847f766363e141a90ab2ab87c4d5ab572d5df3ac4b4e6cd8228f13b6a56b02d8c5c68460000151856020015186604001516040516111b19392919061381c565b60405180910390a3505060010161104d565b509998505050505050505050565b8281146111f15760405163b4fa3fb360e01b815260040160405180910390fd5b60005b8381101561146e5782828281811061120e5761120e613653565b90506020028101906112209190613841565b90506000036112425760405163b4fa3fb360e01b815260040160405180910390fd5b6007546000906001600160a01b0316636352211e87878581811061126857611268613653565b905060200201356040518263ffffffff1660e01b815260040161128d91815260200190565b602060405180830381865afa1580156112aa573d6000803e3d6000fd5b505050506040513d601f19601f820116820180604052508101906112ce9190613887565b6007549091506000906001600160a01b031663033fab358888868181106112f7576112f7613653565b905060200201356040518263ffffffff1660e01b815260040161131c91815260200190565b600060405180830381865afa158015611339573d6000803e3d6000fd5b505050506040513d6000823e601f3d908101601f1916820160405261136191908101906138f1565b5050505050509050816001600160a01b0316336001600160a01b0316141580156113a557506000818152600260205260409020600101546001600160a01b03163314155b156113c2576040516282b42960e81b815260040160405180910390fd5b6007546001600160a01b031663162094c48888868181106113e5576113e5613653565b905060200201358787878181106113fe576113fe613653565b90506020028101906114109190613841565b6040518463ffffffff1660e01b815260040161142e9392919061399d565b600060405180830381600087803b15801561144857600080fd5b505af115801561145c573d6000803e3d6000fd5b5050600190940193506111f492505050565b5050505050565b600082801580611486575060055481115b156114a45760405163afb6a7d160e01b815260040160405180910390fd5b6000848152600260205260409020600101546001600160a01b0384811691161491505b5092915050565b818015806114dd575060055481115b156114fb5760405163afb6a7d160e01b815260040160405180910390fd5b60008381526002602052604090206001015483906001600160a01b03163314611537576040516323d03a7160e21b815260040160405180910390fd5b60075460405163033fab3560e01b8152600481018590526000916001600160a01b03169063033fab3590602401600060405180830381865afa158015611581573d6000803e3d6000fd5b505050506040513d6000823e601f3d908101601f191682016040526115a991908101906138f1565b50505050505090508481146115d15760405163afb6a7d160e01b815260040160405180910390fd5b60075460405163054ae7df60e01b8152600481018690526001600160a01b039091169063054ae7df90602401600060405180830381600087803b15801561161757600080fd5b505af115801561162b573d6000803e3d6000fd5b505050505050505050565b61163e6129de565b6001600160a01b0381166116655760405163b4fa3fb360e01b815260040160405180910390fd5b600780546001600160a01b0319166001600160a01b0383169081179091556040517ff2610996d245d9b77e4ff84c2174eea0b76fb44c422218404f66e28816d78fb990600090a250565b80516000036116d15760405163b4fa3fb360e01b815260040160405180910390fd5b6007546040516331a9108f60e11b8152600481018490526000916001600160a01b031690636352211e90602401602060405180830381865afa15801561171b573d6000803e3d6000fd5b505050506040513d601f19601f8201168201806040525081019061173f9190613887565b60075460405163033fab3560e01b8152600481018690529192506000916001600160a01b039091169063033fab3590602401600060405180830381865afa15801561178e573d6000803e3d6000fd5b505050506040513d6000823e601f3d908101601f191682016040526117b691908101906138f1565b5050505050509050816001600160a01b0316336001600160a01b0316141580156117fa57506000818152600260205260409020600101546001600160a01b03163314155b15611817576040516282b42960e81b815260040160405180910390fd5b600754604051630588253160e21b81526001600160a01b039091169063162094c49061184990879087906004016139d3565b600060405180830381600087803b15801561186357600080fd5b505af1158015611877573d6000803e3d6000fd5b5050505050505050565b611889612bf5565b81801580611898575060055481115b156118b65760405163afb6a7d160e01b815260040160405180910390fd5b6000838152600260208181526040928390208351610180810185528154815260018201546001600160a01b031692810192909252918201805491938401916118fd90613669565b80601f016020809104026020016040519081016040528092919081815260200182805461192990613669565b80156119765780601f1061194b57610100808354040283529160200191611976565b820191906000526020600020905b81548152906001019060200180831161195957829003601f168201915b5050505050815260200160038201805461198f90613669565b80601f01602080910402602001604051908101604052809291908181526020018280546119bb90613669565b8015611a085780601f106119dd57610100808354040283529160200191611a08565b820191906000526020600020905b8154815290600101906020018083116119eb57829003601f168201915b505050505081526020016004820154815260200160058201548152602001600682018054611a3590613669565b80601f0160208091040260200160405190810160405280929190818152602001828054611a6190613669565b8015611aae5780601f10611a8357610100808354040283529160200191611aae565b820191906000526020600020905b815481529060010190602001808311611a9157829003601f168201915b50505050508152602001600782018054611ac790613669565b80601f0160208091040260200160405190810160405280929190818152602001828054611af390613669565b8015611b405780601f10611b1557610100808354040283529160200191611b40565b820191906000526020600020905b815481529060010190602001808311611b2357829003601f168201915b50505091835250506008820154602082015260098201546040820152600a9091015460ff81161515606083015261010090046001600160601b03166080909101529392505050565b611b906129de565b611b9a6000612a0b565b565b6060816001600160401b03811115611bb657611bb6612f90565b604051908082528060200260200182016040528015611be957816020015b6060815260200190600190039081611bd45790505b50905060005b828110156114c7576000848483818110611c0b57611c0b613653565b905060200201359050600081118015611c2657506005548111155b15611df857600081815260036020908152604080832080548251818502810185019093528083529193909284015b82821015611dd257838290600052602060002090600602016040518060c001604052908160008201548152602001600182018054611c9190613669565b80601f0160208091040260200160405190810160405280929190818152602001828054611cbd90613669565b8015611d0a5780601f10611cdf57610100808354040283529160200191611d0a565b820191906000526020600020905b815481529060010190602001808311611ced57829003601f168201915b50505050508152602001600282015481526020016003820154815260200160048201548152602001600582018054611d4190613669565b80601f0160208091040260200160405190810160405280929190818152602001828054611d6d90613669565b8015611dba5780601f10611d8f57610100808354040283529160200191611dba565b820191906000526020600020905b815481529060010190602001808311611d9d57829003601f168201915b50505050508152505081526020019060010190611c54565b50505050838381518110611de857611de8613653565b6020026020010181905250611e79565b6040805160008082526020820190925290611e5a565b611e476040518060c001604052806000815260200160608152602001600081526020016000815260200160008152602001606081525090565b815260200190600190039081611e0e5790505b50838381518110611e6d57611e6d613653565b60200260200101819052505b50600101611bef565b81801580611e91575060055481115b15611eaf5760405163afb6a7d160e01b815260040160405180910390fd5b60008381526002602052604090206001015483906001600160a01b03163314611eeb576040516323d03a7160e21b815260040160405180910390fd5b611ef36123b8565b6001600160a01b038316611f1a5760405163b4fa3fb360e01b815260040160405180910390fd5b60008481526006602052604081205490819003611f4a57604051630686827b60e51b815260040160405180910390fd5b600085815260066020526040808220829055516001600160a01b0386169083908381818185875af1925050503d8060008114611fa2576040519150601f19603f3d011682016040523d82523d6000602084013e611fa7565b606091505b5050905080611fdb576000868152600660205260409081902083905580516327fcd9d160e01b815290519081900360040190fd5b604080518381526001600160a01b0387166020820152339188917f055bb353f6eed0f4f1c04d79fa1d7da64810bcda2a49af58c38a07b8fd5c9273910160405180910390a3505061202b60018055565b50505050565b600082801580612042575060055481115b156120605760405163afb6a7d160e01b815260040160405180910390fd5b6120686123b8565b6120828484604051806020016040528060008152506123e2565b91506114c760018055565b8080158061209c575060055481115b156120ba5760405163afb6a7d160e01b815260040160405180910390fd5b60008281526002602052604090206001015482906001600160a01b031633146120f6576040516323d03a7160e21b815260040160405180910390fd5b600083815260026020908152604091829020600a8101805460ff8082161560ff19909216821790925593519316151583529185917f7bf55962c040938ae847142ba749182d55a7f3c0caaa789bb20e70619f700e34910160405180910390a250505050565b60008580158061216c575060055481115b1561218a5760405163afb6a7d160e01b815260040160405180910390fd5b60008781526002602052604090206001015487906001600160a01b031633146121c6576040516323d03a7160e21b815260040160405180910390fd5b865115806121d2575085155b806121db575084155b806121e557508351155b156122035760405163b4fa3fb360e01b815260040160405180910390fd5b6040805160c08101825289815260208082018a81528284018a90526060830189905260006080840181905260a084018990528c81526003835293842080546001818101835591865292909420835160069093020191825551919283929082019061226d908261371d565b5060408201516002820155606082015160038201556080820151600482015560a082015160058201906122a0908261371d565b5050506000898152600360205260409020546122be906001906139ec565b935083897f766363e141a90ab2ab87c4d5ab572d5df3ac4b4e6cd8228f13b6a56b02d8c5c68a8a8a6040516122f59392919061381c565b60405180910390a350505095945050505050565b6123116129de565b6001600160a01b03811661234057604051631e4fbdf760e01b8152600060048201526024015b60405180910390fd5b61234981612a0b565b50565b6001600160a01b0381166000908152600460209081526040918290208054835181840281018401909452808452606093928301828280156123ac57602002820191906000526020600020905b815481526020019060010190808311612398575b50505050509050919050565b6002600154036123db57604051633ee5aeb560e01b815260040160405180910390fd5b6002600155565b6000838152600260205260408120600a81015460ff1661241557604051639fe5276f60e01b815260040160405180910390fd5b806005015442111561243a57604051636e10858d60e11b815260040160405180910390fd5b600085815260036020526040902054841061246857604051631c9447af60e11b815260040160405180910390fd5b600085815260036020526040812080548690811061248857612488613653565b9060005260206000209060060201905080600301548160040154106124c0576040516352df9fe560e01b815260040160405180910390fd5b81600801548260090154106124e8576040516352df9fe560e01b815260040160405180910390fd5b8060020154341461250c5760405163569e8c1160e01b815260040160405180910390fd5b60048101805460019081019091556009830180549091019055600086815260066020526040812080543492906125439084906139ff565b9250508190555060006040518060e00160405280888152602001878152602001336001600160a01b03168152602001348152602001612580612a5b565b815260006020808301829052604080519182018152918152918101919091526001850154600a860154600754925162aca1bd60e11b81529394506001600160a01b03918216936101009091046001600160601b0316929190911690630159437a906125f790339087908c9088908890600401613a85565b6020604051808303816000875af1158015612616573d6000803e3d6000fd5b505050506040513d601f19601f8201168201806040525081019061263a9190613add565b6040805133815234602082015291975087918a918c917ffe7a8a160f28608c4d158798180f3638aa072dfc9c740e7ce564b3af4627cb5c910160405180910390a450505050509392505050565b6000838152600260205260409020600a8101546060919060ff166126be57604051639fe5276f60e01b815260040160405180910390fd5b80600501544211156126e357604051636e10858d60e11b815260040160405180910390fd5b600085815260036020526040902054841061271157604051631c9447af60e11b815260040160405180910390fd5b600085815260036020526040812080548690811061273157612731613653565b90600052602060002090600602019050806003015484826004015461275691906139ff565b1115612775576040516352df9fe560e01b815260040160405180910390fd5b816008015484836009015461278a91906139ff565b11156127a9576040516352df9fe560e01b815260040160405180910390fd5b8381600201546127b99190613af6565b34146127d85760405163569e8c1160e01b815260040160405180910390fd5b60048101805485019055600982018054850190556000868152600660205260408120805434929061280a9084906139ff565b909155508490506001600160401b0381111561282857612828612f90565b604051908082528060200260200182016040528015612851578160200160208202803683370190505b506001830154600a8401549194506001600160a01b03169061010090046001600160601b031660005b868110156129d25760006040518060e001604052808b81526020018a8152602001336001600160a01b03168152602001866002015481526020016128bc612a5b565b81526000602080830182905260408051918201815282825292830152600754915162aca1bd60e11b8152929350916001600160a01b0390911690630159437a9061291090339086908a908a90600401613b0d565b6020604051808303816000875af115801561292f573d6000803e3d6000fd5b505050506040513d601f19601f820116820180604052508101906129539190613add565b90508088848151811061296857612968613653565b602002602001018181525050808a8c7ffe7a8a160f28608c4d158798180f3638aa072dfc9c740e7ce564b3af4627cb5c338a600201546040516129c09291906001600160a01b03929092168252602082015260400190565b60405180910390a4505060010161287a565b50505050509392505050565b6000546001600160a01b03163314611b9a5760405163118cdaa760e01b8152336004820152602401612337565b600080546001600160a01b038381166001600160a01b0319831681178455604051919092169283917f8be0079c531659141344cd1fd0a4f28419497f9722a3daafe3b4186f6b6457e09190a35050565b6060612a6646612a8a565b604051602001612a769190613b5e565b604051602081830303815290604052905090565b60606000612a9783612b1c565b60010190506000816001600160401b03811115612ab657612ab6612f90565b6040519080825280601f01601f191660200182016040528015612ae0576020820181803683370190505b5090508181016020015b600019016f181899199a1a9b1b9c1cb0b131b232b360811b600a86061a8153600a8504945084612aea57509392505050565b60008072184f03e93ff9f4daa797ed6e38ed64bf6a1f0160401b8310612b5b5772184f03e93ff9f4daa797ed6e38ed64bf6a1f0160401b830492506040015b6d04ee2d6d415b85acef81000000008310612b87576d04ee2d6d415b85acef8100000000830492506020015b662386f26fc100008310612ba557662386f26fc10000830492506010015b6305f5e1008310612bbd576305f5e100830492506008015b6127108310612bd157612710830492506004015b60648310612be3576064830492506002015b600a8310612bef576001015b92915050565b6040518061018001604052806000815260200160006001600160a01b03168152602001606081526020016060815260200160008152602001600081526020016060815260200160608152602001600081526020016000815260200160001515815260200160006001600160601b031681525090565b60008083601f840112612c7c57600080fd5b5081356001600160401b03811115612c9357600080fd5b6020830191508360208260051b8501011115612cae57600080fd5b9250929050565b60008060208385031215612cc857600080fd5b82356001600160401b03811115612cde57600080fd5b612cea85828601612c6a565b90969095509350505050565b60005b83811015612d11578181015183820152602001612cf9565b50506000910152565b60008151808452612d32816020860160208601612cf6565b601f01601f19169290920160200192915050565b6000610180825184526020830151612d6960208601826001600160a01b03169052565b506040830151816040860152612d8182860182612d1a565b91505060608301518482036060860152612d9b8282612d1a565b9150506080830151608085015260a083015160a085015260c083015184820360c0860152612dc98282612d1a565b91505060e083015184820360e0860152612de38282612d1a565b6101008581015190870152610120808601519087015261014080860151151590870152610160948501516001600160601b03169490950193909352509192915050565b6000604082016040835280855180835260608501915060608160051b8601019250602080880160005b83811015612e7d57605f19888703018552612e6b868351612d46565b95509382019390820190600101612e4f565b50508584038187015286518085528782019482019350915060005b82811015612eb6578451151584529381019392810192600101612e98565b5091979650505050505050565b600060208284031215612ed557600080fd5b5035919050565b8c81526001600160a01b038c16602082015261018060408201819052600090612f078382018e612d1a565b90508281036060840152612f1b818d612d1a565b90508a60808401528960a084015282810360c0840152612f3b818a612d1a565b905082810360e0840152612f4f8189612d1a565b9150508561010083015284610120830152831515610140830152612f7f6101608301846001600160601b03169052565b9d9c50505050505050505050505050565b634e487b7160e01b600052604160045260246000fd5b604051608081016001600160401b0381118282101715612fc857612fc8612f90565b60405290565b604051601f8201601f191681016001600160401b0381118282101715612ff657612ff6612f90565b604052919050565b60006001600160401b0382111561301757613017612f90565b50601f01601f191660200190565b600082601f83011261303657600080fd5b813561304961304482612ffe565b612fce565b81815284602083860101111561305e57600080fd5b816020850160208301376000918101602001919091529392505050565b60008060006060848603121561309057600080fd5b833592506020840135915060408401356001600160401b038111156130b457600080fd5b6130c086828701613025565b9150509250925092565b600082825180855260208086019550808260051b84010181860160005b8481101561316557601f19868403018952815160c08151855285820151818787015261311582870182612d1a565b60408481015190880152606080850151908801526080808501519088015260a09384015187820394880194909452915061315190508183612d1a565b9a86019a94505050908301906001016130e7565b5090979650505050505050565b60208152600061318560208301846130ca565b9392505050565b6000806000606084860312156131a157600080fd5b505081359360208301359350604090920135919050565b6020808252825182820181905260009190848201906040850190845b818110156131f0578351835292840192918401916001016131d4565b50909695505050505050565b80356001600160601b038116811461321357600080fd5b919050565b600082601f83011261322957600080fd5b813560206001600160401b038083111561324557613245612f90565b8260051b613254838201612fce565b938452858101830193838101908886111561326e57600080fd5b84880192505b8583101561331c5782358481111561328c5760008081fd5b88016080818b03601f19018113156132a45760008081fd5b6132ac612fa6565b87830135878111156132be5760008081fd5b6132cc8d8a83870101613025565b82525060408381013589830152606080850135828401529284013592888411156132f857600091508182fd5b6133068e8b86880101613025565b9083015250845250509184019190840190613274565b98975050505050505050565b60008060008060008060008060006101208a8c03121561334757600080fd5b89356001600160401b038082111561335e57600080fd5b61336a8d838e01613025565b9a5060208c013591508082111561338057600080fd5b61338c8d838e01613025565b995060408c0135985060608c0135975060808c01359150808211156133b057600080fd5b6133bc8d838e01613025565b965060a08c01359150808211156133d257600080fd5b6133de8d838e01613025565b955060c08c013594506133f360e08d016131fc565b93506101008c013591508082111561340a57600080fd5b506134178c828d01613218565b9150509295985092959850929598565b6000806000806040858703121561343d57600080fd5b84356001600160401b038082111561345457600080fd5b61346088838901612c6a565b9096509450602087013591508082111561347957600080fd5b5061348687828801612c6a565b95989497509550505050565b6001600160a01b038116811461234957600080fd5b600080604083850312156134ba57600080fd5b8235915060208301356134cc81613492565b809150509250929050565b600080604083850312156134ea57600080fd5b50508035926020909101359150565b60006020828403121561350b57600080fd5b813561318581613492565b6000806040838503121561352957600080fd5b8235915060208301356001600160401b0381111561354657600080fd5b61355285828601613025565b9150509250929050565b6020815260006131856020830184612d46565b600060208083016020845280855180835260408601915060408160051b87010192506020870160005b828110156135c657603f198886030184526135b48583516130ca565b94509285019290850190600101613598565b5092979650505050505050565b600080600080600060a086880312156135eb57600080fd5b8535945060208601356001600160401b038082111561360957600080fd5b61361589838a01613025565b95506040880135945060608801359350608088013591508082111561363957600080fd5b5061364688828901613025565b9150509295509295909350565b634e487b7160e01b600052603260045260246000fd5b600181811c9082168061367d57607f821691505b602082108103610dba57634e487b7160e01b600052602260045260246000fd5b634e487b7160e01b600052601160045260246000fd5b6000600182016136c5576136c561369d565b5060010190565b601f821115613718576000816000526020600020601f850160051c810160208610156136f55750805b601f850160051c820191505b8181101561371457828155600101613701565b5050505b505050565b81516001600160401b0381111561373657613736612f90565b61374a816137448454613669565b846136cc565b602080601f83116001811461377f57600084156137675750858301515b600019600386901b1c1916600185901b178555613714565b600085815260208120601f198616915b828110156137ae5788860151825594840194600190910190840161378f565b50858210156137cc5787850151600019600388901b60f8161c191681555b5050505050600190811b01905550565b60a0815260006137ef60a0830188612d1a565b90508560208301528460408301528360608301526001600160601b03831660808301529695505050505050565b60608152600061382f6060830186612d1a565b60208301949094525060400152919050565b6000808335601e1984360301811261385857600080fd5b8301803591506001600160401b0382111561387257600080fd5b602001915036819003821315612cae57600080fd5b60006020828403121561389957600080fd5b815161318581613492565b600082601f8301126138b557600080fd5b81516138c361304482612ffe565b8181528460208386010111156138d857600080fd5b6138e9826020830160208701612cf6565b949350505050565b600080600080600080600060e0888a03121561390c57600080fd5b8751965060208801519550604088015161392581613492565b606089015160808a015191965094506001600160401b038082111561394957600080fd5b6139558b838c016138a4565b945060a08a01519150811515821461396c57600080fd5b60c08a01519193508082111561398157600080fd5b5061398e8a828b016138a4565b91505092959891949750929550565b83815260406020820152816040820152818360608301376000818301606090810191909152601f909201601f1916010192915050565b8281526040602082015260006138e96040830184612d1a565b81810381811115612bef57612bef61369d565b80820180821115612bef57612bef61369d565b805182526020810151602083015260018060a01b036040820151166040830152606081015160608301526000608082015160e06080850152613a5760e0850182612d1a565b905060a0830151151560a085015260c083015184820360c0860152613a7c8282612d1a565b95945050505050565b600060018060a01b03808816835260a06020840152613aa760a0840188613a12565b8381036040850152613ab98188612d1a565b95909116606084015250506001600160601b03919091166080909101529392505050565b600060208284031215613aef57600080fd5b5051919050565b8082028115828204841417612bef57612bef61369d565b600060018060a01b03808716835260a06020840152613b2f60a0840187613a12565b83810360408501526000815294166060830152506001600160601b039190911660809091015260200192915050565b6531b430b4b71d60d11b815260008251613b7f816006850160208701612cf6565b919091016006019291505056fea26469706673582212208c69a520f133b3ae54a5ca026113eb4d1a29daed5cd9341dde9b38803a9d115664736f6c63430008160033",
  "linkReferences": {},
  "deployedLinkReferences": {}
}