{
  "_format": "hh-sol-artifact-1",
  "contractName": "TicketFactory",
  "sourceName": "contracts/TicketFactory.sol",
  "abi": [
    {
      "inputs": [
        {
          "internalType": "address",
          "name": "nft",
          "type": "address"
        }
      ],
      "stateMutability": "nonpayable",
      "type": "constructor"
    },
    {
      "inputs": [],
      "name": "EventInactive",
      "type": "error"
    },
    {
      "inputs": [],
      "name": "EventNotLive",
      "type": "error"
    },
    {
      "inputs": [],
      "name": "IncorrectPayment",
      "type": "error"
    },
    {
      "inputs": [],
      "name": "InvalidEvent",
      "type": "error"
    },
    {
      "inputs": [],
      "name": "InvalidInput",
      "type": "error"
    },
    {
      "inputs": [],
      "name": "InvalidTicketType",
      "type": "error"
    },
    {
      "inputs": [],
      "name": "NotOrganizer",
      "type": "error"
    },
    {
      "inputs": [],
      "name": "NothingToWithdraw",
      "type": "error"
    },
    {
      "inputs": [
        {
          "internalType": "address",
          "name": "owner",
          "type": "address"
        }
      ],
      "name": "OwnableInvalidOwner",
      "type": "error"
    },
    {
      "inputs": [
        {
          "internalType": "address",
          "name": "account",
          "type": "address"
        }
      ],
      "name": "OwnableUnauthorizedAccount",
      "type": "error"
    },
    {
      "inputs": [],
      "name": "ReentrancyGuardReentrantCall",
      "type": "error"
    },
    {
      "inputs": [],
      "name": "SoldOut",
      "type": "error"
    },
    {
      "inputs": [],
      "name": "WithdrawalFailed",
      "type": "error"
    },
    {
      "anonymous": false,
      "inputs": [
        {
          "indexed": true,
          "internalType": "uint256",
          "name": "eventId",
          "type": "uint256"
        },
        {
          "indexed": true,
          "internalType": "address",
          "name": "organizer",
          "type": "address"
        },
        {
          "indexed": false,
          "internalType": "string",
          "name": "name",
          "type": "string"
        },
        {
          "indexed": false,
          "internalType": "uint256",
          "name": "startTime",
          "type": "uint256"
        },
        {
          "indexed": false,
          "internalType": "uint256",
          "name": "endTime",
          "type": "uint256"
        },
        {
          "indexed": false,
          "internalType": "uint256",
          "name": "totalSupply",
          "type": "uint256"
        },
        {
          "indexed": false,
          "internalType": "uint96",
          "name": "royaltyBps",
          "type": "uint96"
        }
      ],
      "name": "EventCreated",
      "type": "event"
    },
    {
      "anonymous": false,
      "inputs": [
        {
          "indexed": true,
          "internalType": "uint256",
          "name": "eventId",
          "type": "uint256"
        },
        {
          "indexed": false,
          "internalType": "bool",
          "name": "active",
          "type": "bool"
        }
      ],
      "name": "EventStatusToggled",
      "type": "event"
    },
    {
      "anonymous": false,
      "inputs": [
        {
          "indexed": true,
          "internalType": "uint256",
          "name": "eventId",
          "type": "uint256"
        },
        {
          "indexed": true,
          "internalType": "address",
          "name": "organizer",
          "type": "address"
        },
        {
          "indexed": false,
          "internalType": "uint256",
          "name": "amount",
          "type": "uint256"
        },
        {
          "indexed": false,
          "internalType": "address",
          "name": "to",
          "type": "address"
        }
      ],
      "name": "FundsWithdrawn",
      "type": "event"
    },
    {
      "anonymous": false,
      "inputs": [
        {
          "indexed": true,
          "internalType": "address",
          "name": "nft",
          "type": "address"
        }
      ],
      "name": "NFTContractUpdated",
      "type": "event"
    },
    {
      "anonymous": false,
      "inputs": [
        {
          "indexed": true,
          "internalType": "address",
          "name": "previousOwner",
          "type": "address"
        },
        {
          "indexed": true,
          "internalType": "address",
          "name": "newOwner",
          "type": "address"
        }
      ],
      "name": "OwnershipTransferred",
      "type": "event"
    },
    {
      "anonymous": false,
      "inputs": [
        {
          "indexed": true,
          "internalType": "uint256",
          "name": "eventId",
          "type": "uint256"
        },
        {
          "indexed": true,
          "internalType": "uint256",
          "name": "ticketTypeId",
          "type": "uint256"
        },
        {
          "indexed": true,
          "internalType": "uint256",
          "name": "tokenId",
          "type": "uint256"
        },
        {
          "indexed": false,
          "internalType": "address",
          "name": "buyer",
          "type": "address"
        },
        {
          "indexed": false,
          "internalType": "uint256",
          "name": "price",
          "type": "uint256"
        }
      ],
      "name": "TicketPurchased",
      "type": "event"
    },
    {
      "anonymous": false,
      "inputs": [
        {
          "indexed": true,
          "internalType": "uint256",
          "name": "eventId",
          "type": "uint256"
        },
        {
          "indexed": true,
          "internalType": "uint256",
          "name": "ticketTypeId",
          "type": "uint256"
        },
        {
          "indexed": false,
          "internalType": "string",
          "name": "name",
          "type": "string"
        },
        {
          "indexed": false,
          "internalType": "uint256",
          "name": "price",
          "type": "uint256"
        },
        {
          "indexed": false,
          "internalType": "uint256",
          "name": "supply",
          "type": "uint256"
        }
      ],
      "name": "TicketTypeAdded",
      "type": "event"
    },
    {
      "stateMutability": "payable",
      "type": "fallback"
    },
    {
      "inputs": [
        {
          "internalType": "uint256",
          "name": "eventId",
          "type": "uint256"
        },
        {
          "internalType": "string",
          "name": "name_",
          "type": "string"
        },
        {
          "internalType": "uint256",
          "name": "price_",
          "type": "uint256"
        },
        {
          "internalType": "uint256",
          "name": "supply_",
          "type": "uint256"
        }
      ],
      "name": "addTicketType",
      "outputs": [
        {
          "internalType": "uint256",
          "name": "ticketTypeId",
          "type": "uint256"
        }
      ],
      "stateMutability": "nonpayable",
      "type": "function"
    },
    {
      "inputs": [
        {
          "internalType": "string",
          "name": "name_",
          "type": "string"
        },
        {
          "internalType": "string",
          "name": "description_",
          "type": "string"
        },
        {
          "internalType": "uint256",
          "name": "startTime_",
          "type": "uint256"
        },
        {
          "internalType": "uint256",
          "name": "endTime_",
          "type": "uint256"
        },
        {
          "internalType": "string",
          "name": "venue_",
          "type": "string"
        },
        {
          "internalType": "string",
          "name": "imageIpfsHash_",
          "type": "string"
        },
        {
          "internalType": "uint256",
          "name": "totalSupply_",
          "type": "uint256"
        },
        {
          "internalType": "uint96",
          "name": "royaltyBps_",
          "type": "uint96"
        }
      ],
      "name": "createEvent",
      "outputs": [
        {
          "internalType": "uint256",
          "name": "eventId",
          "type": "uint256"
        }
      ],
      "stateMutability": "nonpayable",
      "type": "function"
    },
    {
      "inputs": [],
      "name": "eventCounter",
      "outputs": [
        {
          "internalType": "uint256",
          "name": "",
          "type": "uint256"
        }
      ],
      "stateMutability": "view",
      "type": "function"
    },
    {
      "inputs": [
        {
          "internalType": "uint256",
          "name": "",
          "type": "uint256"
        }
      ],
      "name": "eventProceedsNative",
      "outputs": [
        {
          "internalType": "uint256",
          "name": "",
          "type": "uint256"
        }
      ],
      "stateMutability": "view",
      "type": "function"
    },
    {
      "inputs": [
        {
          "internalType": "uint256",
          "name": "",
          "type": "uint256"
        }
      ],
      "name": "events",
      "outputs": [
        {
          "internalType": "uint256",
          "name": "eventId",
          "type": "uint256"
        },
        {
          "internalType": "address",
          "name": "organizer",
          "type": "address"
        },
        {
          "internalType": "string",
          "name": "name",
          "type": "string"
        },
        {
          "internalType": "string",
          "name": "description",
          "type": "string"
        },
        {
          "internalType": "uint256",
          "name": "startTime",
          "type": "uint256"
        },
        {
          "internalType": "uint256",
          "name": "endTime",
          "type": "uint256"
        },
        {
          "internalType": "string",
          "name": "venue",
          "type": "string"
        },
        {
          "internalType": "string",
          "name": "imageIpfsHash",
          "type": "string"
        },
        {
          "internalType": "uint256",
          "name": "totalSupply",
          "type": "uint256"
        },
        {
          "internalType": "uint256",
          "name": "sold",
          "type": "uint256"
        },
        {
          "internalType": "bool",
          "name": "active",
          "type": "bool"
        },
        {
          "internalType": "uint96",
          "name": "royaltyBps",
          "type": "uint96"
        }
      ],
      "stateMutability": "view",
      "type": "function"
    },
    {
      "inputs": [
        {
          "internalType": "uint256",
          "name": "eventId",
          "type": "uint256"
        }
      ],
      "name": "getEvent",
      "outputs": [
        {
          "components": [
            {
              "internalType": "uint256",
              "name": "eventId",
              "type": "uint256"
            },
            {
              "internalType": "address",
              "name": "organizer",
              "type": "address"
            },
            {
              "internalType": "string",
              "name": "name",
              "type": "string"
            },
            {
              "internalType": "string",
              "name": "description",
              "type": "string"
            },
            {
              "internalType": "uint256",
              "name": "startTime",
              "type": "uint256"
            },
            {
              "internalType": "uint256",
              "name": "endTime",
              "type": "uint256"
            },
            {
              "internalType": "string",
              "name": "venue",
              "type": "string"
            },
            {
              "internalType": "string",
              "name": "imageIpfsHash",
              "type": "string"
            },
            {
              "internalType": "uint256",
              "name": "totalSupply",
              "type": "uint256"
            },
            {
              "internalType": "uint256",
              "name": "sold",
              "type": "uint256"
            },
            {
              "internalType": "bool",
              "name": "active",
              "type": "bool"
            },
            {
              "internalType": "uint96",
              "name": "royaltyBps",
              "type": "uint96"
            }
          ],
          "internalType": "struct TicketFactory.EventData",
          "name": "",
          "type": "tuple"
        }
      ],
      "stateMutability": "view",
      "type": "function"
    },
    {
      "inputs": [
        {
          "internalType": "address",
          "name": "organizer",
          "type": "address"
        }
      ],
      "name": "getOrganizerEvents",
      "outputs": [
        {
          "internalType": "uint256[]",
          "name": "",
          "type": "uint256[]"
        }
      ],
      "stateMutability": "view",
      "type": "function"
    },
    {
      "inputs": [
        {
          "internalType": "uint256",
          "name": "eventId",
          "type": "uint256"
        }
      ],
      "name": "getTicketTypes",
      "outputs": [
        {
          "components": [
            {
              "internalType": "uint256",
              "name": "eventId",
              "type": "uint256"
            },
            {
              "internalType": "string",
              "name": "name",
              "type": "string"
            },
            {
              "internalType": "uint256",
              "name": "price",
              "type": "uint256"
            },
            {
              "internalType": "uint256",
              "name": "supply",
              "type": "uint256"
            },
            {
              "internalType": "uint256",
              "name": "sold",
              "type": "uint256"
            }
          ],
          "internalType": "struct TicketFactory.TicketType[]",
          "name": "",
          "type": "tuple[]"
        }
      ],
      "stateMutability": "view",
      "type": "function"
    },
    {
      "inputs": [],
      "name": "owner",
      "outputs": [
        {
          "internalType": "address",
          "name": "",
          "type": "address"
        }
      ],
      "stateMutability": "view",
      "type": "function"
    },
    {
      "inputs": [
        {
          "internalType": "uint256",
          "name": "eventId",
          "type": "uint256"
        },
        {
          "internalType": "uint256",
          "name": "ticketTypeId",
          "type": "uint256"
        }
      ],
      "name": "purchaseTicket",
      "outputs": [
        {
          "internalType": "uint256",
          "name": "tokenId",
          "type": "uint256"
        }
      ],
      "stateMutability": "payable",
      "type": "function"
    },
    {
      "inputs": [
        {
          "internalType": "uint256",
          "name": "eventId",
          "type": "uint256"
        },
        {
          "internalType": "uint256",
          "name": "ticketTypeId",
          "type": "uint256"
        },
        {
          "internalType": "string",
          "name": "tokenURI_",
          "type": "string"
        }
      ],
      "name": "purchaseTicketWithURI",
      "outputs": [
        {
          "internalType": "uint256",
          "name": "tokenId",
          "type": "uint256"
        }
      ],
      "stateMutability": "payable",
      "type": "function"
    },
    {
      "inputs": [],
      "name": "renounceOwnership",
      "outputs": [],
      "stateMutability": "nonpayable",
      "type": "function"
    },
    {
      "inputs": [
        {
          "internalType": "address",
          "name": "nft",
          "type": "address"
        }
      ],
      "name": "setTicketNFT",
      "outputs": [],
      "stateMutability": "nonpayable",
      "type": "function"
    },
    {
      "inputs": [],
      "name": "ticketNFT",
      "outputs": [
        {
          "internalType": "contract TicketNFT",
          "name": "",
          "type": "address"
        }
      ],
      "stateMutability": "view",
      "type": "function"
    },
    {
      "inputs": [
        {
          "internalType": "uint256",
          "name": "eventId",
          "type": "uint256"
        }
      ],
      "name": "toggleEventStatus",
      "outputs": [],
      "stateMutability": "nonpayable",
      "type": "function"
    },
    {
      "inputs": [
        {
          "internalType": "address",
          "name": "newOwner",
          "type": "address"
        }
      ],
      "name": "transferOwnership",
      "outputs": [],
      "stateMutability": "nonpayable",
      "type": "function"
    },
    {
      "inputs": [
        {
          "internalType": "uint256",
          "name": "eventId",
          "type": "uint256"
        },
        {
          "internalType": "uint256",
          "name": "tokenId",
          "type": "uint256"
        }
      ],
      "name": "validateTicket",
      "outputs": [],
      "stateMutability": "nonpayable",
      "type": "function"
    },
    {
      "inputs": [
        {
          "internalType": "uint256",
          "name": "eventId",
          "type": "uint256"
        },
        {
          "internalType": "address payable",
          "name": "to",
          "type": "address"
        }
      ],
      "name": "withdrawFunds",
      "outputs": [],
      "stateMutability": "nonpayable",
      "type": "function"
    },
    {
      "stateMutability": "payable",
      "type": "receive"
    }
  ],
  "bytecode": "0x608060405234801561001057600080fd5b5060405161256b38038061256b83398101604081905261002f91610127565b338061005557604051631e4fbdf760e01b81526000600482015260240160405180910390fd5b61005e816100d7565b50600180556001600160a01b03811661008a5760405163b4fa3fb360e01b815260040160405180910390fd5b600780546001600160a01b0319166001600160a01b0383169081179091556040517ff2610996d245d9b77e4ff84c2174eea0b76fb44c422218404f66e28816d78fb990600090a250610157565b600080546001600160a01b038381166001600160a01b0319831681178455604051919092169283917f8be0079c531659141344cd1fd0a4f28419497f9722a3daafe3b4186f6b6457e09190a35050565b60006020828403121561013957600080fd5b81516001600160a01b038116811461015057600080fd5b9392505050565b612405806101666000396000f3fe6080604052600436106101005760003560e01c8063715018a61161008f578063bdbbb0cb11610061578063bdbbb0cb146102e4578063c8294769146102f7578063e13102e914610317578063f2fde38b14610337578063ff9f59701461035757005b8063715018a61461025d578063744bfe61146102725780638da5cb5b14610292578063b393391b146102c457005b80634653db16116100d35780634653db16146101ba57806352c55db9146101da57806357d802bd146101f05780636ade389b146102105780636d1884e01461023057005b8063049a5d57146101025780630b791430146101425780631b21c2c41461017a578063364c69411461018d575b005b34801561010e57600080fd5b5061012f61011d3660046119b2565b60066020526000908152604090205481565b6040519081526020015b60405180910390f35b34801561014e57600080fd5b5061016261015d3660046119b2565b610384565b6040516101399c9b9a99989796959493929190611a1b565b61012f610188366004611b92565b610617565b34801561019957600080fd5b506101ad6101a83660046119b2565b61068e565b6040516101399190611be2565b3480156101c657600080fd5b5061012f6101d5366004611c7c565b6107df565b3480156101e657600080fd5b5061012f60055481565b3480156101fc57600080fd5b5061010061020b366004611cd3565b61096e565b34801561021c57600080fd5b5061010061022b366004611d0a565b610ad6565b34801561023c57600080fd5b5061025061024b3660046119b2565b610b4f565b6040516101399190611d2e565b34801561026957600080fd5b50610100610ec6565b34801561027e57600080fd5b5061010061028d366004611e2b565b610eda565b34801561029e57600080fd5b506000546001600160a01b03165b6040516001600160a01b039091168152602001610139565b3480156102d057600080fd5b506007546102ac906001600160a01b031681565b61012f6102f2366004611cd3565b611089565b34801561030357600080fd5b5061012f610312366004611e77565b6110ec565b34801561032357600080fd5b506101006103323660046119b2565b611340565b34801561034357600080fd5b50610100610352366004611d0a565b61140e565b34801561036357600080fd5b50610377610372366004611d0a565b611451565b6040516101399190611f65565b600260208190526000918252604090912080546001820154928201805491936001600160a01b031692916103b790611fa8565b80601f01602080910402602001604051908101604052809291908181526020018280546103e390611fa8565b80156104305780601f1061040557610100808354040283529160200191610430565b820191906000526020600020905b81548152906001019060200180831161041357829003601f168201915b50505050509080600301805461044590611fa8565b80601f016020809104026020016040519081016040528092919081815260200182805461047190611fa8565b80156104be5780601f10610493576101008083540402835291602001916104be565b820191906000526020600020905b8154815290600101906020018083116104a157829003601f168201915b5050505050908060040154908060050154908060060180546104df90611fa8565b80601f016020809104026020016040519081016040528092919081815260200182805461050b90611fa8565b80156105585780601f1061052d57610100808354040283529160200191610558565b820191906000526020600020905b81548152906001019060200180831161053b57829003601f168201915b50505050509080600701805461056d90611fa8565b80601f016020809104026020016040519081016040528092919081815260200182805461059990611fa8565b80156105e65780601f106105bb576101008083540402835291602001916105e6565b820191906000526020600020905b8154815290600101906020018083116105c957829003601f168201915b5050505060088301546009840154600a909401549293909290915060ff81169061010090046001600160601b03168c565b600083801580610628575060055481115b156106465760405163afb6a7d160e01b815260040160405180910390fd5b61064e6114bd565b82516000036106705760405163b4fa3fb360e01b815260040160405180910390fd5b61067b8585856114e7565b915061068660018055565b509392505050565b60608180158061069f575060055481115b156106bd5760405163afb6a7d160e01b815260040160405180910390fd5b600083815260036020908152604080832080548251818502810185019093528083529193909284015b828210156107d257838290600052602060002090600502016040518060a00160405290816000820154815260200160018201805461072390611fa8565b80601f016020809104026020016040519081016040528092919081815260200182805461074f90611fa8565b801561079c5780601f106107715761010080835404028352916020019161079c565b820191906000526020600020905b81548152906001019060200180831161077f57829003601f168201915b505050505081526020016002820154815260200160038201548152602001600482015481525050815260200190600101906106e6565b5050505091505b50919050565b6000848015806107f0575060055481115b1561080e5760405163afb6a7d160e01b815260040160405180910390fd5b60008681526002602052604090206001015486906001600160a01b0316331461084a576040516323d03a7160e21b815260040160405180910390fd5b85511580610856575084155b8061085f575083155b1561087d5760405163b4fa3fb360e01b815260040160405180910390fd5b6040805160a0810182528881526020808201898152828401899052606083018890526000608084018190528b8152600383529384208054600181810183559186529290942083516005909302019182555191928392908201906108e0908261202b565b5060408201518160020155606082015181600301556080820151816004015550506001600360008a8152602001908152602001600020805490506109249190612100565b935083887f766363e141a90ab2ab87c4d5ab572d5df3ac4b4e6cd8228f13b6a56b02d8c5c689898960405161095b93929190612113565b60405180910390a3505050949350505050565b8180158061097d575060055481115b1561099b5760405163afb6a7d160e01b815260040160405180910390fd5b60008381526002602052604090206001015483906001600160a01b031633146109d7576040516323d03a7160e21b815260040160405180910390fd5b60075460405163033fab3560e01b8152600481018590526000916001600160a01b03169063033fab3590602401600060405180830381865afa158015610a21573d6000803e3d6000fd5b505050506040513d6000823e601f3d908101601f19168201604052610a499190810190612185565b5050505050509050848114610a715760405163afb6a7d160e01b815260040160405180910390fd5b60075460405163054ae7df60e01b8152600481018690526001600160a01b039091169063054ae7df90602401600060405180830381600087803b158015610ab757600080fd5b505af1158015610acb573d6000803e3d6000fd5b505050505050505050565b610ade61179a565b6001600160a01b038116610b055760405163b4fa3fb360e01b815260040160405180910390fd5b600780546001600160a01b0319166001600160a01b0383169081179091556040517ff2610996d245d9b77e4ff84c2174eea0b76fb44c422218404f66e28816d78fb990600090a250565b610bc76040518061018001604052806000815260200160006001600160a01b03168152602001606081526020016060815260200160008152602001600081526020016060815260200160608152602001600081526020016000815260200160001515815260200160006001600160601b031681525090565b81801580610bd6575060055481115b15610bf45760405163afb6a7d160e01b815260040160405180910390fd5b6000838152600260208181526040928390208351610180810185528154815260018201546001600160a01b03169281019290925291820180549193840191610c3b90611fa8565b80601f0160208091040260200160405190810160405280929190818152602001828054610c6790611fa8565b8015610cb45780601f10610c8957610100808354040283529160200191610cb4565b820191906000526020600020905b815481529060010190602001808311610c9757829003601f168201915b50505050508152602001600382018054610ccd90611fa8565b80601f0160208091040260200160405190810160405280929190818152602001828054610cf990611fa8565b8015610d465780601f10610d1b57610100808354040283529160200191610d46565b820191906000526020600020905b815481529060010190602001808311610d2957829003601f168201915b505050505081526020016004820154815260200160058201548152602001600682018054610d7390611fa8565b80601f0160208091040260200160405190810160405280929190818152602001828054610d9f90611fa8565b8015610dec5780601f10610dc157610100808354040283529160200191610dec565b820191906000526020600020905b815481529060010190602001808311610dcf57829003601f168201915b50505050508152602001600782018054610e0590611fa8565b80601f0160208091040260200160405190810160405280929190818152602001828054610e3190611fa8565b8015610e7e5780601f10610e5357610100808354040283529160200191610e7e565b820191906000526020600020905b815481529060010190602001808311610e6157829003601f168201915b50505091835250506008820154602082015260098201546040820152600a9091015460ff81161515606083015261010090046001600160601b03166080909101529392505050565b610ece61179a565b610ed860006117c7565b565b81801580610ee9575060055481115b15610f075760405163afb6a7d160e01b815260040160405180910390fd5b60008381526002602052604090206001015483906001600160a01b03163314610f43576040516323d03a7160e21b815260040160405180910390fd5b610f4b6114bd565b6001600160a01b038316610f725760405163b4fa3fb360e01b815260040160405180910390fd5b60008481526006602052604081205490819003610fa257604051630686827b60e51b815260040160405180910390fd5b600085815260066020526040808220829055516001600160a01b0386169083908381818185875af1925050503d8060008114610ffa576040519150601f19603f3d011682016040523d82523d6000602084013e610fff565b606091505b5050905080611033576000868152600660205260409081902083905580516327fcd9d160e01b815290519081900360040190fd5b604080518381526001600160a01b0387166020820152339188917f055bb353f6eed0f4f1c04d79fa1d7da64810bcda2a49af58c38a07b8fd5c9273910160405180910390a3505061108360018055565b50505050565b60008280158061109a575060055481115b156110b85760405163afb6a7d160e01b815260040160405180910390fd5b6110c06114bd565b6110da8484604051806020016040528060008152506114e7565b91506110e560018055565b5092915050565b60008851600014806110fd57508751155b8061110757508451155b8061111157508351155b8061111a575082155b806111255750868611155b8061112e575086155b1561114c5760405163b4fa3fb360e01b815260040160405180910390fd5b60056000815461115b90612238565b918290555060408051610180810182528281523360208083019182528284018e8152606084018e9052608084018d905260a084018c905260c084018b905260e084018a9052610100840189905260006101208501819052600161014086018190526001600160601b038a1661016087015287825260029384905295902084518155925194830180546001600160a01b0319166001600160a01b0390961695909517909455925193945090929091820190611215908261202b565b506060820151600382019061122a908261202b565b506080820151600482015560a0820151600582015560c08201516006820190611253908261202b565b5060e08201516007820190611268908261202b565b506101008281015160088301556101208301516009830155610140830151600a9092018054610160909401516001600160601b03169091026cffffffffffffffffffffffff0019921515929092166cffffffffffffffffffffffffff1990931692909217179055336000818152600460209081526040808320805460018101825590845291909220018390555182907f1d2ceb053f26b69e0921eacd1cc8550658eeeb72963f22fa59ee6c1f6866de139061132c908d908c908c908a908a90612251565b60405180910390a398975050505050505050565b8080158061134f575060055481115b1561136d5760405163afb6a7d160e01b815260040160405180910390fd5b60008281526002602052604090206001015482906001600160a01b031633146113a9576040516323d03a7160e21b815260040160405180910390fd5b600083815260026020908152604091829020600a8101805460ff8082161560ff19909216821790925593519316151583529185917f7bf55962c040938ae847142ba749182d55a7f3c0caaa789bb20e70619f700e34910160405180910390a250505050565b61141661179a565b6001600160a01b03811661144557604051631e4fbdf760e01b8152600060048201526024015b60405180910390fd5b61144e816117c7565b50565b6001600160a01b0381166000908152600460209081526040918290208054835181840281018401909452808452606093928301828280156114b157602002820191906000526020600020905b81548152602001906001019080831161149d575b50505050509050919050565b6002600154036114e057604051633ee5aeb560e01b815260040160405180910390fd5b6002600155565b6000838152600260205260408120600a81015460ff1661151a57604051639fe5276f60e01b815260040160405180910390fd5b806004015442108061152f5750806005015442115b1561154d57604051636e10858d60e11b815260040160405180910390fd5b600085815260036020526040902054841061157b57604051631c9447af60e11b815260040160405180910390fd5b600085815260036020526040812080548690811061159b5761159b612291565b9060005260206000209060050201905080600301548160040154106115d3576040516352df9fe560e01b815260040160405180910390fd5b81600801548260090154106115fb576040516352df9fe560e01b815260040160405180910390fd5b8060020154341461161f5760405163569e8c1160e01b815260040160405180910390fd5b60048101805460019081019091556009830180549091019055600086815260066020526040812080543492906116569084906122a7565b9250508190555060006040518060e00160405280888152602001878152602001336001600160a01b03168152602001348152602001611693611817565b815260006020808301829052604080519182018152918152918101919091526001850154600a860154600754925162aca1bd60e11b81529394506001600160a01b03918216936101009091046001600160601b0316929190911690630159437a9061170a90339087908c90889088906004016122ba565b6020604051808303816000875af1158015611729573d6000803e3d6000fd5b505050506040513d601f19601f8201168201806040525081019061174d9190612388565b6040805133815234602082015291975087918a918c917ffe7a8a160f28608c4d158798180f3638aa072dfc9c740e7ce564b3af4627cb5c910160405180910390a450505050509392505050565b6000546001600160a01b03163314610ed85760405163118cdaa760e01b815233600482015260240161143c565b600080546001600160a01b038381166001600160a01b0319831681178455604051919092169283917f8be0079c531659141344cd1fd0a4f28419497f9722a3daafe3b4186f6b6457e09190a35050565b606061182246611846565b60405160200161183291906123a1565b604051602081830303815290604052905090565b60606000611853836118d9565b600101905060008167ffffffffffffffff81111561187357611873611acd565b6040519080825280601f01601f19166020018201604052801561189d576020820181803683370190505b5090508181016020015b600019016f181899199a1a9b1b9c1cb0b131b232b360811b600a86061a8153600a85049450846118a757509392505050565b60008072184f03e93ff9f4daa797ed6e38ed64bf6a1f0160401b83106119185772184f03e93ff9f4daa797ed6e38ed64bf6a1f0160401b830492506040015b6d04ee2d6d415b85acef81000000008310611944576d04ee2d6d415b85acef8100000000830492506020015b662386f26fc10000831061196257662386f26fc10000830492506010015b6305f5e100831061197a576305f5e100830492506008015b612710831061198e57612710830492506004015b606483106119a0576064830492506002015b600a83106119ac576001015b92915050565b6000602082840312156119c457600080fd5b5035919050565b60005b838110156119e65781810151838201526020016119ce565b50506000910152565b60008151808452611a078160208601602086016119cb565b601f01601f19169290920160200192915050565b8c81526001600160a01b038c16602082015261018060408201819052600090611a469083018d6119ef565b8281036060840152611a58818d6119ef565b90508a60808401528960a084015282810360c0840152611a78818a6119ef565b905082810360e0840152611a8c81896119ef565b9150508561010083015284610120830152611aac61014083018515159052565b6001600160601b0383166101608301529d9c50505050505050505050505050565b634e487b7160e01b600052604160045260246000fd5b604051601f8201601f1916810167ffffffffffffffff81118282101715611b0c57611b0c611acd565b604052919050565b600067ffffffffffffffff821115611b2e57611b2e611acd565b50601f01601f191660200190565b600082601f830112611b4d57600080fd5b8135611b60611b5b82611b14565b611ae3565b818152846020838601011115611b7557600080fd5b816020850160208301376000918101602001919091529392505050565b600080600060608486031215611ba757600080fd5b8335925060208401359150604084013567ffffffffffffffff811115611bcc57600080fd5b611bd886828701611b3c565b9150509250925092565b6000602082016020835280845180835260408501915060408160051b86010192506020860160005b82811015611c7057603f19878603018452815180518652602081015160a06020880152611c3a60a08801826119ef565b60408381015190890152606080840151908901526080928301519290970191909152506020938401939190910190600101611c0a565b50929695505050505050565b60008060008060808587031215611c9257600080fd5b84359350602085013567ffffffffffffffff811115611cb057600080fd5b611cbc87828801611b3c565b949794965050505060408301359260600135919050565b60008060408385031215611ce657600080fd5b50508035926020909101359150565b6001600160a01b038116811461144e57600080fd5b600060208284031215611d1c57600080fd5b8135611d2781611cf5565b9392505050565b602081528151602082015260006020830151611d5560408401826001600160a01b03169052565b5060408301516101806060840152611d716101a08401826119ef565b90506060840151601f19848303016080850152611d8e82826119ef565b915050608084015160a084015260a084015160c084015260c0840151601f198483030160e0850152611dc082826119ef565b91505060e0840151601f1984830301610100850152611ddf82826119ef565b915050610100840151610120840152610120840151610140840152610140840151611e0f61016085018215159052565b506101608401516001600160601b038116610180850152610686565b60008060408385031215611e3e57600080fd5b823591506020830135611e5081611cf5565b809150509250929050565b80356001600160601b0381168114611e7257600080fd5b919050565b600080600080600080600080610100898b031215611e9457600080fd5b883567ffffffffffffffff811115611eab57600080fd5b611eb78b828c01611b3c565b985050602089013567ffffffffffffffff811115611ed457600080fd5b611ee08b828c01611b3c565b9750506040890135955060608901359450608089013567ffffffffffffffff811115611f0b57600080fd5b611f178b828c01611b3c565b94505060a089013567ffffffffffffffff811115611f3457600080fd5b611f408b828c01611b3c565b93505060c08901359150611f5660e08a01611e5b565b90509295985092959890939650565b602080825282518282018190526000918401906040840190835b81811015611f9d578351835260209384019390920191600101611f7f565b509095945050505050565b600181811c90821680611fbc57607f821691505b6020821081036107d957634e487b7160e01b600052602260045260246000fd5b601f82111561202657806000526020600020601f840160051c810160208510156120035750805b601f840160051c820191505b81811015612023576000815560010161200f565b50505b505050565b815167ffffffffffffffff81111561204557612045611acd565b612059816120538454611fa8565b84611fdc565b6020601f82116001811461208d57600083156120755750848201515b600019600385901b1c1916600184901b178455612023565b600084815260208120601f198516915b828110156120bd578785015182556020948501946001909201910161209d565b50848210156120db5786840151600019600387901b60f8161c191681555b50505050600190811b01905550565b634e487b7160e01b600052601160045260246000fd5b818103818111156119ac576119ac6120ea565b60608152600061212660608301866119ef565b60208301949094525060400152919050565b600082601f83011261214957600080fd5b8151612157611b5b82611b14565b81815284602083860101111561216c57600080fd5b61217d8260208301602087016119cb565b949350505050565b600080600080600080600060e0888a0312156121a057600080fd5b8751602089015160408a015191985096506121ba81611cf5565b606089015160808a0151919650945067ffffffffffffffff8111156121de57600080fd5b6121ea8a828b01612138565b93505060a0880151801515811461220057600080fd5b60c089015190925067ffffffffffffffff81111561221d57600080fd5b6122298a828b01612138565b91505092959891949750929550565b60006001820161224a5761224a6120ea565b5060010190565b60a08152600061226460a08301886119ef565b90508560208301528460408301528360608301526001600160601b03831660808301529695505050505050565b634e487b7160e01b600052603260045260246000fd5b808201808211156119ac576119ac6120ea565b60018060a01b038616815260a06020820152845160a0820152602085015160c082015260018060a01b0360408601511660e082015260608501516101008201526000608086015160e06101208401526123176101808401826119ef565b905060a0870151151561014084015260c0870151609f198483030161016085015261234282826119ef565b915050828103604084015261235781876119ef565b91505061236f60608301856001600160a01b03169052565b6001600160601b03831660808301529695505050505050565b60006020828403121561239a57600080fd5b5051919050565b6531b430b4b71d60d11b8152600082516123c28160068501602087016119cb565b919091016006019291505056fea264697066735822122097d48b05c4ad2279906fbca0f8f7d39b2de5154c61a883f46dd2b2f703daff1564736f6c634300081c0033",
  "linkReferences": {},
  "deployedLinkReferences": {}
}