{
  "_format": "hh-sol-artifact-1",
  "contractName": "TicketMarketplace",
  "sourceName": "contracts/TicketMarketplace.sol",
  "abi": [
    {
      "inputs": [
        {
          "internalType": "address",
          "name": "nft",
          "type": "address"
        }
      ],
      "stateMutability": "nonpayable",
      "type": "constructor"
    },
    {
      "inputs": [],
      "name": "AlreadyListed",
      "type": "error"
    },
    {
      "inputs": [],
      "name": "InvalidInput",
      "type": "error"
    },
    {
      "inputs": [],
      "name": "NotActive",
      "type": "error"
    },
    {
      "inputs": [],
      "name": "NotListed",
      "type": "error"
    },
    {
      "inputs": [],
      "name": "NotSeller",
      "type": "error"
    },
    {
      "inputs": [
        {
          "internalType": "address",
          "name": "owner",
          "type": "address"
        }
      ],
      "name": "OwnableInvalidOwner",
      "type": "error"
    },
    {
      "inputs": [
        {
          "internalType": "address",
          "name": "account",
          "type": "address"
        }
      ],
      "name": "OwnableUnauthorizedAccount",
      "type": "error"
    },
    {
      "inputs": [],
      "name": "ReentrancyGuardReentrantCall",
      "type": "error"
    },
    {
      "inputs": [],
      "name": "TransferFailed",
      "type": "error"
    },
    {
      "inputs": [],
      "name": "UsedTicket",
      "type": "error"
    },
    {
      "anonymous": false,
      "inputs": [
        {
          "indexed": true,
          "internalType": "uint256",
          "name": "listingId",
          "type": "uint256"
        },
        {
          "indexed": true,
          "internalType": "uint256",
          "name": "tokenId",
          "type": "uint256"
        }
      ],
      "name": "ListingCanceled",
      "type": "event"
    },
    {
      "anonymous": false,
      "inputs": [
        {
          "indexed": true,
          "internalType": "address",
          "name": "previousOwner",
          "type": "address"
        },
        {
          "indexed": true,
          "internalType": "address",
          "name": "newOwner",
          "type": "address"
        }
      ],
      "name": "OwnershipTransferred",
      "type": "event"
    },
    {
      "anonymous": false,
      "inputs": [
        {
          "indexed": true,
          "internalType": "uint256",
          "name": "listingId",
          "type": "uint256"
        },
        {
          "indexed": false,
          "internalType": "uint256",
          "name": "oldPrice",
          "type": "uint256"
        },
        {
          "indexed": false,
          "internalType": "uint256",
          "name": "newPrice",
          "type": "uint256"
        }
      ],
      "name": "PriceUpdated",
      "type": "event"
    },
    {
      "anonymous": false,
      "inputs": [
        {
          "indexed": true,
          "internalType": "uint256",
          "name": "listingId",
          "type": "uint256"
        },
        {
          "indexed": true,
          "internalType": "uint256",
          "name": "tokenId",
          "type": "uint256"
        },
        {
          "indexed": true,
          "internalType": "address",
          "name": "seller",
          "type": "address"
        },
        {
          "indexed": false,
          "internalType": "uint256",
          "name": "price",
          "type": "uint256"
        }
      ],
      "name": "TicketListed",
      "type": "event"
    },
    {
      "anonymous": false,
      "inputs": [
        {
          "indexed": true,
          "internalType": "uint256",
          "name": "listingId",
          "type": "uint256"
        },
        {
          "indexed": true,
          "internalType": "uint256",
          "name": "tokenId",
          "type": "uint256"
        },
        {
          "indexed": true,
          "internalType": "address",
          "name": "seller",
          "type": "address"
        },
        {
          "indexed": false,
          "internalType": "address",
          "name": "buyer",
          "type": "address"
        },
        {
          "indexed": false,
          "internalType": "uint256",
          "name": "price",
          "type": "uint256"
        },
        {
          "indexed": false,
          "internalType": "address",
          "name": "royaltyReceiver",
          "type": "address"
        },
        {
          "indexed": false,
          "internalType": "uint256",
          "name": "royaltyAmount",
          "type": "uint256"
        }
      ],
      "name": "TicketPurchased",
      "type": "event"
    },
    {
      "stateMutability": "payable",
      "type": "fallback"
    },
    {
      "inputs": [
        {
          "internalType": "uint256",
          "name": "listingId",
          "type": "uint256"
        }
      ],
      "name": "buyTicket",
      "outputs": [],
      "stateMutability": "payable",
      "type": "function"
    },
    {
      "inputs": [
        {
          "internalType": "uint256",
          "name": "listingId",
          "type": "uint256"
        }
      ],
      "name": "cancelListing",
      "outputs": [],
      "stateMutability": "nonpayable",
      "type": "function"
    },
    {
      "inputs": [],
      "name": "getActiveListings",
      "outputs": [
        {
          "components": [
            {
              "internalType": "uint256",
              "name": "listingId",
              "type": "uint256"
            },
            {
              "internalType": "uint256",
              "name": "tokenId",
              "type": "uint256"
            },
            {
              "internalType": "address",
              "name": "seller",
              "type": "address"
            },
            {
              "internalType": "uint256",
              "name": "price",
              "type": "uint256"
            },
            {
              "internalType": "bool",
              "name": "active",
              "type": "bool"
            },
            {
              "internalType": "uint256",
              "name": "createdAt",
              "type": "uint256"
            }
          ],
          "internalType": "struct TicketMarketplace.Listing[]",
          "name": "results",
          "type": "tuple[]"
        }
      ],
      "stateMutability": "view",
      "type": "function"
    },
    {
      "inputs": [
        {
          "internalType": "uint256",
          "name": "eventId",
          "type": "uint256"
        }
      ],
      "name": "getListingsByEvent",
      "outputs": [
        {
          "components": [
            {
              "internalType": "uint256",
              "name": "listingId",
              "type": "uint256"
            },
            {
              "internalType": "uint256",
              "name": "tokenId",
              "type": "uint256"
            },
            {
              "internalType": "address",
              "name": "seller",
              "type": "address"
            },
            {
              "internalType": "uint256",
              "name": "price",
              "type": "uint256"
            },
            {
              "internalType": "bool",
              "name": "active",
              "type": "bool"
            },
            {
              "internalType": "uint256",
              "name": "createdAt",
              "type": "uint256"
            }
          ],
          "internalType": "struct TicketMarketplace.Listing[]",
          "name": "results",
          "type": "tuple[]"
        }
      ],
      "stateMutability": "view",
      "type": "function"
    },
    {
      "inputs": [
        {
          "internalType": "uint256",
          "name": "tokenId",
          "type": "uint256"
        },
        {
          "internalType": "uint256",
          "name": "price",
          "type": "uint256"
        }
      ],
      "name": "listTicket",
      "outputs": [
        {
          "internalType": "uint256",
          "name": "listingId",
          "type": "uint256"
        }
      ],
      "stateMutability": "nonpayable",
      "type": "function"
    },
    {
      "inputs": [],
      "name": "listingCounter",
      "outputs": [
        {
          "internalType": "uint256",
          "name": "",
          "type": "uint256"
        }
      ],
      "stateMutability": "view",
      "type": "function"
    },
    {
      "inputs": [
        {
          "internalType": "uint256",
          "name": "",
          "type": "uint256"
        }
      ],
      "name": "listings",
      "outputs": [
        {
          "internalType": "uint256",
          "name": "listingId",
          "type": "uint256"
        },
        {
          "internalType": "uint256",
          "name": "tokenId",
          "type": "uint256"
        },
        {
          "internalType": "address",
          "name": "seller",
          "type": "address"
        },
        {
          "internalType": "uint256",
          "name": "price",
          "type": "uint256"
        },
        {
          "internalType": "bool",
          "name": "active",
          "type": "bool"
        },
        {
          "internalType": "uint256",
          "name": "createdAt",
          "type": "uint256"
        }
      ],
      "stateMutability": "view",
      "type": "function"
    },
    {
      "inputs": [],
      "name": "owner",
      "outputs": [
        {
          "internalType": "address",
          "name": "",
          "type": "address"
        }
      ],
      "stateMutability": "view",
      "type": "function"
    },
    {
      "inputs": [],
      "name": "renounceOwnership",
      "outputs": [],
      "stateMutability": "nonpayable",
      "type": "function"
    },
    {
      "inputs": [],
      "name": "ticketNFT",
      "outputs": [
        {
          "internalType": "contract TicketNFT",
          "name": "",
          "type": "address"
        }
      ],
      "stateMutability": "view",
      "type": "function"
    },
    {
      "inputs": [
        {
          "internalType": "uint256",
          "name": "",
          "type": "uint256"
        }
      ],
      "name": "tokenToListing",
      "outputs": [
        {
          "internalType": "uint256",
          "name": "",
          "type": "uint256"
        }
      ],
      "stateMutability": "view",
      "type": "function"
    },
    {
      "inputs": [
        {
          "internalType": "address",
          "name": "newOwner",
          "type": "address"
        }
      ],
      "name": "transferOwnership",
      "outputs": [],
      "stateMutability": "nonpayable",
      "type": "function"
    },
    {
      "inputs": [
        {
          "internalType": "uint256",
          "name": "listingId",
          "type": "uint256"
        },
        {
          "internalType": "uint256",
          "name": "newPrice",
          "type": "uint256"
        }
      ],
      "name": "updatePrice",
      "outputs": [],
      "stateMutability": "nonpayable",
      "type": "function"
    },
    {
      "stateMutability": "payable",
      "type": "receive"
    }
  ],
  "bytecode": "0x60a060405234801561001057600080fd5b5060405161162138038061162183398101604081905261002f916100eb565b338061005557604051631e4fbdf760e01b81526000600482015260240160405180910390fd5b61005e8161009b565b50600180556001600160a01b03811661008a5760405163b4fa3fb360e01b815260040160405180910390fd5b6001600160a01b031660805261011b565b600080546001600160a01b038381166001600160a01b0319831681178455604051919092169283917f8be0079c531659141344cd1fd0a4f28419497f9722a3daafe3b4186f6b6457e09190a35050565b6000602082840312156100fd57600080fd5b81516001600160a01b038116811461011457600080fd5b9392505050565b6080516114b361016e600039600081816101fd015281816103e9015281816104f5015281816105b3015281816106670152818161088201528181610a4901528181610dec0152610f3101526114b36000f3fe6080604052600436106100bd5760003560e01c806387c35bc011610079578063b393391b11610056578063b393391b146101eb578063de74e57b1461021f578063ea7eaec6146102ba578063f2fde38b146102e757005b806387c35bc0146101775780638da5cb5b14610199578063a67f09ff146101cb57005b8063305a67a8146100c6578063305a905a146100e657806367dd74ca146101195780636c2c9c7d1461012c578063715018a61461014257806382367b2d1461015757005b366100c457005b005b3480156100d257600080fd5b506100c46100e1366004611177565b610307565b3480156100f257600080fd5b50610106610101366004611190565b610484565b6040519081526020015b60405180910390f35b6100c4610127366004611177565b6107ce565b34801561013857600080fd5b5061010660025481565b34801561014e57600080fd5b506100c4610b3f565b34801561016357600080fd5b506100c4610172366004611190565b610b53565b34801561018357600080fd5b5061018c610c41565b60405161011091906111b2565b3480156101a557600080fd5b506000546001600160a01b03165b6040516001600160a01b039091168152602001610110565b3480156101d757600080fd5b5061018c6101e6366004611177565b610da2565b3480156101f757600080fd5b506101b37f000000000000000000000000000000000000000000000000000000000000000081565b34801561022b57600080fd5b5061027f61023a366004611177565b6003602081905260009182526040909120805460018201546002830154938301546004840154600590940154929491936001600160a01b0390921692909160ff169086565b6040805196875260208701959095526001600160a01b03909316938501939093526060840152901515608083015260a082015260c001610110565b3480156102c657600080fd5b506101066102d5366004611177565b60046020526000908152604090205481565b3480156102f357600080fd5b506100c461030236600461124a565b61104f565b61030f61108f565b6000818152600360205260408120805490910361033f5760405163665c1c5760e01b815260040160405180910390fd5b600481015460ff1661036457604051634065aaf160e11b815260040160405180910390fd5b60028101546001600160a01b0316331461039157604051635ec8235160e01b815260040160405180910390fd5b6004818101805460ff19169055600182018054600090815260208390526040808220919091556002840154915490516323b872dd60e01b815230938101939093526001600160a01b03918216602484015260448301527f000000000000000000000000000000000000000000000000000000000000000016906323b872dd90606401600060405180830381600087803b15801561042d57600080fd5b505af1158015610441573d6000803e3d6000fd5b505050508060010154827f3de5f6c6d480b0ed131d7db9d21b7e79660e349d57b37f688bcc0000352fb34d60405160405180910390a35061048160018055565b50565b600061048e61108f565b816000036104af5760405163b4fa3fb360e01b815260040160405180910390fd5b600083815260046020526040902054156104dc576040516328f560bb60e21b815260040160405180910390fd5b60405163033fab3560e01b8152600481018490526000907f00000000000000000000000000000000000000000000000000000000000000006001600160a01b03169063033fab3590602401600060405180830381865afa158015610544573d6000803e3d6000fd5b505050506040513d6000823e601f3d908101601f1916820160405261056c919081019061132d565b5095505050505050801561059357604051630e64a6df60e01b815260040160405180910390fd5b6040516331a9108f60e11b81526004810185905233906001600160a01b037f00000000000000000000000000000000000000000000000000000000000000001690636352211e90602401602060405180830381865afa1580156105fa573d6000803e3d6000fd5b505050506040513d601f19601f8201168201806040525081019061061e91906113da565b6001600160a01b03161461064557604051635ec8235160e01b815260040160405180910390fd5b6040516323b872dd60e01b8152336004820152306024820152604481018590527f00000000000000000000000000000000000000000000000000000000000000006001600160a01b0316906323b872dd90606401600060405180830381600087803b1580156106b357600080fd5b505af11580156106c7573d6000803e3d6000fd5b505050506002600081546106da9061140d565b91829055506040805160c081018252828152602080820188815233838501818152606085018a81526001608087018181524260a0890190815260008b81526003808a528b82209a518b559751938a019390935593516002890180546001600160a01b0319166001600160a01b03909216919091179055915194870194909455516004808701805460ff1916921515929092179091559051600590950194909455898252928252839020849055915186815292945091869185917f8b84647ec667515d9ce59e74ab9bb64476ec404345ebb9dfc3ea275bb6d8ee9b910160405180910390a4506107c860018055565b92915050565b6107d661108f565b600081815260036020526040812080549091036108065760405163665c1c5760e01b815260040160405180910390fd5b600481015460ff1661082b57604051634065aaf160e11b815260040160405180910390fd5b8060030154341461084f5760405163b4fa3fb360e01b815260040160405180910390fd5b6001810154600382015460405163152a902d60e11b81526004810192909252602482015260009081906001600160a01b037f00000000000000000000000000000000000000000000000000000000000000001690632a55205a906044016040805180830381865afa1580156108c8573d6000803e3d6000fd5b505050506040513d601f19601f820116820180604052508101906108ec9190611426565b600385015491935091506001600160a01b0383161580159061090e5750600082115b801561091e575083600301548211155b156109ab578184600301546109339190611454565b90506000836001600160a01b03168360405160006040518083038185875af1925050503d8060008114610982576040519150601f19603f3d011682016040523d82523d6000602084013e610987565b606091505b50509050806109a9576040516312171d8360e31b815260040160405180910390fd5b505b60028401546040516000916001600160a01b03169083908381818185875af1925050503d80600081146109fa576040519150601f19603f3d011682016040523d82523d6000602084013e6109ff565b606091505b5050905080610a21576040516312171d8360e31b815260040160405180910390fd5b60018501546040516323b872dd60e01b815230600482015233602482015260448101919091527f00000000000000000000000000000000000000000000000000000000000000006001600160a01b0316906323b872dd90606401600060405180830381600087803b158015610a9557600080fd5b505af1158015610aa9573d6000803e3d6000fd5b505050506004858101805460ff19169055600186018054600090815260209283526040808220919091556002880154915460038901548251338152948501526001600160a01b0388811685840152606085018890529151919092169289917feea9812fe16e2091f92a02e46a1488a162bc0f229203b46d16b870e1b39ec6ff9181900360800190a4505050505061048160018055565b610b476110b9565b610b5160006110e6565b565b80600003610b745760405163b4fa3fb360e01b815260040160405180910390fd5b60008281526003602052604081208054909103610ba45760405163665c1c5760e01b815260040160405180910390fd5b600481015460ff16610bc957604051634065aaf160e11b815260040160405180910390fd5b60028101546001600160a01b03163314610bf657604051635ec8235160e01b815260040160405180910390fd5b60038101805490839055604080518281526020810185905285917f15819dd2fd9f6418b142e798d08a18d0bf06ea368f4480b7b0d3f75bd966bc48910160405180910390a250505050565b6060600060015b6002548111610c845760008181526003602052604090206004015460ff1615610c72578160010191505b80610c7c8161140d565b915050610c48565b508067ffffffffffffffff811115610c9e57610c9e61126e565b604051908082528060200260200182016040528015610cd757816020015b610cc4611136565b815260200190600190039081610cbc5790505b509150600060015b6002548111610d9c5760008181526003602052604090206004015460ff1615610d8a57600081815260036020818152604092839020835160c0810185528154815260018201549281019290925260028101546001600160a01b031693820193909352908201546060820152600482015460ff161515608082015260059091015460a08201528451859084908110610d7857610d78611467565b60200260200101819052508160010191505b80610d948161140d565b915050610cdf565b50505090565b6060600060015b6002548111610e93576000818152600360205260409020600481015460ff1615610e8057600181015460405163033fab3560e01b81526000916001600160a01b037f0000000000000000000000000000000000000000000000000000000000000000169163033fab3591610e239160040190815260200190565b600060405180830381865afa158015610e40573d6000803e3d6000fd5b505050506040513d6000823e601f3d908101601f19168201604052610e68919081019061132d565b5050505050509050858103610e7e578360010193505b505b5080610e8b8161140d565b915050610da9565b508067ffffffffffffffff811115610ead57610ead61126e565b604051908082528060200260200182016040528015610ee657816020015b610ed3611136565b815260200190600190039081610ecb5790505b509150600060015b6002548111611047576000818152600360205260409020600481015460ff161561103457600181015460405163033fab3560e01b81526000916001600160a01b037f0000000000000000000000000000000000000000000000000000000000000000169163033fab3591610f689160040190815260200190565b600060405180830381865afa158015610f85573d6000803e3d6000fd5b505050506040513d6000823e601f3d908101601f19168201604052610fad919081019061132d565b5050505050509050868103611032576040805160c081018252835481526001840154602082015260028401546001600160a01b03169181019190915260038301546060820152600483015460ff1615156080820152600583015460a0820152865187908690811061102057611020611467565b60200260200101819052508360010193505b505b508061103f8161140d565b915050610eee565b505050919050565b6110576110b9565b6001600160a01b03811661108657604051631e4fbdf760e01b8152600060048201526024015b60405180910390fd5b610481816110e6565b6002600154036110b257604051633ee5aeb560e01b815260040160405180910390fd5b6002600155565b6000546001600160a01b03163314610b515760405163118cdaa760e01b815233600482015260240161107d565b600080546001600160a01b038381166001600160a01b0319831681178455604051919092169283917f8be0079c531659141344cd1fd0a4f28419497f9722a3daafe3b4186f6b6457e09190a35050565b6040518060c00160405280600081526020016000815260200160006001600160a01b0316815260200160008152602001600015158152602001600081525090565b60006020828403121561118957600080fd5b5035919050565b600080604083850312156111a357600080fd5b50508035926020909101359150565b602080825282518282018190526000919060409081850190868401855b82811015611228578151805185528681015187860152858101516001600160a01b0316868601526060808201519086015260808082015115159086015260a0908101519085015260c090930192908501906001016111cf565b5091979650505050505050565b6001600160a01b038116811461048157600080fd5b60006020828403121561125c57600080fd5b813561126781611235565b9392505050565b634e487b7160e01b600052604160045260246000fd5b600082601f83011261129557600080fd5b815167ffffffffffffffff808211156112b0576112b061126e565b604051601f8301601f19908116603f011681019082821181831017156112d8576112d861126e565b81604052838152602092508660208588010111156112f557600080fd5b600091505b8382101561131757858201830151818301840152908201906112fa565b6000602085830101528094505050505092915050565b600080600080600080600060e0888a03121561134857600080fd5b8751965060208801519550604088015161136181611235565b606089015160808a0151919650945067ffffffffffffffff8082111561138657600080fd5b6113928b838c01611284565b945060a08a0151915081151582146113a957600080fd5b60c08a0151919350808211156113be57600080fd5b506113cb8a828b01611284565b91505092959891949750929550565b6000602082840312156113ec57600080fd5b815161126781611235565b634e487b7160e01b600052601160045260246000fd5b60006001820161141f5761141f6113f7565b5060010190565b6000806040838503121561143957600080fd5b825161144481611235565b6020939093015192949293505050565b818103818111156107c8576107c86113f7565b634e487b7160e01b600052603260045260246000fdfea26469706673582212202bc6ede569a7f03a34689e58d4c534ada362144e31f907f174a238136134f38864736f6c63430008160033",
  "linkReferences": {},
  "deployedLinkReferences": {}
}