{
  "_format": "hh-sol-artifact-1",
  "contractName": "TicketNFT",
  "sourceName": "contracts/TicketNFT.sol",
  "abi": [
    {
      "inputs": [
        {
          "internalType": "string",
          "name": "name_",
          "type": "string"
        },
        {
          "internalType": "string",
          "name": "symbol_",
          "type": "string"
        },
        {
          "internalType": "address",
          "name": "initialFactory",
          "type": "address"
        },
        {
          "internalType": "address",
          "name": "defaultRoyaltyReceiver",
          "type": "address"
        },
        {
          "internalType": "uint96",
          "name": "defaultRoyaltyBps",
          "type": "uint96"
        }
      ],
      "stateMutability": "nonpayable",
      "type": "constructor"
    },
    {
      "inputs": [
        {
          "internalType": "uint256",
          "name": "numerator",
          "type": "uint256"
        },
        {
          "internalType": "uint256",
          "name": "denominator",
          "type": "uint256"
        }
      ],
      "name": "ERC2981InvalidDefaultRoyalty",
      "type": "error"
    },
    {
      "inputs": [
        {
          "internalType": "address",
          "name": "receiver",
          "type": "address"
        }
      ],
      "name": "ERC2981InvalidDefaultRoyaltyReceiver",
      "type": "error"
    },
    {
      "inputs": [
        {
          "internalType": "uint256",
          "name": "tokenId",
          "type": "uint256"
        },
        {
          "internalType": "uint256",
          "name": "numerator",
          "type": "uint256"
        },
        {
          "internalType": "uint256",
          "name": "denominator",
          "type": "uint256"
        }
      ],
      "name": "ERC2981InvalidTokenRoyalty",
      "type": "error"
    },
    {
      "inputs": [
        {
          "internalType": "uint256",
          "name": "tokenId",
          "type": "uint256"
        },
        {
          "internalType": "address",
          "name": "receiver",
          "type": "address"
        }
      ],
      "name": "ERC2981InvalidTokenRoyaltyReceiver",
      "type": "error"
    },
    {
      "inputs": [
        {
          "internalType": "address",
          "name": "sender",
          "type": "address"
        },
        {
          "internalType": "uint256",
          "name": "tokenId",
          "type": "uint256"
        },
        {
          "internalType": "address",
          "name": "owner",
          "type": "address"
        }
      ],
      "name": "ERC721IncorrectOwner",
      "type": "error"
    },
    {
      "inputs": [
        {
          "internalType": "address",
          "name": "operator",
          "type": "address"
        },
        {
          "internalType": "uint256",
          "name": "tokenId",
          "type": "uint256"
        }
      ],
      "name": "ERC721InsufficientApproval",
      "type": "error"
    },
    {
      "inputs": [
        {
          "internalType": "address",
          "name": "approver",
          "type": "address"
        }
      ],
      "name": "ERC721InvalidApprover",
      "type": "error"
    },
    {
      "inputs": [
        {
          "internalType": "address",
          "name": "operator",
          "type": "address"
        }
      ],
      "name": "ERC721InvalidOperator",
      "type": "error"
    },
    {
      "inputs": [
        {
          "internalType": "address",
          "name": "owner",
          "type": "address"
        }
      ],
      "name": "ERC721InvalidOwner",
      "type": "error"
    },
    {
      "inputs": [
        {
          "internalType": "address",
          "name": "receiver",
          "type": "address"
        }
      ],
      "name": "ERC721InvalidReceiver",
      "type": "error"
    },
    {
      "inputs": [
        {
          "internalType": "address",
          "name": "sender",
          "type": "address"
        }
      ],
      "name": "ERC721InvalidSender",
      "type": "error"
    },
    {
      "inputs": [
        {
          "internalType": "uint256",
          "name": "tokenId",
          "type": "uint256"
        }
      ],
      "name": "ERC721NonexistentToken",
      "type": "error"
    },
    {
      "inputs": [],
      "name": "InvalidAddress",
      "type": "error"
    },
    {
      "inputs": [
        {
          "internalType": "address",
          "name": "owner",
          "type": "address"
        }
      ],
      "name": "OwnableInvalidOwner",
      "type": "error"
    },
    {
      "inputs": [
        {
          "internalType": "address",
          "name": "account",
          "type": "address"
        }
      ],
      "name": "OwnableUnauthorizedAccount",
      "type": "error"
    },
    {
      "inputs": [],
      "name": "TicketUsed",
      "type": "error"
    },
    {
      "inputs": [],
      "name": "TokenNonexistent",
      "type": "error"
    },
    {
      "inputs": [],
      "name": "Unauthorized",
      "type": "error"
    },
    {
      "anonymous": false,
      "inputs": [
        {
          "indexed": true,
          "internalType": "address",
          "name": "owner",
          "type": "address"
        },
        {
          "indexed": true,
          "internalType": "address",
          "name": "approved",
          "type": "address"
        },
        {
          "indexed": true,
          "internalType": "uint256",
          "name": "tokenId",
          "type": "uint256"
        }
      ],
      "name": "Approval",
      "type": "event"
    },
    {
      "anonymous": false,
      "inputs": [
        {
          "indexed": true,
          "internalType": "address",
          "name": "owner",
          "type": "address"
        },
        {
          "indexed": true,
          "internalType": "address",
          "name": "operator",
          "type": "address"
        },
        {
          "indexed": false,
          "internalType": "bool",
          "name": "approved",
          "type": "bool"
        }
      ],
      "name": "ApprovalForAll",
      "type": "event"
    },
    {
      "anonymous": false,
      "inputs": [
        {
          "indexed": true,
          "internalType": "address",
          "name": "factory",
          "type": "address"
        }
      ],
      "name": "FactoryUpdated",
      "type": "event"
    },
    {
      "anonymous": false,
      "inputs": [
        {
          "indexed": true,
          "internalType": "address",
          "name": "previousOwner",
          "type": "address"
        },
        {
          "indexed": true,
          "internalType": "address",
          "name": "newOwner",
          "type": "address"
        }
      ],
      "name": "OwnershipTransferred",
      "type": "event"
    },
    {
      "anonymous": false,
      "inputs": [
        {
          "indexed": true,
          "internalType": "uint256",
          "name": "tokenId",
          "type": "uint256"
        },
        {
          "indexed": true,
          "internalType": "uint256",
          "name": "eventId",
          "type": "uint256"
        },
        {
          "indexed": true,
          "internalType": "uint256",
          "name": "ticketTypeId",
          "type": "uint256"
        },
        {
          "indexed": false,
          "internalType": "address",
          "name": "to",
          "type": "address"
        },
        {
          "indexed": false,
          "internalType": "uint256",
          "name": "purchasePrice",
          "type": "uint256"
        },
        {
          "indexed": false,
          "internalType": "string",
          "name": "purchaseChain",
          "type": "string"
        },
        {
          "indexed": false,
          "internalType": "string",
          "name": "tokenURI",
          "type": "string"
        }
      ],
      "name": "TicketMinted",
      "type": "event"
    },
    {
      "anonymous": false,
      "inputs": [
        {
          "indexed": true,
          "internalType": "uint256",
          "name": "tokenId",
          "type": "uint256"
        },
        {
          "indexed": false,
          "internalType": "uint256",
          "name": "timestamp",
          "type": "uint256"
        }
      ],
      "name": "TicketValidated",
      "type": "event"
    },
    {
      "anonymous": false,
      "inputs": [
        {
          "indexed": true,
          "internalType": "uint256",
          "name": "tokenId",
          "type": "uint256"
        },
        {
          "indexed": false,
          "internalType": "string",
          "name": "tokenURI",
          "type": "string"
        }
      ],
      "name": "TokenURISet",
      "type": "event"
    },
    {
      "anonymous": false,
      "inputs": [
        {
          "indexed": true,
          "internalType": "address",
          "name": "from",
          "type": "address"
        },
        {
          "indexed": true,
          "internalType": "address",
          "name": "to",
          "type": "address"
        },
        {
          "indexed": true,
          "internalType": "uint256",
          "name": "tokenId",
          "type": "uint256"
        }
      ],
      "name": "Transfer",
      "type": "event"
    },
    {
      "inputs": [
        {
          "internalType": "address",
          "name": "to",
          "type": "address"
        },
        {
          "internalType": "uint256",
          "name": "tokenId",
          "type": "uint256"
        }
      ],
      "name": "approve",
      "outputs": [],
      "stateMutability": "nonpayable",
      "type": "function"
    },
    {
      "inputs": [
        {
          "internalType": "address",
          "name": "owner",
          "type": "address"
        }
      ],
      "name": "balanceOf",
      "outputs": [
        {
          "internalType": "uint256",
          "name": "",
          "type": "uint256"
        }
      ],
      "stateMutability": "view",
      "type": "function"
    },
    {
      "inputs": [],
      "name": "factory",
      "outputs": [
        {
          "internalType": "address",
          "name": "",
          "type": "address"
        }
      ],
      "stateMutability": "view",
      "type": "function"
    },
    {
      "inputs": [
        {
          "internalType": "uint256",
          "name": "tokenId",
          "type": "uint256"
        }
      ],
      "name": "getApproved",
      "outputs": [
        {
          "internalType": "address",
          "name": "",
          "type": "address"
        }
      ],
      "stateMutability": "view",
      "type": "function"
    },
    {
      "inputs": [
        {
          "internalType": "address",
          "name": "owner",
          "type": "address"
        }
      ],
      "name": "getUserTickets",
      "outputs": [
        {
          "internalType": "uint256[]",
          "name": "tokenIds",
          "type": "uint256[]"
        }
      ],
      "stateMutability": "view",
      "type": "function"
    },
    {
      "inputs": [
        {
          "internalType": "address",
          "name": "owner",
          "type": "address"
        },
        {
          "internalType": "address",
          "name": "operator",
          "type": "address"
        }
      ],
      "name": "isApprovedForAll",
      "outputs": [
        {
          "internalType": "bool",
          "name": "",
          "type": "bool"
        }
      ],
      "stateMutability": "view",
      "type": "function"
    },
    {
      "inputs": [
        {
          "internalType": "address",
          "name": "to",
          "type": "address"
        },
        {
          "components": [
            {
              "internalType": "uint256",
              "name": "eventId",
              "type": "uint256"
            },
            {
              "internalType": "uint256",
              "name": "ticketTypeId",
              "type": "uint256"
            },
            {
              "internalType": "address",
              "name": "originalOwner",
              "type": "address"
            },
            {
              "internalType": "uint256",
              "name": "purchasePrice",
              "type": "uint256"
            },
            {
              "internalType": "string",
              "name": "purchaseChain",
              "type": "string"
            },
            {
              "internalType": "bool",
              "name": "used",
              "type": "bool"
            },
            {
              "internalType": "string",
              "name": "qrCodeHash",
              "type": "string"
            }
          ],
          "internalType": "struct TicketNFT.TicketMetadata",
          "name": "meta",
          "type": "tuple"
        },
        {
          "internalType": "string",
          "name": "tokenURI_",
          "type": "string"
        },
        {
          "internalType": "address",
          "name": "royaltyReceiver",
          "type": "address"
        },
        {
          "internalType": "uint96",
          "name": "royaltyBps",
          "type": "uint96"
        }
      ],
      "name": "mint",
      "outputs": [
        {
          "internalType": "uint256",
          "name": "tokenId",
          "type": "uint256"
        }
      ],
      "stateMutability": "nonpayable",
      "type": "function"
    },
    {
      "inputs": [],
      "name": "name",
      "outputs": [
        {
          "internalType": "string",
          "name": "",
          "type": "string"
        }
      ],
      "stateMutability": "view",
      "type": "function"
    },
    {
      "inputs": [],
      "name": "owner",
      "outputs": [
        {
          "internalType": "address",
          "name": "",
          "type": "address"
        }
      ],
      "stateMutability": "view",
      "type": "function"
    },
    {
      "inputs": [
        {
          "internalType": "uint256",
          "name": "tokenId",
          "type": "uint256"
        }
      ],
      "name": "ownerOf",
      "outputs": [
        {
          "internalType": "address",
          "name": "",
          "type": "address"
        }
      ],
      "stateMutability": "view",
      "type": "function"
    },
    {
      "inputs": [],
      "name": "renounceOwnership",
      "outputs": [],
      "stateMutability": "nonpayable",
      "type": "function"
    },
    {
      "inputs": [
        {
          "internalType": "uint256",
          "name": "tokenId",
          "type": "uint256"
        },
        {
          "internalType": "uint256",
          "name": "salePrice",
          "type": "uint256"
        }
      ],
      "name": "royaltyInfo",
      "outputs": [
        {
          "internalType": "address",
          "name": "receiver",
          "type": "address"
        },
        {
          "internalType": "uint256",
          "name": "amount",
          "type": "uint256"
        }
      ],
      "stateMutability": "view",
      "type": "function"
    },
    {
      "inputs": [
        {
          "internalType": "address",
          "name": "from",
          "type": "address"
        },
        {
          "internalType": "address",
          "name": "to",
          "type": "address"
        },
        {
          "internalType": "uint256",
          "name": "tokenId",
          "type": "uint256"
        }
      ],
      "name": "safeTransferFrom",
      "outputs": [],
      "stateMutability": "nonpayable",
      "type": "function"
    },
    {
      "inputs": [
        {
          "internalType": "address",
          "name": "from",
          "type": "address"
        },
        {
          "internalType": "address",
          "name": "to",
          "type": "address"
        },
        {
          "internalType": "uint256",
          "name": "tokenId",
          "type": "uint256"
        },
        {
          "internalType": "bytes",
          "name": "data",
          "type": "bytes"
        }
      ],
      "name": "safeTransferFrom",
      "outputs": [],
      "stateMutability": "nonpayable",
      "type": "function"
    },
    {
      "inputs": [
        {
          "internalType": "address",
          "name": "operator",
          "type": "address"
        },
        {
          "internalType": "bool",
          "name": "approved",
          "type": "bool"
        }
      ],
      "name": "setApprovalForAll",
      "outputs": [],
      "stateMutability": "nonpayable",
      "type": "function"
    },
    {
      "inputs": [
        {
          "internalType": "address",
          "name": "newFactory",
          "type": "address"
        }
      ],
      "name": "setFactory",
      "outputs": [],
      "stateMutability": "nonpayable",
      "type": "function"
    },
    {
      "inputs": [
        {
          "internalType": "uint256",
          "name": "tokenId",
          "type": "uint256"
        },
        {
          "internalType": "string",
          "name": "newURI",
          "type": "string"
        }
      ],
      "name": "setTokenURI",
      "outputs": [],
      "stateMutability": "nonpayable",
      "type": "function"
    },
    {
      "inputs": [
        {
          "internalType": "bytes4",
          "name": "interfaceId",
          "type": "bytes4"
        }
      ],
      "name": "supportsInterface",
      "outputs": [
        {
          "internalType": "bool",
          "name": "",
          "type": "bool"
        }
      ],
      "stateMutability": "view",
      "type": "function"
    },
    {
      "inputs": [],
      "name": "symbol",
      "outputs": [
        {
          "internalType": "string",
          "name": "",
          "type": "string"
        }
      ],
      "stateMutability": "view",
      "type": "function"
    },
    {
      "inputs": [
        {
          "internalType": "uint256",
          "name": "",
          "type": "uint256"
        }
      ],
      "name": "ticketDetails",
      "outputs": [
        {
          "internalType": "uint256",
          "name": "eventId",
          "type": "uint256"
        },
        {
          "internalType": "uint256",
          "name": "ticketTypeId",
          "type": "uint256"
        },
        {
          "internalType": "address",
          "name": "originalOwner",
          "type": "address"
        },
        {
          "internalType": "uint256",
          "name": "purchasePrice",
          "type": "uint256"
        },
        {
          "internalType": "string",
          "name": "purchaseChain",
          "type": "string"
        },
        {
          "internalType": "bool",
          "name": "used",
          "type": "bool"
        },
        {
          "internalType": "string",
          "name": "qrCodeHash",
          "type": "string"
        }
      ],
      "stateMutability": "view",
      "type": "function"
    },
    {
      "inputs": [],
      "name": "tokenCounter",
      "outputs": [
        {
          "internalType": "uint256",
          "name": "",
          "type": "uint256"
        }
      ],
      "stateMutability": "view",
      "type": "function"
    },
    {
      "inputs": [
        {
          "internalType": "uint256",
          "name": "tokenId",
          "type": "uint256"
        }
      ],
      "name": "tokenURI",
      "outputs": [
        {
          "internalType": "string",
          "name": "",
          "type": "string"
        }
      ],
      "stateMutability": "view",
      "type": "function"
    },
    {
      "inputs": [
        {
          "internalType": "address",
          "name": "from",
          "type": "address"
        },
        {
          "internalType": "address",
          "name": "to",
          "type": "address"
        },
        {
          "internalType": "uint256",
          "name": "tokenId",
          "type": "uint256"
        }
      ],
      "name": "transferFrom",
      "outputs": [],
      "stateMutability": "nonpayable",
      "type": "function"
    },
    {
      "inputs": [
        {
          "internalType": "address",
          "name": "newOwner",
          "type": "address"
        }
      ],
      "name": "transferOwnership",
      "outputs": [],
      "stateMutability": "nonpayable",
      "type": "function"
    },
    {
      "inputs": [
        {
          "internalType": "uint256",
          "name": "tokenId",
          "type": "uint256"
        }
      ],
      "name": "validateTicket",
      "outputs": [],
      "stateMutability": "nonpayable",
      "type": "function"
    }
  ],
  "bytecode": "0x60806040523480156200001157600080fd5b506040516200227d3803806200227d833981016040819052620000349162000324565b338585600062000045838262000467565b50600162000054828262000467565b5050506001600160a01b0381166200008757604051631e4fbdf760e01b8152600060048201526024015b60405180910390fd5b620000928162000146565b506001600160a01b038316620000bb5760405163e6c4247b60e01b815260040160405180910390fd5b600c80546001600160a01b0319166001600160a01b0385811691909117909155821615801590620000f557506000816001600160601b0316115b15620001075762000107828262000198565b6040516001600160a01b038416907f24cd1310c8883cbeaf5b805ab13586ce018b79c022827158ff3e8df14d34493690600090a2505050505062000533565b600680546001600160a01b038381166001600160a01b0319831681179093556040519116919082907f8be0079c531659141344cd1fd0a4f28419497f9722a3daafe3b4186f6b6457e090600090a35050565b6127106001600160601b038216811015620001d957604051636f483d0960e01b81526001600160601b0383166004820152602481018290526044016200007e565b6001600160a01b0383166200020557604051635b6cc80560e11b8152600060048201526024016200007e565b50604080518082019091526001600160a01b039092168083526001600160601b039091166020909201829052600160a01b90910217600755565b634e487b7160e01b600052604160045260246000fd5b600082601f8301126200026757600080fd5b81516001600160401b03808211156200028457620002846200023f565b604051601f8301601f19908116603f01168101908282118183101715620002af57620002af6200023f565b8160405283815260209250866020858801011115620002cd57600080fd5b600091505b83821015620002f15785820183015181830184015290820190620002d2565b6000602085830101528094505050505092915050565b80516001600160a01b03811681146200031f57600080fd5b919050565b600080600080600060a086880312156200033d57600080fd5b85516001600160401b03808211156200035557600080fd5b6200036389838a0162000255565b965060208801519150808211156200037a57600080fd5b50620003898882890162000255565b9450506200039a6040870162000307565b9250620003aa6060870162000307565b60808701519092506001600160601b0381168114620003c857600080fd5b809150509295509295909350565b600181811c90821680620003eb57607f821691505b6020821081036200040c57634e487b7160e01b600052602260045260246000fd5b50919050565b601f82111562000462576000816000526020600020601f850160051c810160208610156200043d5750805b601f850160051c820191505b818110156200045e5782815560010162000449565b5050505b505050565b81516001600160401b038111156200048357620004836200023f565b6200049b81620004948454620003d6565b8462000412565b602080601f831160018114620004d35760008415620004ba5750858301515b600019600386901b1c1916600185901b1785556200045e565b600085815260208120601f198616915b828110156200050457888601518255948401946001909101908401620004e3565b5085821015620005235787850151600019600388901b60f8161c191681555b5050505050600190811b01905550565b611d3a80620005436000396000f3fe608060405234801561001057600080fd5b50600436106101735760003560e01c80635bb47808116100de578063a22cb46511610097578063c87b56dd11610071578063c87b56dd1461036d578063d082e38114610380578063e985e9c514610389578063f2fde38b1461039c57600080fd5b8063a22cb46514610334578063b88d4fde14610347578063c45a01551461035a57600080fd5b80635bb47808146102da5780636352211e146102ed57806370a0823114610300578063715018a6146103135780638da5cb5b1461031b57806395d89b411461032c57600080fd5b8063081812fc11610130578063081812fc14610231578063095ea7b31461025c578063162094c41461026f57806323b872dd146102825780632a55205a1461029557806342842e0e146102c757600080fd5b80630159437a1461017857806301ffc9a71461019e578063033fab35146101c15780630484a22f146101e7578063054ae7df1461020757806306fdde031461021c575b600080fd5b61018b610186366004611677565b6103af565b6040519081526020015b60405180910390f35b6101b16101ac3660046117b5565b61057a565b6040519015158152602001610195565b6101d46101cf3660046117d2565b61058b565b6040516101959796959493929190611831565b6101fa6101f536600461188c565b6106eb565b60405161019591906118a7565b61021a6102153660046117d2565b6107ea565b005b6102246108c9565b60405161019591906118eb565b61024461023f3660046117d2565b61095b565b6040516001600160a01b039091168152602001610195565b61021a61026a3660046118fe565b610984565b61021a61027d366004611928565b610993565b61021a61029036600461196f565b610a38565b6102a86102a33660046119ab565b610ac8565b604080516001600160a01b039093168352602083019190915201610195565b61021a6102d536600461196f565b610b4d565b61021a6102e836600461188c565b610b6d565b6102446102fb3660046117d2565b610be6565b61018b61030e36600461188c565b610bf1565b61021a610c39565b6006546001600160a01b0316610244565b610224610c4d565b61021a6103423660046119cd565b610c5c565b61021a610355366004611a00565b610c67565b600c54610244906001600160a01b031681565b61022461037b3660046117d2565b610c7f565b61018b600b5481565b6101b1610397366004611a7c565b610d51565b61021a6103aa36600461188c565b610d7f565b600c546000906001600160a01b031633146103dc576040516282b42960e81b815260040160405180910390fd5b6001600160a01b0386166104035760405163e6c4247b60e01b815260040160405180910390fd5b600b6000815461041290611abc565b918290555090506001600160a01b0386163b15610438576104338682610dbd565b610442565b6104428682610e22565b60008181526009602090815260409182902087518155908701516001820155908601516002820180546001600160a01b0319166001600160a01b0390921691909117905560608601516003820155608086015186919060048201906104a79082611b57565b5060a082015160058201805460ff191691151591909117905560c082015160068201906104d49082611b57565b5050506000818152600a602052604090206104ef8582611b57565b506001600160a01b0383161580159061051157506000826001600160601b0316115b1561052157610521818484610e3c565b84602001518560000151827fd3f8dd3126bd89cd05decbf86c2af62f7138e2b5734c4702cada5f3474351cf88989606001518a608001518a6040516105699493929190611c17565b60405180910390a495945050505050565b600061058582610efe565b92915050565b60096020526000908152604090208054600182015460028301546003840154600485018054949593946001600160a01b039093169391926105cb90611ad5565b80601f01602080910402602001604051908101604052809291908181526020018280546105f790611ad5565b80156106445780601f1061061957610100808354040283529160200191610644565b820191906000526020600020905b81548152906001019060200180831161062757829003601f168201915b5050506005840154600685018054949560ff90921694919350915061066890611ad5565b80601f016020809104026020016040519081016040528092919081815260200182805461069490611ad5565b80156106e15780601f106106b6576101008083540402835291602001916106e1565b820191906000526020600020905b8154815290600101906020018083116106c457829003601f168201915b5050505050905087565b6060600060015b600b54811161073557836001600160a01b031661070e82610f23565b6001600160a01b031603610723578160010191505b8061072d81611abc565b9150506106f2565b508067ffffffffffffffff81111561074f5761074f611574565b604051908082528060200260200182016040528015610778578160200160208202803683370190505b509150600060015b600b5481116107e257846001600160a01b031661079c82610f23565b6001600160a01b0316036107d057808483815181106107bd576107bd611c5b565b6020026020010181815250508160010191505b806107da81611abc565b915050610780565b505050919050565b600c546001600160a01b03163314610814576040516282b42960e81b815260040160405180910390fd5b600061081f82610f23565b6001600160a01b0316036108465760405163072ec25360e41b815260040160405180910390fd5b6000818152600960205260409020600581015460ff161561087a5760405163f37f8bbd60e01b815260040160405180910390fd5b60058101805460ff1916600117905560405182907f13f7f5b33d9ea208efe060c1475c68713849be1723bc235841d6d2af20eb20c4906108bd9042815260200190565b60405180910390a25050565b6060600080546108d890611ad5565b80601f016020809104026020016040519081016040528092919081815260200182805461090490611ad5565b80156109515780601f1061092657610100808354040283529160200191610951565b820191906000526020600020905b81548152906001019060200180831161093457829003601f168201915b5050505050905090565b600061096682610f3e565b506000828152600460205260409020546001600160a01b0316610585565b61098f828233610f76565b5050565b600c546001600160a01b031633146109bd576040516282b42960e81b815260040160405180910390fd5b60006109c883610f23565b6001600160a01b0316036109ef5760405163072ec25360e41b815260040160405180910390fd5b6000828152600a60205260409020610a078282611b57565b50817fda84ca2183491f179a603e877b2cb058e42195041c2b9c53d746427e519a34df826040516108bd91906118eb565b6001600160a01b038216610a6757604051633250574960e11b8152600060048201526024015b60405180910390fd5b6000610a74838333610f83565b9050836001600160a01b0316816001600160a01b031614610ac2576040516364283d7b60e01b81526001600160a01b0380861660048301526024820184905282166044820152606401610a5e565b50505050565b600082815260086020526040812080548291906001600160a01b03811690600160a01b90046001600160601b031681610b1c5750506007546001600160a01b03811690600160a01b90046001600160601b03165b6000612710610b346001600160601b03841689611c71565b610b3e9190611c88565b92989297509195505050505050565b610b6883838360405180602001604052806000815250610c67565b505050565b610b75610fe6565b6001600160a01b038116610b9c5760405163e6c4247b60e01b815260040160405180910390fd5b600c80546001600160a01b0319166001600160a01b0383169081179091556040517f24cd1310c8883cbeaf5b805ab13586ce018b79c022827158ff3e8df14d34493690600090a250565b600061058582610f3e565b60006001600160a01b038216610c1d576040516322718ad960e21b815260006004820152602401610a5e565b506001600160a01b031660009081526003602052604090205490565b610c41610fe6565b610c4b6000611013565b565b6060600180546108d890611ad5565b61098f338383611065565b610c72848484610a38565b610ac23385858585611104565b60606000610c8c83610f23565b6001600160a01b031603610cb35760405163072ec25360e41b815260040160405180910390fd5b6000828152600a602052604090208054610ccc90611ad5565b80601f0160208091040260200160405190810160405280929190818152602001828054610cf890611ad5565b8015610d455780601f10610d1a57610100808354040283529160200191610d45565b820191906000526020600020905b815481529060010190602001808311610d2857829003601f168201915b50505050509050919050565b6001600160a01b03918216600090815260056020908152604080832093909416825291909152205460ff1690565b610d87610fe6565b6001600160a01b038116610db157604051631e4fbdf760e01b815260006004820152602401610a5e565b610dba81611013565b50565b6001600160a01b038216610de757604051633250574960e11b815260006004820152602401610a5e565b6000610df583836000610f83565b90506001600160a01b03811615610b68576040516339e3563760e11b815260006004820152602401610a5e565b61098f82826040518060200160405280600081525061122f565b6127106001600160601b038216811015610e825760405163dfd1fc1b60e01b8152600481018590526001600160601b038316602482015260448101829052606401610a5e565b6001600160a01b038316610eb357604051634b4f842960e11b81526004810185905260006024820152604401610a5e565b506040805180820182526001600160a01b0393841681526001600160601b0392831660208083019182526000968752600890529190942093519051909116600160a01b029116179055565b60006001600160e01b0319821663152a902d60e11b1480610585575061058582611247565b6000908152600260205260409020546001600160a01b031690565b600080610f4a83610f23565b90506001600160a01b03811661058557604051637e27328960e01b815260048101849052602401610a5e565b610b688383836001611297565b600080610f8f84610f23565b6001600160a01b031614610fd3576000838152600960205260409020600581015460ff1615610fd15760405163f37f8bbd60e01b815260040160405180910390fd5b505b610fde84848461139d565b949350505050565b6006546001600160a01b03163314610c4b5760405163118cdaa760e01b8152336004820152602401610a5e565b600680546001600160a01b038381166001600160a01b0319831681179093556040519116919082907f8be0079c531659141344cd1fd0a4f28419497f9722a3daafe3b4186f6b6457e090600090a35050565b6001600160a01b03821661109757604051630b61174360e31b81526001600160a01b0383166004820152602401610a5e565b6001600160a01b03838116600081815260056020908152604080832094871680845294825291829020805460ff191686151590811790915591519182527f17307eab39ab6107e8899845ad3d59bd9653f200f220920489ca2b5937696c31910160405180910390a3505050565b6001600160a01b0383163b1561122857604051630a85bd0160e11b81526001600160a01b0384169063150b7a0290611146908890889087908790600401611caa565b6020604051808303816000875af1925050508015611181575060408051601f3d908101601f1916820190925261117e91810190611ce7565b60015b6111ea573d8080156111af576040519150601f19603f3d011682016040523d82523d6000602084013e6111b4565b606091505b5080516000036111e257604051633250574960e11b81526001600160a01b0385166004820152602401610a5e565b805160208201fd5b6001600160e01b03198116630a85bd0160e11b1461122657604051633250574960e11b81526001600160a01b0385166004820152602401610a5e565b505b5050505050565b6112398383610dbd565b610b68336000858585611104565b60006001600160e01b031982166380ac58cd60e01b148061127857506001600160e01b03198216635b5e139f60e01b145b8061058557506301ffc9a760e01b6001600160e01b0319831614610585565b80806112ab57506001600160a01b03821615155b1561136d5760006112bb84610f3e565b90506001600160a01b038316158015906112e75750826001600160a01b0316816001600160a01b031614155b80156112fa57506112f88184610d51565b155b156113235760405163a9fbf51f60e01b81526001600160a01b0384166004820152602401610a5e565b811561136b5783856001600160a01b0316826001600160a01b03167f8c5be1e5ebec7d5bd14f71427d1e84f3dd0314c0f7b2291e5b200ac8c7c3b92560405160405180910390a45b505b5050600090815260046020526040902080546001600160a01b0319166001600160a01b0392909216919091179055565b6000806113a984610f23565b90506001600160a01b038316156113c5576113c5818486611491565b6001600160a01b03811615611403576113e2600085600080611297565b6001600160a01b038116600090815260036020526040902080546000190190555b6001600160a01b03851615611432576001600160a01b0385166000908152600360205260409020805460010190555b60008481526002602052604080822080546001600160a01b0319166001600160a01b0389811691821790925591518793918516917fddf252ad1be2c89b69c2b068fc378daa952ba7f163c4a11628f55a4df523b3ef91a4949350505050565b61149c8383836114f5565b610b68576001600160a01b0383166114ca57604051637e27328960e01b815260048101829052602401610a5e565b60405163177e802f60e01b81526001600160a01b038316600482015260248101829052604401610a5e565b60006001600160a01b03831615801590610fde5750826001600160a01b0316846001600160a01b0316148061152f575061152f8484610d51565b80610fde5750506000908152600460205260409020546001600160a01b03908116911614919050565b80356001600160a01b038116811461156f57600080fd5b919050565b634e487b7160e01b600052604160045260246000fd5b60405160e0810167ffffffffffffffff811182821017156115ad576115ad611574565b60405290565b600067ffffffffffffffff808411156115ce576115ce611574565b604051601f8501601f19908116603f011681019082821181831017156115f6576115f6611574565b8160405280935085815286868601111561160f57600080fd5b858560208301376000602087830101525050509392505050565b600082601f83011261163a57600080fd5b611649838335602085016115b3565b9392505050565b8035801515811461156f57600080fd5b80356001600160601b038116811461156f57600080fd5b600080600080600060a0868803121561168f57600080fd5b61169886611558565b9450602086013567ffffffffffffffff808211156116b557600080fd5b9087019060e0828a0312156116c957600080fd5b6116d161158a565b82358152602083013560208201526116eb60408401611558565b60408201526060830135606082015260808301358281111561170c57600080fd5b6117188b828601611629565b60808301525061172a60a08401611650565b60a082015260c08301358281111561174157600080fd5b61174d8b828601611629565b60c0830152509550604088013591508082111561176957600080fd5b5061177688828901611629565b93505061178560608701611558565b915061179360808701611660565b90509295509295909350565b6001600160e01b031981168114610dba57600080fd5b6000602082840312156117c757600080fd5b81356116498161179f565b6000602082840312156117e457600080fd5b5035919050565b6000815180845260005b81811015611811576020818501810151868301820152016117f5565b506000602082860101526020601f19601f83011685010191505092915050565b87815286602082015260018060a01b038616604082015284606082015260e06080820152600061186460e08301866117eb565b84151560a084015282810360c084015261187e81856117eb565b9a9950505050505050505050565b60006020828403121561189e57600080fd5b61164982611558565b6020808252825182820181905260009190848201906040850190845b818110156118df578351835292840192918401916001016118c3565b50909695505050505050565b60208152600061164960208301846117eb565b6000806040838503121561191157600080fd5b61191a83611558565b946020939093013593505050565b6000806040838503121561193b57600080fd5b82359150602083013567ffffffffffffffff81111561195957600080fd5b61196585828601611629565b9150509250929050565b60008060006060848603121561198457600080fd5b61198d84611558565b925061199b60208501611558565b9150604084013590509250925092565b600080604083850312156119be57600080fd5b50508035926020909101359150565b600080604083850312156119e057600080fd5b6119e983611558565b91506119f760208401611650565b90509250929050565b60008060008060808587031215611a1657600080fd5b611a1f85611558565b9350611a2d60208601611558565b925060408501359150606085013567ffffffffffffffff811115611a5057600080fd5b8501601f81018713611a6157600080fd5b611a70878235602084016115b3565b91505092959194509250565b60008060408385031215611a8f57600080fd5b611a9883611558565b91506119f760208401611558565b634e487b7160e01b600052601160045260246000fd5b600060018201611ace57611ace611aa6565b5060010190565b600181811c90821680611ae957607f821691505b602082108103611b0957634e487b7160e01b600052602260045260246000fd5b50919050565b601f821115610b68576000816000526020600020601f850160051c81016020861015611b385750805b601f850160051c820191505b8181101561122657828155600101611b44565b815167ffffffffffffffff811115611b7157611b71611574565b611b8581611b7f8454611ad5565b84611b0f565b602080601f831160018114611bba5760008415611ba25750858301515b600019600386901b1c1916600185901b178555611226565b600085815260208120601f198616915b82811015611be957888601518255948401946001909101908401611bca565b5085821015611c075787850151600019600388901b60f8161c191681555b5050505050600190811b01905550565b60018060a01b0385168152836020820152608060408201526000611c3e60808301856117eb565b8281036060840152611c5081856117eb565b979650505050505050565b634e487b7160e01b600052603260045260246000fd5b808202811582820484141761058557610585611aa6565b600082611ca557634e487b7160e01b600052601260045260246000fd5b500490565b6001600160a01b0385811682528416602082015260408101839052608060608201819052600090611cdd908301846117eb565b9695505050505050565b600060208284031215611cf957600080fd5b81516116498161179f56fea2646970667358221220c6e32de07081a116261a6781bda6f16138f5fa8d9cda083bba48e8c24796869f64736f6c63430008160033",
  "linkReferences": {},
  "deployedLinkReferences": {}
}