{
  "_format": "hh-sol-artifact-1",
  "contractName": "TicketNFT",
  "sourceName": "contracts/TicketNFT.sol",
  "abi": [
    {
      "inputs": [
        {
          "internalType": "string",
          "name": "name_",
          "type": "string"
        },
        {
          "internalType": "string",
          "name": "symbol_",
          "type": "string"
        },
        {
          "internalType": "address",
          "name": "initialFactory",
          "type": "address"
        },
        {
          "internalType": "address",
          "name": "defaultRoyaltyReceiver",
          "type": "address"
        },
        {
          "internalType": "uint96",
          "name": "defaultRoyaltyBps",
          "type": "uint96"
        }
      ],
      "stateMutability": "nonpayable",
      "type": "constructor"
    },
    {
      "inputs": [
        {
          "internalType": "uint256",
          "name": "numerator",
          "type": "uint256"
        },
        {
          "internalType": "uint256",
          "name": "denominator",
          "type": "uint256"
        }
      ],
      "name": "ERC2981InvalidDefaultRoyalty",
      "type": "error"
    },
    {
      "inputs": [
        {
          "internalType": "address",
          "name": "receiver",
          "type": "address"
        }
      ],
      "name": "ERC2981InvalidDefaultRoyaltyReceiver",
      "type": "error"
    },
    {
      "inputs": [
        {
          "internalType": "uint256",
          "name": "tokenId",
          "type": "uint256"
        },
        {
          "internalType": "uint256",
          "name": "numerator",
          "type": "uint256"
        },
        {
          "internalType": "uint256",
          "name": "denominator",
          "type": "uint256"
        }
      ],
      "name": "ERC2981InvalidTokenRoyalty",
      "type": "error"
    },
    {
      "inputs": [
        {
          "internalType": "uint256",
          "name": "tokenId",
          "type": "uint256"
        },
        {
          "internalType": "address",
          "name": "receiver",
          "type": "address"
        }
      ],
      "name": "ERC2981InvalidTokenRoyaltyReceiver",
      "type": "error"
    },
    {
      "inputs": [
        {
          "internalType": "address",
          "name": "sender",
          "type": "address"
        },
        {
          "internalType": "uint256",
          "name": "tokenId",
          "type": "uint256"
        },
        {
          "internalType": "address",
          "name": "owner",
          "type": "address"
        }
      ],
      "name": "ERC721IncorrectOwner",
      "type": "error"
    },
    {
      "inputs": [
        {
          "internalType": "address",
          "name": "operator",
          "type": "address"
        },
        {
          "internalType": "uint256",
          "name": "tokenId",
          "type": "uint256"
        }
      ],
      "name": "ERC721InsufficientApproval",
      "type": "error"
    },
    {
      "inputs": [
        {
          "internalType": "address",
          "name": "approver",
          "type": "address"
        }
      ],
      "name": "ERC721InvalidApprover",
      "type": "error"
    },
    {
      "inputs": [
        {
          "internalType": "address",
          "name": "operator",
          "type": "address"
        }
      ],
      "name": "ERC721InvalidOperator",
      "type": "error"
    },
    {
      "inputs": [
        {
          "internalType": "address",
          "name": "owner",
          "type": "address"
        }
      ],
      "name": "ERC721InvalidOwner",
      "type": "error"
    },
    {
      "inputs": [
        {
          "internalType": "address",
          "name": "receiver",
          "type": "address"
        }
      ],
      "name": "ERC721InvalidReceiver",
      "type": "error"
    },
    {
      "inputs": [
        {
          "internalType": "address",
          "name": "sender",
          "type": "address"
        }
      ],
      "name": "ERC721InvalidSender",
      "type": "error"
    },
    {
      "inputs": [
        {
          "internalType": "uint256",
          "name": "tokenId",
          "type": "uint256"
        }
      ],
      "name": "ERC721NonexistentToken",
      "type": "error"
    },
    {
      "inputs": [],
      "name": "InvalidAddress",
      "type": "error"
    },
    {
      "inputs": [
        {
          "internalType": "address",
          "name": "owner",
          "type": "address"
        }
      ],
      "name": "OwnableInvalidOwner",
      "type": "error"
    },
    {
      "inputs": [
        {
          "internalType": "address",
          "name": "account",
          "type": "address"
        }
      ],
      "name": "OwnableUnauthorizedAccount",
      "type": "error"
    },
    {
      "inputs": [],
      "name": "TicketUsed",
      "type": "error"
    },
    {
      "inputs": [],
      "name": "TokenNonexistent",
      "type": "error"
    },
    {
      "inputs": [],
      "name": "Unauthorized",
      "type": "error"
    },
    {
      "anonymous": false,
      "inputs": [
        {
          "indexed": true,
          "internalType": "address",
          "name": "owner",
          "type": "address"
        },
        {
          "indexed": true,
          "internalType": "address",
          "name": "approved",
          "type": "address"
        },
        {
          "indexed": true,
          "internalType": "uint256",
          "name": "tokenId",
          "type": "uint256"
        }
      ],
      "name": "Approval",
      "type": "event"
    },
    {
      "anonymous": false,
      "inputs": [
        {
          "indexed": true,
          "internalType": "address",
          "name": "owner",
          "type": "address"
        },
        {
          "indexed": true,
          "internalType": "address",
          "name": "operator",
          "type": "address"
        },
        {
          "indexed": false,
          "internalType": "bool",
          "name": "approved",
          "type": "bool"
        }
      ],
      "name": "ApprovalForAll",
      "type": "event"
    },
    {
      "anonymous": false,
      "inputs": [
        {
          "indexed": true,
          "internalType": "address",
          "name": "factory",
          "type": "address"
        }
      ],
      "name": "FactoryUpdated",
      "type": "event"
    },
    {
      "anonymous": false,
      "inputs": [
        {
          "indexed": true,
          "internalType": "address",
          "name": "previousOwner",
          "type": "address"
        },
        {
          "indexed": true,
          "internalType": "address",
          "name": "newOwner",
          "type": "address"
        }
      ],
      "name": "OwnershipTransferred",
      "type": "event"
    },
    {
      "anonymous": false,
      "inputs": [
        {
          "indexed": true,
          "internalType": "uint256",
          "name": "tokenId",
          "type": "uint256"
        },
        {
          "indexed": true,
          "internalType": "uint256",
          "name": "eventId",
          "type": "uint256"
        },
        {
          "indexed": true,
          "internalType": "uint256",
          "name": "ticketTypeId",
          "type": "uint256"
        },
        {
          "indexed": false,
          "internalType": "address",
          "name": "to",
          "type": "address"
        },
        {
          "indexed": false,
          "internalType": "uint256",
          "name": "purchasePrice",
          "type": "uint256"
        },
        {
          "indexed": false,
          "internalType": "string",
          "name": "purchaseChain",
          "type": "string"
        },
        {
          "indexed": false,
          "internalType": "string",
          "name": "tokenURI",
          "type": "string"
        }
      ],
      "name": "TicketMinted",
      "type": "event"
    },
    {
      "anonymous": false,
      "inputs": [
        {
          "indexed": true,
          "internalType": "uint256",
          "name": "tokenId",
          "type": "uint256"
        },
        {
          "indexed": false,
          "internalType": "uint256",
          "name": "timestamp",
          "type": "uint256"
        }
      ],
      "name": "TicketValidated",
      "type": "event"
    },
    {
      "anonymous": false,
      "inputs": [
        {
          "indexed": true,
          "internalType": "uint256",
          "name": "tokenId",
          "type": "uint256"
        },
        {
          "indexed": false,
          "internalType": "string",
          "name": "tokenURI",
          "type": "string"
        }
      ],
      "name": "TokenURISet",
      "type": "event"
    },
    {
      "anonymous": false,
      "inputs": [
        {
          "indexed": true,
          "internalType": "address",
          "name": "from",
          "type": "address"
        },
        {
          "indexed": true,
          "internalType": "address",
          "name": "to",
          "type": "address"
        },
        {
          "indexed": true,
          "internalType": "uint256",
          "name": "tokenId",
          "type": "uint256"
        }
      ],
      "name": "Transfer",
      "type": "event"
    },
    {
      "inputs": [
        {
          "internalType": "address",
          "name": "to",
          "type": "address"
        },
        {
          "internalType": "uint256",
          "name": "tokenId",
          "type": "uint256"
        }
      ],
      "name": "approve",
      "outputs": [],
      "stateMutability": "nonpayable",
      "type": "function"
    },
    {
      "inputs": [
        {
          "internalType": "address",
          "name": "owner",
          "type": "address"
        }
      ],
      "name": "balanceOf",
      "outputs": [
        {
          "internalType": "uint256",
          "name": "",
          "type": "uint256"
        }
      ],
      "stateMutability": "view",
      "type": "function"
    },
    {
      "inputs": [],
      "name": "factory",
      "outputs": [
        {
          "internalType": "address",
          "name": "",
          "type": "address"
        }
      ],
      "stateMutability": "view",
      "type": "function"
    },
    {
      "inputs": [
        {
          "internalType": "uint256",
          "name": "tokenId",
          "type": "uint256"
        }
      ],
      "name": "getApproved",
      "outputs": [
        {
          "internalType": "address",
          "name": "",
          "type": "address"
        }
      ],
      "stateMutability": "view",
      "type": "function"
    },
    {
      "inputs": [
        {
          "internalType": "address",
          "name": "owner",
          "type": "address"
        }
      ],
      "name": "getUserTickets",
      "outputs": [
        {
          "internalType": "uint256[]",
          "name": "tokenIds",
          "type": "uint256[]"
        }
      ],
      "stateMutability": "view",
      "type": "function"
    },
    {
      "inputs": [
        {
          "internalType": "address",
          "name": "owner",
          "type": "address"
        },
        {
          "internalType": "address",
          "name": "operator",
          "type": "address"
        }
      ],
      "name": "isApprovedForAll",
      "outputs": [
        {
          "internalType": "bool",
          "name": "",
          "type": "bool"
        }
      ],
      "stateMutability": "view",
      "type": "function"
    },
    {
      "inputs": [
        {
          "internalType": "address",
          "name": "to",
          "type": "address"
        },
        {
          "components": [
            {
              "internalType": "uint256",
              "name": "eventId",
              "type": "uint256"
            },
            {
              "internalType": "uint256",
              "name": "ticketTypeId",
              "type": "uint256"
            },
            {
              "internalType": "address",
              "name": "originalOwner",
              "type": "address"
            },
            {
              "internalType": "uint256",
              "name": "purchasePrice",
              "type": "uint256"
            },
            {
              "internalType": "string",
              "name": "purchaseChain",
              "type": "string"
            },
            {
              "internalType": "bool",
              "name": "used",
              "type": "bool"
            },
            {
              "internalType": "string",
              "name": "qrCodeHash",
              "type": "string"
            }
          ],
          "internalType": "struct TicketNFT.TicketMetadata",
          "name": "meta",
          "type": "tuple"
        },
        {
          "internalType": "string",
          "name": "tokenURI_",
          "type": "string"
        },
        {
          "internalType": "address",
          "name": "royaltyReceiver",
          "type": "address"
        },
        {
          "internalType": "uint96",
          "name": "royaltyBps",
          "type": "uint96"
        }
      ],
      "name": "mint",
      "outputs": [
        {
          "internalType": "uint256",
          "name": "tokenId",
          "type": "uint256"
        }
      ],
      "stateMutability": "nonpayable",
      "type": "function"
    },
    {
      "inputs": [],
      "name": "name",
      "outputs": [
        {
          "internalType": "string",
          "name": "",
          "type": "string"
        }
      ],
      "stateMutability": "view",
      "type": "function"
    },
    {
      "inputs": [],
      "name": "owner",
      "outputs": [
        {
          "internalType": "address",
          "name": "",
          "type": "address"
        }
      ],
      "stateMutability": "view",
      "type": "function"
    },
    {
      "inputs": [
        {
          "internalType": "uint256",
          "name": "tokenId",
          "type": "uint256"
        }
      ],
      "name": "ownerOf",
      "outputs": [
        {
          "internalType": "address",
          "name": "",
          "type": "address"
        }
      ],
      "stateMutability": "view",
      "type": "function"
    },
    {
      "inputs": [],
      "name": "renounceOwnership",
      "outputs": [],
      "stateMutability": "nonpayable",
      "type": "function"
    },
    {
      "inputs": [
        {
          "internalType": "uint256",
          "name": "tokenId",
          "type": "uint256"
        },
        {
          "internalType": "uint256",
          "name": "salePrice",
          "type": "uint256"
        }
      ],
      "name": "royaltyInfo",
      "outputs": [
        {
          "internalType": "address",
          "name": "receiver",
          "type": "address"
        },
        {
          "internalType": "uint256",
          "name": "amount",
          "type": "uint256"
        }
      ],
      "stateMutability": "view",
      "type": "function"
    },
    {
      "inputs": [
        {
          "internalType": "address",
          "name": "from",
          "type": "address"
        },
        {
          "internalType": "address",
          "name": "to",
          "type": "address"
        },
        {
          "internalType": "uint256",
          "name": "tokenId",
          "type": "uint256"
        }
      ],
      "name": "safeTransferFrom",
      "outputs": [],
      "stateMutability": "nonpayable",
      "type": "function"
    },
    {
      "inputs": [
        {
          "internalType": "address",
          "name": "from",
          "type": "address"
        },
        {
          "internalType": "address",
          "name": "to",
          "type": "address"
        },
        {
          "internalType": "uint256",
          "name": "tokenId",
          "type": "uint256"
        },
        {
          "internalType": "bytes",
          "name": "data",
          "type": "bytes"
        }
      ],
      "name": "safeTransferFrom",
      "outputs": [],
      "stateMutability": "nonpayable",
      "type": "function"
    },
    {
      "inputs": [
        {
          "internalType": "address",
          "name": "operator",
          "type": "address"
        },
        {
          "internalType": "bool",
          "name": "approved",
          "type": "bool"
        }
      ],
      "name": "setApprovalForAll",
      "outputs": [],
      "stateMutability": "nonpayable",
      "type": "function"
    },
    {
      "inputs": [
        {
          "internalType": "address",
          "name": "newFactory",
          "type": "address"
        }
      ],
      "name": "setFactory",
      "outputs": [],
      "stateMutability": "nonpayable",
      "type": "function"
    },
    {
      "inputs": [
        {
          "internalType": "uint256",
          "name": "tokenId",
          "type": "uint256"
        },
        {
          "internalType": "string",
          "name": "newURI",
          "type": "string"
        }
      ],
      "name": "setTokenURI",
      "outputs": [],
      "stateMutability": "nonpayable",
      "type": "function"
    },
    {
      "inputs": [
        {
          "internalType": "bytes4",
          "name": "interfaceId",
          "type": "bytes4"
        }
      ],
      "name": "supportsInterface",
      "outputs": [
        {
          "internalType": "bool",
          "name": "",
          "type": "bool"
        }
      ],
      "stateMutability": "view",
      "type": "function"
    },
    {
      "inputs": [],
      "name": "symbol",
      "outputs": [
        {
          "internalType": "string",
          "name": "",
          "type": "string"
        }
      ],
      "stateMutability": "view",
      "type": "function"
    },
    {
      "inputs": [
        {
          "internalType": "uint256",
          "name": "",
          "type": "uint256"
        }
      ],
      "name": "ticketDetails",
      "outputs": [
        {
          "internalType": "uint256",
          "name": "eventId",
          "type": "uint256"
        },
        {
          "internalType": "uint256",
          "name": "ticketTypeId",
          "type": "uint256"
        },
        {
          "internalType": "address",
          "name": "originalOwner",
          "type": "address"
        },
        {
          "internalType": "uint256",
          "name": "purchasePrice",
          "type": "uint256"
        },
        {
          "internalType": "string",
          "name": "purchaseChain",
          "type": "string"
        },
        {
          "internalType": "bool",
          "name": "used",
          "type": "bool"
        },
        {
          "internalType": "string",
          "name": "qrCodeHash",
          "type": "string"
        }
      ],
      "stateMutability": "view",
      "type": "function"
    },
    {
      "inputs": [],
      "name": "tokenCounter",
      "outputs": [
        {
          "internalType": "uint256",
          "name": "",
          "type": "uint256"
        }
      ],
      "stateMutability": "view",
      "type": "function"
    },
    {
      "inputs": [
        {
          "internalType": "uint256",
          "name": "tokenId",
          "type": "uint256"
        }
      ],
      "name": "tokenURI",
      "outputs": [
        {
          "internalType": "string",
          "name": "",
          "type": "string"
        }
      ],
      "stateMutability": "view",
      "type": "function"
    },
    {
      "inputs": [
        {
          "internalType": "address",
          "name": "from",
          "type": "address"
        },
        {
          "internalType": "address",
          "name": "to",
          "type": "address"
        },
        {
          "internalType": "uint256",
          "name": "tokenId",
          "type": "uint256"
        }
      ],
      "name": "transferFrom",
      "outputs": [],
      "stateMutability": "nonpayable",
      "type": "function"
    },
    {
      "inputs": [
        {
          "internalType": "address",
          "name": "newOwner",
          "type": "address"
        }
      ],
      "name": "transferOwnership",
      "outputs": [],
      "stateMutability": "nonpayable",
      "type": "function"
    },
    {
      "inputs": [
        {
          "internalType": "uint256",
          "name": "tokenId",
          "type": "uint256"
        }
      ],
      "name": "validateTicket",
      "outputs": [],
      "stateMutability": "nonpayable",
      "type": "function"
    }
  ],
  "bytecode": "0x608060405234801561001057600080fd5b5060405161223038038061223083398101604081905261002f916102fe565b338585600061003e8382610433565b50600161004b8282610433565b5050506001600160a01b03811661007d57604051631e4fbdf760e01b8152600060048201526024015b60405180910390fd5b61008681610134565b506001600160a01b0383166100ae5760405163e6c4247b60e01b815260040160405180910390fd5b600c80546001600160a01b0319166001600160a01b03858116919091179091558216158015906100e757506000816001600160601b0316115b156100f6576100f68282610186565b6040516001600160a01b038416907f24cd1310c8883cbeaf5b805ab13586ce018b79c022827158ff3e8df14d34493690600090a250505050506104f1565b600680546001600160a01b038381166001600160a01b0319831681179093556040519116919082907f8be0079c531659141344cd1fd0a4f28419497f9722a3daafe3b4186f6b6457e090600090a35050565b6127106001600160601b0382168110156101c557604051636f483d0960e01b81526001600160601b038316600482015260248101829052604401610074565b6001600160a01b0383166101ef57604051635b6cc80560e11b815260006004820152602401610074565b50604080518082019091526001600160a01b039092168083526001600160601b039091166020909201829052600160a01b90910217600755565b634e487b7160e01b600052604160045260246000fd5b600082601f83011261025057600080fd5b81516001600160401b0381111561026957610269610229565b604051601f8201601f19908116603f011681016001600160401b038111828210171561029757610297610229565b6040528181528382016020018510156102af57600080fd5b60005b828110156102ce576020818601810151838301820152016102b2565b506000918101602001919091529392505050565b80516001600160a01b03811681146102f957600080fd5b919050565b600080600080600060a0868803121561031657600080fd5b85516001600160401b0381111561032c57600080fd5b6103388882890161023f565b602088015190965090506001600160401b0381111561035657600080fd5b6103628882890161023f565b945050610371604087016102e2565b925061037f606087016102e2565b60808701519092506001600160601b038116811461039c57600080fd5b809150509295509295909350565b600181811c908216806103be57607f821691505b6020821081036103de57634e487b7160e01b600052602260045260246000fd5b50919050565b601f82111561042e57806000526020600020601f840160051c8101602085101561040b5750805b601f840160051c820191505b8181101561042b5760008155600101610417565b50505b505050565b81516001600160401b0381111561044c5761044c610229565b6104608161045a84546103aa565b846103e4565b6020601f821160018114610494576000831561047c5750848201515b600019600385901b1c1916600184901b17845561042b565b600084815260208120601f198516915b828110156104c457878501518255602094850194600190920191016104a4565b50848210156104e25786840151600019600387901b60f8161c191681555b50505050600190811b01905550565b611d30806105006000396000f3fe608060405234801561001057600080fd5b50600436106101735760003560e01c80635bb47808116100de578063a22cb46511610097578063c87b56dd11610071578063c87b56dd1461036d578063d082e38114610380578063e985e9c514610389578063f2fde38b1461039c57600080fd5b8063a22cb46514610334578063b88d4fde14610347578063c45a01551461035a57600080fd5b80635bb47808146102da5780636352211e146102ed57806370a0823114610300578063715018a6146103135780638da5cb5b1461031b57806395d89b411461032c57600080fd5b8063081812fc11610130578063081812fc14610231578063095ea7b31461025c578063162094c41461026f57806323b872dd146102825780632a55205a1461029557806342842e0e146102c757600080fd5b80630159437a1461017857806301ffc9a71461019e578063033fab35146101c15780630484a22f146101e7578063054ae7df1461020757806306fdde031461021c575b600080fd5b61018b61018636600461165c565b6103af565b6040519081526020015b60405180910390f35b6101b16101ac3660046117ad565b61055b565b6040519015158152602001610195565b6101d46101cf3660046117ca565b61056c565b6040516101959796959493929190611829565b6101fa6101f5366004611884565b6106cc565b604051610195919061189f565b61021a6102153660046117ca565b6107cb565b005b6102246108aa565b60405161019591906118e2565b61024461023f3660046117ca565b61093c565b6040516001600160a01b039091168152602001610195565b61021a61026a3660046118f5565b610965565b61021a61027d36600461191f565b610974565b61021a610290366004611966565b610a19565b6102a86102a33660046119a3565b610aa9565b604080516001600160a01b039093168352602083019190915201610195565b61021a6102d5366004611966565b610b2e565b61021a6102e8366004611884565b610b4e565b6102446102fb3660046117ca565b610bc7565b61018b61030e366004611884565b610bd2565b61021a610c1a565b6006546001600160a01b0316610244565b610224610c2e565b61021a6103423660046119c5565b610c3d565b61021a6103553660046119f8565b610c48565b600c54610244906001600160a01b031681565b61022461037b3660046117ca565b610c60565b61018b600b5481565b6101b1610397366004611a74565b610d32565b61021a6103aa366004611884565b610d60565b600c546000906001600160a01b031633146103dc576040516282b42960e81b815260040160405180910390fd5b6001600160a01b0386166104035760405163e6c4247b60e01b815260040160405180910390fd5b600b6000815461041290611ab4565b918290555090506104238682610d9e565b60008181526009602090815260409182902087518155908701516001820155908601516002820180546001600160a01b0319166001600160a01b0390921691909117905560608601516003820155608086015186919060048201906104889082611b4e565b5060a082015160058201805460ff191691151591909117905560c082015160068201906104b59082611b4e565b5050506000818152600a602052604090206104d08582611b4e565b506001600160a01b038316158015906104f257506000826001600160601b0316115b1561050257610502818484610db8565b84602001518560000151827fd3f8dd3126bd89cd05decbf86c2af62f7138e2b5734c4702cada5f3474351cf88989606001518a608001518a60405161054a9493929190611c0d565b60405180910390a495945050505050565b600061056682610e7a565b92915050565b60096020526000908152604090208054600182015460028301546003840154600485018054949593946001600160a01b039093169391926105ac90611acd565b80601f01602080910402602001604051908101604052809291908181526020018280546105d890611acd565b80156106255780601f106105fa57610100808354040283529160200191610625565b820191906000526020600020905b81548152906001019060200180831161060857829003601f168201915b5050506005840154600685018054949560ff90921694919350915061064990611acd565b80601f016020809104026020016040519081016040528092919081815260200182805461067590611acd565b80156106c25780601f10610697576101008083540402835291602001916106c2565b820191906000526020600020905b8154815290600101906020018083116106a557829003601f168201915b5050505050905087565b6060600060015b600b54811161071657836001600160a01b03166106ef82610e9f565b6001600160a01b031603610704578160010191505b8061070e81611ab4565b9150506106d3565b508067ffffffffffffffff81111561073057610730611555565b604051908082528060200260200182016040528015610759578160200160208202803683370190505b509150600060015b600b5481116107c357846001600160a01b031661077d82610e9f565b6001600160a01b0316036107b1578084838151811061079e5761079e611c51565b6020026020010181815250508160010191505b806107bb81611ab4565b915050610761565b505050919050565b600c546001600160a01b031633146107f5576040516282b42960e81b815260040160405180910390fd5b600061080082610e9f565b6001600160a01b0316036108275760405163072ec25360e41b815260040160405180910390fd5b6000818152600960205260409020600581015460ff161561085b5760405163f37f8bbd60e01b815260040160405180910390fd5b60058101805460ff1916600117905560405182907f13f7f5b33d9ea208efe060c1475c68713849be1723bc235841d6d2af20eb20c49061089e9042815260200190565b60405180910390a25050565b6060600080546108b990611acd565b80601f01602080910402602001604051908101604052809291908181526020018280546108e590611acd565b80156109325780601f1061090757610100808354040283529160200191610932565b820191906000526020600020905b81548152906001019060200180831161091557829003601f168201915b5050505050905090565b600061094782610eba565b506000828152600460205260409020546001600160a01b0316610566565b610970828233610ef2565b5050565b600c546001600160a01b0316331461099e576040516282b42960e81b815260040160405180910390fd5b60006109a983610e9f565b6001600160a01b0316036109d05760405163072ec25360e41b815260040160405180910390fd5b6000828152600a602052604090206109e88282611b4e565b50817fda84ca2183491f179a603e877b2cb058e42195041c2b9c53d746427e519a34df8260405161089e91906118e2565b6001600160a01b038216610a4857604051633250574960e11b8152600060048201526024015b60405180910390fd5b6000610a55838333610eff565b9050836001600160a01b0316816001600160a01b031614610aa3576040516364283d7b60e01b81526001600160a01b0380861660048301526024820184905282166044820152606401610a3f565b50505050565b600082815260086020526040812080548291906001600160a01b03811690600160a01b90046001600160601b031681610afd5750506007546001600160a01b03811690600160a01b90046001600160601b03165b6000612710610b156001600160601b03841689611c67565b610b1f9190611c7e565b92989297509195505050505050565b610b4983838360405180602001604052806000815250610c48565b505050565b610b56610f62565b6001600160a01b038116610b7d5760405163e6c4247b60e01b815260040160405180910390fd5b600c80546001600160a01b0319166001600160a01b0383169081179091556040517f24cd1310c8883cbeaf5b805ab13586ce018b79c022827158ff3e8df14d34493690600090a250565b600061056682610eba565b60006001600160a01b038216610bfe576040516322718ad960e21b815260006004820152602401610a3f565b506001600160a01b031660009081526003602052604090205490565b610c22610f62565b610c2c6000610f8f565b565b6060600180546108b990611acd565b610970338383610fe1565b610c53848484610a19565b610aa33385858585611080565b60606000610c6d83610e9f565b6001600160a01b031603610c945760405163072ec25360e41b815260040160405180910390fd5b6000828152600a602052604090208054610cad90611acd565b80601f0160208091040260200160405190810160405280929190818152602001828054610cd990611acd565b8015610d265780601f10610cfb57610100808354040283529160200191610d26565b820191906000526020600020905b815481529060010190602001808311610d0957829003601f168201915b50505050509050919050565b6001600160a01b03918216600090815260056020908152604080832093909416825291909152205460ff1690565b610d68610f62565b6001600160a01b038116610d9257604051631e4fbdf760e01b815260006004820152602401610a3f565b610d9b81610f8f565b50565b6109708282604051806020016040528060008152506111ab565b6127106001600160601b038216811015610dfe5760405163dfd1fc1b60e01b8152600481018590526001600160601b038316602482015260448101829052606401610a3f565b6001600160a01b038316610e2f57604051634b4f842960e11b81526004810185905260006024820152604401610a3f565b506040805180820182526001600160a01b0393841681526001600160601b0392831660208083019182526000968752600890529190942093519051909116600160a01b029116179055565b60006001600160e01b0319821663152a902d60e11b14806105665750610566826111c3565b6000908152600260205260409020546001600160a01b031690565b600080610ec683610e9f565b90506001600160a01b03811661056657604051637e27328960e01b815260048101849052602401610a3f565b610b498383836001611213565b600080610f0b84610e9f565b6001600160a01b031614610f4f576000838152600960205260409020600581015460ff1615610f4d5760405163f37f8bbd60e01b815260040160405180910390fd5b505b610f5a848484611319565b949350505050565b6006546001600160a01b03163314610c2c5760405163118cdaa760e01b8152336004820152602401610a3f565b600680546001600160a01b038381166001600160a01b0319831681179093556040519116919082907f8be0079c531659141344cd1fd0a4f28419497f9722a3daafe3b4186f6b6457e090600090a35050565b6001600160a01b03821661101357604051630b61174360e31b81526001600160a01b0383166004820152602401610a3f565b6001600160a01b03838116600081815260056020908152604080832094871680845294825291829020805460ff191686151590811790915591519182527f17307eab39ab6107e8899845ad3d59bd9653f200f220920489ca2b5937696c31910160405180910390a3505050565b6001600160a01b0383163b156111a457604051630a85bd0160e11b81526001600160a01b0384169063150b7a02906110c2908890889087908790600401611ca0565b6020604051808303816000875af19250505080156110fd575060408051601f3d908101601f191682019092526110fa91810190611cdd565b60015b611166573d80801561112b576040519150601f19603f3d011682016040523d82523d6000602084013e611130565b606091505b50805160000361115e57604051633250574960e11b81526001600160a01b0385166004820152602401610a3f565b805160208201fd5b6001600160e01b03198116630a85bd0160e11b146111a257604051633250574960e11b81526001600160a01b0385166004820152602401610a3f565b505b5050505050565b6111b5838361140d565b610b49336000858585611080565b60006001600160e01b031982166380ac58cd60e01b14806111f457506001600160e01b03198216635b5e139f60e01b145b8061056657506301ffc9a760e01b6001600160e01b0319831614610566565b808061122757506001600160a01b03821615155b156112e957600061123784610eba565b90506001600160a01b038316158015906112635750826001600160a01b0316816001600160a01b031614155b801561127657506112748184610d32565b155b1561129f5760405163a9fbf51f60e01b81526001600160a01b0384166004820152602401610a3f565b81156112e75783856001600160a01b0316826001600160a01b03167f8c5be1e5ebec7d5bd14f71427d1e84f3dd0314c0f7b2291e5b200ac8c7c3b92560405160405180910390a45b505b5050600090815260046020526040902080546001600160a01b0319166001600160a01b0392909216919091179055565b60008061132584610e9f565b90506001600160a01b0383161561134157611341818486611472565b6001600160a01b0381161561137f5761135e600085600080611213565b6001600160a01b038116600090815260036020526040902080546000190190555b6001600160a01b038516156113ae576001600160a01b0385166000908152600360205260409020805460010190555b60008481526002602052604080822080546001600160a01b0319166001600160a01b0389811691821790925591518793918516917fddf252ad1be2c89b69c2b068fc378daa952ba7f163c4a11628f55a4df523b3ef91a4949350505050565b6001600160a01b03821661143757604051633250574960e11b815260006004820152602401610a3f565b600061144583836000610eff565b90506001600160a01b03811615610b49576040516339e3563760e11b815260006004820152602401610a3f565b61147d8383836114d6565b610b49576001600160a01b0383166114ab57604051637e27328960e01b815260048101829052602401610a3f565b60405163177e802f60e01b81526001600160a01b038316600482015260248101829052604401610a3f565b60006001600160a01b03831615801590610f5a5750826001600160a01b0316846001600160a01b0316148061151057506115108484610d32565b80610f5a5750506000908152600460205260409020546001600160a01b03908116911614919050565b80356001600160a01b038116811461155057600080fd5b919050565b634e487b7160e01b600052604160045260246000fd5b60405160e0810167ffffffffffffffff8111828210171561158e5761158e611555565b60405290565b60008067ffffffffffffffff8411156115af576115af611555565b50604051601f19601f85018116603f0116810181811067ffffffffffffffff821117156115de576115de611555565b6040528381529050808284018510156115f657600080fd5b83836020830137600060208583010152509392505050565b600082601f83011261161f57600080fd5b61162e83833560208501611594565b9392505050565b8035801515811461155057600080fd5b80356001600160601b038116811461155057600080fd5b600080600080600060a0868803121561167457600080fd5b61167d86611539565b9450602086013567ffffffffffffffff81111561169957600080fd5b860160e081890312156116ab57600080fd5b6116b361156b565b81358152602080830135908201526116cd60408301611539565b604082015260608281013590820152608082013567ffffffffffffffff8111156116f657600080fd5b6117028a82850161160e565b60808301525061171460a08301611635565b60a082015260c082013567ffffffffffffffff81111561173357600080fd5b61173f8a82850161160e565b60c083015250945050604086013567ffffffffffffffff81111561176257600080fd5b61176e8882890161160e565b93505061177d60608701611539565b915061178b60808701611645565b90509295509295909350565b6001600160e01b031981168114610d9b57600080fd5b6000602082840312156117bf57600080fd5b813561162e81611797565b6000602082840312156117dc57600080fd5b5035919050565b6000815180845260005b81811015611809576020818501810151868301820152016117ed565b506000602082860101526020601f19601f83011685010191505092915050565b87815286602082015260018060a01b038616604082015284606082015260e06080820152600061185c60e08301866117e3565b84151560a084015282810360c084015261187681856117e3565b9a9950505050505050505050565b60006020828403121561189657600080fd5b61162e82611539565b602080825282518282018190526000918401906040840190835b818110156118d75783518352602093840193909201916001016118b9565b509095945050505050565b60208152600061162e60208301846117e3565b6000806040838503121561190857600080fd5b61191183611539565b946020939093013593505050565b6000806040838503121561193257600080fd5b82359150602083013567ffffffffffffffff81111561195057600080fd5b61195c8582860161160e565b9150509250929050565b60008060006060848603121561197b57600080fd5b61198484611539565b925061199260208501611539565b929592945050506040919091013590565b600080604083850312156119b657600080fd5b50508035926020909101359150565b600080604083850312156119d857600080fd5b6119e183611539565b91506119ef60208401611635565b90509250929050565b60008060008060808587031215611a0e57600080fd5b611a1785611539565b9350611a2560208601611539565b925060408501359150606085013567ffffffffffffffff811115611a4857600080fd5b8501601f81018713611a5957600080fd5b611a6887823560208401611594565b91505092959194509250565b60008060408385031215611a8757600080fd5b611a9083611539565b91506119ef60208401611539565b634e487b7160e01b600052601160045260246000fd5b600060018201611ac657611ac6611a9e565b5060010190565b600181811c90821680611ae157607f821691505b602082108103611b0157634e487b7160e01b600052602260045260246000fd5b50919050565b601f821115610b4957806000526020600020601f840160051c81016020851015611b2e5750805b601f840160051c820191505b818110156111a45760008155600101611b3a565b815167ffffffffffffffff811115611b6857611b68611555565b611b7c81611b768454611acd565b84611b07565b6020601f821160018114611bb05760008315611b985750848201515b600019600385901b1c1916600184901b1784556111a4565b600084815260208120601f198516915b82811015611be05787850151825560209485019460019092019101611bc0565b5084821015611bfe5786840151600019600387901b60f8161c191681555b50505050600190811b01905550565b60018060a01b0385168152836020820152608060408201526000611c3460808301856117e3565b8281036060840152611c4681856117e3565b979650505050505050565b634e487b7160e01b600052603260045260246000fd5b808202811582820484141761056657610566611a9e565b600082611c9b57634e487b7160e01b600052601260045260246000fd5b500490565b6001600160a01b0385811682528416602082015260408101839052608060608201819052600090611cd3908301846117e3565b9695505050505050565b600060208284031215611cef57600080fd5b815161162e8161179756fea264697066735822122012419300fbd07a9fad54628021932b5d41c9df4245aa47783e19cc6b372ffdad64736f6c634300081c0033",
  "linkReferences": {},
  "deployedLinkReferences": {}
}