{
  "_format": "hh-sol-artifact-1",
  "contractName": "TicketFactory",
  "sourceName": "contracts/TicketFactory.sol",
  "abi": [
    {
      "inputs": [
        {
          "internalType": "address",
          "name": "nft",
          "type": "address"
        }
      ],
      "stateMutability": "nonpayable",
      "type": "constructor"
    },
    {
      "inputs": [],
      "name": "EventInactive",
      "type": "error"
    },
    {
      "inputs": [],
      "name": "EventNotLive",
      "type": "error"
    },
    {
      "inputs": [],
      "name": "IncorrectPayment",
      "type": "error"
    },
    {
      "inputs": [],
      "name": "InvalidEvent",
      "type": "error"
    },
    {
      "inputs": [],
      "name": "InvalidInput",
      "type": "error"
    },
    {
      "inputs": [],
      "name": "InvalidTicketType",
      "type": "error"
    },
    {
      "inputs": [],
      "name": "NotOrganizer",
      "type": "error"
    },
    {
      "inputs": [],
      "name": "NothingToWithdraw",
      "type": "error"
    },
    {
      "inputs": [
        {
          "internalType": "address",
          "name": "owner",
          "type": "address"
        }
      ],
      "name": "OwnableInvalidOwner",
      "type": "error"
    },
    {
      "inputs": [
        {
          "internalType": "address",
          "name": "account",
          "type": "address"
        }
      ],
      "name": "OwnableUnauthorizedAccount",
      "type": "error"
    },
    {
      "inputs": [],
      "name": "ReentrancyGuardReentrantCall",
      "type": "error"
    },
    {
      "inputs": [],
      "name": "SoldOut",
      "type": "error"
    },
    {
      "inputs": [],
      "name": "WithdrawalFailed",
      "type": "error"
    },
    {
      "anonymous": false,
      "inputs": [
        {
          "indexed": true,
          "internalType": "uint256",
          "name": "eventId",
          "type": "uint256"
        },
        {
          "indexed": true,
          "internalType": "address",
          "name": "organizer",
          "type": "address"
        },
        {
          "indexed": false,
          "internalType": "string",
          "name": "name",
          "type": "string"
        },
        {
          "indexed": false,
          "internalType": "uint256",
          "name": "startTime",
          "type": "uint256"
        },
        {
          "indexed": false,
          "internalType": "uint256",
          "name": "endTime",
          "type": "uint256"
        },
        {
          "indexed": false,
          "internalType": "uint256",
          "name": "totalSupply",
          "type": "uint256"
        },
        {
          "indexed": false,
          "internalType": "uint96",
          "name": "royaltyBps",
          "type": "uint96"
        }
      ],
      "name": "EventCreated",
      "type": "event"
    },
    {
      "anonymous": false,
      "inputs": [
        {
          "indexed": true,
          "internalType": "uint256",
          "name": "eventId",
          "type": "uint256"
        },
        {
          "indexed": false,
          "internalType": "bool",
          "name": "active",
          "type": "bool"
        }
      ],
      "name": "EventStatusToggled",
      "type": "event"
    },
    {
      "anonymous": false,
      "inputs": [
        {
          "indexed": true,
          "internalType": "uint256",
          "name": "eventId",
          "type": "uint256"
        },
        {
          "indexed": true,
          "internalType": "address",
          "name": "organizer",
          "type": "address"
        },
        {
          "indexed": false,
          "internalType": "uint256",
          "name": "amount",
          "type": "uint256"
        },
        {
          "indexed": false,
          "internalType": "address",
          "name": "to",
          "type": "address"
        }
      ],
      "name": "FundsWithdrawn",
      "type": "event"
    },
    {
      "anonymous": false,
      "inputs": [
        {
          "indexed": true,
          "internalType": "address",
          "name": "nft",
          "type": "address"
        }
      ],
      "name": "NFTContractUpdated",
      "type": "event"
    },
    {
      "anonymous": false,
      "inputs": [
        {
          "indexed": true,
          "internalType": "address",
          "name": "previousOwner",
          "type": "address"
        },
        {
          "indexed": true,
          "internalType": "address",
          "name": "newOwner",
          "type": "address"
        }
      ],
      "name": "OwnershipTransferred",
      "type": "event"
    },
    {
      "anonymous": false,
      "inputs": [
        {
          "indexed": true,
          "internalType": "uint256",
          "name": "eventId",
          "type": "uint256"
        },
        {
          "indexed": true,
          "internalType": "uint256",
          "name": "ticketTypeId",
          "type": "uint256"
        },
        {
          "indexed": true,
          "internalType": "uint256",
          "name": "tokenId",
          "type": "uint256"
        },
        {
          "indexed": false,
          "internalType": "address",
          "name": "buyer",
          "type": "address"
        },
        {
          "indexed": false,
          "internalType": "uint256",
          "name": "price",
          "type": "uint256"
        }
      ],
      "name": "TicketPurchased",
      "type": "event"
    },
    {
      "anonymous": false,
      "inputs": [
        {
          "indexed": true,
          "internalType": "uint256",
          "name": "eventId",
          "type": "uint256"
        },
        {
          "indexed": true,
          "internalType": "uint256",
          "name": "ticketTypeId",
          "type": "uint256"
        },
        {
          "indexed": false,
          "internalType": "string",
          "name": "name",
          "type": "string"
        },
        {
          "indexed": false,
          "internalType": "uint256",
          "name": "price",
          "type": "uint256"
        },
        {
          "indexed": false,
          "internalType": "uint256",
          "name": "supply",
          "type": "uint256"
        }
      ],
      "name": "TicketTypeAdded",
      "type": "event"
    },
    {
      "stateMutability": "payable",
      "type": "fallback"
    },
    {
      "inputs": [
        {
          "internalType": "uint256",
          "name": "eventId",
          "type": "uint256"
        },
        {
          "internalType": "string",
          "name": "name_",
          "type": "string"
        },
        {
          "internalType": "uint256",
          "name": "price_",
          "type": "uint256"
        },
        {
          "internalType": "uint256",
          "name": "supply_",
          "type": "uint256"
        }
      ],
      "name": "addTicketType",
      "outputs": [
        {
          "internalType": "uint256",
          "name": "ticketTypeId",
          "type": "uint256"
        }
      ],
      "stateMutability": "nonpayable",
      "type": "function"
    },
    {
      "inputs": [
        {
          "internalType": "string",
          "name": "name_",
          "type": "string"
        },
        {
          "internalType": "string",
          "name": "description_",
          "type": "string"
        },
        {
          "internalType": "uint256",
          "name": "startTime_",
          "type": "uint256"
        },
        {
          "internalType": "uint256",
          "name": "endTime_",
          "type": "uint256"
        },
        {
          "internalType": "string",
          "name": "venue_",
          "type": "string"
        },
        {
          "internalType": "string",
          "name": "imageIpfsHash_",
          "type": "string"
        },
        {
          "internalType": "uint256",
          "name": "totalSupply_",
          "type": "uint256"
        },
        {
          "internalType": "uint96",
          "name": "royaltyBps_",
          "type": "uint96"
        }
      ],
      "name": "createEvent",
      "outputs": [
        {
          "internalType": "uint256",
          "name": "eventId",
          "type": "uint256"
        }
      ],
      "stateMutability": "nonpayable",
      "type": "function"
    },
    {
      "inputs": [],
      "name": "eventCounter",
      "outputs": [
        {
          "internalType": "uint256",
          "name": "",
          "type": "uint256"
        }
      ],
      "stateMutability": "view",
      "type": "function"
    },
    {
      "inputs": [
        {
          "internalType": "uint256",
          "name": "",
          "type": "uint256"
        }
      ],
      "name": "eventProceedsNative",
      "outputs": [
        {
          "internalType": "uint256",
          "name": "",
          "type": "uint256"
        }
      ],
      "stateMutability": "view",
      "type": "function"
    },
    {
      "inputs": [
        {
          "internalType": "uint256",
          "name": "",
          "type": "uint256"
        }
      ],
      "name": "events",
      "outputs": [
        {
          "internalType": "uint256",
          "name": "eventId",
          "type": "uint256"
        },
        {
          "internalType": "address",
          "name": "organizer",
          "type": "address"
        },
        {
          "internalType": "string",
          "name": "name",
          "type": "string"
        },
        {
          "internalType": "string",
          "name": "description",
          "type": "string"
        },
        {
          "internalType": "uint256",
          "name": "startTime",
          "type": "uint256"
        },
        {
          "internalType": "uint256",
          "name": "endTime",
          "type": "uint256"
        },
        {
          "internalType": "string",
          "name": "venue",
          "type": "string"
        },
        {
          "internalType": "string",
          "name": "imageIpfsHash",
          "type": "string"
        },
        {
          "internalType": "uint256",
          "name": "totalSupply",
          "type": "uint256"
        },
        {
          "internalType": "uint256",
          "name": "sold",
          "type": "uint256"
        },
        {
          "internalType": "bool",
          "name": "active",
          "type": "bool"
        },
        {
          "internalType": "uint96",
          "name": "royaltyBps",
          "type": "uint96"
        }
      ],
      "stateMutability": "view",
      "type": "function"
    },
    {
      "inputs": [
        {
          "internalType": "uint256",
          "name": "eventId",
          "type": "uint256"
        }
      ],
      "name": "getEvent",
      "outputs": [
        {
          "components": [
            {
              "internalType": "uint256",
              "name": "eventId",
              "type": "uint256"
            },
            {
              "internalType": "address",
              "name": "organizer",
              "type": "address"
            },
            {
              "internalType": "string",
              "name": "name",
              "type": "string"
            },
            {
              "internalType": "string",
              "name": "description",
              "type": "string"
            },
            {
              "internalType": "uint256",
              "name": "startTime",
              "type": "uint256"
            },
            {
              "internalType": "uint256",
              "name": "endTime",
              "type": "uint256"
            },
            {
              "internalType": "string",
              "name": "venue",
              "type": "string"
            },
            {
              "internalType": "string",
              "name": "imageIpfsHash",
              "type": "string"
            },
            {
              "internalType": "uint256",
              "name": "totalSupply",
              "type": "uint256"
            },
            {
              "internalType": "uint256",
              "name": "sold",
              "type": "uint256"
            },
            {
              "internalType": "bool",
              "name": "active",
              "type": "bool"
            },
            {
              "internalType": "uint96",
              "name": "royaltyBps",
              "type": "uint96"
            }
          ],
          "internalType": "struct TicketFactory.EventData",
          "name": "",
          "type": "tuple"
        }
      ],
      "stateMutability": "view",
      "type": "function"
    },
    {
      "inputs": [
        {
          "internalType": "address",
          "name": "organizer",
          "type": "address"
        }
      ],
      "name": "getOrganizerEvents",
      "outputs": [
        {
          "internalType": "uint256[]",
          "name": "",
          "type": "uint256[]"
        }
      ],
      "stateMutability": "view",
      "type": "function"
    },
    {
      "inputs": [
        {
          "internalType": "uint256",
          "name": "eventId",
          "type": "uint256"
        }
      ],
      "name": "getTicketTypes",
      "outputs": [
        {
          "components": [
            {
              "internalType": "uint256",
              "name": "eventId",
              "type": "uint256"
            },
            {
              "internalType": "string",
              "name": "name",
              "type": "string"
            },
            {
              "internalType": "uint256",
              "name": "price",
              "type": "uint256"
            },
            {
              "internalType": "uint256",
              "name": "supply",
              "type": "uint256"
            },
            {
              "internalType": "uint256",
              "name": "sold",
              "type": "uint256"
            }
          ],
          "internalType": "struct TicketFactory.TicketType[]",
          "name": "",
          "type": "tuple[]"
        }
      ],
      "stateMutability": "view",
      "type": "function"
    },
    {
      "inputs": [],
      "name": "owner",
      "outputs": [
        {
          "internalType": "address",
          "name": "",
          "type": "address"
        }
      ],
      "stateMutability": "view",
      "type": "function"
    },
    {
      "inputs": [
        {
          "internalType": "uint256",
          "name": "eventId",
          "type": "uint256"
        },
        {
          "internalType": "uint256",
          "name": "ticketTypeId",
          "type": "uint256"
        }
      ],
      "name": "purchaseTicket",
      "outputs": [
        {
          "internalType": "uint256",
          "name": "tokenId",
          "type": "uint256"
        }
      ],
      "stateMutability": "payable",
      "type": "function"
    },
    {
      "inputs": [
        {
          "internalType": "uint256",
          "name": "eventId",
          "type": "uint256"
        },
        {
          "internalType": "uint256",
          "name": "ticketTypeId",
          "type": "uint256"
        },
        {
          "internalType": "string",
          "name": "tokenURI_",
          "type": "string"
        }
      ],
      "name": "purchaseTicketWithURI",
      "outputs": [
        {
          "internalType": "uint256",
          "name": "tokenId",
          "type": "uint256"
        }
      ],
      "stateMutability": "payable",
      "type": "function"
    },
    {
      "inputs": [
        {
          "internalType": "uint256",
          "name": "eventId",
          "type": "uint256"
        },
        {
          "internalType": "uint256",
          "name": "ticketTypeId",
          "type": "uint256"
        },
        {
          "internalType": "uint256",
          "name": "quantity",
          "type": "uint256"
        }
      ],
      "name": "purchaseTickets",
      "outputs": [
        {
          "internalType": "uint256[]",
          "name": "tokenIds",
          "type": "uint256[]"
        }
      ],
      "stateMutability": "payable",
      "type": "function"
    },
    {
      "inputs": [],
      "name": "renounceOwnership",
      "outputs": [],
      "stateMutability": "nonpayable",
      "type": "function"
    },
    {
      "inputs": [
        {
          "internalType": "address",
          "name": "nft",
          "type": "address"
        }
      ],
      "name": "setTicketNFT",
      "outputs": [],
      "stateMutability": "nonpayable",
      "type": "function"
    },
    {
      "inputs": [],
      "name": "ticketNFT",
      "outputs": [
        {
          "internalType": "contract TicketNFT",
          "name": "",
          "type": "address"
        }
      ],
      "stateMutability": "view",
      "type": "function"
    },
    {
      "inputs": [
        {
          "internalType": "uint256",
          "name": "eventId",
          "type": "uint256"
        }
      ],
      "name": "toggleEventStatus",
      "outputs": [],
      "stateMutability": "nonpayable",
      "type": "function"
    },
    {
      "inputs": [
        {
          "internalType": "address",
          "name": "newOwner",
          "type": "address"
        }
      ],
      "name": "transferOwnership",
      "outputs": [],
      "stateMutability": "nonpayable",
      "type": "function"
    },
    {
      "inputs": [
        {
          "internalType": "uint256",
          "name": "eventId",
          "type": "uint256"
        },
        {
          "internalType": "uint256",
          "name": "tokenId",
          "type": "uint256"
        }
      ],
      "name": "validateTicket",
      "outputs": [],
      "stateMutability": "nonpayable",
      "type": "function"
    },
    {
      "inputs": [
        {
          "internalType": "uint256",
          "name": "eventId",
          "type": "uint256"
        },
        {
          "internalType": "address payable",
          "name": "to",
          "type": "address"
        }
      ],
      "name": "withdrawFunds",
      "outputs": [],
      "stateMutability": "nonpayable",
      "type": "function"
    },
    {
      "stateMutability": "payable",
      "type": "receive"
    }
  ],
  "bytecode": "0x60806040523480156200001157600080fd5b50604051620029a8380380620029a8833981016040819052620000349162000131565b33806200005b57604051631e4fbdf760e01b81526000600482015260240160405180910390fd5b6200006681620000e1565b50600180556001600160a01b038116620000935760405163b4fa3fb360e01b815260040160405180910390fd5b600780546001600160a01b0319166001600160a01b0383169081179091556040517ff2610996d245d9b77e4ff84c2174eea0b76fb44c422218404f66e28816d78fb990600090a25062000163565b600080546001600160a01b038381166001600160a01b0319831681178455604051919092169283917f8be0079c531659141344cd1fd0a4f28419497f9722a3daafe3b4186f6b6457e09190a35050565b6000602082840312156200014457600080fd5b81516001600160a01b03811681146200015c57600080fd5b9392505050565b61283580620001736000396000f3fe60806040526004361061010c5760003560e01c80636d1884e01161009a578063bdbbb0cb11610061578063bdbbb0cb14610317578063c82947691461032a578063e13102e91461034a578063f2fde38b1461036a578063ff9f59701461038a57005b80636d1884e014610263578063715018a614610290578063744bfe61146102a55780638da5cb5b146102c5578063b393391b146102f757005b8063392d399b116100de578063392d399b146101cd5780634653db16146101ed57806352c55db91461020d57806357d802bd146102235780636ade389b1461024357005b8063049a5d57146101155780630b791430146101555780631b21c2c41461018d578063364c6941146101a057005b3661011357005b005b34801561012157600080fd5b50610142610130366004611d64565b60066020526000908152604090205481565b6040519081526020015b60405180910390f35b34801561016157600080fd5b50610175610170366004611d64565b6103aa565b60405161014c9c9b9a99989796959493929190611dcd565b61014261019b366004611f46565b61063d565b3480156101ac57600080fd5b506101c06101bb366004611d64565b6106b4565b60405161014c9190611f96565b6101e06101db36600461202d565b610805565b60405161014c9190612059565b3480156101f957600080fd5b5061014261020836600461209d565b610847565b34801561021957600080fd5b5061014260055481565b34801561022f57600080fd5b5061011361023e3660046120f4565b6109d6565b34801561024f57600080fd5b5061011361025e36600461212b565b610b3e565b34801561026f57600080fd5b5061028361027e366004611d64565b610bb7565b60405161014c919061214f565b34801561029c57600080fd5b50610113610f2e565b3480156102b157600080fd5b506101136102c036600461224f565b610f42565b3480156102d157600080fd5b506000546001600160a01b03165b6040516001600160a01b03909116815260200161014c565b34801561030357600080fd5b506007546102df906001600160a01b031681565b6101426103253660046120f4565b6110f1565b34801561033657600080fd5b5061014261034536600461229b565b611154565b34801561035657600080fd5b50610113610365366004611d64565b6113a8565b34801561037657600080fd5b5061011361038536600461212b565b611476565b34801561039657600080fd5b506101e06103a536600461212b565b6114b9565b600260208190526000918252604090912080546001820154928201805491936001600160a01b031692916103dd90612376565b80601f016020809104026020016040519081016040528092919081815260200182805461040990612376565b80156104565780601f1061042b57610100808354040283529160200191610456565b820191906000526020600020905b81548152906001019060200180831161043957829003601f168201915b50505050509080600301805461046b90612376565b80601f016020809104026020016040519081016040528092919081815260200182805461049790612376565b80156104e45780601f106104b9576101008083540402835291602001916104e4565b820191906000526020600020905b8154815290600101906020018083116104c757829003601f168201915b50505050509080600401549080600501549080600601805461050590612376565b80601f016020809104026020016040519081016040528092919081815260200182805461053190612376565b801561057e5780601f106105535761010080835404028352916020019161057e565b820191906000526020600020905b81548152906001019060200180831161056157829003601f168201915b50505050509080600701805461059390612376565b80601f01602080910402602001604051908101604052809291908181526020018280546105bf90612376565b801561060c5780601f106105e15761010080835404028352916020019161060c565b820191906000526020600020905b8154815290600101906020018083116105ef57829003601f168201915b5050505060088301546009840154600a909401549293909290915060ff81169061010090046001600160601b03168c565b60008380158061064e575060055481115b1561066c5760405163afb6a7d160e01b815260040160405180910390fd5b610674611525565b82516000036106965760405163b4fa3fb360e01b815260040160405180910390fd5b6106a185858561154f565b91506106ac60018055565b509392505050565b6060818015806106c5575060055481115b156106e35760405163afb6a7d160e01b815260040160405180910390fd5b600083815260036020908152604080832080548251818502810185019093528083529193909284015b828210156107f857838290600052602060002090600502016040518060a00160405290816000820154815260200160018201805461074990612376565b80601f016020809104026020016040519081016040528092919081815260200182805461077590612376565b80156107c25780601f10610797576101008083540402835291602001916107c2565b820191906000526020600020905b8154815290600101906020018083116107a557829003601f168201915b5050505050815260200160028201548152602001600382015481526020016004820154815250508152602001906001019061070c565b5050505091505b50919050565b606083801580610816575060055481115b156108345760405163afb6a7d160e01b815260040160405180910390fd5b61083c611525565b6106a18585856117f4565b600084801580610858575060055481115b156108765760405163afb6a7d160e01b815260040160405180910390fd5b60008681526002602052604090206001015486906001600160a01b031633146108b2576040516323d03a7160e21b815260040160405180910390fd5b855115806108be575084155b806108c7575083155b156108e55760405163b4fa3fb360e01b815260040160405180910390fd5b6040805160a0810182528881526020808201898152828401899052606083018890526000608084018190528b81526003835293842080546001818101835591865292909420835160059093020191825551919283929082019061094890826123fb565b5060408201518160020155606082015181600301556080820151816004015550506001600360008a81526020019081526020016000208054905061098c91906124d1565b935083887f766363e141a90ab2ab87c4d5ab572d5df3ac4b4e6cd8228f13b6a56b02d8c5c68989896040516109c3939291906124e4565b60405180910390a3505050949350505050565b818015806109e5575060055481115b15610a035760405163afb6a7d160e01b815260040160405180910390fd5b60008381526002602052604090206001015483906001600160a01b03163314610a3f576040516323d03a7160e21b815260040160405180910390fd5b60075460405163033fab3560e01b8152600481018590526000916001600160a01b03169063033fab3590602401600060405180830381865afa158015610a89573d6000803e3d6000fd5b505050506040513d6000823e601f3d908101601f19168201604052610ab19190810190612556565b5050505050509050848114610ad95760405163afb6a7d160e01b815260040160405180910390fd5b60075460405163054ae7df60e01b8152600481018690526001600160a01b039091169063054ae7df90602401600060405180830381600087803b158015610b1f57600080fd5b505af1158015610b33573d6000803e3d6000fd5b505050505050505050565b610b46611b4c565b6001600160a01b038116610b6d5760405163b4fa3fb360e01b815260040160405180910390fd5b600780546001600160a01b0319166001600160a01b0383169081179091556040517ff2610996d245d9b77e4ff84c2174eea0b76fb44c422218404f66e28816d78fb990600090a250565b610c2f6040518061018001604052806000815260200160006001600160a01b03168152602001606081526020016060815260200160008152602001600081526020016060815260200160608152602001600081526020016000815260200160001515815260200160006001600160601b031681525090565b81801580610c3e575060055481115b15610c5c5760405163afb6a7d160e01b815260040160405180910390fd5b6000838152600260208181526040928390208351610180810185528154815260018201546001600160a01b03169281019290925291820180549193840191610ca390612376565b80601f0160208091040260200160405190810160405280929190818152602001828054610ccf90612376565b8015610d1c5780601f10610cf157610100808354040283529160200191610d1c565b820191906000526020600020905b815481529060010190602001808311610cff57829003601f168201915b50505050508152602001600382018054610d3590612376565b80601f0160208091040260200160405190810160405280929190818152602001828054610d6190612376565b8015610dae5780601f10610d8357610100808354040283529160200191610dae565b820191906000526020600020905b815481529060010190602001808311610d9157829003601f168201915b505050505081526020016004820154815260200160058201548152602001600682018054610ddb90612376565b80601f0160208091040260200160405190810160405280929190818152602001828054610e0790612376565b8015610e545780601f10610e2957610100808354040283529160200191610e54565b820191906000526020600020905b815481529060010190602001808311610e3757829003601f168201915b50505050508152602001600782018054610e6d90612376565b80601f0160208091040260200160405190810160405280929190818152602001828054610e9990612376565b8015610ee65780601f10610ebb57610100808354040283529160200191610ee6565b820191906000526020600020905b815481529060010190602001808311610ec957829003601f168201915b50505091835250506008820154602082015260098201546040820152600a9091015460ff81161515606083015261010090046001600160601b03166080909101529392505050565b610f36611b4c565b610f406000611b79565b565b81801580610f51575060055481115b15610f6f5760405163afb6a7d160e01b815260040160405180910390fd5b60008381526002602052604090206001015483906001600160a01b03163314610fab576040516323d03a7160e21b815260040160405180910390fd5b610fb3611525565b6001600160a01b038316610fda5760405163b4fa3fb360e01b815260040160405180910390fd5b6000848152600660205260408120549081900361100a57604051630686827b60e51b815260040160405180910390fd5b600085815260066020526040808220829055516001600160a01b0386169083908381818185875af1925050503d8060008114611062576040519150601f19603f3d011682016040523d82523d6000602084013e611067565b606091505b505090508061109b576000868152600660205260409081902083905580516327fcd9d160e01b815290519081900360040190fd5b604080518381526001600160a01b0387166020820152339188917f055bb353f6eed0f4f1c04d79fa1d7da64810bcda2a49af58c38a07b8fd5c9273910160405180910390a350506110eb60018055565b50505050565b600082801580611102575060055481115b156111205760405163afb6a7d160e01b815260040160405180910390fd5b611128611525565b61114284846040518060200160405280600081525061154f565b915061114d60018055565b5092915050565b600088516000148061116557508751155b8061116f57508451155b8061117957508351155b80611182575082155b8061118d5750868611155b80611196575086155b156111b45760405163b4fa3fb360e01b815260040160405180910390fd5b6005600081546111c390612603565b918290555060408051610180810182528281523360208083019182528284018e8152606084018e9052608084018d905260a084018c905260c084018b905260e084018a9052610100840189905260006101208501819052600161014086018190526001600160601b038a1661016087015287825260029384905295902084518155925194830180546001600160a01b0319166001600160a01b039096169590951790945592519394509092909182019061127d90826123fb565b506060820151600382019061129290826123fb565b506080820151600482015560a0820151600582015560c082015160068201906112bb90826123fb565b5060e082015160078201906112d090826123fb565b506101008281015160088301556101208301516009830155610140830151600a9092018054610160909401516001600160601b03169091026cffffffffffffffffffffffff0019921515929092166cffffffffffffffffffffffffff1990931692909217179055336000818152600460209081526040808320805460018101825590845291909220018390555182907f1d2ceb053f26b69e0921eacd1cc8550658eeeb72963f22fa59ee6c1f6866de1390611394908d908c908c908a908a9061261c565b60405180910390a398975050505050505050565b808015806113b7575060055481115b156113d55760405163afb6a7d160e01b815260040160405180910390fd5b60008281526002602052604090206001015482906001600160a01b03163314611411576040516323d03a7160e21b815260040160405180910390fd5b600083815260026020908152604091829020600a8101805460ff8082161560ff19909216821790925593519316151583529185917f7bf55962c040938ae847142ba749182d55a7f3c0caaa789bb20e70619f700e34910160405180910390a250505050565b61147e611b4c565b6001600160a01b0381166114ad57604051631e4fbdf760e01b8152600060048201526024015b60405180910390fd5b6114b681611b79565b50565b6001600160a01b03811660009081526004602090815260409182902080548351818402810184019094528084526060939283018282801561151957602002820191906000526020600020905b815481526020019060010190808311611505575b50505050509050919050565b60026001540361154857604051633ee5aeb560e01b815260040160405180910390fd5b6002600155565b6000838152600260205260408120600a81015460ff1661158257604051639fe5276f60e01b815260040160405180910390fd5b80600501544211156115a757604051636e10858d60e11b815260040160405180910390fd5b60008581526003602052604090205484106115d557604051631c9447af60e11b815260040160405180910390fd5b60008581526003602052604081208054869081106115f5576115f561265c565b90600052602060002090600502019050806003015481600401541061162d576040516352df9fe560e01b815260040160405180910390fd5b8160080154826009015410611655576040516352df9fe560e01b815260040160405180910390fd5b806002015434146116795760405163569e8c1160e01b815260040160405180910390fd5b60048101805460019081019091556009830180549091019055600086815260066020526040812080543492906116b0908490612672565b9250508190555060006040518060e00160405280888152602001878152602001336001600160a01b031681526020013481526020016116ed611bc9565b815260006020808301829052604080519182018152918152918101919091526001850154600a860154600754925162aca1bd60e11b81529394506001600160a01b03918216936101009091046001600160601b0316929190911690630159437a9061176490339087908c90889088906004016126f8565b6020604051808303816000875af1158015611783573d6000803e3d6000fd5b505050506040513d601f19601f820116820180604052508101906117a79190612750565b6040805133815234602082015291975087918a918c917ffe7a8a160f28608c4d158798180f3638aa072dfc9c740e7ce564b3af4627cb5c910160405180910390a450505050509392505050565b6000838152600260205260409020600a8101546060919060ff1661182b57604051639fe5276f60e01b815260040160405180910390fd5b806005015442111561185057604051636e10858d60e11b815260040160405180910390fd5b600085815260036020526040902054841061187e57604051631c9447af60e11b815260040160405180910390fd5b600085815260036020526040812080548690811061189e5761189e61265c565b9060005260206000209060050201905080600301548482600401546118c39190612672565b11156118e2576040516352df9fe560e01b815260040160405180910390fd5b81600801548483600901546118f79190612672565b1115611916576040516352df9fe560e01b815260040160405180910390fd5b8381600201546119269190612769565b34146119455760405163569e8c1160e01b815260040160405180910390fd5b600481018054850190556009820180548501905560008681526006602052604081208054349290611977908490612672565b9091555084905067ffffffffffffffff81111561199657611996611e81565b6040519080825280602002602001820160405280156119bf578160200160208202803683370190505b506001830154600a8401549194506001600160a01b03169061010090046001600160601b031660005b86811015611b405760006040518060e001604052808b81526020018a8152602001336001600160a01b0316815260200186600201548152602001611a2a611bc9565b81526000602080830182905260408051918201815282825292830152600754915162aca1bd60e11b8152929350916001600160a01b0390911690630159437a90611a7e90339086908a908a90600401612780565b6020604051808303816000875af1158015611a9d573d6000803e3d6000fd5b505050506040513d601f19601f82011682018060405250810190611ac19190612750565b905080888481518110611ad657611ad661265c565b602002602001018181525050808a8c7ffe7a8a160f28608c4d158798180f3638aa072dfc9c740e7ce564b3af4627cb5c338a60020154604051611b2e9291906001600160a01b03929092168252602082015260400190565b60405180910390a450506001016119e8565b50505050509392505050565b6000546001600160a01b03163314610f405760405163118cdaa760e01b81523360048201526024016114a4565b600080546001600160a01b038381166001600160a01b0319831681178455604051919092169283917f8be0079c531659141344cd1fd0a4f28419497f9722a3daafe3b4186f6b6457e09190a35050565b6060611bd446611bf8565b604051602001611be491906127d1565b604051602081830303815290604052905090565b60606000611c0583611c8b565b600101905060008167ffffffffffffffff811115611c2557611c25611e81565b6040519080825280601f01601f191660200182016040528015611c4f576020820181803683370190505b5090508181016020015b600019016f181899199a1a9b1b9c1cb0b131b232b360811b600a86061a8153600a8504945084611c5957509392505050565b60008072184f03e93ff9f4daa797ed6e38ed64bf6a1f0160401b8310611cca5772184f03e93ff9f4daa797ed6e38ed64bf6a1f0160401b830492506040015b6d04ee2d6d415b85acef81000000008310611cf6576d04ee2d6d415b85acef8100000000830492506020015b662386f26fc100008310611d1457662386f26fc10000830492506010015b6305f5e1008310611d2c576305f5e100830492506008015b6127108310611d4057612710830492506004015b60648310611d52576064830492506002015b600a8310611d5e576001015b92915050565b600060208284031215611d7657600080fd5b5035919050565b60005b83811015611d98578181015183820152602001611d80565b50506000910152565b60008151808452611db9816020860160208601611d7d565b601f01601f19169290920160200192915050565b8c81526001600160a01b038c16602082015261018060408201819052600090611df88382018e611da1565b90508281036060840152611e0c818d611da1565b90508a60808401528960a084015282810360c0840152611e2c818a611da1565b905082810360e0840152611e408189611da1565b9150508561010083015284610120830152831515610140830152611e706101608301846001600160601b03169052565b9d9c50505050505050505050505050565b634e487b7160e01b600052604160045260246000fd5b604051601f8201601f1916810167ffffffffffffffff81118282101715611ec057611ec0611e81565b604052919050565b600067ffffffffffffffff821115611ee257611ee2611e81565b50601f01601f191660200190565b600082601f830112611f0157600080fd5b8135611f14611f0f82611ec8565b611e97565b818152846020838601011115611f2957600080fd5b816020850160208301376000918101602001919091529392505050565b600080600060608486031215611f5b57600080fd5b8335925060208401359150604084013567ffffffffffffffff811115611f8057600080fd5b611f8c86828701611ef0565b9150509250925092565b600060208083018184528085518083526040925060408601915060408160051b87010184880160005b8381101561201f57603f19898403018552815160a08151855288820151818a870152611fed82870182611da1565b838a0151878b015260608085015190880152608093840151939096019290925250509386019390860190600101611fbf565b509098975050505050505050565b60008060006060848603121561204257600080fd5b505081359360208301359350604090920135919050565b6020808252825182820181905260009190848201906040850190845b8181101561209157835183529284019291840191600101612075565b50909695505050505050565b600080600080608085870312156120b357600080fd5b84359350602085013567ffffffffffffffff8111156120d157600080fd5b6120dd87828801611ef0565b949794965050505060408301359260600135919050565b6000806040838503121561210757600080fd5b50508035926020909101359150565b6001600160a01b03811681146114b657600080fd5b60006020828403121561213d57600080fd5b813561214881612116565b9392505050565b60208152815160208201526000602083015161217660408401826001600160a01b03169052565b5060408301516101808060608501526121936101a0850183611da1565b91506060850151601f19808685030160808701526121b18483611da1565b9350608087015160a087015260a087015160c087015260c08701519150808685030160e08701526121e28483611da1565b935060e087015191506101008187860301818801526122018584611da1565b908801516101208881019190915288015161014080890191909152880151909450915061016090506122368187018315159052565b909501516001600160601b031693019290925250919050565b6000806040838503121561226257600080fd5b82359150602083013561227481612116565b809150509250929050565b80356001600160601b038116811461229657600080fd5b919050565b600080600080600080600080610100898b0312156122b857600080fd5b883567ffffffffffffffff808211156122d057600080fd5b6122dc8c838d01611ef0565b995060208b01359150808211156122f257600080fd5b6122fe8c838d01611ef0565b985060408b0135975060608b0135965060808b013591508082111561232257600080fd5b61232e8c838d01611ef0565b955060a08b013591508082111561234457600080fd5b506123518b828c01611ef0565b93505060c0890135915061236760e08a0161227f565b90509295985092959890939650565b600181811c9082168061238a57607f821691505b6020821081036107ff57634e487b7160e01b600052602260045260246000fd5b601f8211156123f6576000816000526020600020601f850160051c810160208610156123d35750805b601f850160051c820191505b818110156123f2578281556001016123df565b5050505b505050565b815167ffffffffffffffff81111561241557612415611e81565b612429816124238454612376565b846123aa565b602080601f83116001811461245e57600084156124465750858301515b600019600386901b1c1916600185901b1785556123f2565b600085815260208120601f198616915b8281101561248d5788860151825594840194600190910190840161246e565b50858210156124ab5787850151600019600388901b60f8161c191681555b5050505050600190811b01905550565b634e487b7160e01b600052601160045260246000fd5b81810381811115611d5e57611d5e6124bb565b6060815260006124f76060830186611da1565b60208301949094525060400152919050565b600082601f83011261251a57600080fd5b8151612528611f0f82611ec8565b81815284602083860101111561253d57600080fd5b61254e826020830160208701611d7d565b949350505050565b600080600080600080600060e0888a03121561257157600080fd5b8751965060208801519550604088015161258a81612116565b606089015160808a0151919650945067ffffffffffffffff808211156125af57600080fd5b6125bb8b838c01612509565b945060a08a0151915081151582146125d257600080fd5b60c08a0151919350808211156125e757600080fd5b506125f48a828b01612509565b91505092959891949750929550565b600060018201612615576126156124bb565b5060010190565b60a08152600061262f60a0830188611da1565b90508560208301528460408301528360608301526001600160601b03831660808301529695505050505050565b634e487b7160e01b600052603260045260246000fd5b80820180821115611d5e57611d5e6124bb565b805182526020810151602083015260018060a01b036040820151166040830152606081015160608301526000608082015160e060808501526126ca60e0850182611da1565b905060a0830151151560a085015260c083015184820360c08601526126ef8282611da1565b95945050505050565b600060018060a01b03808816835260a0602084015261271a60a0840188612685565b838103604085015261272c8188611da1565b95909116606084015250506001600160601b03919091166080909101529392505050565b60006020828403121561276257600080fd5b5051919050565b8082028115828204841417611d5e57611d5e6124bb565b600060018060a01b03808716835260a060208401526127a260a0840187612685565b83810360408501526000815294166060830152506001600160601b039190911660809091015260200192915050565b6531b430b4b71d60d11b8152600082516127f2816006850160208701611d7d565b919091016006019291505056fea26469706673582212209707e390277cad4311eee4f02365b0cc10e907d3a84bf610d2e21d8c93cba15a64736f6c63430008160033",
  "linkReferences": {},
  "deployedLinkReferences": {}
}