{
  "_format": "hh-sol-artifact-1",
  "contractName": "TicketMarketplace",
  "sourceName": "contracts/TicketMarketplace.sol",
  "abi": [
    {
      "inputs": [
        {
          "internalType": "address",
          "name": "nft",
          "type": "address"
        }
      ],
      "stateMutability": "nonpayable",
      "type": "constructor"
    },
    {
      "inputs": [],
      "name": "AlreadyListed",
      "type": "error"
    },
    {
      "inputs": [],
      "name": "InvalidInput",
      "type": "error"
    },
    {
      "inputs": [],
      "name": "NotActive",
      "type": "error"
    },
    {
      "inputs": [],
      "name": "NotListed",
      "type": "error"
    },
    {
      "inputs": [],
      "name": "NotSeller",
      "type": "error"
    },
    {
      "inputs": [
        {
          "internalType": "address",
          "name": "owner",
          "type": "address"
        }
      ],
      "name": "OwnableInvalidOwner",
      "type": "error"
    },
    {
      "inputs": [
        {
          "internalType": "address",
          "name": "account",
          "type": "address"
        }
      ],
      "name": "OwnableUnauthorizedAccount",
      "type": "error"
    },
    {
      "inputs": [],
      "name": "ReentrancyGuardReentrantCall",
      "type": "error"
    },
    {
      "inputs": [],
      "name": "TransferFailed",
      "type": "error"
    },
    {
      "inputs": [],
      "name": "UsedTicket",
      "type": "error"
    },
    {
      "anonymous": false,
      "inputs": [
        {
          "indexed": true,
          "internalType": "uint256",
          "name": "listingId",
          "type": "uint256"
        },
        {
          "indexed": true,
          "internalType": "uint256",
          "name": "tokenId",
          "type": "uint256"
        }
      ],
      "name": "ListingCanceled",
      "type": "event"
    },
    {
      "anonymous": false,
      "inputs": [
        {
          "indexed": true,
          "internalType": "address",
          "name": "previousOwner",
          "type": "address"
        },
        {
          "indexed": true,
          "internalType": "address",
          "name": "newOwner",
          "type": "address"
        }
      ],
      "name": "OwnershipTransferred",
      "type": "event"
    },
    {
      "anonymous": false,
      "inputs": [
        {
          "indexed": true,
          "internalType": "uint256",
          "name": "listingId",
          "type": "uint256"
        },
        {
          "indexed": false,
          "internalType": "uint256",
          "name": "oldPrice",
          "type": "uint256"
        },
        {
          "indexed": false,
          "internalType": "uint256",
          "name": "newPrice",
          "type": "uint256"
        }
      ],
      "name": "PriceUpdated",
      "type": "event"
    },
    {
      "anonymous": false,
      "inputs": [
        {
          "indexed": true,
          "internalType": "uint256",
          "name": "listingId",
          "type": "uint256"
        },
        {
          "indexed": true,
          "internalType": "uint256",
          "name": "tokenId",
          "type": "uint256"
        },
        {
          "indexed": true,
          "internalType": "address",
          "name": "seller",
          "type": "address"
        },
        {
          "indexed": false,
          "internalType": "uint256",
          "name": "price",
          "type": "uint256"
        }
      ],
      "name": "TicketListed",
      "type": "event"
    },
    {
      "anonymous": false,
      "inputs": [
        {
          "indexed": true,
          "internalType": "uint256",
          "name": "listingId",
          "type": "uint256"
        },
        {
          "indexed": true,
          "internalType": "uint256",
          "name": "tokenId",
          "type": "uint256"
        },
        {
          "indexed": true,
          "internalType": "address",
          "name": "seller",
          "type": "address"
        },
        {
          "indexed": false,
          "internalType": "address",
          "name": "buyer",
          "type": "address"
        },
        {
          "indexed": false,
          "internalType": "uint256",
          "name": "price",
          "type": "uint256"
        },
        {
          "indexed": false,
          "internalType": "address",
          "name": "royaltyReceiver",
          "type": "address"
        },
        {
          "indexed": false,
          "internalType": "uint256",
          "name": "royaltyAmount",
          "type": "uint256"
        }
      ],
      "name": "TicketPurchased",
      "type": "event"
    },
    {
      "stateMutability": "payable",
      "type": "fallback"
    },
    {
      "inputs": [
        {
          "internalType": "uint256",
          "name": "listingId",
          "type": "uint256"
        }
      ],
      "name": "buyTicket",
      "outputs": [],
      "stateMutability": "payable",
      "type": "function"
    },
    {
      "inputs": [
        {
          "internalType": "uint256",
          "name": "listingId",
          "type": "uint256"
        }
      ],
      "name": "cancelListing",
      "outputs": [],
      "stateMutability": "nonpayable",
      "type": "function"
    },
    {
      "inputs": [],
      "name": "getActiveListings",
      "outputs": [
        {
          "components": [
            {
              "internalType": "uint256",
              "name": "listingId",
              "type": "uint256"
            },
            {
              "internalType": "uint256",
              "name": "tokenId",
              "type": "uint256"
            },
            {
              "internalType": "address",
              "name": "seller",
              "type": "address"
            },
            {
              "internalType": "uint256",
              "name": "price",
              "type": "uint256"
            },
            {
              "internalType": "bool",
              "name": "active",
              "type": "bool"
            },
            {
              "internalType": "uint256",
              "name": "createdAt",
              "type": "uint256"
            }
          ],
          "internalType": "struct TicketMarketplace.Listing[]",
          "name": "results",
          "type": "tuple[]"
        }
      ],
      "stateMutability": "view",
      "type": "function"
    },
    {
      "inputs": [
        {
          "internalType": "uint256",
          "name": "eventId",
          "type": "uint256"
        }
      ],
      "name": "getListingsByEvent",
      "outputs": [
        {
          "components": [
            {
              "internalType": "uint256",
              "name": "listingId",
              "type": "uint256"
            },
            {
              "internalType": "uint256",
              "name": "tokenId",
              "type": "uint256"
            },
            {
              "internalType": "address",
              "name": "seller",
              "type": "address"
            },
            {
              "internalType": "uint256",
              "name": "price",
              "type": "uint256"
            },
            {
              "internalType": "bool",
              "name": "active",
              "type": "bool"
            },
            {
              "internalType": "uint256",
              "name": "createdAt",
              "type": "uint256"
            }
          ],
          "internalType": "struct TicketMarketplace.Listing[]",
          "name": "results",
          "type": "tuple[]"
        }
      ],
      "stateMutability": "view",
      "type": "function"
    },
    {
      "inputs": [
        {
          "internalType": "uint256",
          "name": "tokenId",
          "type": "uint256"
        },
        {
          "internalType": "uint256",
          "name": "price",
          "type": "uint256"
        }
      ],
      "name": "listTicket",
      "outputs": [
        {
          "internalType": "uint256",
          "name": "listingId",
          "type": "uint256"
        }
      ],
      "stateMutability": "nonpayable",
      "type": "function"
    },
    {
      "inputs": [],
      "name": "listingCounter",
      "outputs": [
        {
          "internalType": "uint256",
          "name": "",
          "type": "uint256"
        }
      ],
      "stateMutability": "view",
      "type": "function"
    },
    {
      "inputs": [
        {
          "internalType": "uint256",
          "name": "",
          "type": "uint256"
        }
      ],
      "name": "listings",
      "outputs": [
        {
          "internalType": "uint256",
          "name": "listingId",
          "type": "uint256"
        },
        {
          "internalType": "uint256",
          "name": "tokenId",
          "type": "uint256"
        },
        {
          "internalType": "address",
          "name": "seller",
          "type": "address"
        },
        {
          "internalType": "uint256",
          "name": "price",
          "type": "uint256"
        },
        {
          "internalType": "bool",
          "name": "active",
          "type": "bool"
        },
        {
          "internalType": "uint256",
          "name": "createdAt",
          "type": "uint256"
        }
      ],
      "stateMutability": "view",
      "type": "function"
    },
    {
      "inputs": [],
      "name": "owner",
      "outputs": [
        {
          "internalType": "address",
          "name": "",
          "type": "address"
        }
      ],
      "stateMutability": "view",
      "type": "function"
    },
    {
      "inputs": [],
      "name": "renounceOwnership",
      "outputs": [],
      "stateMutability": "nonpayable",
      "type": "function"
    },
    {
      "inputs": [],
      "name": "ticketNFT",
      "outputs": [
        {
          "internalType": "contract TicketNFT",
          "name": "",
          "type": "address"
        }
      ],
      "stateMutability": "view",
      "type": "function"
    },
    {
      "inputs": [
        {
          "internalType": "uint256",
          "name": "",
          "type": "uint256"
        }
      ],
      "name": "tokenToListing",
      "outputs": [
        {
          "internalType": "uint256",
          "name": "",
          "type": "uint256"
        }
      ],
      "stateMutability": "view",
      "type": "function"
    },
    {
      "inputs": [
        {
          "internalType": "address",
          "name": "newOwner",
          "type": "address"
        }
      ],
      "name": "transferOwnership",
      "outputs": [],
      "stateMutability": "nonpayable",
      "type": "function"
    },
    {
      "inputs": [
        {
          "internalType": "uint256",
          "name": "listingId",
          "type": "uint256"
        },
        {
          "internalType": "uint256",
          "name": "newPrice",
          "type": "uint256"
        }
      ],
      "name": "updatePrice",
      "outputs": [],
      "stateMutability": "nonpayable",
      "type": "function"
    },
    {
      "stateMutability": "payable",
      "type": "receive"
    }
  ],
  "bytecode": "0x60a060405234801561001057600080fd5b5060405161161d38038061161d83398101604081905261002f916100eb565b338061005557604051631e4fbdf760e01b81526000600482015260240160405180910390fd5b61005e8161009b565b50600180556001600160a01b03811661008a5760405163b4fa3fb360e01b815260040160405180910390fd5b6001600160a01b031660805261011b565b600080546001600160a01b038381166001600160a01b0319831681178455604051919092169283917f8be0079c531659141344cd1fd0a4f28419497f9722a3daafe3b4186f6b6457e09190a35050565b6000602082840312156100fd57600080fd5b81516001600160a01b038116811461011457600080fd5b9392505050565b6080516114af61016e600039600081816101f5015281816103e1015281816104ed015281816105ab0152818161065f0152818161087a01528181610a4101528181610de40152610f2901526114af6000f3fe6080604052600436106100bc5760003560e01c806387c35bc011610079578063b393391b11610056578063b393391b146101e3578063de74e57b14610217578063ea7eaec6146102b2578063f2fde38b146102df57005b806387c35bc01461016f5780638da5cb5b14610191578063a67f09ff146101c357005b8063305a67a8146100be578063305a905a146100de57806367dd74ca146101115780636c2c9c7d14610124578063715018a61461013a57806382367b2d1461014f575b005b3480156100ca57600080fd5b506100bc6100d936600461116f565b6102ff565b3480156100ea57600080fd5b506100fe6100f9366004611188565b61047c565b6040519081526020015b60405180910390f35b6100bc61011f36600461116f565b6107c6565b34801561013057600080fd5b506100fe60025481565b34801561014657600080fd5b506100bc610b37565b34801561015b57600080fd5b506100bc61016a366004611188565b610b4b565b34801561017b57600080fd5b50610184610c39565b60405161010891906111aa565b34801561019d57600080fd5b506000546001600160a01b03165b6040516001600160a01b039091168152602001610108565b3480156101cf57600080fd5b506101846101de36600461116f565b610d9a565b3480156101ef57600080fd5b506101ab7f000000000000000000000000000000000000000000000000000000000000000081565b34801561022357600080fd5b5061027761023236600461116f565b6003602081905260009182526040909120805460018201546002830154938301546004840154600590940154929491936001600160a01b0390921692909160ff169086565b6040805196875260208701959095526001600160a01b03909316938501939093526060840152901515608083015260a082015260c001610108565b3480156102be57600080fd5b506100fe6102cd36600461116f565b60046020526000908152604090205481565b3480156102eb57600080fd5b506100bc6102fa366004611244565b611047565b610307611087565b600081815260036020526040812080549091036103375760405163665c1c5760e01b815260040160405180910390fd5b600481015460ff1661035c57604051634065aaf160e11b815260040160405180910390fd5b60028101546001600160a01b0316331461038957604051635ec8235160e01b815260040160405180910390fd5b6004818101805460ff19169055600182018054600090815260208390526040808220919091556002840154915490516323b872dd60e01b815230938101939093526001600160a01b03918216602484015260448301527f000000000000000000000000000000000000000000000000000000000000000016906323b872dd90606401600060405180830381600087803b15801561042557600080fd5b505af1158015610439573d6000803e3d6000fd5b505050508060010154827f3de5f6c6d480b0ed131d7db9d21b7e79660e349d57b37f688bcc0000352fb34d60405160405180910390a35061047960018055565b50565b6000610486611087565b816000036104a75760405163b4fa3fb360e01b815260040160405180910390fd5b600083815260046020526040902054156104d4576040516328f560bb60e21b815260040160405180910390fd5b60405163033fab3560e01b8152600481018490526000907f00000000000000000000000000000000000000000000000000000000000000006001600160a01b03169063033fab3590602401600060405180830381865afa15801561053c573d6000803e3d6000fd5b505050506040513d6000823e601f3d908101601f191682016040526105649190810190611323565b5095505050505050801561058b57604051630e64a6df60e01b815260040160405180910390fd5b6040516331a9108f60e11b81526004810185905233906001600160a01b037f00000000000000000000000000000000000000000000000000000000000000001690636352211e90602401602060405180830381865afa1580156105f2573d6000803e3d6000fd5b505050506040513d601f19601f8201168201806040525081019061061691906113d6565b6001600160a01b03161461063d57604051635ec8235160e01b815260040160405180910390fd5b6040516323b872dd60e01b8152336004820152306024820152604481018590527f00000000000000000000000000000000000000000000000000000000000000006001600160a01b0316906323b872dd90606401600060405180830381600087803b1580156106ab57600080fd5b505af11580156106bf573d6000803e3d6000fd5b505050506002600081546106d290611409565b91829055506040805160c081018252828152602080820188815233838501818152606085018a81526001608087018181524260a0890190815260008b81526003808a528b82209a518b559751938a019390935593516002890180546001600160a01b0319166001600160a01b03909216919091179055915194870194909455516004808701805460ff1916921515929092179091559051600590950194909455898252928252839020849055915186815292945091869185917f8b84647ec667515d9ce59e74ab9bb64476ec404345ebb9dfc3ea275bb6d8ee9b910160405180910390a4506107c060018055565b92915050565b6107ce611087565b600081815260036020526040812080549091036107fe5760405163665c1c5760e01b815260040160405180910390fd5b600481015460ff1661082357604051634065aaf160e11b815260040160405180910390fd5b806003015434146108475760405163b4fa3fb360e01b815260040160405180910390fd5b6001810154600382015460405163152a902d60e11b81526004810192909252602482015260009081906001600160a01b037f00000000000000000000000000000000000000000000000000000000000000001690632a55205a906044016040805180830381865afa1580156108c0573d6000803e3d6000fd5b505050506040513d601f19601f820116820180604052508101906108e49190611422565b600385015491935091506001600160a01b038316158015906109065750600082115b8015610916575083600301548211155b156109a35781846003015461092b9190611450565b90506000836001600160a01b03168360405160006040518083038185875af1925050503d806000811461097a576040519150601f19603f3d011682016040523d82523d6000602084013e61097f565b606091505b50509050806109a1576040516312171d8360e31b815260040160405180910390fd5b505b60028401546040516000916001600160a01b03169083908381818185875af1925050503d80600081146109f2576040519150601f19603f3d011682016040523d82523d6000602084013e6109f7565b606091505b5050905080610a19576040516312171d8360e31b815260040160405180910390fd5b60018501546040516323b872dd60e01b815230600482015233602482015260448101919091527f00000000000000000000000000000000000000000000000000000000000000006001600160a01b0316906323b872dd90606401600060405180830381600087803b158015610a8d57600080fd5b505af1158015610aa1573d6000803e3d6000fd5b505050506004858101805460ff19169055600186018054600090815260209283526040808220919091556002880154915460038901548251338152948501526001600160a01b0388811685840152606085018890529151919092169289917feea9812fe16e2091f92a02e46a1488a162bc0f229203b46d16b870e1b39ec6ff9181900360800190a4505050505061047960018055565b610b3f6110b1565b610b4960006110de565b565b80600003610b6c5760405163b4fa3fb360e01b815260040160405180910390fd5b60008281526003602052604081208054909103610b9c5760405163665c1c5760e01b815260040160405180910390fd5b600481015460ff16610bc157604051634065aaf160e11b815260040160405180910390fd5b60028101546001600160a01b03163314610bee57604051635ec8235160e01b815260040160405180910390fd5b60038101805490839055604080518281526020810185905285917f15819dd2fd9f6418b142e798d08a18d0bf06ea368f4480b7b0d3f75bd966bc48910160405180910390a250505050565b6060600060015b6002548111610c7c5760008181526003602052604090206004015460ff1615610c6a578160010191505b80610c7481611409565b915050610c40565b508067ffffffffffffffff811115610c9657610c96611268565b604051908082528060200260200182016040528015610ccf57816020015b610cbc61112e565b815260200190600190039081610cb45790505b509150600060015b6002548111610d945760008181526003602052604090206004015460ff1615610d8257600081815260036020818152604092839020835160c0810185528154815260018201549281019290925260028101546001600160a01b031693820193909352908201546060820152600482015460ff161515608082015260059091015460a08201528451859084908110610d7057610d70611463565b60200260200101819052508160010191505b80610d8c81611409565b915050610cd7565b50505090565b6060600060015b6002548111610e8b576000818152600360205260409020600481015460ff1615610e7857600181015460405163033fab3560e01b81526000916001600160a01b037f0000000000000000000000000000000000000000000000000000000000000000169163033fab3591610e1b9160040190815260200190565b600060405180830381865afa158015610e38573d6000803e3d6000fd5b505050506040513d6000823e601f3d908101601f19168201604052610e609190810190611323565b5050505050509050858103610e76578360010193505b505b5080610e8381611409565b915050610da1565b508067ffffffffffffffff811115610ea557610ea5611268565b604051908082528060200260200182016040528015610ede57816020015b610ecb61112e565b815260200190600190039081610ec35790505b509150600060015b600254811161103f576000818152600360205260409020600481015460ff161561102c57600181015460405163033fab3560e01b81526000916001600160a01b037f0000000000000000000000000000000000000000000000000000000000000000169163033fab3591610f609160040190815260200190565b600060405180830381865afa158015610f7d573d6000803e3d6000fd5b505050506040513d6000823e601f3d908101601f19168201604052610fa59190810190611323565b505050505050905086810361102a576040805160c081018252835481526001840154602082015260028401546001600160a01b03169181019190915260038301546060820152600483015460ff1615156080820152600583015460a0820152865187908690811061101857611018611463565b60200260200101819052508360010193505b505b508061103781611409565b915050610ee6565b505050919050565b61104f6110b1565b6001600160a01b03811661107e57604051631e4fbdf760e01b8152600060048201526024015b60405180910390fd5b610479816110de565b6002600154036110aa57604051633ee5aeb560e01b815260040160405180910390fd5b6002600155565b6000546001600160a01b03163314610b495760405163118cdaa760e01b8152336004820152602401611075565b600080546001600160a01b038381166001600160a01b0319831681178455604051919092169283917f8be0079c531659141344cd1fd0a4f28419497f9722a3daafe3b4186f6b6457e09190a35050565b6040518060c00160405280600081526020016000815260200160006001600160a01b0316815260200160008152602001600015158152602001600081525090565b60006020828403121561118157600080fd5b5035919050565b6000806040838503121561119b57600080fd5b50508035926020909101359150565b602080825282518282018190526000918401906040840190835b8181101561122457835180518452602080820151818601526040808301516001600160a01b0316908601526060808301519086015260808083015115159086015260a091820151918501919091529093019260c0909201916001016111c4565b509095945050505050565b6001600160a01b038116811461047957600080fd5b60006020828403121561125657600080fd5b81356112618161122f565b9392505050565b634e487b7160e01b600052604160045260246000fd5b600082601f83011261128f57600080fd5b815167ffffffffffffffff8111156112a9576112a9611268565b604051601f8201601f19908116603f0116810167ffffffffffffffff811182821017156112d8576112d8611268565b6040528181528382016020018510156112f057600080fd5b60005b8281101561130f576020818601810151838301820152016112f3565b506000918101602001919091529392505050565b600080600080600080600060e0888a03121561133e57600080fd5b8751602089015160408a015191985096506113588161122f565b606089015160808a0151919650945067ffffffffffffffff81111561137c57600080fd5b6113888a828b0161127e565b93505060a0880151801515811461139e57600080fd5b60c089015190925067ffffffffffffffff8111156113bb57600080fd5b6113c78a828b0161127e565b91505092959891949750929550565b6000602082840312156113e857600080fd5b81516112618161122f565b634e487b7160e01b600052601160045260246000fd5b60006001820161141b5761141b6113f3565b5060010190565b6000806040838503121561143557600080fd5b82516114408161122f565b6020939093015192949293505050565b818103818111156107c0576107c06113f3565b634e487b7160e01b600052603260045260246000fdfea264697066735822122098cd99cadffd95d918cba0d6e7935043abf8ea6f352890e690ed03165fe5b66364736f6c634300081c0033",
  "linkReferences": {},
  "deployedLinkReferences": {}
}