{
  "_format": "hh-sol-artifact-1",
  "contractName": "TicketNFT",
  "sourceName": "contracts/TicketNFT.sol",
  "abi": [
    {
      "inputs": [
        {
          "internalType": "string",
          "name": "name_",
          "type": "string"
        },
        {
          "internalType": "string",
          "name": "symbol_",
          "type": "string"
        },
        {
          "internalType": "address",
          "name": "initialFactory",
          "type": "address"
        },
        {
          "internalType": "address",
          "name": "defaultRoyaltyReceiver",
          "type": "address"
        },
        {
          "internalType": "uint96",
          "name": "defaultRoyaltyBps",
          "type": "uint96"
        }
      ],
      "stateMutability": "nonpayable",
      "type": "constructor"
    },
    {
      "inputs": [
        {
          "internalType": "uint256",
          "name": "numerator",
          "type": "uint256"
        },
        {
          "internalType": "uint256",
          "name": "denominator",
          "type": "uint256"
        }
      ],
      "name": "ERC2981InvalidDefaultRoyalty",
      "type": "error"
    },
    {
      "inputs": [
        {
          "internalType": "address",
          "name": "receiver",
          "type": "address"
        }
      ],
      "name": "ERC2981InvalidDefaultRoyaltyReceiver",
      "type": "error"
    },
    {
      "inputs": [
        {
          "internalType": "uint256",
          "name": "tokenId",
          "type": "uint256"
        },
        {
          "internalType": "uint256",
          "name": "numerator",
          "type": "uint256"
        },
        {
          "internalType": "uint256",
          "name": "denominator",
          "type": "uint256"
        }
      ],
      "name": "ERC2981InvalidTokenRoyalty",
      "type": "error"
    },
    {
      "inputs": [
        {
          "internalType": "uint256",
          "name": "tokenId",
          "type": "uint256"
        },
        {
          "internalType": "address",
          "name": "receiver",
          "type": "address"
        }
      ],
      "name": "ERC2981InvalidTokenRoyaltyReceiver",
      "type": "error"
    },
    {
      "inputs": [
        {
          "internalType": "address",
          "name": "sender",
          "type": "address"
        },
        {
          "internalType": "uint256",
          "name": "tokenId",
          "type": "uint256"
        },
        {
          "internalType": "address",
          "name": "owner",
          "type": "address"
        }
      ],
      "name": "ERC721IncorrectOwner",
      "type": "error"
    },
    {
      "inputs": [
        {
          "internalType": "address",
          "name": "operator",
          "type": "address"
        },
        {
          "internalType": "uint256",
          "name": "tokenId",
          "type": "uint256"
        }
      ],
      "name": "ERC721InsufficientApproval",
      "type": "error"
    },
    {
      "inputs": [
        {
          "internalType": "address",
          "name": "approver",
          "type": "address"
        }
      ],
      "name": "ERC721InvalidApprover",
      "type": "error"
    },
    {
      "inputs": [
        {
          "internalType": "address",
          "name": "operator",
          "type": "address"
        }
      ],
      "name": "ERC721InvalidOperator",
      "type": "error"
    },
    {
      "inputs": [
        {
          "internalType": "address",
          "name": "owner",
          "type": "address"
        }
      ],
      "name": "ERC721InvalidOwner",
      "type": "error"
    },
    {
      "inputs": [
        {
          "internalType": "address",
          "name": "receiver",
          "type": "address"
        }
      ],
      "name": "ERC721InvalidReceiver",
      "type": "error"
    },
    {
      "inputs": [
        {
          "internalType": "address",
          "name": "sender",
          "type": "address"
        }
      ],
      "name": "ERC721InvalidSender",
      "type": "error"
    },
    {
      "inputs": [
        {
          "internalType": "uint256",
          "name": "tokenId",
          "type": "uint256"
        }
      ],
      "name": "ERC721NonexistentToken",
      "type": "error"
    },
    {
      "inputs": [],
      "name": "InvalidAddress",
      "type": "error"
    },
    {
      "inputs": [
        {
          "internalType": "address",
          "name": "owner",
          "type": "address"
        }
      ],
      "name": "OwnableInvalidOwner",
      "type": "error"
    },
    {
      "inputs": [
        {
          "internalType": "address",
          "name": "account",
          "type": "address"
        }
      ],
      "name": "OwnableUnauthorizedAccount",
      "type": "error"
    },
    {
      "inputs": [],
      "name": "TicketUsed",
      "type": "error"
    },
    {
      "inputs": [],
      "name": "TokenNonexistent",
      "type": "error"
    },
    {
      "inputs": [],
      "name": "Unauthorized",
      "type": "error"
    },
    {
      "anonymous": false,
      "inputs": [
        {
          "indexed": true,
          "internalType": "address",
          "name": "owner",
          "type": "address"
        },
        {
          "indexed": true,
          "internalType": "address",
          "name": "approved",
          "type": "address"
        },
        {
          "indexed": true,
          "internalType": "uint256",
          "name": "tokenId",
          "type": "uint256"
        }
      ],
      "name": "Approval",
      "type": "event"
    },
    {
      "anonymous": false,
      "inputs": [
        {
          "indexed": true,
          "internalType": "address",
          "name": "owner",
          "type": "address"
        },
        {
          "indexed": true,
          "internalType": "address",
          "name": "operator",
          "type": "address"
        },
        {
          "indexed": false,
          "internalType": "bool",
          "name": "approved",
          "type": "bool"
        }
      ],
      "name": "ApprovalForAll",
      "type": "event"
    },
    {
      "anonymous": false,
      "inputs": [
        {
          "indexed": true,
          "internalType": "address",
          "name": "factory",
          "type": "address"
        }
      ],
      "name": "FactoryUpdated",
      "type": "event"
    },
    {
      "anonymous": false,
      "inputs": [
        {
          "indexed": true,
          "internalType": "address",
          "name": "previousOwner",
          "type": "address"
        },
        {
          "indexed": true,
          "internalType": "address",
          "name": "newOwner",
          "type": "address"
        }
      ],
      "name": "OwnershipTransferred",
      "type": "event"
    },
    {
      "anonymous": false,
      "inputs": [
        {
          "indexed": true,
          "internalType": "uint256",
          "name": "tokenId",
          "type": "uint256"
        },
        {
          "indexed": true,
          "internalType": "uint256",
          "name": "eventId",
          "type": "uint256"
        },
        {
          "indexed": true,
          "internalType": "uint256",
          "name": "ticketTypeId",
          "type": "uint256"
        },
        {
          "indexed": false,
          "internalType": "address",
          "name": "to",
          "type": "address"
        },
        {
          "indexed": false,
          "internalType": "uint256",
          "name": "purchasePrice",
          "type": "uint256"
        },
        {
          "indexed": false,
          "internalType": "string",
          "name": "purchaseChain",
          "type": "string"
        },
        {
          "indexed": false,
          "internalType": "string",
          "name": "tokenURI",
          "type": "string"
        }
      ],
      "name": "TicketMinted",
      "type": "event"
    },
    {
      "anonymous": false,
      "inputs": [
        {
          "indexed": true,
          "internalType": "uint256",
          "name": "tokenId",
          "type": "uint256"
        },
        {
          "indexed": false,
          "internalType": "uint256",
          "name": "timestamp",
          "type": "uint256"
        }
      ],
      "name": "TicketValidated",
      "type": "event"
    },
    {
      "anonymous": false,
      "inputs": [
        {
          "indexed": true,
          "internalType": "uint256",
          "name": "tokenId",
          "type": "uint256"
        },
        {
          "indexed": false,
          "internalType": "string",
          "name": "tokenURI",
          "type": "string"
        }
      ],
      "name": "TokenURISet",
      "type": "event"
    },
    {
      "anonymous": false,
      "inputs": [
        {
          "indexed": true,
          "internalType": "address",
          "name": "from",
          "type": "address"
        },
        {
          "indexed": true,
          "internalType": "address",
          "name": "to",
          "type": "address"
        },
        {
          "indexed": true,
          "internalType": "uint256",
          "name": "tokenId",
          "type": "uint256"
        }
      ],
      "name": "Transfer",
      "type": "event"
    },
    {
      "inputs": [
        {
          "internalType": "address",
          "name": "to",
          "type": "address"
        },
        {
          "internalType": "uint256",
          "name": "tokenId",
          "type": "uint256"
        }
      ],
      "name": "approve",
      "outputs": [],
      "stateMutability": "nonpayable",
      "type": "function"
    },
    {
      "inputs": [
        {
          "internalType": "address",
          "name": "owner",
          "type": "address"
        }
      ],
      "name": "balanceOf",
      "outputs": [
        {
          "internalType": "uint256",
          "name": "",
          "type": "uint256"
        }
      ],
      "stateMutability": "view",
      "type": "function"
    },
    {
      "inputs": [],
      "name": "factory",
      "outputs": [
        {
          "internalType": "address",
          "name": "",
          "type": "address"
        }
      ],
      "stateMutability": "view",
      "type": "function"
    },
    {
      "inputs": [
        {
          "internalType": "uint256",
          "name": "tokenId",
          "type": "uint256"
        }
      ],
      "name": "getApproved",
      "outputs": [
        {
          "internalType": "address",
          "name": "",
          "type": "address"
        }
      ],
      "stateMutability": "view",
      "type": "function"
    },
    {
      "inputs": [
        {
          "internalType": "address",
          "name": "owner",
          "type": "address"
        }
      ],
      "name": "getUserTickets",
      "outputs": [
        {
          "internalType": "uint256[]",
          "name": "tokenIds",
          "type": "uint256[]"
        }
      ],
      "stateMutability": "view",
      "type": "function"
    },
    {
      "inputs": [
        {
          "internalType": "address",
          "name": "owner",
          "type": "address"
        }
      ],
      "name": "getUserTicketsWithDetails",
      "outputs": [
        {
          "components": [
            {
              "internalType": "uint256",
              "name": "eventId",
              "type": "uint256"
            },
            {
              "internalType": "uint256",
              "name": "ticketTypeId",
              "type": "uint256"
            },
            {
              "internalType": "address",
              "name": "originalOwner",
              "type": "address"
            },
            {
              "internalType": "uint256",
              "name": "purchasePrice",
              "type": "uint256"
            },
            {
              "internalType": "string",
              "name": "purchaseChain",
              "type": "string"
            },
            {
              "internalType": "bool",
              "name": "used",
              "type": "bool"
            },
            {
              "internalType": "string",
              "name": "qrCodeHash",
              "type": "string"
            }
          ],
          "internalType": "struct TicketNFT.TicketMetadata[]",
          "name": "tickets",
          "type": "tuple[]"
        },
        {
          "internalType": "uint256[]",
          "name": "tokenIds",
          "type": "uint256[]"
        }
      ],
      "stateMutability": "view",
      "type": "function"
    },
    {
      "inputs": [
        {
          "internalType": "address",
          "name": "owner",
          "type": "address"
        },
        {
          "internalType": "address",
          "name": "operator",
          "type": "address"
        }
      ],
      "name": "isApprovedForAll",
      "outputs": [
        {
          "internalType": "bool",
          "name": "",
          "type": "bool"
        }
      ],
      "stateMutability": "view",
      "type": "function"
    },
    {
      "inputs": [
        {
          "internalType": "address",
          "name": "to",
          "type": "address"
        },
        {
          "components": [
            {
              "internalType": "uint256",
              "name": "eventId",
              "type": "uint256"
            },
            {
              "internalType": "uint256",
              "name": "ticketTypeId",
              "type": "uint256"
            },
            {
              "internalType": "address",
              "name": "originalOwner",
              "type": "address"
            },
            {
              "internalType": "uint256",
              "name": "purchasePrice",
              "type": "uint256"
            },
            {
              "internalType": "string",
              "name": "purchaseChain",
              "type": "string"
            },
            {
              "internalType": "bool",
              "name": "used",
              "type": "bool"
            },
            {
              "internalType": "string",
              "name": "qrCodeHash",
              "type": "string"
            }
          ],
          "internalType": "struct TicketNFT.TicketMetadata",
          "name": "meta",
          "type": "tuple"
        },
        {
          "internalType": "string",
          "name": "tokenURI_",
          "type": "string"
        },
        {
          "internalType": "address",
          "name": "royaltyReceiver",
          "type": "address"
        },
        {
          "internalType": "uint96",
          "name": "royaltyBps",
          "type": "uint96"
        }
      ],
      "name": "mint",
      "outputs": [
        {
          "internalType": "uint256",
          "name": "tokenId",
          "type": "uint256"
        }
      ],
      "stateMutability": "nonpayable",
      "type": "function"
    },
    {
      "inputs": [],
      "name": "name",
      "outputs": [
        {
          "internalType": "string",
          "name": "",
          "type": "string"
        }
      ],
      "stateMutability": "view",
      "type": "function"
    },
    {
      "inputs": [],
      "name": "owner",
      "outputs": [
        {
          "internalType": "address",
          "name": "",
          "type": "address"
        }
      ],
      "stateMutability": "view",
      "type": "function"
    },
    {
      "inputs": [
        {
          "internalType": "uint256",
          "name": "tokenId",
          "type": "uint256"
        }
      ],
      "name": "ownerOf",
      "outputs": [
        {
          "internalType": "address",
          "name": "",
          "type": "address"
        }
      ],
      "stateMutability": "view",
      "type": "function"
    },
    {
      "inputs": [],
      "name": "renounceOwnership",
      "outputs": [],
      "stateMutability": "nonpayable",
      "type": "function"
    },
    {
      "inputs": [
        {
          "internalType": "uint256",
          "name": "tokenId",
          "type": "uint256"
        },
        {
          "internalType": "uint256",
          "name": "salePrice",
          "type": "uint256"
        }
      ],
      "name": "royaltyInfo",
      "outputs": [
        {
          "internalType": "address",
          "name": "receiver",
          "type": "address"
        },
        {
          "internalType": "uint256",
          "name": "amount",
          "type": "uint256"
        }
      ],
      "stateMutability": "view",
      "type": "function"
    },
    {
      "inputs": [
        {
          "internalType": "address",
          "name": "from",
          "type": "address"
        },
        {
          "internalType": "address",
          "name": "to",
          "type": "address"
        },
        {
          "internalType": "uint256",
          "name": "tokenId",
          "type": "uint256"
        }
      ],
      "name": "safeTransferFrom",
      "outputs": [],
      "stateMutability": "nonpayable",
      "type": "function"
    },
    {
      "inputs": [
        {
          "internalType": "address",
          "name": "from",
          "type": "address"
        },
        {
          "internalType": "address",
          "name": "to",
          "type": "address"
        },
        {
          "internalType": "uint256",
          "name": "tokenId",
          "type": "uint256"
        },
        {
          "internalType": "bytes",
          "name": "data",
          "type": "bytes"
        }
      ],
      "name": "safeTransferFrom",
      "outputs": [],
      "stateMutability": "nonpayable",
      "type": "function"
    },
    {
      "inputs": [
        {
          "internalType": "address",
          "name": "operator",
          "type": "address"
        },
        {
          "internalType": "bool",
          "name": "approved",
          "type": "bool"
        }
      ],
      "name": "setApprovalForAll",
      "outputs": [],
      "stateMutability": "nonpayable",
      "type": "function"
    },
    {
      "inputs": [
        {
          "internalType": "address",
          "name": "newFactory",
          "type": "address"
        }
      ],
      "name": "setFactory",
      "outputs": [],
      "stateMutability": "nonpayable",
      "type": "function"
    },
    {
      "inputs": [
        {
          "internalType": "uint256",
          "name": "tokenId",
          "type": "uint256"
        },
        {
          "internalType": "string",
          "name": "newURI",
          "type": "string"
        }
      ],
      "name": "setTokenURI",
      "outputs": [],
      "stateMutability": "nonpayable",
      "type": "function"
    },
    {
      "inputs": [
        {
          "internalType": "bytes4",
          "name": "interfaceId",
          "type": "bytes4"
        }
      ],
      "name": "supportsInterface",
      "outputs": [
        {
          "internalType": "bool",
          "name": "",
          "type": "bool"
        }
      ],
      "stateMutability": "view",
      "type": "function"
    },
    {
      "inputs": [],
      "name": "symbol",
      "outputs": [
        {
          "internalType": "string",
          "name": "",
          "type": "string"
        }
      ],
      "stateMutability": "view",
      "type": "function"
    },
    {
      "inputs": [
        {
          "internalType": "uint256",
          "name": "",
          "type": "uint256"
        }
      ],
      "name": "ticketDetails",
      "outputs": [
        {
          "internalType": "uint256",
          "name": "eventId",
          "type": "uint256"
        },
        {
          "internalType": "uint256",
          "name": "ticketTypeId",
          "type": "uint256"
        },
        {
          "internalType": "address",
          "name": "originalOwner",
          "type": "address"
        },
        {
          "internalType": "uint256",
          "name": "purchasePrice",
          "type": "uint256"
        },
        {
          "internalType": "string",
          "name": "purchaseChain",
          "type": "string"
        },
        {
          "internalType": "bool",
          "name": "used",
          "type": "bool"
        },
        {
          "internalType": "string",
          "name": "qrCodeHash",
          "type": "string"
        }
      ],
      "stateMutability": "view",
      "type": "function"
    },
    {
      "inputs": [],
      "name": "tokenCounter",
      "outputs": [
        {
          "internalType": "uint256",
          "name": "",
          "type": "uint256"
        }
      ],
      "stateMutability": "view",
      "type": "function"
    },
    {
      "inputs": [
        {
          "internalType": "uint256",
          "name": "tokenId",
          "type": "uint256"
        }
      ],
      "name": "tokenURI",
      "outputs": [
        {
          "internalType": "string",
          "name": "",
          "type": "string"
        }
      ],
      "stateMutability": "view",
      "type": "function"
    },
    {
      "inputs": [
        {
          "internalType": "address",
          "name": "from",
          "type": "address"
        },
        {
          "internalType": "address",
          "name": "to",
          "type": "address"
        },
        {
          "internalType": "uint256",
          "name": "tokenId",
          "type": "uint256"
        }
      ],
      "name": "transferFrom",
      "outputs": [],
      "stateMutability": "nonpayable",
      "type": "function"
    },
    {
      "inputs": [
        {
          "internalType": "address",
          "name": "newOwner",
          "type": "address"
        }
      ],
      "name": "transferOwnership",
      "outputs": [],
      "stateMutability": "nonpayable",
      "type": "function"
    },
    {
      "inputs": [
        {
          "internalType": "uint256",
          "name": "tokenId",
          "type": "uint256"
        }
      ],
      "name": "validateTicket",
      "outputs": [],
      "stateMutability": "nonpayable",
      "type": "function"
    }
  ],
  "bytecode": "0x60806040523480156200001157600080fd5b50604051620026dd380380620026dd833981016040819052620000349162000324565b338585600062000045838262000467565b50600162000054828262000467565b5050506001600160a01b0381166200008757604051631e4fbdf760e01b8152600060048201526024015b60405180910390fd5b620000928162000146565b506001600160a01b038316620000bb5760405163e6c4247b60e01b815260040160405180910390fd5b600c80546001600160a01b0319166001600160a01b0385811691909117909155821615801590620000f557506000816001600160601b0316115b15620001075762000107828262000198565b6040516001600160a01b038416907f24cd1310c8883cbeaf5b805ab13586ce018b79c022827158ff3e8df14d34493690600090a2505050505062000533565b600680546001600160a01b038381166001600160a01b0319831681179093556040519116919082907f8be0079c531659141344cd1fd0a4f28419497f9722a3daafe3b4186f6b6457e090600090a35050565b6127106001600160601b038216811015620001d957604051636f483d0960e01b81526001600160601b0383166004820152602481018290526044016200007e565b6001600160a01b0383166200020557604051635b6cc80560e11b8152600060048201526024016200007e565b50604080518082019091526001600160a01b039092168083526001600160601b039091166020909201829052600160a01b90910217600755565b634e487b7160e01b600052604160045260246000fd5b600082601f8301126200026757600080fd5b81516001600160401b03808211156200028457620002846200023f565b604051601f8301601f19908116603f01168101908282118183101715620002af57620002af6200023f565b8160405283815260209250866020858801011115620002cd57600080fd5b600091505b83821015620002f15785820183015181830184015290820190620002d2565b6000602085830101528094505050505092915050565b80516001600160a01b03811681146200031f57600080fd5b919050565b600080600080600060a086880312156200033d57600080fd5b85516001600160401b03808211156200035557600080fd5b6200036389838a0162000255565b965060208801519150808211156200037a57600080fd5b50620003898882890162000255565b9450506200039a6040870162000307565b9250620003aa6060870162000307565b60808701519092506001600160601b0381168114620003c857600080fd5b809150509295509295909350565b600181811c90821680620003eb57607f821691505b6020821081036200040c57634e487b7160e01b600052602260045260246000fd5b50919050565b601f82111562000462576000816000526020600020601f850160051c810160208610156200043d5750805b601f850160051c820191505b818110156200045e5782815560010162000449565b5050505b505050565b81516001600160401b038111156200048357620004836200023f565b6200049b81620004948454620003d6565b8462000412565b602080601f831160018114620004d35760008415620004ba5750858301515b600019600386901b1c1916600185901b1785556200045e565b600085815260208120601f198616915b828110156200050457888601518255948401946001909101908401620004e3565b5085821015620005235787850151600019600388901b60f8161c191681555b5050505050600190811b01905550565b61219a80620005436000396000f3fe608060405234801561001057600080fd5b506004361061018e5760003560e01c80636352211e116100de578063ae75260011610097578063c87b56dd11610071578063c87b56dd146103a9578063d082e381146103bc578063e985e9c5146103c5578063f2fde38b146103d857600080fd5b8063ae75260014610362578063b88d4fde14610383578063c45a01551461039657600080fd5b80636352211e1461030857806370a082311461031b578063715018a61461032e5780638da5cb5b1461033657806395d89b4114610347578063a22cb4651461034f57600080fd5b8063081812fc1161014b57806323b872dd1161012557806323b872dd1461029d5780632a55205a146102b057806342842e0e146102e25780635bb47808146102f557600080fd5b8063081812fc1461024c578063095ea7b314610277578063162094c41461028a57600080fd5b80630159437a1461019357806301ffc9a7146101b9578063033fab35146101dc5780630484a22f14610202578063054ae7df1461022257806306fdde0314610237575b600080fd5b6101a66101a13660046119ed565b6103eb565b6040519081526020015b60405180910390f35b6101cc6101c7366004611b2b565b6105b6565b60405190151581526020016101b0565b6101ef6101ea366004611b48565b6105c7565b6040516101b09796959493929190611ba7565b610215610210366004611c02565b610727565b6040516101b09190611c59565b610235610230366004611b48565b610826565b005b61023f610905565b6040516101b09190611c6c565b61025f61025a366004611b48565b610997565b6040516001600160a01b0390911681526020016101b0565b610235610285366004611c7f565b6109c0565b610235610298366004611ca9565b6109cf565b6102356102ab366004611cf0565b610a74565b6102c36102be366004611d2c565b610b04565b604080516001600160a01b0390931683526020830191909152016101b0565b6102356102f0366004611cf0565b610b89565b610235610303366004611c02565b610ba9565b61025f610316366004611b48565b610c22565b6101a6610329366004611c02565b610c2d565b610235610c75565b6006546001600160a01b031661025f565b61023f610c89565b61023561035d366004611d4e565b610c98565b610375610370366004611c02565b610ca3565b6040516101b0929190611d81565b610235610391366004611e60565b610fdd565b600c5461025f906001600160a01b031681565b61023f6103b7366004611b48565b610ff5565b6101a6600b5481565b6101cc6103d3366004611edc565b6110c7565b6102356103e6366004611c02565b6110f5565b600c546000906001600160a01b03163314610418576040516282b42960e81b815260040160405180910390fd5b6001600160a01b03861661043f5760405163e6c4247b60e01b815260040160405180910390fd5b600b6000815461044e90611f1c565b918290555090506001600160a01b0386163b156104745761046f8682611133565b61047e565b61047e8682611198565b60008181526009602090815260409182902087518155908701516001820155908601516002820180546001600160a01b0319166001600160a01b0390921691909117905560608601516003820155608086015186919060048201906104e39082611fb7565b5060a082015160058201805460ff191691151591909117905560c082015160068201906105109082611fb7565b5050506000818152600a6020526040902061052b8582611fb7565b506001600160a01b0383161580159061054d57506000826001600160601b0316115b1561055d5761055d8184846111b2565b84602001518560000151827fd3f8dd3126bd89cd05decbf86c2af62f7138e2b5734c4702cada5f3474351cf88989606001518a608001518a6040516105a59493929190612077565b60405180910390a495945050505050565b60006105c182611274565b92915050565b60096020526000908152604090208054600182015460028301546003840154600485018054949593946001600160a01b0390931693919261060790611f35565b80601f016020809104026020016040519081016040528092919081815260200182805461063390611f35565b80156106805780601f1061065557610100808354040283529160200191610680565b820191906000526020600020905b81548152906001019060200180831161066357829003601f168201915b5050506005840154600685018054949560ff9092169491935091506106a490611f35565b80601f01602080910402602001604051908101604052809291908181526020018280546106d090611f35565b801561071d5780601f106106f25761010080835404028352916020019161071d565b820191906000526020600020905b81548152906001019060200180831161070057829003601f168201915b5050505050905087565b6060600060015b600b54811161077157836001600160a01b031661074a82611299565b6001600160a01b03160361075f578160010191505b8061076981611f1c565b91505061072e565b508067ffffffffffffffff81111561078b5761078b6118ea565b6040519080825280602002602001820160405280156107b4578160200160208202803683370190505b509150600060015b600b54811161081e57846001600160a01b03166107d882611299565b6001600160a01b03160361080c57808483815181106107f9576107f96120bb565b6020026020010181815250508160010191505b8061081681611f1c565b9150506107bc565b505050919050565b600c546001600160a01b03163314610850576040516282b42960e81b815260040160405180910390fd5b600061085b82611299565b6001600160a01b0316036108825760405163072ec25360e41b815260040160405180910390fd5b6000818152600960205260409020600581015460ff16156108b65760405163f37f8bbd60e01b815260040160405180910390fd5b60058101805460ff1916600117905560405182907f13f7f5b33d9ea208efe060c1475c68713849be1723bc235841d6d2af20eb20c4906108f99042815260200190565b60405180910390a25050565b60606000805461091490611f35565b80601f016020809104026020016040519081016040528092919081815260200182805461094090611f35565b801561098d5780601f106109625761010080835404028352916020019161098d565b820191906000526020600020905b81548152906001019060200180831161097057829003601f168201915b5050505050905090565b60006109a2826112b4565b506000828152600460205260409020546001600160a01b03166105c1565b6109cb8282336112ec565b5050565b600c546001600160a01b031633146109f9576040516282b42960e81b815260040160405180910390fd5b6000610a0483611299565b6001600160a01b031603610a2b5760405163072ec25360e41b815260040160405180910390fd5b6000828152600a60205260409020610a438282611fb7565b50817fda84ca2183491f179a603e877b2cb058e42195041c2b9c53d746427e519a34df826040516108f99190611c6c565b6001600160a01b038216610aa357604051633250574960e11b8152600060048201526024015b60405180910390fd5b6000610ab08383336112f9565b9050836001600160a01b0316816001600160a01b031614610afe576040516364283d7b60e01b81526001600160a01b0380861660048301526024820184905282166044820152606401610a9a565b50505050565b600082815260086020526040812080548291906001600160a01b03811690600160a01b90046001600160601b031681610b585750506007546001600160a01b03811690600160a01b90046001600160601b03165b6000612710610b706001600160601b038416896120d1565b610b7a91906120e8565b92989297509195505050505050565b610ba483838360405180602001604052806000815250610fdd565b505050565b610bb161135c565b6001600160a01b038116610bd85760405163e6c4247b60e01b815260040160405180910390fd5b600c80546001600160a01b0319166001600160a01b0383169081179091556040517f24cd1310c8883cbeaf5b805ab13586ce018b79c022827158ff3e8df14d34493690600090a250565b60006105c1826112b4565b60006001600160a01b038216610c59576040516322718ad960e21b815260006004820152602401610a9a565b506001600160a01b031660009081526003602052604090205490565b610c7d61135c565b610c876000611389565b565b60606001805461091490611f35565b6109cb3383836113db565b606080600060015b600b548111610cee57846001600160a01b0316610cc782611299565b6001600160a01b031603610cdc578160010191505b80610ce681611f1c565b915050610cab565b508067ffffffffffffffff811115610d0857610d086118ea565b604051908082528060200260200182016040528015610d8457816020015b610d716040518060e00160405280600081526020016000815260200160006001600160a01b031681526020016000815260200160608152602001600015158152602001606081525090565b815260200190600190039081610d265790505b5092508067ffffffffffffffff811115610da057610da06118ea565b604051908082528060200260200182016040528015610dc9578160200160208202803683370190505b509150600060015b600b548111610fd557856001600160a01b0316610ded82611299565b6001600160a01b031603610fc35780848381518110610e0e57610e0e6120bb565b602090810291909101810191909152600082815260098252604090819020815160e0810183528154815260018201549381019390935260028101546001600160a01b03169183019190915260038101546060830152600481018054608084019190610e7890611f35565b80601f0160208091040260200160405190810160405280929190818152602001828054610ea490611f35565b8015610ef15780601f10610ec657610100808354040283529160200191610ef1565b820191906000526020600020905b815481529060010190602001808311610ed457829003601f168201915b5050509183525050600582015460ff1615156020820152600682018054604090920191610f1d90611f35565b80601f0160208091040260200160405190810160405280929190818152602001828054610f4990611f35565b8015610f965780601f10610f6b57610100808354040283529160200191610f96565b820191906000526020600020905b815481529060010190602001808311610f7957829003601f168201915b505050505081525050858381518110610fb157610fb16120bb565b60200260200101819052508160010191505b80610fcd81611f1c565b915050610dd1565b505050915091565b610fe8848484610a74565b610afe338585858561147a565b6060600061100283611299565b6001600160a01b0316036110295760405163072ec25360e41b815260040160405180910390fd5b6000828152600a60205260409020805461104290611f35565b80601f016020809104026020016040519081016040528092919081815260200182805461106e90611f35565b80156110bb5780601f10611090576101008083540402835291602001916110bb565b820191906000526020600020905b81548152906001019060200180831161109e57829003601f168201915b50505050509050919050565b6001600160a01b03918216600090815260056020908152604080832093909416825291909152205460ff1690565b6110fd61135c565b6001600160a01b03811661112757604051631e4fbdf760e01b815260006004820152602401610a9a565b61113081611389565b50565b6001600160a01b03821661115d57604051633250574960e11b815260006004820152602401610a9a565b600061116b838360006112f9565b90506001600160a01b03811615610ba4576040516339e3563760e11b815260006004820152602401610a9a565b6109cb8282604051806020016040528060008152506115a5565b6127106001600160601b0382168110156111f85760405163dfd1fc1b60e01b8152600481018590526001600160601b038316602482015260448101829052606401610a9a565b6001600160a01b03831661122957604051634b4f842960e11b81526004810185905260006024820152604401610a9a565b506040805180820182526001600160a01b0393841681526001600160601b0392831660208083019182526000968752600890529190942093519051909116600160a01b029116179055565b60006001600160e01b0319821663152a902d60e11b14806105c157506105c1826115bd565b6000908152600260205260409020546001600160a01b031690565b6000806112c083611299565b90506001600160a01b0381166105c157604051637e27328960e01b815260048101849052602401610a9a565b610ba4838383600161160d565b60008061130584611299565b6001600160a01b031614611349576000838152600960205260409020600581015460ff16156113475760405163f37f8bbd60e01b815260040160405180910390fd5b505b611354848484611713565b949350505050565b6006546001600160a01b03163314610c875760405163118cdaa760e01b8152336004820152602401610a9a565b600680546001600160a01b038381166001600160a01b0319831681179093556040519116919082907f8be0079c531659141344cd1fd0a4f28419497f9722a3daafe3b4186f6b6457e090600090a35050565b6001600160a01b03821661140d57604051630b61174360e31b81526001600160a01b0383166004820152602401610a9a565b6001600160a01b03838116600081815260056020908152604080832094871680845294825291829020805460ff191686151590811790915591519182527f17307eab39ab6107e8899845ad3d59bd9653f200f220920489ca2b5937696c31910160405180910390a3505050565b6001600160a01b0383163b1561159e57604051630a85bd0160e11b81526001600160a01b0384169063150b7a02906114bc90889088908790879060040161210a565b6020604051808303816000875af19250505080156114f7575060408051601f3d908101601f191682019092526114f491810190612147565b60015b611560573d808015611525576040519150601f19603f3d011682016040523d82523d6000602084013e61152a565b606091505b50805160000361155857604051633250574960e11b81526001600160a01b0385166004820152602401610a9a565b805160208201fd5b6001600160e01b03198116630a85bd0160e11b1461159c57604051633250574960e11b81526001600160a01b0385166004820152602401610a9a565b505b5050505050565b6115af8383611133565b610ba433600085858561147a565b60006001600160e01b031982166380ac58cd60e01b14806115ee57506001600160e01b03198216635b5e139f60e01b145b806105c157506301ffc9a760e01b6001600160e01b03198316146105c1565b808061162157506001600160a01b03821615155b156116e3576000611631846112b4565b90506001600160a01b0383161580159061165d5750826001600160a01b0316816001600160a01b031614155b8015611670575061166e81846110c7565b155b156116995760405163a9fbf51f60e01b81526001600160a01b0384166004820152602401610a9a565b81156116e15783856001600160a01b0316826001600160a01b03167f8c5be1e5ebec7d5bd14f71427d1e84f3dd0314c0f7b2291e5b200ac8c7c3b92560405160405180910390a45b505b5050600090815260046020526040902080546001600160a01b0319166001600160a01b0392909216919091179055565b60008061171f84611299565b90506001600160a01b0383161561173b5761173b818486611807565b6001600160a01b038116156117795761175860008560008061160d565b6001600160a01b038116600090815260036020526040902080546000190190555b6001600160a01b038516156117a8576001600160a01b0385166000908152600360205260409020805460010190555b60008481526002602052604080822080546001600160a01b0319166001600160a01b0389811691821790925591518793918516917fddf252ad1be2c89b69c2b068fc378daa952ba7f163c4a11628f55a4df523b3ef91a4949350505050565b61181283838361186b565b610ba4576001600160a01b03831661184057604051637e27328960e01b815260048101829052602401610a9a565b60405163177e802f60e01b81526001600160a01b038316600482015260248101829052604401610a9a565b60006001600160a01b038316158015906113545750826001600160a01b0316846001600160a01b031614806118a557506118a584846110c7565b806113545750506000908152600460205260409020546001600160a01b03908116911614919050565b80356001600160a01b03811681146118e557600080fd5b919050565b634e487b7160e01b600052604160045260246000fd5b60405160e0810167ffffffffffffffff81118282101715611923576119236118ea565b60405290565b600067ffffffffffffffff80841115611944576119446118ea565b604051601f8501601f19908116603f0116810190828211818310171561196c5761196c6118ea565b8160405280935085815286868601111561198557600080fd5b858560208301376000602087830101525050509392505050565b600082601f8301126119b057600080fd5b6119bf83833560208501611929565b9392505050565b803580151581146118e557600080fd5b80356001600160601b03811681146118e557600080fd5b600080600080600060a08688031215611a0557600080fd5b611a0e866118ce565b9450602086013567ffffffffffffffff80821115611a2b57600080fd5b9087019060e0828a031215611a3f57600080fd5b611a47611900565b8235815260208301356020820152611a61604084016118ce565b604082015260608301356060820152608083013582811115611a8257600080fd5b611a8e8b82860161199f565b608083015250611aa060a084016119c6565b60a082015260c083013582811115611ab757600080fd5b611ac38b82860161199f565b60c08301525095506040880135915080821115611adf57600080fd5b50611aec8882890161199f565b935050611afb606087016118ce565b9150611b09608087016119d6565b90509295509295909350565b6001600160e01b03198116811461113057600080fd5b600060208284031215611b3d57600080fd5b81356119bf81611b15565b600060208284031215611b5a57600080fd5b5035919050565b6000815180845260005b81811015611b8757602081850181015186830182015201611b6b565b506000602082860101526020601f19601f83011685010191505092915050565b87815286602082015260018060a01b038616604082015284606082015260e060808201526000611bda60e0830186611b61565b84151560a084015282810360c0840152611bf48185611b61565b9a9950505050505050505050565b600060208284031215611c1457600080fd5b6119bf826118ce565b60008151808452602080850194506020840160005b83811015611c4e57815187529582019590820190600101611c32565b509495945050505050565b6020815260006119bf6020830184611c1d565b6020815260006119bf6020830184611b61565b60008060408385031215611c9257600080fd5b611c9b836118ce565b946020939093013593505050565b60008060408385031215611cbc57600080fd5b82359150602083013567ffffffffffffffff811115611cda57600080fd5b611ce68582860161199f565b9150509250929050565b600080600060608486031215611d0557600080fd5b611d0e846118ce565b9250611d1c602085016118ce565b9150604084013590509250925092565b60008060408385031215611d3f57600080fd5b50508035926020909101359150565b60008060408385031215611d6157600080fd5b611d6a836118ce565b9150611d78602084016119c6565b90509250929050565b60006040808301604084528086518083526060925060608601915060608160051b8701016020808a0160005b84811015611e4057898403605f190186528151805185528381015184860152888101516001600160a01b031689860152878101518886015260808082015160e08288018190529190611e0183890182611b61565b9250505060a0808301511515818801525060c08083015192508682038188015250611e2c8183611b61565b978501979550505090820190600101611dad565b505087820390880152611e538189611c1d565b9998505050505050505050565b60008060008060808587031215611e7657600080fd5b611e7f856118ce565b9350611e8d602086016118ce565b925060408501359150606085013567ffffffffffffffff811115611eb057600080fd5b8501601f81018713611ec157600080fd5b611ed087823560208401611929565b91505092959194509250565b60008060408385031215611eef57600080fd5b611ef8836118ce565b9150611d78602084016118ce565b634e487b7160e01b600052601160045260246000fd5b600060018201611f2e57611f2e611f06565b5060010190565b600181811c90821680611f4957607f821691505b602082108103611f6957634e487b7160e01b600052602260045260246000fd5b50919050565b601f821115610ba4576000816000526020600020601f850160051c81016020861015611f985750805b601f850160051c820191505b8181101561159c57828155600101611fa4565b815167ffffffffffffffff811115611fd157611fd16118ea565b611fe581611fdf8454611f35565b84611f6f565b602080601f83116001811461201a57600084156120025750858301515b600019600386901b1c1916600185901b17855561159c565b600085815260208120601f198616915b828110156120495788860151825594840194600190910190840161202a565b50858210156120675787850151600019600388901b60f8161c191681555b5050505050600190811b01905550565b60018060a01b038516815283602082015260806040820152600061209e6080830185611b61565b82810360608401526120b08185611b61565b979650505050505050565b634e487b7160e01b600052603260045260246000fd5b80820281158282048414176105c1576105c1611f06565b60008261210557634e487b7160e01b600052601260045260246000fd5b500490565b6001600160a01b038581168252841660208201526040810183905260806060820181905260009061213d90830184611b61565b9695505050505050565b60006020828403121561215957600080fd5b81516119bf81611b1556fea26469706673582212204b5c5c9d30d41e01f090e377bd2efb04ed9e668c1575a20093cddfccf4da7cbf64736f6c63430008160033",
  "linkReferences": {},
  "deployedLinkReferences": {}
}