{
  "_format": "hh-sol-artifact-1",
  "contractName": "TicketMarketplace",
  "sourceName": "contracts/TicketMarketplace.sol",
  "abi": [
    {
      "inputs": [
        {
          "internalType": "address",
          "name": "nft",
          "type": "address"
        }
      ],
      "stateMutability": "nonpayable",
      "type": "constructor"
    },
    {
      "inputs": [],
      "name": "AlreadyListed",
      "type": "error"
    },
    {
      "inputs": [],
      "name": "ArrayLengthMismatch",
      "type": "error"
    },
    {
      "inputs": [],
      "name": "InsufficientOfferAmount",
      "type": "error"
    },
    {
      "inputs": [],
      "name": "InvalidInput",
      "type": "error"
    },
    {
      "inputs": [],
      "name": "NotActive",
      "type": "error"
    },
    {
      "inputs": [],
      "name": "NotListed",
      "type": "error"
    },
    {
      "inputs": [],
      "name": "NotOfferer",
      "type": "error"
    },
    {
      "inputs": [],
      "name": "NotSeller",
      "type": "error"
    },
    {
      "inputs": [],
      "name": "OfferExpired",
      "type": "error"
    },
    {
      "inputs": [
        {
          "internalType": "address",
          "name": "owner",
          "type": "address"
        }
      ],
      "name": "OwnableInvalidOwner",
      "type": "error"
    },
    {
      "inputs": [
        {
          "internalType": "address",
          "name": "account",
          "type": "address"
        }
      ],
      "name": "OwnableUnauthorizedAccount",
      "type": "error"
    },
    {
      "inputs": [],
      "name": "ReentrancyGuardReentrantCall",
      "type": "error"
    },
    {
      "inputs": [],
      "name": "TransferFailed",
      "type": "error"
    },
    {
      "inputs": [],
      "name": "UsedTicket",
      "type": "error"
    },
    {
      "anonymous": false,
      "inputs": [
        {
          "indexed": false,
          "internalType": "uint256[]",
          "name": "listingIds",
          "type": "uint256[]"
        }
      ],
      "name": "BatchDelistingCompleted",
      "type": "event"
    },
    {
      "anonymous": false,
      "inputs": [
        {
          "indexed": false,
          "internalType": "uint256[]",
          "name": "listingIds",
          "type": "uint256[]"
        },
        {
          "indexed": false,
          "internalType": "uint256[]",
          "name": "tokenIds",
          "type": "uint256[]"
        }
      ],
      "name": "BatchListingCompleted",
      "type": "event"
    },
    {
      "anonymous": false,
      "inputs": [
        {
          "indexed": true,
          "internalType": "uint256",
          "name": "listingId",
          "type": "uint256"
        },
        {
          "indexed": true,
          "internalType": "uint256",
          "name": "tokenId",
          "type": "uint256"
        }
      ],
      "name": "ListingCanceled",
      "type": "event"
    },
    {
      "anonymous": false,
      "inputs": [
        {
          "indexed": true,
          "internalType": "uint256",
          "name": "offerId",
          "type": "uint256"
        },
        {
          "indexed": true,
          "internalType": "uint256",
          "name": "tokenId",
          "type": "uint256"
        },
        {
          "indexed": false,
          "internalType": "address",
          "name": "seller",
          "type": "address"
        },
        {
          "indexed": false,
          "internalType": "address",
          "name": "offerer",
          "type": "address"
        },
        {
          "indexed": false,
          "internalType": "uint256",
          "name": "amount",
          "type": "uint256"
        }
      ],
      "name": "OfferAccepted",
      "type": "event"
    },
    {
      "anonymous": false,
      "inputs": [
        {
          "indexed": true,
          "internalType": "uint256",
          "name": "offerId",
          "type": "uint256"
        },
        {
          "indexed": true,
          "internalType": "uint256",
          "name": "tokenId",
          "type": "uint256"
        }
      ],
      "name": "OfferCanceled",
      "type": "event"
    },
    {
      "anonymous": false,
      "inputs": [
        {
          "indexed": true,
          "internalType": "uint256",
          "name": "offerId",
          "type": "uint256"
        },
        {
          "indexed": true,
          "internalType": "uint256",
          "name": "tokenId",
          "type": "uint256"
        },
        {
          "indexed": true,
          "internalType": "address",
          "name": "offerer",
          "type": "address"
        },
        {
          "indexed": false,
          "internalType": "uint256",
          "name": "amount",
          "type": "uint256"
        },
        {
          "indexed": false,
          "internalType": "uint256",
          "name": "expiresAt",
          "type": "uint256"
        }
      ],
      "name": "OfferMade",
      "type": "event"
    },
    {
      "anonymous": false,
      "inputs": [
        {
          "indexed": true,
          "internalType": "address",
          "name": "previousOwner",
          "type": "address"
        },
        {
          "indexed": true,
          "internalType": "address",
          "name": "newOwner",
          "type": "address"
        }
      ],
      "name": "OwnershipTransferred",
      "type": "event"
    },
    {
      "anonymous": false,
      "inputs": [
        {
          "indexed": true,
          "internalType": "uint256",
          "name": "listingId",
          "type": "uint256"
        },
        {
          "indexed": false,
          "internalType": "uint256",
          "name": "oldPrice",
          "type": "uint256"
        },
        {
          "indexed": false,
          "internalType": "uint256",
          "name": "newPrice",
          "type": "uint256"
        }
      ],
      "name": "PriceUpdated",
      "type": "event"
    },
    {
      "anonymous": false,
      "inputs": [
        {
          "indexed": true,
          "internalType": "uint256",
          "name": "listingId",
          "type": "uint256"
        },
        {
          "indexed": true,
          "internalType": "uint256",
          "name": "tokenId",
          "type": "uint256"
        },
        {
          "indexed": true,
          "internalType": "address",
          "name": "seller",
          "type": "address"
        },
        {
          "indexed": false,
          "internalType": "uint256",
          "name": "price",
          "type": "uint256"
        }
      ],
      "name": "TicketListed",
      "type": "event"
    },
    {
      "anonymous": false,
      "inputs": [
        {
          "indexed": true,
          "internalType": "uint256",
          "name": "listingId",
          "type": "uint256"
        },
        {
          "indexed": true,
          "internalType": "uint256",
          "name": "tokenId",
          "type": "uint256"
        },
        {
          "indexed": true,
          "internalType": "address",
          "name": "seller",
          "type": "address"
        },
        {
          "indexed": false,
          "internalType": "address",
          "name": "buyer",
          "type": "address"
        },
        {
          "indexed": false,
          "internalType": "uint256",
          "name": "price",
          "type": "uint256"
        },
        {
          "indexed": false,
          "internalType": "address",
          "name": "royaltyReceiver",
          "type": "address"
        },
        {
          "indexed": false,
          "internalType": "uint256",
          "name": "royaltyAmount",
          "type": "uint256"
        }
      ],
      "name": "TicketPurchased",
      "type": "event"
    },
    {
      "stateMutability": "payable",
      "type": "fallback"
    },
    {
      "inputs": [
        {
          "internalType": "uint256",
          "name": "offerId",
          "type": "uint256"
        }
      ],
      "name": "acceptOffer",
      "outputs": [],
      "stateMutability": "nonpayable",
      "type": "function"
    },
    {
      "inputs": [
        {
          "internalType": "uint256[]",
          "name": "listingIds",
          "type": "uint256[]"
        }
      ],
      "name": "batchCancelListings",
      "outputs": [],
      "stateMutability": "nonpayable",
      "type": "function"
    },
    {
      "inputs": [
        {
          "internalType": "uint256[]",
          "name": "tokenIds",
          "type": "uint256[]"
        },
        {
          "internalType": "uint256[]",
          "name": "prices",
          "type": "uint256[]"
        }
      ],
      "name": "batchListTickets",
      "outputs": [
        {
          "internalType": "uint256[]",
          "name": "listingIds",
          "type": "uint256[]"
        }
      ],
      "stateMutability": "nonpayable",
      "type": "function"
    },
    {
      "inputs": [
        {
          "internalType": "uint256",
          "name": "listingId",
          "type": "uint256"
        }
      ],
      "name": "buyTicket",
      "outputs": [],
      "stateMutability": "payable",
      "type": "function"
    },
    {
      "inputs": [
        {
          "internalType": "uint256",
          "name": "listingId",
          "type": "uint256"
        }
      ],
      "name": "cancelListing",
      "outputs": [],
      "stateMutability": "nonpayable",
      "type": "function"
    },
    {
      "inputs": [
        {
          "internalType": "uint256",
          "name": "offerId",
          "type": "uint256"
        }
      ],
      "name": "cancelOffer",
      "outputs": [],
      "stateMutability": "nonpayable",
      "type": "function"
    },
    {
      "inputs": [
        {
          "internalType": "uint256",
          "name": "",
          "type": "uint256"
        }
      ],
      "name": "eventRoyaltiesCollected",
      "outputs": [
        {
          "internalType": "uint256",
          "name": "",
          "type": "uint256"
        }
      ],
      "stateMutability": "view",
      "type": "function"
    },
    {
      "inputs": [
        {
          "internalType": "uint256",
          "name": "",
          "type": "uint256"
        }
      ],
      "name": "eventSecondarySales",
      "outputs": [
        {
          "internalType": "uint256",
          "name": "",
          "type": "uint256"
        }
      ],
      "stateMutability": "view",
      "type": "function"
    },
    {
      "inputs": [],
      "name": "getActiveListings",
      "outputs": [
        {
          "components": [
            {
              "internalType": "uint256",
              "name": "listingId",
              "type": "uint256"
            },
            {
              "internalType": "uint256",
              "name": "tokenId",
              "type": "uint256"
            },
            {
              "internalType": "address",
              "name": "seller",
              "type": "address"
            },
            {
              "internalType": "uint256",
              "name": "price",
              "type": "uint256"
            },
            {
              "internalType": "bool",
              "name": "active",
              "type": "bool"
            },
            {
              "internalType": "uint256",
              "name": "createdAt",
              "type": "uint256"
            }
          ],
          "internalType": "struct TicketMarketplace.Listing[]",
          "name": "results",
          "type": "tuple[]"
        }
      ],
      "stateMutability": "view",
      "type": "function"
    },
    {
      "inputs": [
        {
          "internalType": "uint256",
          "name": "tokenId",
          "type": "uint256"
        }
      ],
      "name": "getActiveOffers",
      "outputs": [
        {
          "components": [
            {
              "internalType": "uint256",
              "name": "offerId",
              "type": "uint256"
            },
            {
              "internalType": "uint256",
              "name": "tokenId",
              "type": "uint256"
            },
            {
              "internalType": "address",
              "name": "offerer",
              "type": "address"
            },
            {
              "internalType": "uint256",
              "name": "offerAmount",
              "type": "uint256"
            },
            {
              "internalType": "uint256",
              "name": "expiresAt",
              "type": "uint256"
            },
            {
              "internalType": "bool",
              "name": "active",
              "type": "bool"
            },
            {
              "internalType": "uint256",
              "name": "createdAt",
              "type": "uint256"
            }
          ],
          "internalType": "struct TicketMarketplace.Offer[]",
          "name": "activeOffers",
          "type": "tuple[]"
        }
      ],
      "stateMutability": "view",
      "type": "function"
    },
    {
      "inputs": [
        {
          "internalType": "uint256",
          "name": "eventId",
          "type": "uint256"
        }
      ],
      "name": "getEventSecondaryMarketStats",
      "outputs": [
        {
          "internalType": "uint256",
          "name": "salesCount",
          "type": "uint256"
        },
        {
          "internalType": "uint256",
          "name": "royaltiesCollected",
          "type": "uint256"
        }
      ],
      "stateMutability": "view",
      "type": "function"
    },
    {
      "inputs": [
        {
          "internalType": "uint256",
          "name": "eventId",
          "type": "uint256"
        }
      ],
      "name": "getListingsByEvent",
      "outputs": [
        {
          "components": [
            {
              "internalType": "uint256",
              "name": "listingId",
              "type": "uint256"
            },
            {
              "internalType": "uint256",
              "name": "tokenId",
              "type": "uint256"
            },
            {
              "internalType": "address",
              "name": "seller",
              "type": "address"
            },
            {
              "internalType": "uint256",
              "name": "price",
              "type": "uint256"
            },
            {
              "internalType": "bool",
              "name": "active",
              "type": "bool"
            },
            {
              "internalType": "uint256",
              "name": "createdAt",
              "type": "uint256"
            }
          ],
          "internalType": "struct TicketMarketplace.Listing[]",
          "name": "results",
          "type": "tuple[]"
        }
      ],
      "stateMutability": "view",
      "type": "function"
    },
    {
      "inputs": [
        {
          "internalType": "uint256",
          "name": "offerId",
          "type": "uint256"
        }
      ],
      "name": "getOffer",
      "outputs": [
        {
          "components": [
            {
              "internalType": "uint256",
              "name": "offerId",
              "type": "uint256"
            },
            {
              "internalType": "uint256",
              "name": "tokenId",
              "type": "uint256"
            },
            {
              "internalType": "address",
              "name": "offerer",
              "type": "address"
            },
            {
              "internalType": "uint256",
              "name": "offerAmount",
              "type": "uint256"
            },
            {
              "internalType": "uint256",
              "name": "expiresAt",
              "type": "uint256"
            },
            {
              "internalType": "bool",
              "name": "active",
              "type": "bool"
            },
            {
              "internalType": "uint256",
              "name": "createdAt",
              "type": "uint256"
            }
          ],
          "internalType": "struct TicketMarketplace.Offer",
          "name": "offer",
          "type": "tuple"
        }
      ],
      "stateMutability": "view",
      "type": "function"
    },
    {
      "inputs": [
        {
          "internalType": "address",
          "name": "offerer",
          "type": "address"
        }
      ],
      "name": "getUserOffers",
      "outputs": [
        {
          "components": [
            {
              "internalType": "uint256",
              "name": "offerId",
              "type": "uint256"
            },
            {
              "internalType": "uint256",
              "name": "tokenId",
              "type": "uint256"
            },
            {
              "internalType": "address",
              "name": "offerer",
              "type": "address"
            },
            {
              "internalType": "uint256",
              "name": "offerAmount",
              "type": "uint256"
            },
            {
              "internalType": "uint256",
              "name": "expiresAt",
              "type": "uint256"
            },
            {
              "internalType": "bool",
              "name": "active",
              "type": "bool"
            },
            {
              "internalType": "uint256",
              "name": "createdAt",
              "type": "uint256"
            }
          ],
          "internalType": "struct TicketMarketplace.Offer[]",
          "name": "userOffers",
          "type": "tuple[]"
        }
      ],
      "stateMutability": "view",
      "type": "function"
    },
    {
      "inputs": [
        {
          "internalType": "uint256",
          "name": "tokenId",
          "type": "uint256"
        },
        {
          "internalType": "uint256",
          "name": "price",
          "type": "uint256"
        }
      ],
      "name": "listTicket",
      "outputs": [
        {
          "internalType": "uint256",
          "name": "listingId",
          "type": "uint256"
        }
      ],
      "stateMutability": "nonpayable",
      "type": "function"
    },
    {
      "inputs": [],
      "name": "listingCounter",
      "outputs": [
        {
          "internalType": "uint256",
          "name": "",
          "type": "uint256"
        }
      ],
      "stateMutability": "view",
      "type": "function"
    },
    {
      "inputs": [
        {
          "internalType": "uint256",
          "name": "",
          "type": "uint256"
        }
      ],
      "name": "listings",
      "outputs": [
        {
          "internalType": "uint256",
          "name": "listingId",
          "type": "uint256"
        },
        {
          "internalType": "uint256",
          "name": "tokenId",
          "type": "uint256"
        },
        {
          "internalType": "address",
          "name": "seller",
          "type": "address"
        },
        {
          "internalType": "uint256",
          "name": "price",
          "type": "uint256"
        },
        {
          "internalType": "bool",
          "name": "active",
          "type": "bool"
        },
        {
          "internalType": "uint256",
          "name": "createdAt",
          "type": "uint256"
        }
      ],
      "stateMutability": "view",
      "type": "function"
    },
    {
      "inputs": [
        {
          "internalType": "uint256",
          "name": "tokenId",
          "type": "uint256"
        },
        {
          "internalType": "uint256",
          "name": "expiresAt",
          "type": "uint256"
        }
      ],
      "name": "makeOffer",
      "outputs": [
        {
          "internalType": "uint256",
          "name": "offerId",
          "type": "uint256"
        }
      ],
      "stateMutability": "payable",
      "type": "function"
    },
    {
      "inputs": [],
      "name": "offerCounter",
      "outputs": [
        {
          "internalType": "uint256",
          "name": "",
          "type": "uint256"
        }
      ],
      "stateMutability": "view",
      "type": "function"
    },
    {
      "inputs": [
        {
          "internalType": "uint256",
          "name": "",
          "type": "uint256"
        }
      ],
      "name": "offers",
      "outputs": [
        {
          "internalType": "uint256",
          "name": "offerId",
          "type": "uint256"
        },
        {
          "internalType": "uint256",
          "name": "tokenId",
          "type": "uint256"
        },
        {
          "internalType": "address",
          "name": "offerer",
          "type": "address"
        },
        {
          "internalType": "uint256",
          "name": "offerAmount",
          "type": "uint256"
        },
        {
          "internalType": "uint256",
          "name": "expiresAt",
          "type": "uint256"
        },
        {
          "internalType": "bool",
          "name": "active",
          "type": "bool"
        },
        {
          "internalType": "uint256",
          "name": "createdAt",
          "type": "uint256"
        }
      ],
      "stateMutability": "view",
      "type": "function"
    },
    {
      "inputs": [],
      "name": "owner",
      "outputs": [
        {
          "internalType": "address",
          "name": "",
          "type": "address"
        }
      ],
      "stateMutability": "view",
      "type": "function"
    },
    {
      "inputs": [],
      "name": "renounceOwnership",
      "outputs": [],
      "stateMutability": "nonpayable",
      "type": "function"
    },
    {
      "inputs": [],
      "name": "ticketNFT",
      "outputs": [
        {
          "internalType": "contract TicketNFT",
          "name": "",
          "type": "address"
        }
      ],
      "stateMutability": "view",
      "type": "function"
    },
    {
      "inputs": [
        {
          "internalType": "uint256",
          "name": "",
          "type": "uint256"
        },
        {
          "internalType": "uint256",
          "name": "",
          "type": "uint256"
        }
      ],
      "name": "tokenOffers",
      "outputs": [
        {
          "internalType": "uint256",
          "name": "",
          "type": "uint256"
        }
      ],
      "stateMutability": "view",
      "type": "function"
    },
    {
      "inputs": [
        {
          "internalType": "uint256",
          "name": "",
          "type": "uint256"
        }
      ],
      "name": "tokenToListing",
      "outputs": [
        {
          "internalType": "uint256",
          "name": "",
          "type": "uint256"
        }
      ],
      "stateMutability": "view",
      "type": "function"
    },
    {
      "inputs": [
        {
          "internalType": "address",
          "name": "newOwner",
          "type": "address"
        }
      ],
      "name": "transferOwnership",
      "outputs": [],
      "stateMutability": "nonpayable",
      "type": "function"
    },
    {
      "inputs": [
        {
          "internalType": "uint256",
          "name": "listingId",
          "type": "uint256"
        },
        {
          "internalType": "uint256",
          "name": "newPrice",
          "type": "uint256"
        }
      ],
      "name": "updatePrice",
      "outputs": [],
      "stateMutability": "nonpayable",
      "type": "function"
    },
    {
      "stateMutability": "payable",
      "type": "receive"
    }
  ],
  "bytecode": "0x60a06040523480156200001157600080fd5b50604051620032a9380380620032a98339810160408190526200003491620000f5565b33806200005b57604051631e4fbdf760e01b81526000600482015260240160405180910390fd5b6200006681620000a5565b50600180556001600160a01b038116620000935760405163b4fa3fb360e01b815260040160405180910390fd5b6001600160a01b031660805262000127565b600080546001600160a01b038381166001600160a01b0319831681178455604051919092169283917f8be0079c531659141344cd1fd0a4f28419497f9722a3daafe3b4186f6b6457e09190a35050565b6000602082840312156200010857600080fd5b81516001600160a01b03811681146200012057600080fd5b9392505050565b6080516130da620001cf600039600081816104c8015281816106e50152818161077201528181610a5801528181610b1601528181610bbf01528181610e7201528181610f8e0152818161104c015281816110f5015281816113dc015281816116f5015281816117ab0152818161198b015281816120150152818161215c01528181612322015281816123d9015281816124cc01528181612550015261275001526130da6000f3fe60806040526004361061018b5760003560e01c806383a221ec116100e0578063b7a3c1da11610084578063de74e57b11610061578063de74e57b1461056f578063ea7eaec61461060a578063ef706adf14610637578063f2fde38b1461065757005b8063b7a3c1da146104ea578063c7c3e1f614610500578063c815729d1461054f57005b80638da5cb5b116100bd5780638da5cb5b14610444578063944985f514610476578063a67f09ff14610496578063b393391b146104b657005b806383a221ec1461035957806387c35bc0146103795780638a72ea6a1461039b57005b8063656f1c31116101475780636c2c9c7d116101245780636c2c9c7d146102e1578063715018a6146102f75780637b1ce2a61461030c57806382367b2d1461033957005b8063656f1c3114610281578063661d2c2c146102a157806367dd74ca146102ce57005b806305b7cdd3146101945780630e7246c1146101ba5780631d761e5e146101e7578063305a67a814610214578063305a905a146102345780634579268a1461025457005b3661019257005b005b6101a76101a2366004612b00565b610677565b6040519081526020015b60405180910390f35b3480156101c657600080fd5b506101da6101d5366004612b6e565b610931565b6040516101b19190612c16565b3480156101f357600080fd5b506101a7610202366004612c30565b60096020526000908152604090205481565b34801561022057600080fd5b5061019261022f366004612c30565b610da5565b34801561024057600080fd5b506101a761024f366004612b00565b610f1d565b34801561026057600080fd5b5061027461026f366004612c30565b611249565b6040516101b19190612c95565b34801561028d57600080fd5b5061019261029c366004612ca3565b6112bf565b3480156102ad57600080fd5b506102c16102bc366004612cfa565b6114cc565b6040516101b19190612d17565b6101926102dc366004612c30565b611655565b3480156102ed57600080fd5b506101a760025481565b34801561030357600080fd5b50610192611ab1565b34801561031857600080fd5b506101a7610327366004612c30565b60086020526000908152604090205481565b34801561034557600080fd5b50610192610354366004612b00565b611ac5565b34801561036557600080fd5b506102c1610374366004612c30565b611bb3565b34801561038557600080fd5b5061038e611e35565b6040516101b19190612d65565b3480156103a757600080fd5b506104016103b6366004612c30565b60066020819052600091825260409091208054600182015460028301546003840154600485015460058601549590960154939592946001600160a01b039092169390929160ff169087565b6040805197885260208801969096526001600160a01b03909416948601949094526060850191909152608084015290151560a083015260c082015260e0016101b1565b34801561045057600080fd5b506000546001600160a01b03165b6040516001600160a01b0390911681526020016101b1565b34801561048257600080fd5b506101a7610491366004612b00565b611f98565b3480156104a257600080fd5b5061038e6104b1366004612c30565b611fc9565b3480156104c257600080fd5b5061045e7f000000000000000000000000000000000000000000000000000000000000000081565b3480156104f657600080fd5b506101a760035481565b34801561050c57600080fd5b5061053a61051b366004612c30565b6000908152600860209081526040808320546009909252909120549091565b604080519283526020830191909152016101b1565b34801561055b57600080fd5b5061019261056a366004612c30565b612272565b34801561057b57600080fd5b506105cf61058a366004612c30565b6004602081905260009182526040909120805460018201546002830154600384015494840154600590940154929491936001600160a01b039091169260ff9091169086565b6040805196875260208701959095526001600160a01b03909316938501939093526060840152901515608083015260a082015260c0016101b1565b34801561061657600080fd5b506101a7610625366004612c30565b60056020526000908152604090205481565b34801561064357600080fd5b50610192610652366004612c30565b612853565b34801561066357600080fd5b50610192610672366004612cfa565b612990565b60006106816129d0565b346000036106a25760405163b4fa3fb360e01b815260040160405180910390fd5b81158015906106b15750428211155b156106cf57604051639cb1308760e01b815260040160405180910390fd5b6040516331a9108f60e11b8152600481018490527f00000000000000000000000000000000000000000000000000000000000000006001600160a01b031690636352211e90602401602060405180830381865afa158015610734573d6000803e3d6000fd5b505050506040513d601f19601f820116820180604052508101906107589190612de8565b5060405163033fab3560e01b8152600481018490526000907f00000000000000000000000000000000000000000000000000000000000000006001600160a01b03169063033fab3590602401600060405180830381865afa1580156107c1573d6000803e3d6000fd5b505050506040513d6000823e601f3d908101601f191682016040526107e99190810190612ec4565b5095505050505050801561081057604051630e64a6df60e01b815260040160405180910390fd5b60036000815461081f90612f87565b91829055506040805160e0810182528281526020808201888152338385018181523460608601818152608087018c8152600160a089018181524260c08b0190815260008d81526006808c528d82209c518d5599518c850155965160028c0180546001600160a01b0319166001600160a01b03909216919091179055935160038b0155915160048a0155905160058901805460ff1916911515919091179055905196909401959095558a8152600784528581208054938401815581528390209091018590558351928352908201879052929450869185917f23b0047c5c1f392c454f858542ddfb8143e48945b1a00e247308d5eb97164bc491015b60405180910390a45061092b60018055565b92915050565b606061093b6129d0565b838015806109495750808314155b156109675760405163512509d360e11b815260040160405180910390fd5b8067ffffffffffffffff81111561098057610980612e05565b6040519080825280602002602001820160405280156109a9578160200160208202803683370190505b50915060005b81811015610d575760008787838181106109cb576109cb612fa0565b90506020020135905060008686848181106109e8576109e8612fa0565b90506020020135905080600003610a125760405163b4fa3fb360e01b815260040160405180910390fd5b60008281526005602052604090205415610a3f576040516328f560bb60e21b815260040160405180910390fd5b60405163033fab3560e01b8152600481018390526000907f00000000000000000000000000000000000000000000000000000000000000006001600160a01b03169063033fab3590602401600060405180830381865afa158015610aa7573d6000803e3d6000fd5b505050506040513d6000823e601f3d908101601f19168201604052610acf9190810190612ec4565b50955050505050508015610af657604051630e64a6df60e01b815260040160405180910390fd5b6040516331a9108f60e11b81526004810184905233906001600160a01b037f00000000000000000000000000000000000000000000000000000000000000001690636352211e90602401602060405180830381865afa158015610b5d573d6000803e3d6000fd5b505050506040513d601f19601f82011682018060405250810190610b819190612de8565b6001600160a01b031614610ba857604051635ec8235160e01b815260040160405180910390fd5b6040516323b872dd60e01b81526001600160a01b037f000000000000000000000000000000000000000000000000000000000000000016906323b872dd90610bf890339030908890600401612fb6565b600060405180830381600087803b158015610c1257600080fd5b505af1158015610c26573d6000803e3d6000fd5b505050506000600260008154610c3b90612f87565b91829055506040805160c081018252828152602080820188815233838501908152606084018981526001608086018181524260a0880190815260008a815260048089528a822099518a5596519389019390935593516002880180546001600160a01b0319166001600160a01b03909216919091179055915160038701559051928501805460ff191693151593909317909255516005938401558881529190522081905587519091508190889087908110610cf757610cf7612fa0565b602002602001018181525050336001600160a01b031684827f8b84647ec667515d9ce59e74ab9bb64476ec404345ebb9dfc3ea275bb6d8ee9b86604051610d4091815260200190565b60405180910390a4846001019450505050506109af565b507f70608f6926c693d75f1df912dc44ba6bbd9384d7d6b6e6f01f29089e3760ec48828787604051610d8b9392919061300c565b60405180910390a150610d9d60018055565b949350505050565b610dad6129d0565b60008181526004602052604081208054909103610ddd5760405163665c1c5760e01b815260040160405180910390fd5b600481015460ff16610e0257604051634065aaf160e11b815260040160405180910390fd5b60028101546001600160a01b03163314610e2f57604051635ec8235160e01b815260040160405180910390fd5b6004808201805460ff19169055600182018054600090815260056020526040808220919091556002840154915490516323b872dd60e01b81526001600160a01b037f00000000000000000000000000000000000000000000000000000000000000008116946323b872dd94610eac94309491909316929101612fb6565b600060405180830381600087803b158015610ec657600080fd5b505af1158015610eda573d6000803e3d6000fd5b505050508060010154827f3de5f6c6d480b0ed131d7db9d21b7e79660e349d57b37f688bcc0000352fb34d60405160405180910390a350610f1a60018055565b50565b6000610f276129d0565b81600003610f485760405163b4fa3fb360e01b815260040160405180910390fd5b60008381526005602052604090205415610f75576040516328f560bb60e21b815260040160405180910390fd5b60405163033fab3560e01b8152600481018490526000907f00000000000000000000000000000000000000000000000000000000000000006001600160a01b03169063033fab3590602401600060405180830381865afa158015610fdd573d6000803e3d6000fd5b505050506040513d6000823e601f3d908101601f191682016040526110059190810190612ec4565b5095505050505050801561102c57604051630e64a6df60e01b815260040160405180910390fd5b6040516331a9108f60e11b81526004810185905233906001600160a01b037f00000000000000000000000000000000000000000000000000000000000000001690636352211e90602401602060405180830381865afa158015611093573d6000803e3d6000fd5b505050506040513d601f19601f820116820180604052508101906110b79190612de8565b6001600160a01b0316146110de57604051635ec8235160e01b815260040160405180910390fd5b6040516323b872dd60e01b81526001600160a01b037f000000000000000000000000000000000000000000000000000000000000000016906323b872dd9061112e90339030908990600401612fb6565b600060405180830381600087803b15801561114857600080fd5b505af115801561115c573d6000803e3d6000fd5b5050505060026000815461116f90612f87565b91829055506040805160c081018252828152602080820188815233838501818152606085018a81526001608087018181524260a0890190815260008b81526004808a528b82209a518b559751938a019390935593516002890180546001600160a01b0319166001600160a01b03909216919091179055915160038801559051938601805460ff19169415159490941790935551600594850155898252928252839020849055915186815292945091869185917f8b84647ec667515d9ce59e74ab9bb64476ec404345ebb9dfc3ea275bb6d8ee9b9101610919565b611251612a77565b50600090815260066020818152604092839020835160e0810185528154815260018201549281019290925260028101546001600160a01b0316938201939093526003830154606082015260048301546080820152600583015460ff16151560a082015291015460c082015290565b6112c76129d0565b8060008190036112ea5760405163b4fa3fb360e01b815260040160405180910390fd5b60005b8181101561148457600084848381811061130957611309612fa0565b6020908102929092013560008181526004909352604083208054919450920390506113475760405163665c1c5760e01b815260040160405180910390fd5b600481015460ff1661136c57604051634065aaf160e11b815260040160405180910390fd5b60028101546001600160a01b0316331461139957604051635ec8235160e01b815260040160405180910390fd5b6004808201805460ff19169055600182018054600090815260056020526040808220919091556002840154915490516323b872dd60e01b81526001600160a01b037f00000000000000000000000000000000000000000000000000000000000000008116946323b872dd9461141694309491909316929101612fb6565b600060405180830381600087803b15801561143057600080fd5b505af1158015611444573d6000803e3d6000fd5b505050508060010154827f3de5f6c6d480b0ed131d7db9d21b7e79660e349d57b37f688bcc0000352fb34d60405160405180910390a350506001016112ed565b507f205a3e01da90a49d9503b20ce5f4a47667bfaaf11714e6d8f57c9fdaec424fa783836040516114b692919061303c565b60405180910390a1506114c860018055565b5050565b6060600060015b6003548111611520576000818152600660205260409020600201546001600160a01b0380861691160361150e578161150a81612f87565b9250505b8061151881612f87565b9150506114d3565b508067ffffffffffffffff81111561153a5761153a612e05565b60405190808252806020026020018201604052801561157357816020015b611560612a77565b8152602001906001900390816115585790505b509150600060015b600354811161164d576000818152600660205260409020600201546001600160a01b0380871691160361163b57600081815260066020818152604092839020835160e0810185528154815260018201549281019290925260028101546001600160a01b0316938201939093526003830154606082015260048301546080820152600583015460ff16151560a082015291015460c0820152848361161d81612f87565b94508151811061162f5761162f612fa0565b60200260200101819052505b8061164581612f87565b91505061157b565b505050919050565b61165d6129d0565b6000818152600460205260408120805490910361168d5760405163665c1c5760e01b815260040160405180910390fd5b600481015460ff166116b257604051634065aaf160e11b815260040160405180910390fd5b806003015434146116d65760405163b4fa3fb360e01b815260040160405180910390fd5b600181015460405163033fab3560e01b81526000916001600160a01b037f0000000000000000000000000000000000000000000000000000000000000000169163033fab359161172c9160040190815260200190565b600060405180830381865afa158015611749573d6000803e3d6000fd5b505050506040513d6000823e601f3d908101601f191682016040526117719190810190612ec4565b5050506001860154600387015460405163152a902d60e11b8152600481019290925260248201529394506000938493506001600160a01b037f0000000000000000000000000000000000000000000000000000000000000000169250632a55205a91506044016040805180830381865afa1580156117f3573d6000803e3d6000fd5b505050506040513d601f19601f820116820180604052508101906118179190613050565b600386015491935091506001600160a01b038316158015906118395750600082115b8015611849575084600301548211155b156118f95781856003015461185e919061307e565b90506000836001600160a01b03168360405160006040518083038185875af1925050503d80600081146118ad576040519150601f19603f3d011682016040523d82523d6000602084013e6118b2565b606091505b50509050806118d4576040516312171d8360e31b815260040160405180910390fd5b600085815260096020526040812080548592906118f2908490613091565b9091555050505b60028501546040516000916001600160a01b03169083908381818185875af1925050503d8060008114611948576040519150601f19603f3d011682016040523d82523d6000602084013e61194d565b606091505b505090508061196f576040516312171d8360e31b815260040160405180910390fd5b60018601546040516323b872dd60e01b81526001600160a01b037f000000000000000000000000000000000000000000000000000000000000000016916323b872dd916119c3913091339190600401612fb6565b600060405180830381600087803b1580156119dd57600080fd5b505af11580156119f1573d6000803e3d6000fd5b5050506000868152600860205260408120805460019350909190611a16908490613091565b909155505060048601805460ff191690556001860180546000908152600560209081526040808320929092556002890154925460038a01548351338152928301526001600160a01b03888116838501526060830188905292519290931692918a917feea9812fe16e2091f92a02e46a1488a162bc0f229203b46d16b870e1b39ec6ff919081900360800190a4505050505050610f1a60018055565b611ab96129fa565b611ac36000612a27565b565b80600003611ae65760405163b4fa3fb360e01b815260040160405180910390fd5b60008281526004602052604081208054909103611b165760405163665c1c5760e01b815260040160405180910390fd5b600481015460ff16611b3b57604051634065aaf160e11b815260040160405180910390fd5b60028101546001600160a01b03163314611b6857604051635ec8235160e01b815260040160405180910390fd5b60038101805490839055604080518281526020810185905285917f15819dd2fd9f6418b142e798d08a18d0bf06ea368f4480b7b0d3f75bd966bc48910160405180910390a250505050565b6000818152600760209081526040808320805482518185028101850190935280835260609493830182828015611c0857602002820191906000526020600020905b815481526020019060010190808311611bf4575b505050505090506000805b8251811015611ce15760066000848381518110611c3257611c32612fa0565b60209081029190910181015182528101919091526040016000206005015460ff168015611cc6575060066000848381518110611c7057611c70612fa0565b602002602001015181526020019081526020016000206004015460001480611cc657504260066000858481518110611caa57611caa612fa0565b6020026020010151815260200190815260200160002060040154115b15611cd95781611cd581612f87565b9250505b600101611c13565b508067ffffffffffffffff811115611cfb57611cfb612e05565b604051908082528060200260200182016040528015611d3457816020015b611d21612a77565b815260200190600190039081611d195790505b5092506000805b8351811015611e2c57600060066000868481518110611d5c57611d5c612fa0565b6020908102919091018101518252818101929092526040908101600020815160e0810183528154815260018201549381019390935260028101546001600160a01b0316918301919091526003810154606083015260048101546080830152600581015460ff1615801560a0840181905260069092015460c084015291925090611df4575060808101511580611df45750428160800151115b15611e2357808684611e0581612f87565b955081518110611e1757611e17612fa0565b60200260200101819052505b50600101611d3b565b50505050919050565b6060600060015b6002548111611e79576000818152600460208190526040909120015460ff1615611e67578160010191505b80611e7181612f87565b915050611e3c565b508067ffffffffffffffff811115611e9357611e93612e05565b604051908082528060200260200182016040528015611ecc57816020015b611eb9612abf565b815260200190600190039081611eb15790505b509150600060015b6002548111611f92576000818152600460208190526040909120015460ff1615611f8057600081815260046020818152604092839020835160c0810185528154815260018201549281019290925260028101546001600160a01b031693820193909352600383015460608201529082015460ff161515608082015260059091015460a08201528451859084908110611f6e57611f6e612fa0565b60200260200101819052508160010191505b80611f8a81612f87565b915050611ed4565b50505090565b60076020528160005260406000208181548110611fb457600080fd5b90600052602060002001600091509150505481565b6060600060015b60025481116120bc5760008181526004602081905260409091209081015460ff16156120a957600181015460405163033fab3560e01b81526000916001600160a01b037f0000000000000000000000000000000000000000000000000000000000000000169163033fab359161204c9160040190815260200190565b600060405180830381865afa158015612069573d6000803e3d6000fd5b505050506040513d6000823e601f3d908101601f191682016040526120919190810190612ec4565b50505050505090508581036120a7578360010193505b505b50806120b481612f87565b915050611fd0565b508067ffffffffffffffff8111156120d6576120d6612e05565b60405190808252806020026020018201604052801561210f57816020015b6120fc612abf565b8152602001906001900390816120f45790505b509150600060015b600254811161164d5760008181526004602081905260409091209081015460ff161561225f57600181015460405163033fab3560e01b81526000916001600160a01b037f0000000000000000000000000000000000000000000000000000000000000000169163033fab35916121939160040190815260200190565b600060405180830381865afa1580156121b0573d6000803e3d6000fd5b505050506040513d6000823e601f3d908101601f191682016040526121d89190810190612ec4565b505050505050905086810361225d576040805160c081018252835481526001840154602082015260028401546001600160a01b03169181019190915260038301546060820152600483015460ff1615156080820152600583015460a0820152865187908690811061224b5761224b612fa0565b60200260200101819052508360010193505b505b508061226a81612f87565b915050612117565b61227a6129d0565b600081815260066020526040812080549091036122aa5760405163b4fa3fb360e01b815260040160405180910390fd5b600581015460ff166122cf57604051634065aaf160e11b815260040160405180910390fd5b6004810154158015906122e6575042816004015411155b1561230457604051639cb1308760e01b815260040160405180910390fd5b60018101546040516331a9108f60e11b8152600481018290526000907f00000000000000000000000000000000000000000000000000000000000000006001600160a01b031690636352211e90602401602060405180830381865afa158015612371573d6000803e3d6000fd5b505050506040513d601f19601f820116820180604052508101906123959190612de8565b90506001600160a01b03811633146123c057604051635ec8235160e01b815260040160405180910390fd5b60405163033fab3560e01b8152600481018390526000907f00000000000000000000000000000000000000000000000000000000000000006001600160a01b03169063033fab3590602401600060405180830381865afa158015612428573d6000803e3d6000fd5b505050506040513d6000823e601f3d908101601f191682016040526124509190810190612ec4565b5095505050505050801561247757604051630e64a6df60e01b815260040160405180910390fd5b60008381526005602052604090205480156124b3576000818152600460208181526040808420909201805460ff19169055868352600590528120555b60405163033fab3560e01b8152600481018590526000907f00000000000000000000000000000000000000000000000000000000000000006001600160a01b03169063033fab3590602401600060405180830381865afa15801561251b573d6000803e3d6000fd5b505050506040513d6000823e601f3d908101601f191682016040526125439190810190612ec4565b50505050505090506000807f00000000000000000000000000000000000000000000000000000000000000006001600160a01b0316632a55205a888a600301546040518363ffffffff1660e01b81526004016125a9929190918252602082015260400190565b6040805180830381865afa1580156125c5573d6000803e3d6000fd5b505050506040513d601f19601f820116820180604052508101906125e99190613050565b60038a015491935091506001600160a01b0383161580159061260b5750600082115b801561261b575088600301548211155b156126cb57818960030154612630919061307e565b90506000836001600160a01b03168360405160006040518083038185875af1925050503d806000811461267f576040519150601f19603f3d011682016040523d82523d6000602084013e612684565b606091505b50509050806126a6576040516312171d8360e31b815260040160405180910390fd5b600085815260096020526040812080548592906126c4908490613091565b9091555050505b604051600090339083908381818185875af1925050503d806000811461270d576040519150601f19603f3d011682016040523d82523d6000602084013e612712565b606091505b5050905080612734576040516312171d8360e31b815260040160405180910390fd5b60028a01546040516323b872dd60e01b81526001600160a01b037f00000000000000000000000000000000000000000000000000000000000000008116926323b872dd9261278a92339216908e90600401612fb6565b600060405180830381600087803b1580156127a457600080fd5b505af11580156127b8573d6000803e3d6000fd5b50505060008681526008602052604081208054600193509091906127dd908490613091565b909155505060058a01805460ff1916905560028a015460038b01546040518b928e927f537afea1137614386dde2e3f3f603a09e8ba6fbcd0a9d59b286a6f7e5fc93848926128389233926001600160a01b0390911691612fb6565b60405180910390a350505050505050505050610f1a60018055565b61285b6129d0565b6000818152600660205260408120805490910361288b5760405163b4fa3fb360e01b815260040160405180910390fd5b600581015460ff166128b057604051634065aaf160e11b815260040160405180910390fd5b60028101546001600160a01b031633146128dd57604051630f147a5960e31b815260040160405180910390fd5b60058101805460ff19169055600381015460405160009133918381818185875af1925050503d806000811461292e576040519150601f19603f3d011682016040523d82523d6000602084013e612933565b606091505b5050905080612955576040516312171d8360e31b815260040160405180910390fd5b600182015460405184907fc3631089d86cf1fe0600bb8be145021dc1f4dbf1053ce815836f092d69cd9bdc90600090a35050610f1a60018055565b6129986129fa565b6001600160a01b0381166129c757604051631e4fbdf760e01b8152600060048201526024015b60405180910390fd5b610f1a81612a27565b6002600154036129f357604051633ee5aeb560e01b815260040160405180910390fd5b6002600155565b6000546001600160a01b03163314611ac35760405163118cdaa760e01b81523360048201526024016129be565b600080546001600160a01b038381166001600160a01b0319831681178455604051919092169283917f8be0079c531659141344cd1fd0a4f28419497f9722a3daafe3b4186f6b6457e09190a35050565b6040518060e00160405280600081526020016000815260200160006001600160a01b031681526020016000815260200160008152602001600015158152602001600081525090565b6040518060c00160405280600081526020016000815260200160006001600160a01b0316815260200160008152602001600015158152602001600081525090565b60008060408385031215612b1357600080fd5b50508035926020909101359150565b60008083601f840112612b3457600080fd5b50813567ffffffffffffffff811115612b4c57600080fd5b6020830191508360208260051b8501011115612b6757600080fd5b9250929050565b60008060008060408587031215612b8457600080fd5b843567ffffffffffffffff80821115612b9c57600080fd5b612ba888838901612b22565b90965094506020870135915080821115612bc157600080fd5b50612bce87828801612b22565b95989497509550505050565b60008151808452602080850194506020840160005b83811015612c0b57815187529582019590820190600101612bef565b509495945050505050565b602081526000612c296020830184612bda565b9392505050565b600060208284031215612c4257600080fd5b5035919050565b80518252602080820151908301526040808201516001600160a01b031690830152606080820151908301526080808201519083015260a08082015115159083015260c090810151910152565b60e0810161092b8284612c49565b60008060208385031215612cb657600080fd5b823567ffffffffffffffff811115612ccd57600080fd5b612cd985828601612b22565b90969095509350505050565b6001600160a01b0381168114610f1a57600080fd5b600060208284031215612d0c57600080fd5b8135612c2981612ce5565b6020808252825182820181905260009190848201906040850190845b81811015612d5957612d46838551612c49565b9284019260e09290920191600101612d33565b50909695505050505050565b602080825282518282018190526000919060409081850190868401855b82811015612ddb578151805185528681015187860152858101516001600160a01b0316868601526060808201519086015260808082015115159086015260a0908101519085015260c09093019290850190600101612d82565b5091979650505050505050565b600060208284031215612dfa57600080fd5b8151612c2981612ce5565b634e487b7160e01b600052604160045260246000fd5b600082601f830112612e2c57600080fd5b815167ffffffffffffffff80821115612e4757612e47612e05565b604051601f8301601f19908116603f01168101908282118183101715612e6f57612e6f612e05565b8160405283815260209250866020858801011115612e8c57600080fd5b600091505b83821015612eae5785820183015181830184015290820190612e91565b6000602085830101528094505050505092915050565b600080600080600080600060e0888a031215612edf57600080fd5b87519650602088015195506040880151612ef881612ce5565b606089015160808a0151919650945067ffffffffffffffff80821115612f1d57600080fd5b612f298b838c01612e1b565b945060a08a015191508115158214612f4057600080fd5b60c08a015191935080821115612f5557600080fd5b50612f628a828b01612e1b565b91505092959891949750929550565b634e487b7160e01b600052601160045260246000fd5b600060018201612f9957612f99612f71565b5060010190565b634e487b7160e01b600052603260045260246000fd5b6001600160a01b039384168152919092166020820152604081019190915260600190565b81835260006001600160fb1b03831115612ff357600080fd5b8260051b80836020870137939093016020019392505050565b60408152600061301f6040830186612bda565b8281036020840152613032818587612fda565b9695505050505050565b602081526000610d9d602083018486612fda565b6000806040838503121561306357600080fd5b825161306e81612ce5565b6020939093015192949293505050565b8181038181111561092b5761092b612f71565b8082018082111561092b5761092b612f7156fea2646970667358221220afa61b8140d8396f8d21420f6c9f4be35c4e65f497fc665396c8e918676eb5f564736f6c63430008160033",
  "linkReferences": {},
  "deployedLinkReferences": {}
}