{
  "_format": "hh-sol-artifact-1",
  "contractName": "TicketMarketplace",
  "sourceName": "contracts/TicketMarketplace.sol",
  "abi": [
    {
      "inputs": [
        {
          "internalType": "address",
          "name": "nft",
          "type": "address"
        }
      ],
      "stateMutability": "nonpayable",
      "type": "constructor"
    },
    {
      "inputs": [],
      "name": "AlreadyListed",
      "type": "error"
    },
    {
      "inputs": [],
      "name": "ArrayLengthMismatch",
      "type": "error"
    },
    {
      "inputs": [],
      "name": "InsufficientOfferAmount",
      "type": "error"
    },
    {
      "inputs": [],
      "name": "InvalidInput",
      "type": "error"
    },
    {
      "inputs": [],
      "name": "NotActive",
      "type": "error"
    },
    {
      "inputs": [],
      "name": "NotListed",
      "type": "error"
    },
    {
      "inputs": [],
      "name": "NotOfferer",
      "type": "error"
    },
    {
      "inputs": [],
      "name": "NotSeller",
      "type": "error"
    },
    {
      "inputs": [],
      "name": "OfferExpired",
      "type": "error"
    },
    {
      "inputs": [
        {
          "internalType": "address",
          "name": "owner",
          "type": "address"
        }
      ],
      "name": "OwnableInvalidOwner",
      "type": "error"
    },
    {
      "inputs": [
        {
          "internalType": "address",
          "name": "account",
          "type": "address"
        }
      ],
      "name": "OwnableUnauthorizedAccount",
      "type": "error"
    },
    {
      "inputs": [],
      "name": "ReentrancyGuardReentrantCall",
      "type": "error"
    },
    {
      "inputs": [],
      "name": "TransferFailed",
      "type": "error"
    },
    {
      "inputs": [],
      "name": "UsedTicket",
      "type": "error"
    },
    {
      "anonymous": false,
      "inputs": [
        {
          "indexed": false,
          "internalType": "uint256[]",
          "name": "listingIds",
          "type": "uint256[]"
        }
      ],
      "name": "BatchDelistingCompleted",
      "type": "event"
    },
    {
      "anonymous": false,
      "inputs": [
        {
          "indexed": false,
          "internalType": "uint256[]",
          "name": "listingIds",
          "type": "uint256[]"
        },
        {
          "indexed": false,
          "internalType": "uint256[]",
          "name": "tokenIds",
          "type": "uint256[]"
        }
      ],
      "name": "BatchListingCompleted",
      "type": "event"
    },
    {
      "anonymous": false,
      "inputs": [
        {
          "indexed": true,
          "internalType": "uint256",
          "name": "listingId",
          "type": "uint256"
        },
        {
          "indexed": true,
          "internalType": "uint256",
          "name": "tokenId",
          "type": "uint256"
        }
      ],
      "name": "ListingCanceled",
      "type": "event"
    },
    {
      "anonymous": false,
      "inputs": [
        {
          "indexed": true,
          "internalType": "uint256",
          "name": "offerId",
          "type": "uint256"
        },
        {
          "indexed": true,
          "internalType": "uint256",
          "name": "tokenId",
          "type": "uint256"
        },
        {
          "indexed": false,
          "internalType": "address",
          "name": "seller",
          "type": "address"
        },
        {
          "indexed": false,
          "internalType": "address",
          "name": "offerer",
          "type": "address"
        },
        {
          "indexed": false,
          "internalType": "uint256",
          "name": "amount",
          "type": "uint256"
        }
      ],
      "name": "OfferAccepted",
      "type": "event"
    },
    {
      "anonymous": false,
      "inputs": [
        {
          "indexed": true,
          "internalType": "uint256",
          "name": "offerId",
          "type": "uint256"
        },
        {
          "indexed": true,
          "internalType": "uint256",
          "name": "tokenId",
          "type": "uint256"
        }
      ],
      "name": "OfferCanceled",
      "type": "event"
    },
    {
      "anonymous": false,
      "inputs": [
        {
          "indexed": true,
          "internalType": "uint256",
          "name": "offerId",
          "type": "uint256"
        },
        {
          "indexed": true,
          "internalType": "uint256",
          "name": "tokenId",
          "type": "uint256"
        },
        {
          "indexed": true,
          "internalType": "address",
          "name": "offerer",
          "type": "address"
        },
        {
          "indexed": false,
          "internalType": "uint256",
          "name": "amount",
          "type": "uint256"
        },
        {
          "indexed": false,
          "internalType": "uint256",
          "name": "expiresAt",
          "type": "uint256"
        }
      ],
      "name": "OfferMade",
      "type": "event"
    },
    {
      "anonymous": false,
      "inputs": [
        {
          "indexed": true,
          "internalType": "address",
          "name": "previousOwner",
          "type": "address"
        },
        {
          "indexed": true,
          "internalType": "address",
          "name": "newOwner",
          "type": "address"
        }
      ],
      "name": "OwnershipTransferred",
      "type": "event"
    },
    {
      "anonymous": false,
      "inputs": [
        {
          "indexed": true,
          "internalType": "uint256",
          "name": "listingId",
          "type": "uint256"
        },
        {
          "indexed": false,
          "internalType": "uint256",
          "name": "oldPrice",
          "type": "uint256"
        },
        {
          "indexed": false,
          "internalType": "uint256",
          "name": "newPrice",
          "type": "uint256"
        }
      ],
      "name": "PriceUpdated",
      "type": "event"
    },
    {
      "anonymous": false,
      "inputs": [
        {
          "indexed": true,
          "internalType": "uint256",
          "name": "listingId",
          "type": "uint256"
        },
        {
          "indexed": true,
          "internalType": "uint256",
          "name": "tokenId",
          "type": "uint256"
        },
        {
          "indexed": true,
          "internalType": "address",
          "name": "seller",
          "type": "address"
        },
        {
          "indexed": false,
          "internalType": "uint256",
          "name": "price",
          "type": "uint256"
        }
      ],
      "name": "TicketListed",
      "type": "event"
    },
    {
      "anonymous": false,
      "inputs": [
        {
          "indexed": true,
          "internalType": "uint256",
          "name": "listingId",
          "type": "uint256"
        },
        {
          "indexed": true,
          "internalType": "uint256",
          "name": "tokenId",
          "type": "uint256"
        },
        {
          "indexed": true,
          "internalType": "address",
          "name": "seller",
          "type": "address"
        },
        {
          "indexed": false,
          "internalType": "address",
          "name": "buyer",
          "type": "address"
        },
        {
          "indexed": false,
          "internalType": "uint256",
          "name": "price",
          "type": "uint256"
        },
        {
          "indexed": false,
          "internalType": "address",
          "name": "royaltyReceiver",
          "type": "address"
        },
        {
          "indexed": false,
          "internalType": "uint256",
          "name": "royaltyAmount",
          "type": "uint256"
        }
      ],
      "name": "TicketPurchased",
      "type": "event"
    },
    {
      "stateMutability": "payable",
      "type": "fallback"
    },
    {
      "inputs": [
        {
          "internalType": "uint256",
          "name": "offerId",
          "type": "uint256"
        }
      ],
      "name": "acceptOffer",
      "outputs": [],
      "stateMutability": "nonpayable",
      "type": "function"
    },
    {
      "inputs": [
        {
          "internalType": "uint256[]",
          "name": "listingIds",
          "type": "uint256[]"
        }
      ],
      "name": "batchCancelListings",
      "outputs": [],
      "stateMutability": "nonpayable",
      "type": "function"
    },
    {
      "inputs": [
        {
          "internalType": "uint256[]",
          "name": "tokenIds",
          "type": "uint256[]"
        },
        {
          "internalType": "uint256[]",
          "name": "prices",
          "type": "uint256[]"
        }
      ],
      "name": "batchListTickets",
      "outputs": [
        {
          "internalType": "uint256[]",
          "name": "listingIds",
          "type": "uint256[]"
        }
      ],
      "stateMutability": "nonpayable",
      "type": "function"
    },
    {
      "inputs": [
        {
          "internalType": "uint256",
          "name": "listingId",
          "type": "uint256"
        }
      ],
      "name": "buyTicket",
      "outputs": [],
      "stateMutability": "payable",
      "type": "function"
    },
    {
      "inputs": [
        {
          "internalType": "uint256",
          "name": "listingId",
          "type": "uint256"
        }
      ],
      "name": "cancelListing",
      "outputs": [],
      "stateMutability": "nonpayable",
      "type": "function"
    },
    {
      "inputs": [
        {
          "internalType": "uint256",
          "name": "offerId",
          "type": "uint256"
        }
      ],
      "name": "cancelOffer",
      "outputs": [],
      "stateMutability": "nonpayable",
      "type": "function"
    },
    {
      "inputs": [],
      "name": "getActiveListings",
      "outputs": [
        {
          "components": [
            {
              "internalType": "uint256",
              "name": "listingId",
              "type": "uint256"
            },
            {
              "internalType": "uint256",
              "name": "tokenId",
              "type": "uint256"
            },
            {
              "internalType": "address",
              "name": "seller",
              "type": "address"
            },
            {
              "internalType": "uint256",
              "name": "price",
              "type": "uint256"
            },
            {
              "internalType": "bool",
              "name": "active",
              "type": "bool"
            },
            {
              "internalType": "uint256",
              "name": "createdAt",
              "type": "uint256"
            }
          ],
          "internalType": "struct TicketMarketplace.Listing[]",
          "name": "results",
          "type": "tuple[]"
        }
      ],
      "stateMutability": "view",
      "type": "function"
    },
    {
      "inputs": [
        {
          "internalType": "uint256",
          "name": "tokenId",
          "type": "uint256"
        }
      ],
      "name": "getActiveOffers",
      "outputs": [
        {
          "components": [
            {
              "internalType": "uint256",
              "name": "offerId",
              "type": "uint256"
            },
            {
              "internalType": "uint256",
              "name": "tokenId",
              "type": "uint256"
            },
            {
              "internalType": "address",
              "name": "offerer",
              "type": "address"
            },
            {
              "internalType": "uint256",
              "name": "offerAmount",
              "type": "uint256"
            },
            {
              "internalType": "uint256",
              "name": "expiresAt",
              "type": "uint256"
            },
            {
              "internalType": "bool",
              "name": "active",
              "type": "bool"
            },
            {
              "internalType": "uint256",
              "name": "createdAt",
              "type": "uint256"
            }
          ],
          "internalType": "struct TicketMarketplace.Offer[]",
          "name": "activeOffers",
          "type": "tuple[]"
        }
      ],
      "stateMutability": "view",
      "type": "function"
    },
    {
      "inputs": [
        {
          "internalType": "uint256",
          "name": "eventId",
          "type": "uint256"
        }
      ],
      "name": "getListingsByEvent",
      "outputs": [
        {
          "components": [
            {
              "internalType": "uint256",
              "name": "listingId",
              "type": "uint256"
            },
            {
              "internalType": "uint256",
              "name": "tokenId",
              "type": "uint256"
            },
            {
              "internalType": "address",
              "name": "seller",
              "type": "address"
            },
            {
              "internalType": "uint256",
              "name": "price",
              "type": "uint256"
            },
            {
              "internalType": "bool",
              "name": "active",
              "type": "bool"
            },
            {
              "internalType": "uint256",
              "name": "createdAt",
              "type": "uint256"
            }
          ],
          "internalType": "struct TicketMarketplace.Listing[]",
          "name": "results",
          "type": "tuple[]"
        }
      ],
      "stateMutability": "view",
      "type": "function"
    },
    {
      "inputs": [
        {
          "internalType": "uint256",
          "name": "offerId",
          "type": "uint256"
        }
      ],
      "name": "getOffer",
      "outputs": [
        {
          "components": [
            {
              "internalType": "uint256",
              "name": "offerId",
              "type": "uint256"
            },
            {
              "internalType": "uint256",
              "name": "tokenId",
              "type": "uint256"
            },
            {
              "internalType": "address",
              "name": "offerer",
              "type": "address"
            },
            {
              "internalType": "uint256",
              "name": "offerAmount",
              "type": "uint256"
            },
            {
              "internalType": "uint256",
              "name": "expiresAt",
              "type": "uint256"
            },
            {
              "internalType": "bool",
              "name": "active",
              "type": "bool"
            },
            {
              "internalType": "uint256",
              "name": "createdAt",
              "type": "uint256"
            }
          ],
          "internalType": "struct TicketMarketplace.Offer",
          "name": "offer",
          "type": "tuple"
        }
      ],
      "stateMutability": "view",
      "type": "function"
    },
    {
      "inputs": [
        {
          "internalType": "address",
          "name": "offerer",
          "type": "address"
        }
      ],
      "name": "getUserOffers",
      "outputs": [
        {
          "components": [
            {
              "internalType": "uint256",
              "name": "offerId",
              "type": "uint256"
            },
            {
              "internalType": "uint256",
              "name": "tokenId",
              "type": "uint256"
            },
            {
              "internalType": "address",
              "name": "offerer",
              "type": "address"
            },
            {
              "internalType": "uint256",
              "name": "offerAmount",
              "type": "uint256"
            },
            {
              "internalType": "uint256",
              "name": "expiresAt",
              "type": "uint256"
            },
            {
              "internalType": "bool",
              "name": "active",
              "type": "bool"
            },
            {
              "internalType": "uint256",
              "name": "createdAt",
              "type": "uint256"
            }
          ],
          "internalType": "struct TicketMarketplace.Offer[]",
          "name": "userOffers",
          "type": "tuple[]"
        }
      ],
      "stateMutability": "view",
      "type": "function"
    },
    {
      "inputs": [
        {
          "internalType": "uint256",
          "name": "tokenId",
          "type": "uint256"
        },
        {
          "internalType": "uint256",
          "name": "price",
          "type": "uint256"
        }
      ],
      "name": "listTicket",
      "outputs": [
        {
          "internalType": "uint256",
          "name": "listingId",
          "type": "uint256"
        }
      ],
      "stateMutability": "nonpayable",
      "type": "function"
    },
    {
      "inputs": [],
      "name": "listingCounter",
      "outputs": [
        {
          "internalType": "uint256",
          "name": "",
          "type": "uint256"
        }
      ],
      "stateMutability": "view",
      "type": "function"
    },
    {
      "inputs": [
        {
          "internalType": "uint256",
          "name": "",
          "type": "uint256"
        }
      ],
      "name": "listings",
      "outputs": [
        {
          "internalType": "uint256",
          "name": "listingId",
          "type": "uint256"
        },
        {
          "internalType": "uint256",
          "name": "tokenId",
          "type": "uint256"
        },
        {
          "internalType": "address",
          "name": "seller",
          "type": "address"
        },
        {
          "internalType": "uint256",
          "name": "price",
          "type": "uint256"
        },
        {
          "internalType": "bool",
          "name": "active",
          "type": "bool"
        },
        {
          "internalType": "uint256",
          "name": "createdAt",
          "type": "uint256"
        }
      ],
      "stateMutability": "view",
      "type": "function"
    },
    {
      "inputs": [
        {
          "internalType": "uint256",
          "name": "tokenId",
          "type": "uint256"
        },
        {
          "internalType": "uint256",
          "name": "expiresAt",
          "type": "uint256"
        }
      ],
      "name": "makeOffer",
      "outputs": [
        {
          "internalType": "uint256",
          "name": "offerId",
          "type": "uint256"
        }
      ],
      "stateMutability": "payable",
      "type": "function"
    },
    {
      "inputs": [],
      "name": "offerCounter",
      "outputs": [
        {
          "internalType": "uint256",
          "name": "",
          "type": "uint256"
        }
      ],
      "stateMutability": "view",
      "type": "function"
    },
    {
      "inputs": [
        {
          "internalType": "uint256",
          "name": "",
          "type": "uint256"
        }
      ],
      "name": "offers",
      "outputs": [
        {
          "internalType": "uint256",
          "name": "offerId",
          "type": "uint256"
        },
        {
          "internalType": "uint256",
          "name": "tokenId",
          "type": "uint256"
        },
        {
          "internalType": "address",
          "name": "offerer",
          "type": "address"
        },
        {
          "internalType": "uint256",
          "name": "offerAmount",
          "type": "uint256"
        },
        {
          "internalType": "uint256",
          "name": "expiresAt",
          "type": "uint256"
        },
        {
          "internalType": "bool",
          "name": "active",
          "type": "bool"
        },
        {
          "internalType": "uint256",
          "name": "createdAt",
          "type": "uint256"
        }
      ],
      "stateMutability": "view",
      "type": "function"
    },
    {
      "inputs": [],
      "name": "owner",
      "outputs": [
        {
          "internalType": "address",
          "name": "",
          "type": "address"
        }
      ],
      "stateMutability": "view",
      "type": "function"
    },
    {
      "inputs": [],
      "name": "renounceOwnership",
      "outputs": [],
      "stateMutability": "nonpayable",
      "type": "function"
    },
    {
      "inputs": [],
      "name": "ticketNFT",
      "outputs": [
        {
          "internalType": "contract TicketNFT",
          "name": "",
          "type": "address"
        }
      ],
      "stateMutability": "view",
      "type": "function"
    },
    {
      "inputs": [
        {
          "internalType": "uint256",
          "name": "",
          "type": "uint256"
        },
        {
          "internalType": "uint256",
          "name": "",
          "type": "uint256"
        }
      ],
      "name": "tokenOffers",
      "outputs": [
        {
          "internalType": "uint256",
          "name": "",
          "type": "uint256"
        }
      ],
      "stateMutability": "view",
      "type": "function"
    },
    {
      "inputs": [
        {
          "internalType": "uint256",
          "name": "",
          "type": "uint256"
        }
      ],
      "name": "tokenToListing",
      "outputs": [
        {
          "internalType": "uint256",
          "name": "",
          "type": "uint256"
        }
      ],
      "stateMutability": "view",
      "type": "function"
    },
    {
      "inputs": [
        {
          "internalType": "address",
          "name": "newOwner",
          "type": "address"
        }
      ],
      "name": "transferOwnership",
      "outputs": [],
      "stateMutability": "nonpayable",
      "type": "function"
    },
    {
      "inputs": [
        {
          "internalType": "uint256",
          "name": "listingId",
          "type": "uint256"
        },
        {
          "internalType": "uint256",
          "name": "newPrice",
          "type": "uint256"
        }
      ],
      "name": "updatePrice",
      "outputs": [],
      "stateMutability": "nonpayable",
      "type": "function"
    },
    {
      "stateMutability": "payable",
      "type": "receive"
    }
  ],
  "bytecode": "0x60a06040523480156200001157600080fd5b5060405162002fc838038062002fc88339810160408190526200003491620000f5565b33806200005b57604051631e4fbdf760e01b81526000600482015260240160405180910390fd5b6200006681620000a5565b50600180556001600160a01b038116620000935760405163b4fa3fb360e01b815260040160405180910390fd5b6001600160a01b031660805262000127565b600080546001600160a01b038381166001600160a01b0319831681178455604051919092169283917f8be0079c531659141344cd1fd0a4f28419497f9722a3daafe3b4186f6b6457e09190a35050565b6000602082840312156200010857600080fd5b81516001600160a01b03811681146200012057600080fd5b9392505050565b608051612e07620001c160003960008181610426015281816105f4015281816106810152818161096701528181610a2501528181610ace01528181610d8101528181610e9d01528181610f5b01528181611004015281816112eb01528181611618015281816117d301528181611e3601528181611f7d01528181612143015281816121fa015281816122f501526124b70152612e076000f3fe6080604052600436106101435760003560e01c806387c35bc0116100b0578063b7a3c1da1161006c578063b7a3c1da14610448578063c815729d1461045e578063de74e57b1461047e578063ea7eaec614610519578063ef706adf14610546578063f2fde38b1461056657005b806387c35bc0146102d75780638a72ea6a146102f95780638da5cb5b146103a2578063944985f5146103d4578063a67f09ff146103f4578063b393391b1461041457005b8063661d2c2c116100ff578063661d2c2c1461022c57806367dd74ca146102595780636c2c9c7d1461026c578063715018a61461028257806382367b2d1461029757806383a221ec146102b757005b806305b7cdd31461014c5780630e7246c114610172578063305a67a81461019f578063305a905a146101bf5780634579268a146101df578063656f1c311461020c57005b3661014a57005b005b61015f61015a366004612840565b610586565b6040519081526020015b60405180910390f35b34801561017e57600080fd5b5061019261018d3660046128ae565b610840565b6040516101699190612956565b3480156101ab57600080fd5b5061014a6101ba366004612970565b610cb4565b3480156101cb57600080fd5b5061015f6101da366004612840565b610e2c565b3480156101eb57600080fd5b506101ff6101fa366004612970565b611158565b60405161016991906129d5565b34801561021857600080fd5b5061014a6102273660046129e3565b6111ce565b34801561023857600080fd5b5061024c610247366004612a3a565b6113db565b6040516101699190612a57565b61014a610267366004612970565b611564565b34801561027857600080fd5b5061015f60025481565b34801561028e57600080fd5b5061014a6118d2565b3480156102a357600080fd5b5061014a6102b2366004612840565b6118e6565b3480156102c357600080fd5b5061024c6102d2366004612970565b6119d4565b3480156102e357600080fd5b506102ec611c56565b6040516101699190612aa5565b34801561030557600080fd5b5061035f610314366004612970565b60066020819052600091825260409091208054600182015460028301546003840154600485015460058601549590960154939592946001600160a01b039092169390929160ff169087565b6040805197885260208801969096526001600160a01b03909416948601949094526060850191909152608084015290151560a083015260c082015260e001610169565b3480156103ae57600080fd5b506000546001600160a01b03165b6040516001600160a01b039091168152602001610169565b3480156103e057600080fd5b5061015f6103ef366004612840565b611db9565b34801561040057600080fd5b506102ec61040f366004612970565b611dea565b34801561042057600080fd5b506103bc7f000000000000000000000000000000000000000000000000000000000000000081565b34801561045457600080fd5b5061015f60035481565b34801561046a57600080fd5b5061014a610479366004612970565b612093565b34801561048a57600080fd5b506104de610499366004612970565b6004602081905260009182526040909120805460018201546002830154600384015494840154600590940154929491936001600160a01b039091169260ff9091169086565b6040805196875260208701959095526001600160a01b03909316938501939093526060840152901515608083015260a082015260c001610169565b34801561052557600080fd5b5061015f610534366004612970565b60056020526000908152604090205481565b34801561055257600080fd5b5061014a610561366004612970565b612593565b34801561057257600080fd5b5061014a610581366004612a3a565b6126d0565b6000610590612710565b346000036105b15760405163b4fa3fb360e01b815260040160405180910390fd5b81158015906105c05750428211155b156105de57604051639cb1308760e01b815260040160405180910390fd5b6040516331a9108f60e11b8152600481018490527f00000000000000000000000000000000000000000000000000000000000000006001600160a01b031690636352211e90602401602060405180830381865afa158015610643573d6000803e3d6000fd5b505050506040513d601f19601f820116820180604052508101906106679190612b28565b5060405163033fab3560e01b8152600481018490526000907f00000000000000000000000000000000000000000000000000000000000000006001600160a01b03169063033fab3590602401600060405180830381865afa1580156106d0573d6000803e3d6000fd5b505050506040513d6000823e601f3d908101601f191682016040526106f89190810190612c04565b5095505050505050801561071f57604051630e64a6df60e01b815260040160405180910390fd5b60036000815461072e90612cc7565b91829055506040805160e0810182528281526020808201888152338385018181523460608601818152608087018c8152600160a089018181524260c08b0190815260008d81526006808c528d82209c518d5599518c850155965160028c0180546001600160a01b0319166001600160a01b03909216919091179055935160038b0155915160048a0155905160058901805460ff1916911515919091179055905196909401959095558a8152600784528581208054938401815581528390209091018590558351928352908201879052929450869185917f23b0047c5c1f392c454f858542ddfb8143e48945b1a00e247308d5eb97164bc491015b60405180910390a45061083a60018055565b92915050565b606061084a612710565b838015806108585750808314155b156108765760405163512509d360e11b815260040160405180910390fd5b8067ffffffffffffffff81111561088f5761088f612b45565b6040519080825280602002602001820160405280156108b8578160200160208202803683370190505b50915060005b81811015610c665760008787838181106108da576108da612ce0565b90506020020135905060008686848181106108f7576108f7612ce0565b905060200201359050806000036109215760405163b4fa3fb360e01b815260040160405180910390fd5b6000828152600560205260409020541561094e576040516328f560bb60e21b815260040160405180910390fd5b60405163033fab3560e01b8152600481018390526000907f00000000000000000000000000000000000000000000000000000000000000006001600160a01b03169063033fab3590602401600060405180830381865afa1580156109b6573d6000803e3d6000fd5b505050506040513d6000823e601f3d908101601f191682016040526109de9190810190612c04565b50955050505050508015610a0557604051630e64a6df60e01b815260040160405180910390fd5b6040516331a9108f60e11b81526004810184905233906001600160a01b037f00000000000000000000000000000000000000000000000000000000000000001690636352211e90602401602060405180830381865afa158015610a6c573d6000803e3d6000fd5b505050506040513d601f19601f82011682018060405250810190610a909190612b28565b6001600160a01b031614610ab757604051635ec8235160e01b815260040160405180910390fd5b6040516323b872dd60e01b81526001600160a01b037f000000000000000000000000000000000000000000000000000000000000000016906323b872dd90610b0790339030908890600401612cf6565b600060405180830381600087803b158015610b2157600080fd5b505af1158015610b35573d6000803e3d6000fd5b505050506000600260008154610b4a90612cc7565b91829055506040805160c081018252828152602080820188815233838501908152606084018981526001608086018181524260a0880190815260008a815260048089528a822099518a5596519389019390935593516002880180546001600160a01b0319166001600160a01b03909216919091179055915160038701559051928501805460ff191693151593909317909255516005938401558881529190522081905587519091508190889087908110610c0657610c06612ce0565b602002602001018181525050336001600160a01b031684827f8b84647ec667515d9ce59e74ab9bb64476ec404345ebb9dfc3ea275bb6d8ee9b86604051610c4f91815260200190565b60405180910390a4846001019450505050506108be565b507f70608f6926c693d75f1df912dc44ba6bbd9384d7d6b6e6f01f29089e3760ec48828787604051610c9a93929190612d4c565b60405180910390a150610cac60018055565b949350505050565b610cbc612710565b60008181526004602052604081208054909103610cec5760405163665c1c5760e01b815260040160405180910390fd5b600481015460ff16610d1157604051634065aaf160e11b815260040160405180910390fd5b60028101546001600160a01b03163314610d3e57604051635ec8235160e01b815260040160405180910390fd5b6004808201805460ff19169055600182018054600090815260056020526040808220919091556002840154915490516323b872dd60e01b81526001600160a01b037f00000000000000000000000000000000000000000000000000000000000000008116946323b872dd94610dbb94309491909316929101612cf6565b600060405180830381600087803b158015610dd557600080fd5b505af1158015610de9573d6000803e3d6000fd5b505050508060010154827f3de5f6c6d480b0ed131d7db9d21b7e79660e349d57b37f688bcc0000352fb34d60405160405180910390a350610e2960018055565b50565b6000610e36612710565b81600003610e575760405163b4fa3fb360e01b815260040160405180910390fd5b60008381526005602052604090205415610e84576040516328f560bb60e21b815260040160405180910390fd5b60405163033fab3560e01b8152600481018490526000907f00000000000000000000000000000000000000000000000000000000000000006001600160a01b03169063033fab3590602401600060405180830381865afa158015610eec573d6000803e3d6000fd5b505050506040513d6000823e601f3d908101601f19168201604052610f149190810190612c04565b50955050505050508015610f3b57604051630e64a6df60e01b815260040160405180910390fd5b6040516331a9108f60e11b81526004810185905233906001600160a01b037f00000000000000000000000000000000000000000000000000000000000000001690636352211e90602401602060405180830381865afa158015610fa2573d6000803e3d6000fd5b505050506040513d601f19601f82011682018060405250810190610fc69190612b28565b6001600160a01b031614610fed57604051635ec8235160e01b815260040160405180910390fd5b6040516323b872dd60e01b81526001600160a01b037f000000000000000000000000000000000000000000000000000000000000000016906323b872dd9061103d90339030908990600401612cf6565b600060405180830381600087803b15801561105757600080fd5b505af115801561106b573d6000803e3d6000fd5b5050505060026000815461107e90612cc7565b91829055506040805160c081018252828152602080820188815233838501818152606085018a81526001608087018181524260a0890190815260008b81526004808a528b82209a518b559751938a019390935593516002890180546001600160a01b0319166001600160a01b03909216919091179055915160038801559051938601805460ff19169415159490941790935551600594850155898252928252839020849055915186815292945091869185917f8b84647ec667515d9ce59e74ab9bb64476ec404345ebb9dfc3ea275bb6d8ee9b9101610828565b6111606127b7565b50600090815260066020818152604092839020835160e0810185528154815260018201549281019290925260028101546001600160a01b0316938201939093526003830154606082015260048301546080820152600583015460ff16151560a082015291015460c082015290565b6111d6612710565b8060008190036111f95760405163b4fa3fb360e01b815260040160405180910390fd5b60005b8181101561139357600084848381811061121857611218612ce0565b6020908102929092013560008181526004909352604083208054919450920390506112565760405163665c1c5760e01b815260040160405180910390fd5b600481015460ff1661127b57604051634065aaf160e11b815260040160405180910390fd5b60028101546001600160a01b031633146112a857604051635ec8235160e01b815260040160405180910390fd5b6004808201805460ff19169055600182018054600090815260056020526040808220919091556002840154915490516323b872dd60e01b81526001600160a01b037f00000000000000000000000000000000000000000000000000000000000000008116946323b872dd9461132594309491909316929101612cf6565b600060405180830381600087803b15801561133f57600080fd5b505af1158015611353573d6000803e3d6000fd5b505050508060010154827f3de5f6c6d480b0ed131d7db9d21b7e79660e349d57b37f688bcc0000352fb34d60405160405180910390a350506001016111fc565b507f205a3e01da90a49d9503b20ce5f4a47667bfaaf11714e6d8f57c9fdaec424fa783836040516113c5929190612d7c565b60405180910390a1506113d760018055565b5050565b6060600060015b600354811161142f576000818152600660205260409020600201546001600160a01b0380861691160361141d578161141981612cc7565b9250505b8061142781612cc7565b9150506113e2565b508067ffffffffffffffff81111561144957611449612b45565b60405190808252806020026020018201604052801561148257816020015b61146f6127b7565b8152602001906001900390816114675790505b509150600060015b600354811161155c576000818152600660205260409020600201546001600160a01b0380871691160361154a57600081815260066020818152604092839020835160e0810185528154815260018201549281019290925260028101546001600160a01b0316938201939093526003830154606082015260048301546080820152600583015460ff16151560a082015291015460c0820152848361152c81612cc7565b94508151811061153e5761153e612ce0565b60200260200101819052505b8061155481612cc7565b91505061148a565b505050919050565b61156c612710565b6000818152600460205260408120805490910361159c5760405163665c1c5760e01b815260040160405180910390fd5b600481015460ff166115c157604051634065aaf160e11b815260040160405180910390fd5b806003015434146115e55760405163b4fa3fb360e01b815260040160405180910390fd5b6001810154600382015460405163152a902d60e11b81526004810192909252602482015260009081906001600160a01b037f00000000000000000000000000000000000000000000000000000000000000001690632a55205a906044016040805180830381865afa15801561165e573d6000803e3d6000fd5b505050506040513d601f19601f820116820180604052508101906116829190612d90565b600385015491935091506001600160a01b038316158015906116a45750600082115b80156116b4575083600301548211155b15611741578184600301546116c99190612dbe565b90506000836001600160a01b03168360405160006040518083038185875af1925050503d8060008114611718576040519150601f19603f3d011682016040523d82523d6000602084013e61171d565b606091505b505090508061173f576040516312171d8360e31b815260040160405180910390fd5b505b60028401546040516000916001600160a01b03169083908381818185875af1925050503d8060008114611790576040519150601f19603f3d011682016040523d82523d6000602084013e611795565b606091505b50509050806117b7576040516312171d8360e31b815260040160405180910390fd5b60018501546040516323b872dd60e01b81526001600160a01b037f000000000000000000000000000000000000000000000000000000000000000016916323b872dd9161180b913091339190600401612cf6565b600060405180830381600087803b15801561182557600080fd5b505af1158015611839573d6000803e3d6000fd5b5050505060048501805460ff191690556001850180546000908152600560209081526040808320929092556002880154925460038901548351338152928301526001600160a01b038881168385015260608301889052925192909316929189917feea9812fe16e2091f92a02e46a1488a162bc0f229203b46d16b870e1b39ec6ff919081900360800190a45050505050610e2960018055565b6118da61273a565b6118e46000612767565b565b806000036119075760405163b4fa3fb360e01b815260040160405180910390fd5b600082815260046020526040812080549091036119375760405163665c1c5760e01b815260040160405180910390fd5b600481015460ff1661195c57604051634065aaf160e11b815260040160405180910390fd5b60028101546001600160a01b0316331461198957604051635ec8235160e01b815260040160405180910390fd5b60038101805490839055604080518281526020810185905285917f15819dd2fd9f6418b142e798d08a18d0bf06ea368f4480b7b0d3f75bd966bc48910160405180910390a250505050565b6000818152600760209081526040808320805482518185028101850190935280835260609493830182828015611a2957602002820191906000526020600020905b815481526020019060010190808311611a15575b505050505090506000805b8251811015611b025760066000848381518110611a5357611a53612ce0565b60209081029190910181015182528101919091526040016000206005015460ff168015611ae7575060066000848381518110611a9157611a91612ce0565b602002602001015181526020019081526020016000206004015460001480611ae757504260066000858481518110611acb57611acb612ce0565b6020026020010151815260200190815260200160002060040154115b15611afa5781611af681612cc7565b9250505b600101611a34565b508067ffffffffffffffff811115611b1c57611b1c612b45565b604051908082528060200260200182016040528015611b5557816020015b611b426127b7565b815260200190600190039081611b3a5790505b5092506000805b8351811015611c4d57600060066000868481518110611b7d57611b7d612ce0565b6020908102919091018101518252818101929092526040908101600020815160e0810183528154815260018201549381019390935260028101546001600160a01b0316918301919091526003810154606083015260048101546080830152600581015460ff1615801560a0840181905260069092015460c084015291925090611c15575060808101511580611c155750428160800151115b15611c4457808684611c2681612cc7565b955081518110611c3857611c38612ce0565b60200260200101819052505b50600101611b5c565b50505050919050565b6060600060015b6002548111611c9a576000818152600460208190526040909120015460ff1615611c88578160010191505b80611c9281612cc7565b915050611c5d565b508067ffffffffffffffff811115611cb457611cb4612b45565b604051908082528060200260200182016040528015611ced57816020015b611cda6127ff565b815260200190600190039081611cd25790505b509150600060015b6002548111611db3576000818152600460208190526040909120015460ff1615611da157600081815260046020818152604092839020835160c0810185528154815260018201549281019290925260028101546001600160a01b031693820193909352600383015460608201529082015460ff161515608082015260059091015460a08201528451859084908110611d8f57611d8f612ce0565b60200260200101819052508160010191505b80611dab81612cc7565b915050611cf5565b50505090565b60076020528160005260406000208181548110611dd557600080fd5b90600052602060002001600091509150505481565b6060600060015b6002548111611edd5760008181526004602081905260409091209081015460ff1615611eca57600181015460405163033fab3560e01b81526000916001600160a01b037f0000000000000000000000000000000000000000000000000000000000000000169163033fab3591611e6d9160040190815260200190565b600060405180830381865afa158015611e8a573d6000803e3d6000fd5b505050506040513d6000823e601f3d908101601f19168201604052611eb29190810190612c04565b5050505050509050858103611ec8578360010193505b505b5080611ed581612cc7565b915050611df1565b508067ffffffffffffffff811115611ef757611ef7612b45565b604051908082528060200260200182016040528015611f3057816020015b611f1d6127ff565b815260200190600190039081611f155790505b509150600060015b600254811161155c5760008181526004602081905260409091209081015460ff161561208057600181015460405163033fab3560e01b81526000916001600160a01b037f0000000000000000000000000000000000000000000000000000000000000000169163033fab3591611fb49160040190815260200190565b600060405180830381865afa158015611fd1573d6000803e3d6000fd5b505050506040513d6000823e601f3d908101601f19168201604052611ff99190810190612c04565b505050505050905086810361207e576040805160c081018252835481526001840154602082015260028401546001600160a01b03169181019190915260038301546060820152600483015460ff1615156080820152600583015460a0820152865187908690811061206c5761206c612ce0565b60200260200101819052508360010193505b505b508061208b81612cc7565b915050611f38565b61209b612710565b600081815260066020526040812080549091036120cb5760405163b4fa3fb360e01b815260040160405180910390fd5b600581015460ff166120f057604051634065aaf160e11b815260040160405180910390fd5b600481015415801590612107575042816004015411155b1561212557604051639cb1308760e01b815260040160405180910390fd5b60018101546040516331a9108f60e11b8152600481018290526000907f00000000000000000000000000000000000000000000000000000000000000006001600160a01b031690636352211e90602401602060405180830381865afa158015612192573d6000803e3d6000fd5b505050506040513d601f19601f820116820180604052508101906121b69190612b28565b90506001600160a01b03811633146121e157604051635ec8235160e01b815260040160405180910390fd5b60405163033fab3560e01b8152600481018390526000907f00000000000000000000000000000000000000000000000000000000000000006001600160a01b03169063033fab3590602401600060405180830381865afa158015612249573d6000803e3d6000fd5b505050506040513d6000823e601f3d908101601f191682016040526122719190810190612c04565b5095505050505050801561229857604051630e64a6df60e01b815260040160405180910390fd5b60008381526005602052604090205480156122d4576000818152600460208181526040808420909201805460ff19169055868352600590528120555b600385015460405163152a902d60e11b815260009182916001600160a01b037f00000000000000000000000000000000000000000000000000000000000000001691632a55205a91612333918a91600401918252602082015260400190565b6040805180830381865afa15801561234f573d6000803e3d6000fd5b505050506040513d601f19601f820116820180604052508101906123739190612d90565b600389015491935091506001600160a01b038316158015906123955750600082115b80156123a5575087600301548211155b15612432578188600301546123ba9190612dbe565b90506000836001600160a01b03168360405160006040518083038185875af1925050503d8060008114612409576040519150601f19603f3d011682016040523d82523d6000602084013e61240e565b606091505b5050905080612430576040516312171d8360e31b815260040160405180910390fd5b505b604051600090339083908381818185875af1925050503d8060008114612474576040519150601f19603f3d011682016040523d82523d6000602084013e612479565b606091505b505090508061249b576040516312171d8360e31b815260040160405180910390fd5b60028901546040516323b872dd60e01b81526001600160a01b037f00000000000000000000000000000000000000000000000000000000000000008116926323b872dd926124f192339216908d90600401612cf6565b600060405180830381600087803b15801561250b57600080fd5b505af115801561251f573d6000803e3d6000fd5b50505060058a01805460ff1916905550600289015460038a01546040518a928d927f537afea1137614386dde2e3f3f603a09e8ba6fbcd0a9d59b286a6f7e5fc93848926125799233926001600160a01b0390911691612cf6565b60405180910390a3505050505050505050610e2960018055565b61259b612710565b600081815260066020526040812080549091036125cb5760405163b4fa3fb360e01b815260040160405180910390fd5b600581015460ff166125f057604051634065aaf160e11b815260040160405180910390fd5b60028101546001600160a01b0316331461261d57604051630f147a5960e31b815260040160405180910390fd5b60058101805460ff19169055600381015460405160009133918381818185875af1925050503d806000811461266e576040519150601f19603f3d011682016040523d82523d6000602084013e612673565b606091505b5050905080612695576040516312171d8360e31b815260040160405180910390fd5b600182015460405184907fc3631089d86cf1fe0600bb8be145021dc1f4dbf1053ce815836f092d69cd9bdc90600090a35050610e2960018055565b6126d861273a565b6001600160a01b03811661270757604051631e4fbdf760e01b8152600060048201526024015b60405180910390fd5b610e2981612767565b60026001540361273357604051633ee5aeb560e01b815260040160405180910390fd5b6002600155565b6000546001600160a01b031633146118e45760405163118cdaa760e01b81523360048201526024016126fe565b600080546001600160a01b038381166001600160a01b0319831681178455604051919092169283917f8be0079c531659141344cd1fd0a4f28419497f9722a3daafe3b4186f6b6457e09190a35050565b6040518060e00160405280600081526020016000815260200160006001600160a01b031681526020016000815260200160008152602001600015158152602001600081525090565b6040518060c00160405280600081526020016000815260200160006001600160a01b0316815260200160008152602001600015158152602001600081525090565b6000806040838503121561285357600080fd5b50508035926020909101359150565b60008083601f84011261287457600080fd5b50813567ffffffffffffffff81111561288c57600080fd5b6020830191508360208260051b85010111156128a757600080fd5b9250929050565b600080600080604085870312156128c457600080fd5b843567ffffffffffffffff808211156128dc57600080fd5b6128e888838901612862565b9096509450602087013591508082111561290157600080fd5b5061290e87828801612862565b95989497509550505050565b60008151808452602080850194506020840160005b8381101561294b5781518752958201959082019060010161292f565b509495945050505050565b602081526000612969602083018461291a565b9392505050565b60006020828403121561298257600080fd5b5035919050565b80518252602080820151908301526040808201516001600160a01b031690830152606080820151908301526080808201519083015260a08082015115159083015260c090810151910152565b60e0810161083a8284612989565b600080602083850312156129f657600080fd5b823567ffffffffffffffff811115612a0d57600080fd5b612a1985828601612862565b90969095509350505050565b6001600160a01b0381168114610e2957600080fd5b600060208284031215612a4c57600080fd5b813561296981612a25565b6020808252825182820181905260009190848201906040850190845b81811015612a9957612a86838551612989565b9284019260e09290920191600101612a73565b50909695505050505050565b602080825282518282018190526000919060409081850190868401855b82811015612b1b578151805185528681015187860152858101516001600160a01b0316868601526060808201519086015260808082015115159086015260a0908101519085015260c09093019290850190600101612ac2565b5091979650505050505050565b600060208284031215612b3a57600080fd5b815161296981612a25565b634e487b7160e01b600052604160045260246000fd5b600082601f830112612b6c57600080fd5b815167ffffffffffffffff80821115612b8757612b87612b45565b604051601f8301601f19908116603f01168101908282118183101715612baf57612baf612b45565b8160405283815260209250866020858801011115612bcc57600080fd5b600091505b83821015612bee5785820183015181830184015290820190612bd1565b6000602085830101528094505050505092915050565b600080600080600080600060e0888a031215612c1f57600080fd5b87519650602088015195506040880151612c3881612a25565b606089015160808a0151919650945067ffffffffffffffff80821115612c5d57600080fd5b612c698b838c01612b5b565b945060a08a015191508115158214612c8057600080fd5b60c08a015191935080821115612c9557600080fd5b50612ca28a828b01612b5b565b91505092959891949750929550565b634e487b7160e01b600052601160045260246000fd5b600060018201612cd957612cd9612cb1565b5060010190565b634e487b7160e01b600052603260045260246000fd5b6001600160a01b039384168152919092166020820152604081019190915260600190565b81835260006001600160fb1b03831115612d3357600080fd5b8260051b80836020870137939093016020019392505050565b604081526000612d5f604083018661291a565b8281036020840152612d72818587612d1a565b9695505050505050565b602081526000610cac602083018486612d1a565b60008060408385031215612da357600080fd5b8251612dae81612a25565b6020939093015192949293505050565b8181038181111561083a5761083a612cb156fea2646970667358221220aad024611032e2eccc20f09ada9f7ac1223a29903a6fbe1006814f35c561a3c364736f6c63430008160033",
  "linkReferences": {},
  "deployedLinkReferences": {}
}