{
  "_format": "hh-sol-artifact-1",
  "contractName": "TicketFactory",
  "sourceName": "contracts/TicketFactory.sol",
  "abi": [
    {
      "inputs": [
        {
          "internalType": "address",
          "name": "nft",
          "type": "address"
        }
      ],
      "stateMutability": "nonpayable",
      "type": "constructor"
    },
    {
      "inputs": [],
      "name": "EventInactive",
      "type": "error"
    },
    {
      "inputs": [],
      "name": "EventNotLive",
      "type": "error"
    },
    {
      "inputs": [],
      "name": "IncorrectPayment",
      "type": "error"
    },
    {
      "inputs": [],
      "name": "InvalidEvent",
      "type": "error"
    },
    {
      "inputs": [],
      "name": "InvalidInput",
      "type": "error"
    },
    {
      "inputs": [],
      "name": "InvalidTicketType",
      "type": "error"
    },
    {
      "inputs": [],
      "name": "NotOrganizer",
      "type": "error"
    },
    {
      "inputs": [],
      "name": "NothingToWithdraw",
      "type": "error"
    },
    {
      "inputs": [
        {
          "internalType": "address",
          "name": "owner",
          "type": "address"
        }
      ],
      "name": "OwnableInvalidOwner",
      "type": "error"
    },
    {
      "inputs": [
        {
          "internalType": "address",
          "name": "account",
          "type": "address"
        }
      ],
      "name": "OwnableUnauthorizedAccount",
      "type": "error"
    },
    {
      "inputs": [],
      "name": "ReentrancyGuardReentrantCall",
      "type": "error"
    },
    {
      "inputs": [],
      "name": "SoldOut",
      "type": "error"
    },
    {
      "inputs": [],
      "name": "Unauthorized",
      "type": "error"
    },
    {
      "inputs": [],
      "name": "WithdrawalFailed",
      "type": "error"
    },
    {
      "anonymous": false,
      "inputs": [
        {
          "indexed": true,
          "internalType": "uint256",
          "name": "eventId",
          "type": "uint256"
        },
        {
          "indexed": true,
          "internalType": "address",
          "name": "organizer",
          "type": "address"
        },
        {
          "indexed": false,
          "internalType": "string",
          "name": "name",
          "type": "string"
        },
        {
          "indexed": false,
          "internalType": "uint256",
          "name": "startTime",
          "type": "uint256"
        },
        {
          "indexed": false,
          "internalType": "uint256",
          "name": "endTime",
          "type": "uint256"
        },
        {
          "indexed": false,
          "internalType": "uint256",
          "name": "totalSupply",
          "type": "uint256"
        },
        {
          "indexed": false,
          "internalType": "uint96",
          "name": "royaltyBps",
          "type": "uint96"
        }
      ],
      "name": "EventCreated",
      "type": "event"
    },
    {
      "anonymous": false,
      "inputs": [
        {
          "indexed": true,
          "internalType": "uint256",
          "name": "eventId",
          "type": "uint256"
        },
        {
          "indexed": false,
          "internalType": "bool",
          "name": "active",
          "type": "bool"
        }
      ],
      "name": "EventStatusToggled",
      "type": "event"
    },
    {
      "anonymous": false,
      "inputs": [
        {
          "indexed": true,
          "internalType": "uint256",
          "name": "eventId",
          "type": "uint256"
        },
        {
          "indexed": true,
          "internalType": "address",
          "name": "organizer",
          "type": "address"
        },
        {
          "indexed": false,
          "internalType": "uint256",
          "name": "amount",
          "type": "uint256"
        },
        {
          "indexed": false,
          "internalType": "address",
          "name": "to",
          "type": "address"
        }
      ],
      "name": "FundsWithdrawn",
      "type": "event"
    },
    {
      "anonymous": false,
      "inputs": [
        {
          "indexed": true,
          "internalType": "address",
          "name": "nft",
          "type": "address"
        }
      ],
      "name": "NFTContractUpdated",
      "type": "event"
    },
    {
      "anonymous": false,
      "inputs": [
        {
          "indexed": true,
          "internalType": "address",
          "name": "previousOwner",
          "type": "address"
        },
        {
          "indexed": true,
          "internalType": "address",
          "name": "newOwner",
          "type": "address"
        }
      ],
      "name": "OwnershipTransferred",
      "type": "event"
    },
    {
      "anonymous": false,
      "inputs": [
        {
          "indexed": true,
          "internalType": "uint256",
          "name": "eventId",
          "type": "uint256"
        },
        {
          "indexed": true,
          "internalType": "uint256",
          "name": "ticketTypeId",
          "type": "uint256"
        },
        {
          "indexed": true,
          "internalType": "uint256",
          "name": "tokenId",
          "type": "uint256"
        },
        {
          "indexed": false,
          "internalType": "address",
          "name": "buyer",
          "type": "address"
        },
        {
          "indexed": false,
          "internalType": "uint256",
          "name": "price",
          "type": "uint256"
        }
      ],
      "name": "TicketPurchased",
      "type": "event"
    },
    {
      "anonymous": false,
      "inputs": [
        {
          "indexed": true,
          "internalType": "uint256",
          "name": "eventId",
          "type": "uint256"
        },
        {
          "indexed": true,
          "internalType": "uint256",
          "name": "ticketTypeId",
          "type": "uint256"
        },
        {
          "indexed": false,
          "internalType": "string",
          "name": "name",
          "type": "string"
        },
        {
          "indexed": false,
          "internalType": "uint256",
          "name": "price",
          "type": "uint256"
        },
        {
          "indexed": false,
          "internalType": "uint256",
          "name": "supply",
          "type": "uint256"
        }
      ],
      "name": "TicketTypeAdded",
      "type": "event"
    },
    {
      "stateMutability": "payable",
      "type": "fallback"
    },
    {
      "inputs": [
        {
          "internalType": "uint256",
          "name": "eventId",
          "type": "uint256"
        },
        {
          "internalType": "string",
          "name": "name_",
          "type": "string"
        },
        {
          "internalType": "uint256",
          "name": "price_",
          "type": "uint256"
        },
        {
          "internalType": "uint256",
          "name": "supply_",
          "type": "uint256"
        }
      ],
      "name": "addTicketType",
      "outputs": [
        {
          "internalType": "uint256",
          "name": "ticketTypeId",
          "type": "uint256"
        }
      ],
      "stateMutability": "nonpayable",
      "type": "function"
    },
    {
      "inputs": [
        {
          "internalType": "string",
          "name": "name_",
          "type": "string"
        },
        {
          "internalType": "string",
          "name": "description_",
          "type": "string"
        },
        {
          "internalType": "uint256",
          "name": "startTime_",
          "type": "uint256"
        },
        {
          "internalType": "uint256",
          "name": "endTime_",
          "type": "uint256"
        },
        {
          "internalType": "string",
          "name": "venue_",
          "type": "string"
        },
        {
          "internalType": "string",
          "name": "imageIpfsHash_",
          "type": "string"
        },
        {
          "internalType": "uint256",
          "name": "totalSupply_",
          "type": "uint256"
        },
        {
          "internalType": "uint96",
          "name": "royaltyBps_",
          "type": "uint96"
        },
        {
          "components": [
            {
              "internalType": "string",
              "name": "name",
              "type": "string"
            },
            {
              "internalType": "uint256",
              "name": "price",
              "type": "uint256"
            },
            {
              "internalType": "uint256",
              "name": "supply",
              "type": "uint256"
            }
          ],
          "internalType": "struct TicketFactory.TicketTypeInput[]",
          "name": "initialTicketTypes_",
          "type": "tuple[]"
        }
      ],
      "name": "createEvent",
      "outputs": [
        {
          "internalType": "uint256",
          "name": "eventId",
          "type": "uint256"
        }
      ],
      "stateMutability": "nonpayable",
      "type": "function"
    },
    {
      "inputs": [],
      "name": "eventCounter",
      "outputs": [
        {
          "internalType": "uint256",
          "name": "",
          "type": "uint256"
        }
      ],
      "stateMutability": "view",
      "type": "function"
    },
    {
      "inputs": [
        {
          "internalType": "uint256",
          "name": "",
          "type": "uint256"
        }
      ],
      "name": "eventProceedsNative",
      "outputs": [
        {
          "internalType": "uint256",
          "name": "",
          "type": "uint256"
        }
      ],
      "stateMutability": "view",
      "type": "function"
    },
    {
      "inputs": [
        {
          "internalType": "uint256",
          "name": "",
          "type": "uint256"
        }
      ],
      "name": "events",
      "outputs": [
        {
          "internalType": "uint256",
          "name": "eventId",
          "type": "uint256"
        },
        {
          "internalType": "address",
          "name": "organizer",
          "type": "address"
        },
        {
          "internalType": "string",
          "name": "name",
          "type": "string"
        },
        {
          "internalType": "string",
          "name": "description",
          "type": "string"
        },
        {
          "internalType": "uint256",
          "name": "startTime",
          "type": "uint256"
        },
        {
          "internalType": "uint256",
          "name": "endTime",
          "type": "uint256"
        },
        {
          "internalType": "string",
          "name": "venue",
          "type": "string"
        },
        {
          "internalType": "string",
          "name": "imageIpfsHash",
          "type": "string"
        },
        {
          "internalType": "uint256",
          "name": "totalSupply",
          "type": "uint256"
        },
        {
          "internalType": "uint256",
          "name": "sold",
          "type": "uint256"
        },
        {
          "internalType": "bool",
          "name": "active",
          "type": "bool"
        },
        {
          "internalType": "uint96",
          "name": "royaltyBps",
          "type": "uint96"
        }
      ],
      "stateMutability": "view",
      "type": "function"
    },
    {
      "inputs": [
        {
          "internalType": "uint256",
          "name": "eventId",
          "type": "uint256"
        }
      ],
      "name": "getEvent",
      "outputs": [
        {
          "components": [
            {
              "internalType": "uint256",
              "name": "eventId",
              "type": "uint256"
            },
            {
              "internalType": "address",
              "name": "organizer",
              "type": "address"
            },
            {
              "internalType": "string",
              "name": "name",
              "type": "string"
            },
            {
              "internalType": "string",
              "name": "description",
              "type": "string"
            },
            {
              "internalType": "uint256",
              "name": "startTime",
              "type": "uint256"
            },
            {
              "internalType": "uint256",
              "name": "endTime",
              "type": "uint256"
            },
            {
              "internalType": "string",
              "name": "venue",
              "type": "string"
            },
            {
              "internalType": "string",
              "name": "imageIpfsHash",
              "type": "string"
            },
            {
              "internalType": "uint256",
              "name": "totalSupply",
              "type": "uint256"
            },
            {
              "internalType": "uint256",
              "name": "sold",
              "type": "uint256"
            },
            {
              "internalType": "bool",
              "name": "active",
              "type": "bool"
            },
            {
              "internalType": "uint96",
              "name": "royaltyBps",
              "type": "uint96"
            }
          ],
          "internalType": "struct TicketFactory.EventData",
          "name": "",
          "type": "tuple"
        }
      ],
      "stateMutability": "view",
      "type": "function"
    },
    {
      "inputs": [
        {
          "internalType": "uint256[]",
          "name": "eventIds",
          "type": "uint256[]"
        }
      ],
      "name": "getEventsBatch",
      "outputs": [
        {
          "components": [
            {
              "internalType": "uint256",
              "name": "eventId",
              "type": "uint256"
            },
            {
              "internalType": "address",
              "name": "organizer",
              "type": "address"
            },
            {
              "internalType": "string",
              "name": "name",
              "type": "string"
            },
            {
              "internalType": "string",
              "name": "description",
              "type": "string"
            },
            {
              "internalType": "uint256",
              "name": "startTime",
              "type": "uint256"
            },
            {
              "internalType": "uint256",
              "name": "endTime",
              "type": "uint256"
            },
            {
              "internalType": "string",
              "name": "venue",
              "type": "string"
            },
            {
              "internalType": "string",
              "name": "imageIpfsHash",
              "type": "string"
            },
            {
              "internalType": "uint256",
              "name": "totalSupply",
              "type": "uint256"
            },
            {
              "internalType": "uint256",
              "name": "sold",
              "type": "uint256"
            },
            {
              "internalType": "bool",
              "name": "active",
              "type": "bool"
            },
            {
              "internalType": "uint96",
              "name": "royaltyBps",
              "type": "uint96"
            }
          ],
          "internalType": "struct TicketFactory.EventData[]",
          "name": "eventsData",
          "type": "tuple[]"
        },
        {
          "internalType": "bool[]",
          "name": "validFlags",
          "type": "bool[]"
        }
      ],
      "stateMutability": "view",
      "type": "function"
    },
    {
      "inputs": [
        {
          "internalType": "address",
          "name": "organizer",
          "type": "address"
        }
      ],
      "name": "getOrganizerEvents",
      "outputs": [
        {
          "internalType": "uint256[]",
          "name": "",
          "type": "uint256[]"
        }
      ],
      "stateMutability": "view",
      "type": "function"
    },
    {
      "inputs": [
        {
          "internalType": "uint256",
          "name": "eventId",
          "type": "uint256"
        }
      ],
      "name": "getTicketTypes",
      "outputs": [
        {
          "components": [
            {
              "internalType": "uint256",
              "name": "eventId",
              "type": "uint256"
            },
            {
              "internalType": "string",
              "name": "name",
              "type": "string"
            },
            {
              "internalType": "uint256",
              "name": "price",
              "type": "uint256"
            },
            {
              "internalType": "uint256",
              "name": "supply",
              "type": "uint256"
            },
            {
              "internalType": "uint256",
              "name": "sold",
              "type": "uint256"
            }
          ],
          "internalType": "struct TicketFactory.TicketType[]",
          "name": "",
          "type": "tuple[]"
        }
      ],
      "stateMutability": "view",
      "type": "function"
    },
    {
      "inputs": [
        {
          "internalType": "uint256[]",
          "name": "eventIds",
          "type": "uint256[]"
        }
      ],
      "name": "getTicketTypesBatch",
      "outputs": [
        {
          "components": [
            {
              "internalType": "uint256",
              "name": "eventId",
              "type": "uint256"
            },
            {
              "internalType": "string",
              "name": "name",
              "type": "string"
            },
            {
              "internalType": "uint256",
              "name": "price",
              "type": "uint256"
            },
            {
              "internalType": "uint256",
              "name": "supply",
              "type": "uint256"
            },
            {
              "internalType": "uint256",
              "name": "sold",
              "type": "uint256"
            }
          ],
          "internalType": "struct TicketFactory.TicketType[][]",
          "name": "ticketTypesArray",
          "type": "tuple[][]"
        }
      ],
      "stateMutability": "view",
      "type": "function"
    },
    {
      "inputs": [],
      "name": "owner",
      "outputs": [
        {
          "internalType": "address",
          "name": "",
          "type": "address"
        }
      ],
      "stateMutability": "view",
      "type": "function"
    },
    {
      "inputs": [
        {
          "internalType": "uint256",
          "name": "eventId",
          "type": "uint256"
        },
        {
          "internalType": "uint256",
          "name": "ticketTypeId",
          "type": "uint256"
        }
      ],
      "name": "purchaseTicket",
      "outputs": [
        {
          "internalType": "uint256",
          "name": "tokenId",
          "type": "uint256"
        }
      ],
      "stateMutability": "payable",
      "type": "function"
    },
    {
      "inputs": [
        {
          "internalType": "uint256",
          "name": "eventId",
          "type": "uint256"
        },
        {
          "internalType": "uint256",
          "name": "ticketTypeId",
          "type": "uint256"
        },
        {
          "internalType": "string",
          "name": "tokenURI_",
          "type": "string"
        }
      ],
      "name": "purchaseTicketWithURI",
      "outputs": [
        {
          "internalType": "uint256",
          "name": "tokenId",
          "type": "uint256"
        }
      ],
      "stateMutability": "payable",
      "type": "function"
    },
    {
      "inputs": [
        {
          "internalType": "uint256",
          "name": "eventId",
          "type": "uint256"
        },
        {
          "internalType": "uint256",
          "name": "ticketTypeId",
          "type": "uint256"
        },
        {
          "internalType": "uint256",
          "name": "quantity",
          "type": "uint256"
        }
      ],
      "name": "purchaseTickets",
      "outputs": [
        {
          "internalType": "uint256[]",
          "name": "tokenIds",
          "type": "uint256[]"
        }
      ],
      "stateMutability": "payable",
      "type": "function"
    },
    {
      "inputs": [],
      "name": "renounceOwnership",
      "outputs": [],
      "stateMutability": "nonpayable",
      "type": "function"
    },
    {
      "inputs": [
        {
          "internalType": "address",
          "name": "nft",
          "type": "address"
        }
      ],
      "name": "setTicketNFT",
      "outputs": [],
      "stateMutability": "nonpayable",
      "type": "function"
    },
    {
      "inputs": [
        {
          "internalType": "uint256",
          "name": "tokenId",
          "type": "uint256"
        },
        {
          "internalType": "string",
          "name": "tokenURI_",
          "type": "string"
        }
      ],
      "name": "setTicketURI",
      "outputs": [],
      "stateMutability": "nonpayable",
      "type": "function"
    },
    {
      "inputs": [
        {
          "internalType": "uint256[]",
          "name": "tokenIds",
          "type": "uint256[]"
        },
        {
          "internalType": "string[]",
          "name": "tokenURIs",
          "type": "string[]"
        }
      ],
      "name": "setTicketURIBatch",
      "outputs": [],
      "stateMutability": "nonpayable",
      "type": "function"
    },
    {
      "inputs": [],
      "name": "ticketNFT",
      "outputs": [
        {
          "internalType": "contract TicketNFT",
          "name": "",
          "type": "address"
        }
      ],
      "stateMutability": "view",
      "type": "function"
    },
    {
      "inputs": [
        {
          "internalType": "uint256",
          "name": "eventId",
          "type": "uint256"
        }
      ],
      "name": "toggleEventStatus",
      "outputs": [],
      "stateMutability": "nonpayable",
      "type": "function"
    },
    {
      "inputs": [
        {
          "internalType": "address",
          "name": "newOwner",
          "type": "address"
        }
      ],
      "name": "transferOwnership",
      "outputs": [],
      "stateMutability": "nonpayable",
      "type": "function"
    },
    {
      "inputs": [
        {
          "internalType": "uint256",
          "name": "eventId",
          "type": "uint256"
        },
        {
          "internalType": "uint256",
          "name": "tokenId",
          "type": "uint256"
        }
      ],
      "name": "validateTicket",
      "outputs": [],
      "stateMutability": "nonpayable",
      "type": "function"
    },
    {
      "inputs": [
        {
          "internalType": "uint256",
          "name": "eventId",
          "type": "uint256"
        },
        {
          "internalType": "address payable",
          "name": "to",
          "type": "address"
        }
      ],
      "name": "withdrawFunds",
      "outputs": [],
      "stateMutability": "nonpayable",
      "type": "function"
    },
    {
      "stateMutability": "payable",
      "type": "receive"
    }
  ],
  "bytecode": "0x60806040523480156200001157600080fd5b5060405162003abd38038062003abd833981016040819052620000349162000131565b33806200005b57604051631e4fbdf760e01b81526000600482015260240160405180910390fd5b6200006681620000e1565b50600180556001600160a01b038116620000935760405163b4fa3fb360e01b815260040160405180910390fd5b600780546001600160a01b0319166001600160a01b0383169081179091556040517ff2610996d245d9b77e4ff84c2174eea0b76fb44c422218404f66e28816d78fb990600090a25062000163565b600080546001600160a01b038381166001600160a01b0319831681178455604051919092169283917f8be0079c531659141344cd1fd0a4f28419497f9722a3daafe3b4186f6b6457e09190a35050565b6000602082840312156200014457600080fd5b81516001600160a01b03811681146200015c57600080fd5b9392505050565b61394a80620001736000396000f3fe6080604052600436106101385760003560e01c80636bb03a87116100b05780638da5cb5b1161006c5780638da5cb5b146103b0578063b393391b146103e2578063bdbbb0cb14610402578063e13102e914610415578063f2fde38b14610435578063ff9f59701461045557005b80636bb03a87146102e15780636c7a4417146103015780636d1884e014610321578063715018a61461034e5780637241398714610363578063744bfe611461039057005b8063392d399b116100ff578063392d399b1461022b5780634653db161461024b5780634d0ada621461026b57806352c55db91461028b57806357d802bd146102a15780636ade389b146102c157005b8063036cc05814610141578063049a5d57146101785780630b791430146101b35780631b21c2c4146101eb578063364c6941146101fe57005b3661013f57005b005b34801561014d57600080fd5b5061016161015c366004612aae565b610475565b60405161016f929190612c1f565b60405180910390f35b34801561018457600080fd5b506101a5610193366004612cbc565b60066020526000908152604090205481565b60405190815260200161016f565b3480156101bf57600080fd5b506101d36101ce366004612cbc565b610898565b60405161016f9c9b9a99989796959493929190612cd5565b6101a56101f9366004612e74565b610b2b565b34801561020a57600080fd5b5061021e610219366004612cbc565b610ba2565b60405161016f9190612f4f565b61023e610239366004612f69565b610cf3565b60405161016f9190612f95565b34801561025757600080fd5b506101a5610266366004612fd9565b610d35565b34801561027757600080fd5b5061013f61028636600461302f565b610ec4565b34801561029757600080fd5b506101a560055481565b3480156102ad57600080fd5b5061013f6102bc36600461309a565b611168565b3480156102cd57600080fd5b5061013f6102dc3660046130d1565b6112d0565b3480156102ed57600080fd5b5061013f6102fc3660046130ee565b611349565b34801561030d57600080fd5b506101a561031c366004613235565b61151b565b34801561032d57600080fd5b5061034161033c366004612cbc565b6118ba565b60405161016f9190613334565b34801561035a57600080fd5b5061013f611bc1565b34801561036f57600080fd5b5061038361037e366004612aae565b611bd5565b60405161016f9190613347565b34801561039c57600080fd5b5061013f6103ab3660046133ab565b611e29565b3480156103bc57600080fd5b506000546001600160a01b03165b6040516001600160a01b03909116815260200161016f565b3480156103ee57600080fd5b506007546103ca906001600160a01b031681565b6101a561041036600461309a565b611fd8565b34801561042157600080fd5b5061013f610430366004612cbc565b612034565b34801561044157600080fd5b5061013f6104503660046130d1565b612102565b34801561046157600080fd5b5061023e6104703660046130d1565b612145565b606080826001600160401b0381111561049057610490612d89565b6040519080825280602002602001820160405280156104c957816020015b6104b66129ee565b8152602001906001900390816104ae5790505b509150826001600160401b038111156104e4576104e4612d89565b60405190808252806020026020018201604052801561050d578160200160208202803683370190505b50905060005b8381101561089057600085858381811061052f5761052f6133db565b90506020020135905060008111801561054a57506005548111155b15610862576000818152600260208181526040928390208351610180810185528154815260018201546001600160a01b03169281019290925291820180549193840191610596906133f1565b80601f01602080910402602001604051908101604052809291908181526020018280546105c2906133f1565b801561060f5780601f106105e45761010080835404028352916020019161060f565b820191906000526020600020905b8154815290600101906020018083116105f257829003601f168201915b50505050508152602001600382018054610628906133f1565b80601f0160208091040260200160405190810160405280929190818152602001828054610654906133f1565b80156106a15780601f10610676576101008083540402835291602001916106a1565b820191906000526020600020905b81548152906001019060200180831161068457829003601f168201915b5050505050815260200160048201548152602001600582015481526020016006820180546106ce906133f1565b80601f01602080910402602001604051908101604052809291908181526020018280546106fa906133f1565b80156107475780601f1061071c57610100808354040283529160200191610747565b820191906000526020600020905b81548152906001019060200180831161072a57829003601f168201915b50505050508152602001600782018054610760906133f1565b80601f016020809104026020016040519081016040528092919081815260200182805461078c906133f1565b80156107d95780601f106107ae576101008083540402835291602001916107d9565b820191906000526020600020905b8154815290600101906020018083116107bc57829003601f168201915b50505091835250506008820154602082015260098201546040820152600a9091015460ff81161515606083015261010090046001600160601b0316608090910152845185908490811061082e5761082e6133db565b6020026020010181905250600183838151811061084d5761084d6133db565b91151560209283029190910190910152610887565b6000838381518110610876576108766133db565b911515602092830291909101909101525b50600101610513565b509250929050565b600260208190526000918252604090912080546001820154928201805491936001600160a01b031692916108cb906133f1565b80601f01602080910402602001604051908101604052809291908181526020018280546108f7906133f1565b80156109445780601f1061091957610100808354040283529160200191610944565b820191906000526020600020905b81548152906001019060200180831161092757829003601f168201915b505050505090806003018054610959906133f1565b80601f0160208091040260200160405190810160405280929190818152602001828054610985906133f1565b80156109d25780601f106109a7576101008083540402835291602001916109d2565b820191906000526020600020905b8154815290600101906020018083116109b557829003601f168201915b5050505050908060040154908060050154908060060180546109f3906133f1565b80601f0160208091040260200160405190810160405280929190818152602001828054610a1f906133f1565b8015610a6c5780601f10610a4157610100808354040283529160200191610a6c565b820191906000526020600020905b815481529060010190602001808311610a4f57829003601f168201915b505050505090806007018054610a81906133f1565b80601f0160208091040260200160405190810160405280929190818152602001828054610aad906133f1565b8015610afa5780601f10610acf57610100808354040283529160200191610afa565b820191906000526020600020905b815481529060010190602001808311610add57829003601f168201915b5050505060088301546009840154600a909401549293909290915060ff81169061010090046001600160601b03168c565b600083801580610b3c575060055481115b15610b5a5760405163afb6a7d160e01b815260040160405180910390fd5b610b626121b1565b8251600003610b845760405163b4fa3fb360e01b815260040160405180910390fd5b610b8f8585856121db565b9150610b9a60018055565b509392505050565b606081801580610bb3575060055481115b15610bd15760405163afb6a7d160e01b815260040160405180910390fd5b600083815260036020908152604080832080548251818502810185019093528083529193909284015b82821015610ce657838290600052602060002090600502016040518060a001604052908160008201548152602001600182018054610c37906133f1565b80601f0160208091040260200160405190810160405280929190818152602001828054610c63906133f1565b8015610cb05780601f10610c8557610100808354040283529160200191610cb0565b820191906000526020600020905b815481529060010190602001808311610c9357829003601f168201915b50505050508152602001600282015481526020016003820154815260200160048201548152505081526020019060010190610bfa565b5050505091505b50919050565b606083801580610d04575060055481115b15610d225760405163afb6a7d160e01b815260040160405180910390fd5b610d2a6121b1565b610b8f858585612480565b600084801580610d46575060055481115b15610d645760405163afb6a7d160e01b815260040160405180910390fd5b60008681526002602052604090206001015486906001600160a01b03163314610da0576040516323d03a7160e21b815260040160405180910390fd5b85511580610dac575084155b80610db5575083155b15610dd35760405163b4fa3fb360e01b815260040160405180910390fd5b6040805160a0810182528881526020808201898152828401899052606083018890526000608084018190528b815260038352938420805460018181018355918652929094208351600590930201918255519192839290820190610e369082613476565b5060408201518160020155606082015181600301556080820151816004015550506001600360008a815260200190815260200160002080549050610e7a919061354b565b935083887f766363e141a90ab2ab87c4d5ab572d5df3ac4b4e6cd8228f13b6a56b02d8c5c6898989604051610eb19392919061355e565b60405180910390a3505050949350505050565b828114610ee45760405163b4fa3fb360e01b815260040160405180910390fd5b60005b8381101561116157828282818110610f0157610f016133db565b9050602002810190610f139190613583565b9050600003610f355760405163b4fa3fb360e01b815260040160405180910390fd5b6007546000906001600160a01b0316636352211e878785818110610f5b57610f5b6133db565b905060200201356040518263ffffffff1660e01b8152600401610f8091815260200190565b602060405180830381865afa158015610f9d573d6000803e3d6000fd5b505050506040513d601f19601f82011682018060405250810190610fc191906135c9565b6007549091506000906001600160a01b031663033fab35888886818110610fea57610fea6133db565b905060200201356040518263ffffffff1660e01b815260040161100f91815260200190565b600060405180830381865afa15801561102c573d6000803e3d6000fd5b505050506040513d6000823e601f3d908101601f191682016040526110549190810190613633565b5050505050509050816001600160a01b0316336001600160a01b03161415801561109857506000818152600260205260409020600101546001600160a01b03163314155b156110b5576040516282b42960e81b815260040160405180910390fd5b6007546001600160a01b031663162094c48888868181106110d8576110d86133db565b905060200201358787878181106110f1576110f16133db565b90506020028101906111039190613583565b6040518463ffffffff1660e01b8152600401611121939291906136df565b600060405180830381600087803b15801561113b57600080fd5b505af115801561114f573d6000803e3d6000fd5b505060019094019350610ee792505050565b5050505050565b81801580611177575060055481115b156111955760405163afb6a7d160e01b815260040160405180910390fd5b60008381526002602052604090206001015483906001600160a01b031633146111d1576040516323d03a7160e21b815260040160405180910390fd5b60075460405163033fab3560e01b8152600481018590526000916001600160a01b03169063033fab3590602401600060405180830381865afa15801561121b573d6000803e3d6000fd5b505050506040513d6000823e601f3d908101601f191682016040526112439190810190613633565b505050505050905084811461126b5760405163afb6a7d160e01b815260040160405180910390fd5b60075460405163054ae7df60e01b8152600481018690526001600160a01b039091169063054ae7df90602401600060405180830381600087803b1580156112b157600080fd5b505af11580156112c5573d6000803e3d6000fd5b505050505050505050565b6112d86127d7565b6001600160a01b0381166112ff5760405163b4fa3fb360e01b815260040160405180910390fd5b600780546001600160a01b0319166001600160a01b0383169081179091556040517ff2610996d245d9b77e4ff84c2174eea0b76fb44c422218404f66e28816d78fb990600090a250565b805160000361136b5760405163b4fa3fb360e01b815260040160405180910390fd5b6007546040516331a9108f60e11b8152600481018490526000916001600160a01b031690636352211e90602401602060405180830381865afa1580156113b5573d6000803e3d6000fd5b505050506040513d601f19601f820116820180604052508101906113d991906135c9565b60075460405163033fab3560e01b8152600481018690529192506000916001600160a01b039091169063033fab3590602401600060405180830381865afa158015611428573d6000803e3d6000fd5b505050506040513d6000823e601f3d908101601f191682016040526114509190810190613633565b5050505050509050816001600160a01b0316336001600160a01b03161415801561149457506000818152600260205260409020600101546001600160a01b03163314155b156114b1576040516282b42960e81b815260040160405180910390fd5b600754604051630588253160e21b81526001600160a01b039091169063162094c4906114e39087908790600401613715565b600060405180830381600087803b1580156114fd57600080fd5b505af1158015611511573d6000803e3d6000fd5b5050505050505050565b600089516000148061152c57508851155b8061153657508551155b8061154057508451155b80611549575083155b806115545750878711155b8061155d575087155b1561157b5760405163b4fa3fb360e01b815260040160405180910390fd5b60056000815461158a9061372e565b918290555060408051610180810182528281523360208083019182528284018f8152606084018f9052608084018e905260a084018d905260c084018c905260e084018b905261010084018a905260006101208501819052600161014086018190526001600160601b038b1661016087015287825260029384905295902084518155925194830180546001600160a01b0319166001600160a01b03909616959095179094559251939450909290918201906116449082613476565b50606082015160038201906116599082613476565b506080820151600482015560a0820151600582015560c082015160068201906116829082613476565b5060e082015160078201906116979082613476565b506101008281015160088301556101208301516009830155610140830151600a9092018054610160909401516001600160601b03169091026cffffffffffffffffffffffff0019921515929092166cffffffffffffffffffffffffff1990931692909217179055336000818152600460209081526040808320805460018101825590845291909220018390555182907f1d2ceb053f26b69e0921eacd1cc8550658eeeb72963f22fa59ee6c1f6866de139061175b908e908d908d908b908b90613747565b60405180910390a360005b82518110156118ac576000838281518110611783576117836133db565b60200260200101519050806000015151600014806117a357506020810151155b806117b057506040810151155b156117ce5760405163b4fa3fb360e01b815260040160405180910390fd5b6040805160a08101825284815282516020808301918252848101518385015284840151606084015260006080840181905287815260038252938420805460018181018355918652919094208351600590920201908155905191928392908201906118389082613476565b50604082015181600201556060820151816003015560808201518160040155505082847f766363e141a90ab2ab87c4d5ab572d5df3ac4b4e6cd8228f13b6a56b02d8c5c684600001518560200151866040015160405161189a9392919061355e565b60405180910390a35050600101611766565b509998505050505050505050565b6118c26129ee565b818015806118d1575060055481115b156118ef5760405163afb6a7d160e01b815260040160405180910390fd5b6000838152600260208181526040928390208351610180810185528154815260018201546001600160a01b03169281019290925291820180549193840191611936906133f1565b80601f0160208091040260200160405190810160405280929190818152602001828054611962906133f1565b80156119af5780601f10611984576101008083540402835291602001916119af565b820191906000526020600020905b81548152906001019060200180831161199257829003601f168201915b505050505081526020016003820180546119c8906133f1565b80601f01602080910402602001604051908101604052809291908181526020018280546119f4906133f1565b8015611a415780601f10611a1657610100808354040283529160200191611a41565b820191906000526020600020905b815481529060010190602001808311611a2457829003601f168201915b505050505081526020016004820154815260200160058201548152602001600682018054611a6e906133f1565b80601f0160208091040260200160405190810160405280929190818152602001828054611a9a906133f1565b8015611ae75780601f10611abc57610100808354040283529160200191611ae7565b820191906000526020600020905b815481529060010190602001808311611aca57829003601f168201915b50505050508152602001600782018054611b00906133f1565b80601f0160208091040260200160405190810160405280929190818152602001828054611b2c906133f1565b8015611b795780601f10611b4e57610100808354040283529160200191611b79565b820191906000526020600020905b815481529060010190602001808311611b5c57829003601f168201915b50505091835250506008820154602082015260098201546040820152600a9091015460ff81161515606083015261010090046001600160601b03166080909101529392505050565b611bc96127d7565b611bd36000612804565b565b6060816001600160401b03811115611bef57611bef612d89565b604051908082528060200260200182016040528015611c2257816020015b6060815260200190600190039081611c0d5790505b50905060005b82811015611e22576000848483818110611c4457611c446133db565b905060200201359050600081118015611c5f57506005548111155b15611d9f57600081815260036020908152604080832080548251818502810185019093528083529193909284015b82821015611d7957838290600052602060002090600502016040518060a001604052908160008201548152602001600182018054611cca906133f1565b80601f0160208091040260200160405190810160405280929190818152602001828054611cf6906133f1565b8015611d435780601f10611d1857610100808354040283529160200191611d43565b820191906000526020600020905b815481529060010190602001808311611d2657829003601f168201915b50505050508152602001600282015481526020016003820154815260200160048201548152505081526020019060010190611c8d565b50505050838381518110611d8f57611d8f6133db565b6020026020010181905250611e19565b6040805160008082526020820190925290611dfa565b611de76040518060a0016040528060008152602001606081526020016000815260200160008152602001600081525090565b815260200190600190039081611db55790505b50838381518110611e0d57611e0d6133db565b60200260200101819052505b50600101611c28565b5092915050565b81801580611e38575060055481115b15611e565760405163afb6a7d160e01b815260040160405180910390fd5b60008381526002602052604090206001015483906001600160a01b03163314611e92576040516323d03a7160e21b815260040160405180910390fd5b611e9a6121b1565b6001600160a01b038316611ec15760405163b4fa3fb360e01b815260040160405180910390fd5b60008481526006602052604081205490819003611ef157604051630686827b60e51b815260040160405180910390fd5b600085815260066020526040808220829055516001600160a01b0386169083908381818185875af1925050503d8060008114611f49576040519150601f19603f3d011682016040523d82523d6000602084013e611f4e565b606091505b5050905080611f82576000868152600660205260409081902083905580516327fcd9d160e01b815290519081900360040190fd5b604080518381526001600160a01b0387166020820152339188917f055bb353f6eed0f4f1c04d79fa1d7da64810bcda2a49af58c38a07b8fd5c9273910160405180910390a35050611fd260018055565b50505050565b600082801580611fe9575060055481115b156120075760405163afb6a7d160e01b815260040160405180910390fd5b61200f6121b1565b6120298484604051806020016040528060008152506121db565b9150611e2260018055565b80801580612043575060055481115b156120615760405163afb6a7d160e01b815260040160405180910390fd5b60008281526002602052604090206001015482906001600160a01b0316331461209d576040516323d03a7160e21b815260040160405180910390fd5b600083815260026020908152604091829020600a8101805460ff8082161560ff19909216821790925593519316151583529185917f7bf55962c040938ae847142ba749182d55a7f3c0caaa789bb20e70619f700e34910160405180910390a250505050565b61210a6127d7565b6001600160a01b03811661213957604051631e4fbdf760e01b8152600060048201526024015b60405180910390fd5b61214281612804565b50565b6001600160a01b0381166000908152600460209081526040918290208054835181840281018401909452808452606093928301828280156121a557602002820191906000526020600020905b815481526020019060010190808311612191575b50505050509050919050565b6002600154036121d457604051633ee5aeb560e01b815260040160405180910390fd5b6002600155565b6000838152600260205260408120600a81015460ff1661220e57604051639fe5276f60e01b815260040160405180910390fd5b806005015442111561223357604051636e10858d60e11b815260040160405180910390fd5b600085815260036020526040902054841061226157604051631c9447af60e11b815260040160405180910390fd5b6000858152600360205260408120805486908110612281576122816133db565b9060005260206000209060050201905080600301548160040154106122b9576040516352df9fe560e01b815260040160405180910390fd5b81600801548260090154106122e1576040516352df9fe560e01b815260040160405180910390fd5b806002015434146123055760405163569e8c1160e01b815260040160405180910390fd5b600481018054600190810190915560098301805490910190556000868152600660205260408120805434929061233c908490613787565b9250508190555060006040518060e00160405280888152602001878152602001336001600160a01b03168152602001348152602001612379612854565b815260006020808301829052604080519182018152918152918101919091526001850154600a860154600754925162aca1bd60e11b81529394506001600160a01b03918216936101009091046001600160601b0316929190911690630159437a906123f090339087908c908890889060040161380d565b6020604051808303816000875af115801561240f573d6000803e3d6000fd5b505050506040513d601f19601f820116820180604052508101906124339190613865565b6040805133815234602082015291975087918a918c917ffe7a8a160f28608c4d158798180f3638aa072dfc9c740e7ce564b3af4627cb5c910160405180910390a450505050509392505050565b6000838152600260205260409020600a8101546060919060ff166124b757604051639fe5276f60e01b815260040160405180910390fd5b80600501544211156124dc57604051636e10858d60e11b815260040160405180910390fd5b600085815260036020526040902054841061250a57604051631c9447af60e11b815260040160405180910390fd5b600085815260036020526040812080548690811061252a5761252a6133db565b90600052602060002090600502019050806003015484826004015461254f9190613787565b111561256e576040516352df9fe560e01b815260040160405180910390fd5b81600801548483600901546125839190613787565b11156125a2576040516352df9fe560e01b815260040160405180910390fd5b8381600201546125b2919061387e565b34146125d15760405163569e8c1160e01b815260040160405180910390fd5b600481018054850190556009820180548501905560008681526006602052604081208054349290612603908490613787565b909155508490506001600160401b0381111561262157612621612d89565b60405190808252806020026020018201604052801561264a578160200160208202803683370190505b506001830154600a8401549194506001600160a01b03169061010090046001600160601b031660005b868110156127cb5760006040518060e001604052808b81526020018a8152602001336001600160a01b03168152602001866002015481526020016126b5612854565b81526000602080830182905260408051918201815282825292830152600754915162aca1bd60e11b8152929350916001600160a01b0390911690630159437a9061270990339086908a908a90600401613895565b6020604051808303816000875af1158015612728573d6000803e3d6000fd5b505050506040513d601f19601f8201168201806040525081019061274c9190613865565b905080888481518110612761576127616133db565b602002602001018181525050808a8c7ffe7a8a160f28608c4d158798180f3638aa072dfc9c740e7ce564b3af4627cb5c338a600201546040516127b99291906001600160a01b03929092168252602082015260400190565b60405180910390a45050600101612673565b50505050509392505050565b6000546001600160a01b03163314611bd35760405163118cdaa760e01b8152336004820152602401612130565b600080546001600160a01b038381166001600160a01b0319831681178455604051919092169283917f8be0079c531659141344cd1fd0a4f28419497f9722a3daafe3b4186f6b6457e09190a35050565b606061285f46612883565b60405160200161286f91906138e6565b604051602081830303815290604052905090565b6060600061289083612915565b60010190506000816001600160401b038111156128af576128af612d89565b6040519080825280601f01601f1916602001820160405280156128d9576020820181803683370190505b5090508181016020015b600019016f181899199a1a9b1b9c1cb0b131b232b360811b600a86061a8153600a85049450846128e357509392505050565b60008072184f03e93ff9f4daa797ed6e38ed64bf6a1f0160401b83106129545772184f03e93ff9f4daa797ed6e38ed64bf6a1f0160401b830492506040015b6d04ee2d6d415b85acef81000000008310612980576d04ee2d6d415b85acef8100000000830492506020015b662386f26fc10000831061299e57662386f26fc10000830492506010015b6305f5e10083106129b6576305f5e100830492506008015b61271083106129ca57612710830492506004015b606483106129dc576064830492506002015b600a83106129e8576001015b92915050565b6040518061018001604052806000815260200160006001600160a01b03168152602001606081526020016060815260200160008152602001600081526020016060815260200160608152602001600081526020016000815260200160001515815260200160006001600160601b031681525090565b60008083601f840112612a7557600080fd5b5081356001600160401b03811115612a8c57600080fd5b6020830191508360208260051b8501011115612aa757600080fd5b9250929050565b60008060208385031215612ac157600080fd5b82356001600160401b03811115612ad757600080fd5b612ae385828601612a63565b90969095509350505050565b60005b83811015612b0a578181015183820152602001612af2565b50506000910152565b60008151808452612b2b816020860160208601612aef565b601f01601f19169290920160200192915050565b6000610180825184526020830151612b6260208601826001600160a01b03169052565b506040830151816040860152612b7a82860182612b13565b91505060608301518482036060860152612b948282612b13565b9150506080830151608085015260a083015160a085015260c083015184820360c0860152612bc28282612b13565b91505060e083015184820360e0860152612bdc8282612b13565b6101008581015190870152610120808601519087015261014080860151151590870152610160948501516001600160601b03169490950193909352509192915050565b6000604082016040835280855180835260608501915060608160051b8601019250602080880160005b83811015612c7657605f19888703018552612c64868351612b3f565b95509382019390820190600101612c48565b50508584038187015286518085528782019482019350915060005b82811015612caf578451151584529381019392810192600101612c91565b5091979650505050505050565b600060208284031215612cce57600080fd5b5035919050565b8c81526001600160a01b038c16602082015261018060408201819052600090612d008382018e612b13565b90508281036060840152612d14818d612b13565b90508a60808401528960a084015282810360c0840152612d34818a612b13565b905082810360e0840152612d488189612b13565b9150508561010083015284610120830152831515610140830152612d786101608301846001600160601b03169052565b9d9c50505050505050505050505050565b634e487b7160e01b600052604160045260246000fd5b604051606081016001600160401b0381118282101715612dc157612dc1612d89565b60405290565b604051601f8201601f191681016001600160401b0381118282101715612def57612def612d89565b604052919050565b60006001600160401b03821115612e1057612e10612d89565b50601f01601f191660200190565b600082601f830112612e2f57600080fd5b8135612e42612e3d82612df7565b612dc7565b818152846020838601011115612e5757600080fd5b816020850160208301376000918101602001919091529392505050565b600080600060608486031215612e8957600080fd5b833592506020840135915060408401356001600160401b03811115612ead57600080fd5b612eb986828701612e1e565b9150509250925092565b600082825180855260208086019550808260051b84010181860160005b84811015612f4257601f19868403018952815160a081518552858201518187870152612f0e82870182612b13565b6040848101519088015260608085015190880152608093840151939096019290925250509783019790830190600101612ee0565b5090979650505050505050565b602081526000612f626020830184612ec3565b9392505050565b600080600060608486031215612f7e57600080fd5b505081359360208301359350604090920135919050565b6020808252825182820181905260009190848201906040850190845b81811015612fcd57835183529284019291840191600101612fb1565b50909695505050505050565b60008060008060808587031215612fef57600080fd5b8435935060208501356001600160401b0381111561300c57600080fd5b61301887828801612e1e565b949794965050505060408301359260600135919050565b6000806000806040858703121561304557600080fd5b84356001600160401b038082111561305c57600080fd5b61306888838901612a63565b9096509450602087013591508082111561308157600080fd5b5061308e87828801612a63565b95989497509550505050565b600080604083850312156130ad57600080fd5b50508035926020909101359150565b6001600160a01b038116811461214257600080fd5b6000602082840312156130e357600080fd5b8135612f62816130bc565b6000806040838503121561310157600080fd5b8235915060208301356001600160401b0381111561311e57600080fd5b61312a85828601612e1e565b9150509250929050565b80356001600160601b038116811461314b57600080fd5b919050565b600082601f83011261316157600080fd5b813560206001600160401b038083111561317d5761317d612d89565b8260051b61318c838201612dc7565b93845285810183019383810190888611156131a657600080fd5b84880192505b85831015613229578235848111156131c45760008081fd5b88016060818b03601f19018113156131dc5760008081fd5b6131e4612d9f565b87830135878111156131f65760008081fd5b6132048d8a83870101612e1e565b82525060408381013589830152919092013590820152825291840191908401906131ac565b98975050505050505050565b60008060008060008060008060006101208a8c03121561325457600080fd5b89356001600160401b038082111561326b57600080fd5b6132778d838e01612e1e565b9a5060208c013591508082111561328d57600080fd5b6132998d838e01612e1e565b995060408c0135985060608c0135975060808c01359150808211156132bd57600080fd5b6132c98d838e01612e1e565b965060a08c01359150808211156132df57600080fd5b6132eb8d838e01612e1e565b955060c08c0135945061330060e08d01613134565b93506101008c013591508082111561331757600080fd5b506133248c828d01613150565b9150509295985092959850929598565b602081526000612f626020830184612b3f565b600060208083016020845280855180835260408601915060408160051b87010192506020870160005b8281101561339e57603f1988860301845261338c858351612ec3565b94509285019290850190600101613370565b5092979650505050505050565b600080604083850312156133be57600080fd5b8235915060208301356133d0816130bc565b809150509250929050565b634e487b7160e01b600052603260045260246000fd5b600181811c9082168061340557607f821691505b602082108103610ced57634e487b7160e01b600052602260045260246000fd5b601f821115613471576000816000526020600020601f850160051c8101602086101561344e5750805b601f850160051c820191505b8181101561346d5782815560010161345a565b5050505b505050565b81516001600160401b0381111561348f5761348f612d89565b6134a38161349d84546133f1565b84613425565b602080601f8311600181146134d857600084156134c05750858301515b600019600386901b1c1916600185901b17855561346d565b600085815260208120601f198616915b82811015613507578886015182559484019460019091019084016134e8565b50858210156135255787850151600019600388901b60f8161c191681555b5050505050600190811b01905550565b634e487b7160e01b600052601160045260246000fd5b818103818111156129e8576129e8613535565b6060815260006135716060830186612b13565b60208301949094525060400152919050565b6000808335601e1984360301811261359a57600080fd5b8301803591506001600160401b038211156135b457600080fd5b602001915036819003821315612aa757600080fd5b6000602082840312156135db57600080fd5b8151612f62816130bc565b600082601f8301126135f757600080fd5b8151613605612e3d82612df7565b81815284602083860101111561361a57600080fd5b61362b826020830160208701612aef565b949350505050565b600080600080600080600060e0888a03121561364e57600080fd5b87519650602088015195506040880151613667816130bc565b606089015160808a015191965094506001600160401b038082111561368b57600080fd5b6136978b838c016135e6565b945060a08a0151915081151582146136ae57600080fd5b60c08a0151919350808211156136c357600080fd5b506136d08a828b016135e6565b91505092959891949750929550565b83815260406020820152816040820152818360608301376000818301606090810191909152601f909201601f1916010192915050565b82815260406020820152600061362b6040830184612b13565b60006001820161374057613740613535565b5060010190565b60a08152600061375a60a0830188612b13565b90508560208301528460408301528360608301526001600160601b03831660808301529695505050505050565b808201808211156129e8576129e8613535565b805182526020810151602083015260018060a01b036040820151166040830152606081015160608301526000608082015160e060808501526137df60e0850182612b13565b905060a0830151151560a085015260c083015184820360c08601526138048282612b13565b95945050505050565b600060018060a01b03808816835260a0602084015261382f60a084018861379a565b83810360408501526138418188612b13565b95909116606084015250506001600160601b03919091166080909101529392505050565b60006020828403121561387757600080fd5b5051919050565b80820281158282048414176129e8576129e8613535565b600060018060a01b03808716835260a060208401526138b760a084018761379a565b83810360408501526000815294166060830152506001600160601b039190911660809091015260200192915050565b6531b430b4b71d60d11b815260008251613907816006850160208701612aef565b919091016006019291505056fea2646970667358221220271d3cf22424de5deee6589a6bb3af921d1051d9b1ff60b2c06dae88c51f643d64736f6c63430008160033",
  "linkReferences": {},
  "deployedLinkReferences": {}
}