{
  "_format": "hh-sol-artifact-1",
  "contractName": "TicketMarketplace",
  "sourceName": "contracts/TicketMarketplace.sol",
  "abi": [
    {
      "inputs": [
        {
          "internalType": "address",
          "name": "nft",
          "type": "address"
        }
      ],
      "stateMutability": "nonpayable",
      "type": "constructor"
    },
    {
      "inputs": [],
      "name": "AlreadyListed",
      "type": "error"
    },
    {
      "inputs": [],
      "name": "ArrayLengthMismatch",
      "type": "error"
    },
    {
      "inputs": [],
      "name": "InsufficientOfferAmount",
      "type": "error"
    },
    {
      "inputs": [],
      "name": "InvalidInput",
      "type": "error"
    },
    {
      "inputs": [],
      "name": "NotActive",
      "type": "error"
    },
    {
      "inputs": [],
      "name": "NotListed",
      "type": "error"
    },
    {
      "inputs": [],
      "name": "NotOfferer",
      "type": "error"
    },
    {
      "inputs": [],
      "name": "NotSeller",
      "type": "error"
    },
    {
      "inputs": [],
      "name": "OfferExpired",
      "type": "error"
    },
    {
      "inputs": [
        {
          "internalType": "address",
          "name": "owner",
          "type": "address"
        }
      ],
      "name": "OwnableInvalidOwner",
      "type": "error"
    },
    {
      "inputs": [
        {
          "internalType": "address",
          "name": "account",
          "type": "address"
        }
      ],
      "name": "OwnableUnauthorizedAccount",
      "type": "error"
    },
    {
      "inputs": [],
      "name": "ReentrancyGuardReentrantCall",
      "type": "error"
    },
    {
      "inputs": [],
      "name": "TransferFailed",
      "type": "error"
    },
    {
      "inputs": [],
      "name": "UsedTicket",
      "type": "error"
    },
    {
      "anonymous": false,
      "inputs": [
        {
          "indexed": false,
          "internalType": "uint256[]",
          "name": "listingIds",
          "type": "uint256[]"
        }
      ],
      "name": "BatchDelistingCompleted",
      "type": "event"
    },
    {
      "anonymous": false,
      "inputs": [
        {
          "indexed": false,
          "internalType": "uint256[]",
          "name": "listingIds",
          "type": "uint256[]"
        },
        {
          "indexed": false,
          "internalType": "uint256[]",
          "name": "tokenIds",
          "type": "uint256[]"
        }
      ],
      "name": "BatchListingCompleted",
      "type": "event"
    },
    {
      "anonymous": false,
      "inputs": [
        {
          "indexed": true,
          "internalType": "uint256",
          "name": "listingId",
          "type": "uint256"
        },
        {
          "indexed": true,
          "internalType": "uint256",
          "name": "tokenId",
          "type": "uint256"
        }
      ],
      "name": "ListingCanceled",
      "type": "event"
    },
    {
      "anonymous": false,
      "inputs": [
        {
          "indexed": true,
          "internalType": "uint256",
          "name": "offerId",
          "type": "uint256"
        },
        {
          "indexed": true,
          "internalType": "uint256",
          "name": "tokenId",
          "type": "uint256"
        },
        {
          "indexed": false,
          "internalType": "address",
          "name": "seller",
          "type": "address"
        },
        {
          "indexed": false,
          "internalType": "address",
          "name": "offerer",
          "type": "address"
        },
        {
          "indexed": false,
          "internalType": "uint256",
          "name": "amount",
          "type": "uint256"
        }
      ],
      "name": "OfferAccepted",
      "type": "event"
    },
    {
      "anonymous": false,
      "inputs": [
        {
          "indexed": true,
          "internalType": "uint256",
          "name": "offerId",
          "type": "uint256"
        },
        {
          "indexed": true,
          "internalType": "uint256",
          "name": "tokenId",
          "type": "uint256"
        }
      ],
      "name": "OfferCanceled",
      "type": "event"
    },
    {
      "anonymous": false,
      "inputs": [
        {
          "indexed": true,
          "internalType": "uint256",
          "name": "offerId",
          "type": "uint256"
        },
        {
          "indexed": true,
          "internalType": "uint256",
          "name": "tokenId",
          "type": "uint256"
        },
        {
          "indexed": true,
          "internalType": "address",
          "name": "offerer",
          "type": "address"
        },
        {
          "indexed": false,
          "internalType": "uint256",
          "name": "amount",
          "type": "uint256"
        },
        {
          "indexed": false,
          "internalType": "uint256",
          "name": "expiresAt",
          "type": "uint256"
        }
      ],
      "name": "OfferMade",
      "type": "event"
    },
    {
      "anonymous": false,
      "inputs": [
        {
          "indexed": true,
          "internalType": "address",
          "name": "previousOwner",
          "type": "address"
        },
        {
          "indexed": true,
          "internalType": "address",
          "name": "newOwner",
          "type": "address"
        }
      ],
      "name": "OwnershipTransferred",
      "type": "event"
    },
    {
      "anonymous": false,
      "inputs": [
        {
          "indexed": true,
          "internalType": "uint256",
          "name": "listingId",
          "type": "uint256"
        },
        {
          "indexed": false,
          "internalType": "uint256",
          "name": "oldPrice",
          "type": "uint256"
        },
        {
          "indexed": false,
          "internalType": "uint256",
          "name": "newPrice",
          "type": "uint256"
        }
      ],
      "name": "PriceUpdated",
      "type": "event"
    },
    {
      "anonymous": false,
      "inputs": [
        {
          "indexed": true,
          "internalType": "uint256",
          "name": "listingId",
          "type": "uint256"
        },
        {
          "indexed": true,
          "internalType": "uint256",
          "name": "tokenId",
          "type": "uint256"
        },
        {
          "indexed": true,
          "internalType": "address",
          "name": "seller",
          "type": "address"
        },
        {
          "indexed": false,
          "internalType": "uint256",
          "name": "price",
          "type": "uint256"
        }
      ],
      "name": "TicketListed",
      "type": "event"
    },
    {
      "anonymous": false,
      "inputs": [
        {
          "indexed": true,
          "internalType": "uint256",
          "name": "listingId",
          "type": "uint256"
        },
        {
          "indexed": true,
          "internalType": "uint256",
          "name": "tokenId",
          "type": "uint256"
        },
        {
          "indexed": true,
          "internalType": "address",
          "name": "seller",
          "type": "address"
        },
        {
          "indexed": false,
          "internalType": "address",
          "name": "buyer",
          "type": "address"
        },
        {
          "indexed": false,
          "internalType": "uint256",
          "name": "price",
          "type": "uint256"
        },
        {
          "indexed": false,
          "internalType": "address",
          "name": "royaltyReceiver",
          "type": "address"
        },
        {
          "indexed": false,
          "internalType": "uint256",
          "name": "royaltyAmount",
          "type": "uint256"
        }
      ],
      "name": "TicketPurchased",
      "type": "event"
    },
    {
      "stateMutability": "payable",
      "type": "fallback"
    },
    {
      "inputs": [
        {
          "internalType": "uint256",
          "name": "offerId",
          "type": "uint256"
        }
      ],
      "name": "acceptOffer",
      "outputs": [],
      "stateMutability": "nonpayable",
      "type": "function"
    },
    {
      "inputs": [
        {
          "internalType": "uint256[]",
          "name": "listingIds",
          "type": "uint256[]"
        }
      ],
      "name": "batchCancelListings",
      "outputs": [],
      "stateMutability": "nonpayable",
      "type": "function"
    },
    {
      "inputs": [
        {
          "internalType": "uint256[]",
          "name": "tokenIds",
          "type": "uint256[]"
        },
        {
          "internalType": "uint256[]",
          "name": "prices",
          "type": "uint256[]"
        }
      ],
      "name": "batchListTickets",
      "outputs": [
        {
          "internalType": "uint256[]",
          "name": "listingIds",
          "type": "uint256[]"
        }
      ],
      "stateMutability": "nonpayable",
      "type": "function"
    },
    {
      "inputs": [
        {
          "internalType": "uint256",
          "name": "listingId",
          "type": "uint256"
        }
      ],
      "name": "buyTicket",
      "outputs": [],
      "stateMutability": "payable",
      "type": "function"
    },
    {
      "inputs": [
        {
          "internalType": "uint256",
          "name": "listingId",
          "type": "uint256"
        }
      ],
      "name": "cancelListing",
      "outputs": [],
      "stateMutability": "nonpayable",
      "type": "function"
    },
    {
      "inputs": [
        {
          "internalType": "uint256",
          "name": "offerId",
          "type": "uint256"
        }
      ],
      "name": "cancelOffer",
      "outputs": [],
      "stateMutability": "nonpayable",
      "type": "function"
    },
    {
      "inputs": [
        {
          "internalType": "uint256",
          "name": "",
          "type": "uint256"
        }
      ],
      "name": "eventRoyaltiesCollected",
      "outputs": [
        {
          "internalType": "uint256",
          "name": "",
          "type": "uint256"
        }
      ],
      "stateMutability": "view",
      "type": "function"
    },
    {
      "inputs": [
        {
          "internalType": "uint256",
          "name": "",
          "type": "uint256"
        }
      ],
      "name": "eventSecondarySales",
      "outputs": [
        {
          "internalType": "uint256",
          "name": "",
          "type": "uint256"
        }
      ],
      "stateMutability": "view",
      "type": "function"
    },
    {
      "inputs": [],
      "name": "getActiveListings",
      "outputs": [
        {
          "components": [
            {
              "internalType": "uint256",
              "name": "listingId",
              "type": "uint256"
            },
            {
              "internalType": "uint256",
              "name": "tokenId",
              "type": "uint256"
            },
            {
              "internalType": "address",
              "name": "seller",
              "type": "address"
            },
            {
              "internalType": "uint256",
              "name": "price",
              "type": "uint256"
            },
            {
              "internalType": "bool",
              "name": "active",
              "type": "bool"
            },
            {
              "internalType": "uint256",
              "name": "createdAt",
              "type": "uint256"
            }
          ],
          "internalType": "struct TicketMarketplace.Listing[]",
          "name": "results",
          "type": "tuple[]"
        }
      ],
      "stateMutability": "view",
      "type": "function"
    },
    {
      "inputs": [
        {
          "internalType": "uint256",
          "name": "tokenId",
          "type": "uint256"
        }
      ],
      "name": "getActiveOffers",
      "outputs": [
        {
          "components": [
            {
              "internalType": "uint256",
              "name": "offerId",
              "type": "uint256"
            },
            {
              "internalType": "uint256",
              "name": "tokenId",
              "type": "uint256"
            },
            {
              "internalType": "address",
              "name": "offerer",
              "type": "address"
            },
            {
              "internalType": "uint256",
              "name": "offerAmount",
              "type": "uint256"
            },
            {
              "internalType": "uint256",
              "name": "expiresAt",
              "type": "uint256"
            },
            {
              "internalType": "bool",
              "name": "active",
              "type": "bool"
            },
            {
              "internalType": "uint256",
              "name": "createdAt",
              "type": "uint256"
            }
          ],
          "internalType": "struct TicketMarketplace.Offer[]",
          "name": "activeOffers",
          "type": "tuple[]"
        }
      ],
      "stateMutability": "view",
      "type": "function"
    },
    {
      "inputs": [
        {
          "internalType": "uint256",
          "name": "eventId",
          "type": "uint256"
        }
      ],
      "name": "getEventSecondaryMarketStats",
      "outputs": [
        {
          "internalType": "uint256",
          "name": "salesCount",
          "type": "uint256"
        },
        {
          "internalType": "uint256",
          "name": "royaltiesCollected",
          "type": "uint256"
        }
      ],
      "stateMutability": "view",
      "type": "function"
    },
    {
      "inputs": [
        {
          "internalType": "uint256",
          "name": "eventId",
          "type": "uint256"
        }
      ],
      "name": "getListingsByEvent",
      "outputs": [
        {
          "components": [
            {
              "internalType": "uint256",
              "name": "listingId",
              "type": "uint256"
            },
            {
              "internalType": "uint256",
              "name": "tokenId",
              "type": "uint256"
            },
            {
              "internalType": "address",
              "name": "seller",
              "type": "address"
            },
            {
              "internalType": "uint256",
              "name": "price",
              "type": "uint256"
            },
            {
              "internalType": "bool",
              "name": "active",
              "type": "bool"
            },
            {
              "internalType": "uint256",
              "name": "createdAt",
              "type": "uint256"
            }
          ],
          "internalType": "struct TicketMarketplace.Listing[]",
          "name": "results",
          "type": "tuple[]"
        }
      ],
      "stateMutability": "view",
      "type": "function"
    },
    {
      "inputs": [
        {
          "internalType": "uint256",
          "name": "offerId",
          "type": "uint256"
        }
      ],
      "name": "getOffer",
      "outputs": [
        {
          "components": [
            {
              "internalType": "uint256",
              "name": "offerId",
              "type": "uint256"
            },
            {
              "internalType": "uint256",
              "name": "tokenId",
              "type": "uint256"
            },
            {
              "internalType": "address",
              "name": "offerer",
              "type": "address"
            },
            {
              "internalType": "uint256",
              "name": "offerAmount",
              "type": "uint256"
            },
            {
              "internalType": "uint256",
              "name": "expiresAt",
              "type": "uint256"
            },
            {
              "internalType": "bool",
              "name": "active",
              "type": "bool"
            },
            {
              "internalType": "uint256",
              "name": "createdAt",
              "type": "uint256"
            }
          ],
          "internalType": "struct TicketMarketplace.Offer",
          "name": "offer",
          "type": "tuple"
        }
      ],
      "stateMutability": "view",
      "type": "function"
    },
    {
      "inputs": [
        {
          "internalType": "address",
          "name": "seller",
          "type": "address"
        },
        {
          "internalType": "uint256",
          "name": "eventId",
          "type": "uint256"
        }
      ],
      "name": "getResellerStats",
      "outputs": [
        {
          "components": [
            {
              "internalType": "uint256",
              "name": "totalListed",
              "type": "uint256"
            },
            {
              "internalType": "uint256",
              "name": "currentlyListed",
              "type": "uint256"
            },
            {
              "internalType": "uint256",
              "name": "totalSold",
              "type": "uint256"
            },
            {
              "internalType": "uint256",
              "name": "totalRevenue",
              "type": "uint256"
            },
            {
              "internalType": "uint256",
              "name": "totalRoyaltiesPaid",
              "type": "uint256"
            },
            {
              "internalType": "uint256",
              "name": "totalCanceled",
              "type": "uint256"
            },
            {
              "internalType": "uint256",
              "name": "firstListingTime",
              "type": "uint256"
            },
            {
              "internalType": "uint256",
              "name": "lastActivityTime",
              "type": "uint256"
            }
          ],
          "internalType": "struct TicketMarketplace.SellerStats",
          "name": "stats",
          "type": "tuple"
        }
      ],
      "stateMutability": "view",
      "type": "function"
    },
    {
      "inputs": [
        {
          "internalType": "address",
          "name": "seller",
          "type": "address"
        },
        {
          "internalType": "uint256",
          "name": "eventId",
          "type": "uint256"
        }
      ],
      "name": "getSellerListingIds",
      "outputs": [
        {
          "internalType": "uint256[]",
          "name": "listingIds",
          "type": "uint256[]"
        }
      ],
      "stateMutability": "view",
      "type": "function"
    },
    {
      "inputs": [
        {
          "internalType": "address",
          "name": "seller",
          "type": "address"
        },
        {
          "internalType": "uint256",
          "name": "eventId",
          "type": "uint256"
        }
      ],
      "name": "getSellerListings",
      "outputs": [
        {
          "components": [
            {
              "internalType": "uint256",
              "name": "listingId",
              "type": "uint256"
            },
            {
              "internalType": "uint256",
              "name": "tokenId",
              "type": "uint256"
            },
            {
              "internalType": "address",
              "name": "seller",
              "type": "address"
            },
            {
              "internalType": "uint256",
              "name": "price",
              "type": "uint256"
            },
            {
              "internalType": "bool",
              "name": "active",
              "type": "bool"
            },
            {
              "internalType": "uint256",
              "name": "createdAt",
              "type": "uint256"
            }
          ],
          "internalType": "struct TicketMarketplace.Listing[]",
          "name": "activeListings",
          "type": "tuple[]"
        },
        {
          "components": [
            {
              "internalType": "uint256",
              "name": "listingId",
              "type": "uint256"
            },
            {
              "internalType": "uint256",
              "name": "tokenId",
              "type": "uint256"
            },
            {
              "internalType": "address",
              "name": "seller",
              "type": "address"
            },
            {
              "internalType": "uint256",
              "name": "price",
              "type": "uint256"
            },
            {
              "internalType": "bool",
              "name": "active",
              "type": "bool"
            },
            {
              "internalType": "uint256",
              "name": "createdAt",
              "type": "uint256"
            }
          ],
          "internalType": "struct TicketMarketplace.Listing[]",
          "name": "historicalListings",
          "type": "tuple[]"
        }
      ],
      "stateMutability": "view",
      "type": "function"
    },
    {
      "inputs": [
        {
          "internalType": "address",
          "name": "offerer",
          "type": "address"
        }
      ],
      "name": "getUserOffers",
      "outputs": [
        {
          "components": [
            {
              "internalType": "uint256",
              "name": "offerId",
              "type": "uint256"
            },
            {
              "internalType": "uint256",
              "name": "tokenId",
              "type": "uint256"
            },
            {
              "internalType": "address",
              "name": "offerer",
              "type": "address"
            },
            {
              "internalType": "uint256",
              "name": "offerAmount",
              "type": "uint256"
            },
            {
              "internalType": "uint256",
              "name": "expiresAt",
              "type": "uint256"
            },
            {
              "internalType": "bool",
              "name": "active",
              "type": "bool"
            },
            {
              "internalType": "uint256",
              "name": "createdAt",
              "type": "uint256"
            }
          ],
          "internalType": "struct TicketMarketplace.Offer[]",
          "name": "userOffers",
          "type": "tuple[]"
        }
      ],
      "stateMutability": "view",
      "type": "function"
    },
    {
      "inputs": [
        {
          "internalType": "address",
          "name": "seller",
          "type": "address"
        },
        {
          "internalType": "uint256",
          "name": "eventId",
          "type": "uint256"
        }
      ],
      "name": "hasSellerListedForEvent",
      "outputs": [
        {
          "internalType": "bool",
          "name": "hasListed",
          "type": "bool"
        }
      ],
      "stateMutability": "view",
      "type": "function"
    },
    {
      "inputs": [
        {
          "internalType": "uint256",
          "name": "tokenId",
          "type": "uint256"
        },
        {
          "internalType": "uint256",
          "name": "price",
          "type": "uint256"
        }
      ],
      "name": "listTicket",
      "outputs": [
        {
          "internalType": "uint256",
          "name": "listingId",
          "type": "uint256"
        }
      ],
      "stateMutability": "nonpayable",
      "type": "function"
    },
    {
      "inputs": [],
      "name": "listingCounter",
      "outputs": [
        {
          "internalType": "uint256",
          "name": "",
          "type": "uint256"
        }
      ],
      "stateMutability": "view",
      "type": "function"
    },
    {
      "inputs": [
        {
          "internalType": "uint256",
          "name": "",
          "type": "uint256"
        }
      ],
      "name": "listings",
      "outputs": [
        {
          "internalType": "uint256",
          "name": "listingId",
          "type": "uint256"
        },
        {
          "internalType": "uint256",
          "name": "tokenId",
          "type": "uint256"
        },
        {
          "internalType": "address",
          "name": "seller",
          "type": "address"
        },
        {
          "internalType": "uint256",
          "name": "price",
          "type": "uint256"
        },
        {
          "internalType": "bool",
          "name": "active",
          "type": "bool"
        },
        {
          "internalType": "uint256",
          "name": "createdAt",
          "type": "uint256"
        }
      ],
      "stateMutability": "view",
      "type": "function"
    },
    {
      "inputs": [
        {
          "internalType": "uint256",
          "name": "tokenId",
          "type": "uint256"
        },
        {
          "internalType": "uint256",
          "name": "expiresAt",
          "type": "uint256"
        }
      ],
      "name": "makeOffer",
      "outputs": [
        {
          "internalType": "uint256",
          "name": "offerId",
          "type": "uint256"
        }
      ],
      "stateMutability": "payable",
      "type": "function"
    },
    {
      "inputs": [],
      "name": "offerCounter",
      "outputs": [
        {
          "internalType": "uint256",
          "name": "",
          "type": "uint256"
        }
      ],
      "stateMutability": "view",
      "type": "function"
    },
    {
      "inputs": [
        {
          "internalType": "uint256",
          "name": "",
          "type": "uint256"
        }
      ],
      "name": "offers",
      "outputs": [
        {
          "internalType": "uint256",
          "name": "offerId",
          "type": "uint256"
        },
        {
          "internalType": "uint256",
          "name": "tokenId",
          "type": "uint256"
        },
        {
          "internalType": "address",
          "name": "offerer",
          "type": "address"
        },
        {
          "internalType": "uint256",
          "name": "offerAmount",
          "type": "uint256"
        },
        {
          "internalType": "uint256",
          "name": "expiresAt",
          "type": "uint256"
        },
        {
          "internalType": "bool",
          "name": "active",
          "type": "bool"
        },
        {
          "internalType": "uint256",
          "name": "createdAt",
          "type": "uint256"
        }
      ],
      "stateMutability": "view",
      "type": "function"
    },
    {
      "inputs": [],
      "name": "owner",
      "outputs": [
        {
          "internalType": "address",
          "name": "",
          "type": "address"
        }
      ],
      "stateMutability": "view",
      "type": "function"
    },
    {
      "inputs": [],
      "name": "renounceOwnership",
      "outputs": [],
      "stateMutability": "nonpayable",
      "type": "function"
    },
    {
      "inputs": [
        {
          "internalType": "address",
          "name": "",
          "type": "address"
        },
        {
          "internalType": "uint256",
          "name": "",
          "type": "uint256"
        },
        {
          "internalType": "uint256",
          "name": "",
          "type": "uint256"
        }
      ],
      "name": "sellerListings",
      "outputs": [
        {
          "internalType": "uint256",
          "name": "",
          "type": "uint256"
        }
      ],
      "stateMutability": "view",
      "type": "function"
    },
    {
      "inputs": [
        {
          "internalType": "address",
          "name": "",
          "type": "address"
        },
        {
          "internalType": "uint256",
          "name": "",
          "type": "uint256"
        }
      ],
      "name": "sellerStats",
      "outputs": [
        {
          "internalType": "uint256",
          "name": "totalListed",
          "type": "uint256"
        },
        {
          "internalType": "uint256",
          "name": "currentlyListed",
          "type": "uint256"
        },
        {
          "internalType": "uint256",
          "name": "totalSold",
          "type": "uint256"
        },
        {
          "internalType": "uint256",
          "name": "totalRevenue",
          "type": "uint256"
        },
        {
          "internalType": "uint256",
          "name": "totalRoyaltiesPaid",
          "type": "uint256"
        },
        {
          "internalType": "uint256",
          "name": "totalCanceled",
          "type": "uint256"
        },
        {
          "internalType": "uint256",
          "name": "firstListingTime",
          "type": "uint256"
        },
        {
          "internalType": "uint256",
          "name": "lastActivityTime",
          "type": "uint256"
        }
      ],
      "stateMutability": "view",
      "type": "function"
    },
    {
      "inputs": [],
      "name": "ticketNFT",
      "outputs": [
        {
          "internalType": "contract TicketNFT",
          "name": "",
          "type": "address"
        }
      ],
      "stateMutability": "view",
      "type": "function"
    },
    {
      "inputs": [
        {
          "internalType": "uint256",
          "name": "",
          "type": "uint256"
        },
        {
          "internalType": "uint256",
          "name": "",
          "type": "uint256"
        }
      ],
      "name": "tokenOffers",
      "outputs": [
        {
          "internalType": "uint256",
          "name": "",
          "type": "uint256"
        }
      ],
      "stateMutability": "view",
      "type": "function"
    },
    {
      "inputs": [
        {
          "internalType": "uint256",
          "name": "",
          "type": "uint256"
        }
      ],
      "name": "tokenToListing",
      "outputs": [
        {
          "internalType": "uint256",
          "name": "",
          "type": "uint256"
        }
      ],
      "stateMutability": "view",
      "type": "function"
    },
    {
      "inputs": [
        {
          "internalType": "address",
          "name": "newOwner",
          "type": "address"
        }
      ],
      "name": "transferOwnership",
      "outputs": [],
      "stateMutability": "nonpayable",
      "type": "function"
    },
    {
      "inputs": [
        {
          "internalType": "uint256",
          "name": "listingId",
          "type": "uint256"
        },
        {
          "internalType": "uint256",
          "name": "newPrice",
          "type": "uint256"
        }
      ],
      "name": "updatePrice",
      "outputs": [],
      "stateMutability": "nonpayable",
      "type": "function"
    },
    {
      "stateMutability": "payable",
      "type": "receive"
    }
  ],
  "bytecode": "0x60a06040523480156200001157600080fd5b5060405162003f3938038062003f398339810160408190526200003491620000f5565b33806200005b57604051631e4fbdf760e01b81526000600482015260240160405180910390fd5b6200006681620000a5565b50600180556001600160a01b038116620000935760405163b4fa3fb360e01b815260040160405180910390fd5b6001600160a01b031660805262000127565b600080546001600160a01b038381166001600160a01b0319831681178455604051919092169283917f8be0079c531659141344cd1fd0a4f28419497f9722a3daafe3b4186f6b6457e09190a35050565b6000602082840312156200010857600080fd5b81516001600160a01b03811681146200012057600080fd5b9392505050565b608051613d4e620001eb600039600081816106e601528181610923015281816109b001528181610c9501528181610d5301528181610dfc01528181610f58015281816111d2015281816112d1015281816113f0015281816114ae015281816115570152818161168a015281816119e401528181611ae301528181611e0201528181611eb80152818161209801528181612b2d01528181612c7401528181612e3a01528181612ef101528181612fe40152818161306801526132680152613d4e6000f3fe6080604052600436106101da5760003560e01c806383a221ec11610101578063b393391b1161009a578063de74e57b1161006c578063de74e57b1461078d578063ea7eaec614610828578063ef706adf14610855578063f2fde38b14610875578063f3ad5dcc1461089557005b8063b393391b146106d4578063b7a3c1da14610708578063c7c3e1f61461071e578063c815729d1461076d57005b8063915f3e15116100d3578063915f3e1514610568578063944985f5146105e95780639830de8714610609578063a67f09ff146106b457005b806383a221ec1461044b57806387c35bc01461046b5780638a72ea6a1461048d5780638da5cb5b1461053657005b8063656f1c3111610173578063715018a611610145578063715018a6146103bb5780637b1ce2a6146103d057806382367b2d146103fd5780638249ce501461041d57005b8063656f1c3114610345578063661d2c2c1461036557806367dd74ca146103925780636c2c9c7d146103a557005b8063305a905a116101ac578063305a905a14610283578063393da9f4146102a35780634579268a146102f85780634a3de4f81461032557005b806305b7cdd3146101e35780630e7246c1146102095780631d761e5e14610236578063305a67a81461026357005b366101e157005b005b6101f66101f13660046136ec565b6108b5565b6040519081526020015b60405180910390f35b34801561021557600080fd5b50610229610224366004613753565b610b6e565b60405161020091906137fb565b34801561024257600080fd5b506101f6610251366004613815565b60096020526000908152604090205481565b34801561026f57600080fd5b506101e161027e366004613815565b611109565b34801561028f57600080fd5b506101f661029e3660046136ec565b61137f565b3480156102af57600080fd5b506102e86102be366004613843565b6001600160a01b03919091166000908152600a602090815260408083209383529290522054151590565b6040519015158152602001610200565b34801561030457600080fd5b50610318610313366004613815565b6117e0565b60405161020091906138bb565b34801561033157600080fd5b50610229610340366004613843565b611856565b34801561035157600080fd5b506101e16103603660046138c9565b6118cb565b34801561037157600080fd5b5061038561038036600461390b565b611bd9565b6040516102009190613928565b6101e16103a0366004613815565b611d62565b3480156103b157600080fd5b506101f660025481565b3480156103c757600080fd5b506101e1612260565b3480156103dc57600080fd5b506101f66103eb366004613815565b60086020526000908152604090205481565b34801561040957600080fd5b506101e16104183660046136ec565b612274565b34801561042957600080fd5b5061043d610438366004613843565b612362565b6040516102009291906139e6565b34801561045757600080fd5b50610385610466366004613815565b612600565b34801561047757600080fd5b50610480612882565b6040516102009190613a14565b34801561049957600080fd5b506104f36104a8366004613815565b60066020819052600091825260409091208054600182015460028301546003840154600485015460058601549590960154939592946001600160a01b039092169390929160ff169087565b6040805197885260208801969096526001600160a01b03909416948601949094526060850191909152608084015290151560a083015260c082015260e001610200565b34801561054257600080fd5b506000546001600160a01b03165b6040516001600160a01b039091168152602001610200565b34801561057457600080fd5b50610588610583366004613843565b6129e5565b6040516102009190600061010082019050825182526020830151602083015260408301516040830152606083015160608301526080830151608083015260a083015160a083015260c083015160c083015260e083015160e083015292915050565b3480156105f557600080fd5b506101f66106043660046136ec565b612ab0565b34801561061557600080fd5b50610679610624366004613843565b600a602052816000526040600020602052806000526040600020600091509150508060000154908060010154908060020154908060030154908060040154908060050154908060060154908060070154905088565b604080519889526020890197909752958701949094526060860192909252608085015260a084015260c083015260e082015261010001610200565b3480156106c057600080fd5b506104806106cf366004613815565b612ae1565b3480156106e057600080fd5b506105507f000000000000000000000000000000000000000000000000000000000000000081565b34801561071457600080fd5b506101f660035481565b34801561072a57600080fd5b50610758610739366004613815565b6000908152600860209081526040808320546009909252909120549091565b60408051928352602083019190915201610200565b34801561077957600080fd5b506101e1610788366004613815565b612d8a565b34801561079957600080fd5b506107ed6107a8366004613815565b6004602081905260009182526040909120805460018201546002830154600384015494840154600590940154929491936001600160a01b039091169260ff9091169086565b6040805196875260208701959095526001600160a01b03909316938501939093526060840152901515608083015260a082015260c001610200565b34801561083457600080fd5b506101f6610843366004613815565b60056020526000908152604090205481565b34801561086157600080fd5b506101e1610870366004613815565b613401565b34801561088157600080fd5b506101e161089036600461390b565b61353e565b3480156108a157600080fd5b506101f66108b0366004613a27565b61357e565b60006108bf6135bc565b346000036108e05760405163b4fa3fb360e01b815260040160405180910390fd5b81158015906108ef5750428211155b1561090d57604051639cb1308760e01b815260040160405180910390fd5b6040516331a9108f60e11b8152600481018490527f00000000000000000000000000000000000000000000000000000000000000006001600160a01b031690636352211e90602401602060405180830381865afa158015610972573d6000803e3d6000fd5b505050506040513d601f19601f820116820180604052508101906109969190613a5c565b5060405163033fab3560e01b8152600481018490526000907f00000000000000000000000000000000000000000000000000000000000000006001600160a01b03169063033fab3590602401600060405180830381865afa1580156109ff573d6000803e3d6000fd5b505050506040513d6000823e601f3d908101601f19168201604052610a279190810190613b38565b50955050505050508015610a4e57604051630e64a6df60e01b815260040160405180910390fd5b600360008154610a5d90613bfb565b91829055506040805160e0810182528281526020808201888152338385018181523460608601818152608087018c8152600160a089018181524260c08b0190815260008d81526006808c528d82209c518d5599518c850155965160028c0180546001600160a01b0319166001600160a01b03909216919091179055935160038b0155915160048a0155905160058901805460ff1916911515919091179055905196909401959095558a8152600784528581208054938401815581528390209091018590558351928352908201879052929450869185917f23b0047c5c1f392c454f858542ddfb8143e48945b1a00e247308d5eb97164bc4910160405180910390a450610b6860018055565b92915050565b6060610b786135bc565b83801580610b865750808314155b15610ba45760405163512509d360e11b815260040160405180910390fd5b8067ffffffffffffffff811115610bbd57610bbd613a79565b604051908082528060200260200182016040528015610be6578160200160208202803683370190505b50915060005b818110156110bb576000878783818110610c0857610c08613c14565b9050602002013590506000868684818110610c2557610c25613c14565b90506020020135905080600003610c4f5760405163b4fa3fb360e01b815260040160405180910390fd5b60008281526005602052604090205415610c7c576040516328f560bb60e21b815260040160405180910390fd5b60405163033fab3560e01b8152600481018390526000907f00000000000000000000000000000000000000000000000000000000000000006001600160a01b03169063033fab3590602401600060405180830381865afa158015610ce4573d6000803e3d6000fd5b505050506040513d6000823e601f3d908101601f19168201604052610d0c9190810190613b38565b50955050505050508015610d3357604051630e64a6df60e01b815260040160405180910390fd5b6040516331a9108f60e11b81526004810184905233906001600160a01b037f00000000000000000000000000000000000000000000000000000000000000001690636352211e90602401602060405180830381865afa158015610d9a573d6000803e3d6000fd5b505050506040513d601f19601f82011682018060405250810190610dbe9190613a5c565b6001600160a01b031614610de557604051635ec8235160e01b815260040160405180910390fd5b6040516323b872dd60e01b81526001600160a01b037f000000000000000000000000000000000000000000000000000000000000000016906323b872dd90610e3590339030908890600401613c2a565b600060405180830381600087803b158015610e4f57600080fd5b505af1158015610e63573d6000803e3d6000fd5b505050506000600260008154610e7890613bfb565b91829055506040805160c081018252828152602080820188815233838501908152606084018981526001608086018181524260a0880190815260008a815260048089528a822099518a5596519389019390935593516002880180546001600160a01b0319166001600160a01b03909216919091179055915160038701559051928501805460ff191693151593909317909255516005938401558881529190522081905587519091508190889087908110610f3457610f34613c14565b602090810291909101015260405163033fab3560e01b8152600481018590526000907f00000000000000000000000000000000000000000000000000000000000000006001600160a01b03169063033fab3590602401600060405180830381865afa158015610fa7573d6000803e3d6000fd5b505050506040513d6000823e601f3d908101601f19168201604052610fcf9190810190613b38565b5050336000908152600a6020908152604080832088845290915281206006810154969750959003935061100792505050574260068201555b600181600001600082825461101c9190613c4e565b909155505060018181018054600090611036908490613c4e565b9091555050426007820155336000818152600b6020908152604080832086845282528083208054600181018255908452919092200185905551879085907f8b84647ec667515d9ce59e74ab9bb64476ec404345ebb9dfc3ea275bb6d8ee9b906110a2908a815260200190565b60405180910390a4866001019650505050505050610bec565b507f70608f6926c693d75f1df912dc44ba6bbd9384d7d6b6e6f01f29089e3760ec488287876040516110ef93929190613c93565b60405180910390a15061110160018055565b949350505050565b6111116135bc565b600081815260046020526040812080549091036111415760405163665c1c5760e01b815260040160405180910390fd5b600481015460ff1661116657604051634065aaf160e11b815260040160405180910390fd5b60028101546001600160a01b0316331461119357604051635ec8235160e01b815260040160405180910390fd5b6004808201805460ff191690556001820180546000908152600560205260408082208290559154915163033fab3560e01b815290926001600160a01b037f0000000000000000000000000000000000000000000000000000000000000000169263033fab3592611207920190815260200190565b600060405180830381865afa158015611224573d6000803e3d6000fd5b505050506040513d6000823e601f3d908101601f1916820160405261124c9190810190613b38565b5050336000908152600a60209081526040808320888452909152812060018082018054989950919790965090945090925061128991508490613cc3565b9250508190555060018160050160008282546112a59190613c4e565b9091555050426007820155600283015460018401546040516323b872dd60e01b81526001600160a01b037f00000000000000000000000000000000000000000000000000000000000000008116936323b872dd9361130c9330939290921691600401613c2a565b600060405180830381600087803b15801561132657600080fd5b505af115801561133a573d6000803e3d6000fd5b505050508260010154847f3de5f6c6d480b0ed131d7db9d21b7e79660e349d57b37f688bcc0000352fb34d60405160405180910390a350505061137c60018055565b50565b60006113896135bc565b816000036113aa5760405163b4fa3fb360e01b815260040160405180910390fd5b600083815260056020526040902054156113d7576040516328f560bb60e21b815260040160405180910390fd5b60405163033fab3560e01b8152600481018490526000907f00000000000000000000000000000000000000000000000000000000000000006001600160a01b03169063033fab3590602401600060405180830381865afa15801561143f573d6000803e3d6000fd5b505050506040513d6000823e601f3d908101601f191682016040526114679190810190613b38565b5095505050505050801561148e57604051630e64a6df60e01b815260040160405180910390fd5b6040516331a9108f60e11b81526004810185905233906001600160a01b037f00000000000000000000000000000000000000000000000000000000000000001690636352211e90602401602060405180830381865afa1580156114f5573d6000803e3d6000fd5b505050506040513d601f19601f820116820180604052508101906115199190613a5c565b6001600160a01b03161461154057604051635ec8235160e01b815260040160405180910390fd5b6040516323b872dd60e01b81526001600160a01b037f000000000000000000000000000000000000000000000000000000000000000016906323b872dd9061159090339030908990600401613c2a565b600060405180830381600087803b1580156115aa57600080fd5b505af11580156115be573d6000803e3d6000fd5b505050506002600081546115d190613bfb565b91829055506040805160c081018252828152602080820188815233838501908152606084018981526001608086018181524260a0880190815260008a815260048089528a822099518a5596519389019390935593516002880180546001600160a01b0319166001600160a01b039283161790559251600388015551868501805460ff191691151591909117905591516005958601558a825293909252838220859055925163033fab3560e01b81529283018890529294507f0000000000000000000000000000000000000000000000000000000000000000169063033fab3590602401600060405180830381865afa1580156116d1573d6000803e3d6000fd5b505050506040513d6000823e601f3d908101601f191682016040526116f99190810190613b38565b5050336000908152600a6020908152604080832088845290915281206006810154969750959003935061173192505050574260068201555b60018160000160008282546117469190613c4e565b909155505060018181018054600090611760908490613c4e565b9091555050426007820155336000818152600b6020908152604080832086845282528083208054600181018255908452919092200186905551879086907f8b84647ec667515d9ce59e74ab9bb64476ec404345ebb9dfc3ea275bb6d8ee9b906117cc908a815260200190565b60405180910390a4505050610b6860018055565b6117e8613663565b50600090815260066020818152604092839020835160e0810185528154815260018201549281019290925260028101546001600160a01b0316938201939093526003830154606082015260048301546080820152600583015460ff16151560a082015291015460c082015290565b6001600160a01b0382166000908152600b602090815260408083208484528252918290208054835181840281018401909452808452606093928301828280156118be57602002820191906000526020600020905b8154815260200190600101908083116118aa575b5050505050905092915050565b6118d36135bc565b8060008190036118f65760405163b4fa3fb360e01b815260040160405180910390fd5b60005b81811015611b9157600084848381811061191557611915613c14565b6020908102929092013560008181526004909352604083208054919450920390506119535760405163665c1c5760e01b815260040160405180910390fd5b600481015460ff1661197857604051634065aaf160e11b815260040160405180910390fd5b60028101546001600160a01b031633146119a557604051635ec8235160e01b815260040160405180910390fd5b6004808201805460ff191690556001820180546000908152600560205260408082208290559154915163033fab3560e01b815290926001600160a01b037f0000000000000000000000000000000000000000000000000000000000000000169263033fab3592611a19920190815260200190565b600060405180830381865afa158015611a36573d6000803e3d6000fd5b505050506040513d6000823e601f3d908101601f19168201604052611a5e9190810190613b38565b5050336000908152600a602090815260408083208884529091528120600180820180549899509197909650909450909250611a9b91508490613cc3565b925050819055506001816005016000828254611ab79190613c4e565b9091555050426007820155600283015460018401546040516323b872dd60e01b81526001600160a01b037f00000000000000000000000000000000000000000000000000000000000000008116936323b872dd93611b1e9330939290921691600401613c2a565b600060405180830381600087803b158015611b3857600080fd5b505af1158015611b4c573d6000803e3d6000fd5b505050508260010154847f3de5f6c6d480b0ed131d7db9d21b7e79660e349d57b37f688bcc0000352fb34d60405160405180910390a3846001019450505050506118f9565b507f205a3e01da90a49d9503b20ce5f4a47667bfaaf11714e6d8f57c9fdaec424fa78383604051611bc3929190613cd6565b60405180910390a150611bd560018055565b5050565b6060600060015b6003548111611c2d576000818152600660205260409020600201546001600160a01b03808616911603611c1b5781611c1781613bfb565b9250505b80611c2581613bfb565b915050611be0565b508067ffffffffffffffff811115611c4757611c47613a79565b604051908082528060200260200182016040528015611c8057816020015b611c6d613663565b815260200190600190039081611c655790505b509150600060015b6003548111611d5a576000818152600660205260409020600201546001600160a01b03808716911603611d4857600081815260066020818152604092839020835160e0810185528154815260018201549281019290925260028101546001600160a01b0316938201939093526003830154606082015260048301546080820152600583015460ff16151560a082015291015460c08201528483611d2a81613bfb565b945081518110611d3c57611d3c613c14565b60200260200101819052505b80611d5281613bfb565b915050611c88565b505050919050565b611d6a6135bc565b60008181526004602052604081208054909103611d9a5760405163665c1c5760e01b815260040160405180910390fd5b600481015460ff16611dbf57604051634065aaf160e11b815260040160405180910390fd5b80600301543414611de35760405163b4fa3fb360e01b815260040160405180910390fd5b600181015460405163033fab3560e01b81526000916001600160a01b037f0000000000000000000000000000000000000000000000000000000000000000169163033fab3591611e399160040190815260200190565b600060405180830381865afa158015611e56573d6000803e3d6000fd5b505050506040513d6000823e601f3d908101601f19168201604052611e7e9190810190613b38565b5050506001860154600387015460405163152a902d60e11b8152600481019290925260248201529394506000938493506001600160a01b037f0000000000000000000000000000000000000000000000000000000000000000169250632a55205a91506044016040805180830381865afa158015611f00573d6000803e3d6000fd5b505050506040513d601f19601f82011682018060405250810190611f249190613cea565b600386015491935091506001600160a01b03831615801590611f465750600082115b8015611f56575084600301548211155b1561200657818560030154611f6b9190613cc3565b90506000836001600160a01b03168360405160006040518083038185875af1925050503d8060008114611fba576040519150601f19603f3d011682016040523d82523d6000602084013e611fbf565b606091505b5050905080611fe1576040516312171d8360e31b815260040160405180910390fd5b60008581526009602052604081208054859290611fff908490613c4e565b9091555050505b60028501546040516000916001600160a01b03169083908381818185875af1925050503d8060008114612055576040519150601f19603f3d011682016040523d82523d6000602084013e61205a565b606091505b505090508061207c576040516312171d8360e31b815260040160405180910390fd5b60018601546040516323b872dd60e01b81526001600160a01b037f000000000000000000000000000000000000000000000000000000000000000016916323b872dd916120d0913091339190600401613c2a565b600060405180830381600087803b1580156120ea57600080fd5b505af11580156120fe573d6000803e3d6000fd5b5050506000868152600860205260408120805460019350909190612123908490613c4e565b909155505060028601546001600160a01b03166000908152600a6020908152604080832088845290915281206001818101805492939192909190612168908490613cc3565b9250508190555060018160020160008282546121849190613c4e565b9250508190555086600301548160030160008282546121a39190613c4e565b92505081905550838160040160008282546121be9190613c4e565b909155505042600782015560048701805460ff1916905560018701805460009081526005602090815260408083209290925560028a0154925460038b01548351338152928301526001600160a01b03898116838501526060830189905292519290931692918b917feea9812fe16e2091f92a02e46a1488a162bc0f229203b46d16b870e1b39ec6ff919081900360800190a45050505050505061137c60018055565b6122686135e6565b6122726000613613565b565b806000036122955760405163b4fa3fb360e01b815260040160405180910390fd5b600082815260046020526040812080549091036122c55760405163665c1c5760e01b815260040160405180910390fd5b600481015460ff166122ea57604051634065aaf160e11b815260040160405180910390fd5b60028101546001600160a01b0316331461231757604051635ec8235160e01b815260040160405180910390fd5b60038101805490839055604080518281526020810185905285917f15819dd2fd9f6418b142e798d08a18d0bf06ea368f4480b7b0d3f75bd966bc48910160405180910390a250505050565b6001600160a01b0382166000908152600b6020908152604080832084845282528083208054825181850281018501909352808352606094859490939291908301828280156123cf57602002820191906000526020600020905b8154815260200190600101908083116123bb575b5050505050905060008060005b835181101561244957600460008583815181106123fb576123fb613c14565b60209081029190910181015182528101919091526040016000206004015460ff1615612433578261242b81613bfb565b935050612441565b8161243d81613bfb565b9250505b6001016123dc565b508167ffffffffffffffff81111561246357612463613a79565b60405190808252806020026020018201604052801561249c57816020015b6124896136ab565b8152602001906001900390816124815790505b5094508067ffffffffffffffff8111156124b8576124b8613a79565b6040519080825280602002602001820160405280156124f157816020015b6124de6136ab565b8152602001906001900390816124d65790505b50935060008060005b85518110156125f25760006004600088848151811061251b5761251b613c14565b6020908102919091018101518252818101929092526040908101600020815160c0810183528154815260018201549381019390935260028101546001600160a01b03169183019190915260038101546060830152600481015460ff16158015608084015260059091015460a08301529091506125bf5780898561259d81613bfb565b9650815181106125af576125af613c14565b60200260200101819052506125e9565b8088846125cb81613bfb565b9550815181106125dd576125dd613c14565b60200260200101819052505b506001016124fa565b5050505050505b9250929050565b600081815260076020908152604080832080548251818502810185019093528083526060949383018282801561265557602002820191906000526020600020905b815481526020019060010190808311612641575b505050505090506000805b825181101561272e576006600084838151811061267f5761267f613c14565b60209081029190910181015182528101919091526040016000206005015460ff1680156127135750600660008483815181106126bd576126bd613c14565b602002602001015181526020019081526020016000206004015460001480612713575042600660008584815181106126f7576126f7613c14565b6020026020010151815260200190815260200160002060040154115b15612726578161272281613bfb565b9250505b600101612660565b508067ffffffffffffffff81111561274857612748613a79565b60405190808252806020026020018201604052801561278157816020015b61276e613663565b8152602001906001900390816127665790505b5092506000805b8351811015612879576000600660008684815181106127a9576127a9613c14565b6020908102919091018101518252818101929092526040908101600020815160e0810183528154815260018201549381019390935260028101546001600160a01b0316918301919091526003810154606083015260048101546080830152600581015460ff1615801560a0840181905260069092015460c0840152919250906128415750608081015115806128415750428160800151115b156128705780868461285281613bfb565b95508151811061286457612864613c14565b60200260200101819052505b50600101612788565b50505050919050565b6060600060015b60025481116128c6576000818152600460208190526040909120015460ff16156128b4578160010191505b806128be81613bfb565b915050612889565b508067ffffffffffffffff8111156128e0576128e0613a79565b60405190808252806020026020018201604052801561291957816020015b6129066136ab565b8152602001906001900390816128fe5790505b509150600060015b60025481116129df576000818152600460208190526040909120015460ff16156129cd57600081815260046020818152604092839020835160c0810185528154815260018201549281019290925260028101546001600160a01b031693820193909352600383015460608201529082015460ff161515608082015260059091015460a082015284518590849081106129bb576129bb613c14565b60200260200101819052508160010191505b806129d781613bfb565b915050612921565b50505090565b612a2d60405180610100016040528060008152602001600081526020016000815260200160008152602001600081526020016000815260200160008152602001600081525090565b506001600160a01b0382166000908152600a60209081526040808320848452825291829020825161010081018452815481526001820154928101929092526002810154928201929092526003820154606082015260048201546080820152600582015460a0820152600682015460c082015260079091015460e082015292915050565b60076020528160005260406000208181548110612acc57600080fd5b90600052602060002001600091509150505481565b6060600060015b6002548111612bd45760008181526004602081905260409091209081015460ff1615612bc157600181015460405163033fab3560e01b81526000916001600160a01b037f0000000000000000000000000000000000000000000000000000000000000000169163033fab3591612b649160040190815260200190565b600060405180830381865afa158015612b81573d6000803e3d6000fd5b505050506040513d6000823e601f3d908101601f19168201604052612ba99190810190613b38565b5050505050509050858103612bbf578360010193505b505b5080612bcc81613bfb565b915050612ae8565b508067ffffffffffffffff811115612bee57612bee613a79565b604051908082528060200260200182016040528015612c2757816020015b612c146136ab565b815260200190600190039081612c0c5790505b509150600060015b6002548111611d5a5760008181526004602081905260409091209081015460ff1615612d7757600181015460405163033fab3560e01b81526000916001600160a01b037f0000000000000000000000000000000000000000000000000000000000000000169163033fab3591612cab9160040190815260200190565b600060405180830381865afa158015612cc8573d6000803e3d6000fd5b505050506040513d6000823e601f3d908101601f19168201604052612cf09190810190613b38565b5050505050509050868103612d75576040805160c081018252835481526001840154602082015260028401546001600160a01b03169181019190915260038301546060820152600483015460ff1615156080820152600583015460a08201528651879086908110612d6357612d63613c14565b60200260200101819052508360010193505b505b5080612d8281613bfb565b915050612c2f565b612d926135bc565b60008181526006602052604081208054909103612dc25760405163b4fa3fb360e01b815260040160405180910390fd5b600581015460ff16612de757604051634065aaf160e11b815260040160405180910390fd5b600481015415801590612dfe575042816004015411155b15612e1c57604051639cb1308760e01b815260040160405180910390fd5b60018101546040516331a9108f60e11b8152600481018290526000907f00000000000000000000000000000000000000000000000000000000000000006001600160a01b031690636352211e90602401602060405180830381865afa158015612e89573d6000803e3d6000fd5b505050506040513d601f19601f82011682018060405250810190612ead9190613a5c565b90506001600160a01b0381163314612ed857604051635ec8235160e01b815260040160405180910390fd5b60405163033fab3560e01b8152600481018390526000907f00000000000000000000000000000000000000000000000000000000000000006001600160a01b03169063033fab3590602401600060405180830381865afa158015612f40573d6000803e3d6000fd5b505050506040513d6000823e601f3d908101601f19168201604052612f689190810190613b38565b50955050505050508015612f8f57604051630e64a6df60e01b815260040160405180910390fd5b6000838152600560205260409020548015612fcb576000818152600460208181526040808420909201805460ff19169055868352600590528120555b60405163033fab3560e01b8152600481018590526000907f00000000000000000000000000000000000000000000000000000000000000006001600160a01b03169063033fab3590602401600060405180830381865afa158015613033573d6000803e3d6000fd5b505050506040513d6000823e601f3d908101601f1916820160405261305b9190810190613b38565b50505050505090506000807f00000000000000000000000000000000000000000000000000000000000000006001600160a01b0316632a55205a888a600301546040518363ffffffff1660e01b81526004016130c1929190918252602082015260400190565b6040805180830381865afa1580156130dd573d6000803e3d6000fd5b505050506040513d601f19601f820116820180604052508101906131019190613cea565b60038a015491935091506001600160a01b038316158015906131235750600082115b8015613133575088600301548211155b156131e3578189600301546131489190613cc3565b90506000836001600160a01b03168360405160006040518083038185875af1925050503d8060008114613197576040519150601f19603f3d011682016040523d82523d6000602084013e61319c565b606091505b50509050806131be576040516312171d8360e31b815260040160405180910390fd5b600085815260096020526040812080548592906131dc908490613c4e565b9091555050505b604051600090339083908381818185875af1925050503d8060008114613225576040519150601f19603f3d011682016040523d82523d6000602084013e61322a565b606091505b505090508061324c576040516312171d8360e31b815260040160405180910390fd5b60028a01546040516323b872dd60e01b81526001600160a01b037f00000000000000000000000000000000000000000000000000000000000000008116926323b872dd926132a292339216908e90600401613c2a565b600060405180830381600087803b1580156132bc57600080fd5b505af11580156132d0573d6000803e3d6000fd5b50505060008681526008602052604081208054600193509091906132f5908490613c4e565b9091555050336000908152600a602090815260408083208884529091529020861561333557600181600101600082825461332f9190613cc3565b90915550505b600181600201600082825461334a9190613c4e565b925050819055508a600301548160030160008282546133699190613c4e565b92505081905550838160040160008282546133849190613c4e565b909155505042600782015560058b01805460ff1916905560028b015460038c01546040518c928f927f537afea1137614386dde2e3f3f603a09e8ba6fbcd0a9d59b286a6f7e5fc93848926133e59233926001600160a01b0390911691613c2a565b60405180910390a3505050505050505050505061137c60018055565b6134096135bc565b600081815260066020526040812080549091036134395760405163b4fa3fb360e01b815260040160405180910390fd5b600581015460ff1661345e57604051634065aaf160e11b815260040160405180910390fd5b60028101546001600160a01b0316331461348b57604051630f147a5960e31b815260040160405180910390fd5b60058101805460ff19169055600381015460405160009133918381818185875af1925050503d80600081146134dc576040519150601f19603f3d011682016040523d82523d6000602084013e6134e1565b606091505b5050905080613503576040516312171d8360e31b815260040160405180910390fd5b600182015460405184907fc3631089d86cf1fe0600bb8be145021dc1f4dbf1053ce815836f092d69cd9bdc90600090a3505061137c60018055565b6135466135e6565b6001600160a01b03811661357557604051631e4fbdf760e01b8152600060048201526024015b60405180910390fd5b61137c81613613565b600b60205282600052604060002060205281600052604060002081815481106135a657600080fd5b9060005260206000200160009250925050505481565b6002600154036135df57604051633ee5aeb560e01b815260040160405180910390fd5b6002600155565b6000546001600160a01b031633146122725760405163118cdaa760e01b815233600482015260240161356c565b600080546001600160a01b038381166001600160a01b0319831681178455604051919092169283917f8be0079c531659141344cd1fd0a4f28419497f9722a3daafe3b4186f6b6457e09190a35050565b6040518060e00160405280600081526020016000815260200160006001600160a01b031681526020016000815260200160008152602001600015158152602001600081525090565b6040518060c00160405280600081526020016000815260200160006001600160a01b0316815260200160008152602001600015158152602001600081525090565b600080604083850312156136ff57600080fd5b50508035926020909101359150565b60008083601f84011261372057600080fd5b50813567ffffffffffffffff81111561373857600080fd5b6020830191508360208260051b85010111156125f957600080fd5b6000806000806040858703121561376957600080fd5b843567ffffffffffffffff8082111561378157600080fd5b61378d8883890161370e565b909650945060208701359150808211156137a657600080fd5b506137b38782880161370e565b95989497509550505050565b60008151808452602080850194506020840160005b838110156137f0578151875295820195908201906001016137d4565b509495945050505050565b60208152600061380e60208301846137bf565b9392505050565b60006020828403121561382757600080fd5b5035919050565b6001600160a01b038116811461137c57600080fd5b6000806040838503121561385657600080fd5b82356138618161382e565b946020939093013593505050565b80518252602080820151908301526040808201516001600160a01b031690830152606080820151908301526080808201519083015260a08082015115159083015260c090810151910152565b60e08101610b68828461386f565b600080602083850312156138dc57600080fd5b823567ffffffffffffffff8111156138f357600080fd5b6138ff8582860161370e565b90969095509350505050565b60006020828403121561391d57600080fd5b813561380e8161382e565b6020808252825182820181905260009190848201906040850190845b8181101561396a5761395783855161386f565b9284019260e09290920191600101613944565b50909695505050505050565b60008151808452602080850194506020840160005b838110156137f05781518051885283810151848901526040808201516001600160a01b0316908901526060808201519089015260808082015115159089015260a0908101519088015260c0909601959082019060010161398b565b6040815260006139f96040830185613976565b8281036020840152613a0b8185613976565b95945050505050565b60208152600061380e6020830184613976565b600080600060608486031215613a3c57600080fd5b8335613a478161382e565b95602085013595506040909401359392505050565b600060208284031215613a6e57600080fd5b815161380e8161382e565b634e487b7160e01b600052604160045260246000fd5b600082601f830112613aa057600080fd5b815167ffffffffffffffff80821115613abb57613abb613a79565b604051601f8301601f19908116603f01168101908282118183101715613ae357613ae3613a79565b8160405283815260209250866020858801011115613b0057600080fd5b600091505b83821015613b225785820183015181830184015290820190613b05565b6000602085830101528094505050505092915050565b600080600080600080600060e0888a031215613b5357600080fd5b87519650602088015195506040880151613b6c8161382e565b606089015160808a0151919650945067ffffffffffffffff80821115613b9157600080fd5b613b9d8b838c01613a8f565b945060a08a015191508115158214613bb457600080fd5b60c08a015191935080821115613bc957600080fd5b50613bd68a828b01613a8f565b91505092959891949750929550565b634e487b7160e01b600052601160045260246000fd5b600060018201613c0d57613c0d613be5565b5060010190565b634e487b7160e01b600052603260045260246000fd5b6001600160a01b039384168152919092166020820152604081019190915260600190565b80820180821115610b6857610b68613be5565b81835260006001600160fb1b03831115613c7a57600080fd5b8260051b80836020870137939093016020019392505050565b604081526000613ca660408301866137bf565b8281036020840152613cb9818587613c61565b9695505050505050565b81810381811115610b6857610b68613be5565b602081526000611101602083018486613c61565b60008060408385031215613cfd57600080fd5b8251613d088161382e565b602093909301519294929350505056fea2646970667358221220c9bf6877fe4241d8a88a28312cdd6b6e05abf25d2486b10a9e088ca226812de464736f6c63430008160033",
  "linkReferences": {},
  "deployedLinkReferences": {}
}